:100000000C94AB000C94C8000C94C8000C94C8006D
:100010000C94C8000C94C8000C94C8000C94C80040
:100020000C94C8000C94C8000C94C8000C94C80030
:100030000C94C8000C94C8000C94C8000C94C80020
:100040000C94C8000C94C8000C94C8000C94C80010
:100050000C94C8006E616E00696E660000407A10F4
:10006000F35A00A0724E18090010A5D4E80000E869
:100070007648170000E40B54020000CA9A3B0000C7
:1000800000E1F505000080969800000040420F0056
:100090000000A08601000000102700000000E80317
:1000A000000000006400000000000A0000000000E2
:1000B0000100000000002C76D888DC674F0823DFA1
:1000C000C1DFAE59E1B1B796E5E3E453C63AE65174
:1000D000997696E8E6C28426EB898C9B62ED407C9B
:1000E0006FFCEFBC9C9F40F2BAA56FA5F490055A37
:1000F0002AF75C936B6CF9676DC11BFCE0E40D475C
:10010000FEF520E6B500D0ED902E0300943577057E
:100110000080841E080000204E0A000000C80C3336
:100120003333330F986E12831141EF8D2114893BC5
:10013000E65516CFFEE6DB18D1844B381BF77C1D45
:10014000901DA4BBE424203284725E228100C9F198
:1001500024ECA1E53D2711241FBECFE5D8E0DEBF8A
:10016000CDBF11E0A0E6B0E0E2E3FDE102C0059002
:100170000D92AE31B107D9F711E0AEE1B1E001C0A7
:100180001D92A133B107E1F70E94E1010C94970E93
:100190000C940000AF92BF92CF92DF92EF92FF9249
:1001A0000F931F93A0902301B0902401C0902501CC
:1001B000D0902601C601B50120E030E040ED51E4C9
:1001C0000E945D0C181634F482B3867F82BB1092B5
:1001D0001E0146C080911E018823B9F460911F0161
:1001E00070912001809121019091220120E030E066
:1001F00040EB51E40E945D0C8823F4F082B38960E7
:1002000082BB81E080931E0117C08130A9F4609108
:100210001F0170912001809121019091220120E025
:1002200030E040EA51E40E947B0B18162CF082B3B8
:10023000867F82BB10921E01C601B50120E030E02E
:1002400040ED51E40E945D0C882354F4C601B501D1
:1002500020E030E040E251E40E947B0B18161CF0D5
:1002600082B3826102C082B38D7E82BBE0901F01A7
:10027000F09020010091210110912201C801B701E5
:1002800020E030E040ED51E40E945D0C8823A4F4AE
:10029000C801B70120E030E040E251E40E947B0B4E
:1002A000181654F4C601B50120E030E040E251E4F4
:1002B0000E947B0B88231CF482B3846202C082B349
:1002C0008B7D82BB1F910F91FF90EF90DF90CF90BD
:1002D000BF90AF900895EF92FF920F931F93E0901D
:1002E0002301F09024010091250110912601C801FD
:1002F000B70120E030E040E052E40E945D0C1816A7
:100300002CF49398909810921E0146C080911E0183
:100310008823B9F460911F0170912001809121011F
:100320009091220120E030E040EB51E40E945D0C0E
:100330008823F4F082B3896082BB81E080931E0140
:1003400017C08130A9F460911F0170912001809144
:1003500021019091220120E030E040EA51E40E9426
:100360007B0B18162CF082B3867F82BB10921E0185
:10037000C801B70120E030E040E052E40E945D0C8B
:10038000882354F4C801B70120E030E040E251E492
:100390000E947B0B18161CF082B3826102C082B3EC
:1003A0008D7E82BB0E94A00483E060E00E94A804CE
:1003B00080E690E00E94B7041F910F91FF90EF90AC
:1003C00008958F929F92AF92BF92CF92DF92EF9259
:1003D000FF920F931F93DF93CF93CDB7DEB7CC5B24
:1003E000D0400FB6F894DEBF0FBECDBFDE011A9627
:1003F000EFEFF0E08EE001900D928150E1F7DE0129
:100400001196EDE0F1E089E001900D928150E1F765
:100410006DB77EB76A5070400FB6F8947EBF0FBEBE
:100420006DBFEDB7FEB73196CE01C996ADB7BEB779
:1004300012969C938E9311978BE690E09383828320
:100440004AE1E42EF12CF582E48286E190E0978384
:10045000868384E190E0918780870E94150E0F903B
:100460000F90EDB7FEB73196CE01865A9F4FADB7CC
:10047000BEB712969C938E93119781E890E0938378
:100480008283F582E4820AE010E0178306830E94EB
:10049000150E00D0EDB7FEB73196CE0185589F4FAF
:1004A000ADB7BEB712969C938E93119781E990E0F9
:1004B00093838283F582E482178306831187008702
:1004C0000E94150E0F900F900F900F90EDB7FEB792
:1004D0003196CE0184569F4FADB7BEB712969C930E
:1004E0008E93119787EA90E09383828380E290E075
:1004F000958384830E94150E48B386B321E030E0D3
:10050000B90102C0660F771F8A95E2F7462B48BBF8
:1005100047B386B3D90102C0AA0FBB1F8A95E2F781
:10052000CD018095842387BB48B386B3B90102C04F
:10053000660F771F8A95E2F7462B48BB97B386B3C1
:1005400002C0220F331F8A95E2F72095292327BB8B
:1005500081B3896081BB12BA81B3826181BB12BA57
:1005600081B3846281BB12BA8E9A18BA8DB79EB7D6
:1005700006960FB6F8949EBF0FBE8DBF80E069EC63
:100580004DE720E00E94910681E069EC4DE720E014
:100590000E9491060E945A040E945A050E94A004DB
:1005A00082E060E00E94A804CE010A960E94B7048F
:1005B00060E070E08AE794E40E94A5030E94A00432
:1005C00084E060E00E94A8040E945605CE010196D6
:1005D0000E94B70460E070E08AE794E40E94A503FB
:1005E0000E94A0040E945A05EE2410E000E038E1C9
:1005F000A32EB12CAC0EBD1E21E2F22E9CED892E55
:1006000090E0992E8FEDC82ED12C11C082B3867F39
:1006100082BB10921E0182B3826182BB82B384626C
:1006200082BB0E94A40483EB90E00E94B70480E0A8
:100630006FE171E00E94EC06882391F0E7CF82B36E
:10064000867F82BB10921E0182B3826182BB82B31D
:10065000846282BB0E94A40487EC90E00E94B704ED
:1006600081E063E271E00E94EC06882341F7B099D3
:1006700003C0112309F411E0B09B02C010E003C0D5
:10068000112309F05CC0B19912C0EE2081F460E042
:1006900070E080E89FE30E94A5030E94A00404305C
:1006A00010F000E001C00F5F969AEE24E394B19B36
:1006B00002C09698EE240E94CA000023C1F5ADB78F
:1006C000BEB750970FB6F894BEBF0FBEADBFEDB723
:1006D000FEB731961296BC92AE92119793828282A7
:1006E00080911F0190912001A0912101B0912201E0
:1006F00084839583A683B783D186C08680912301A6
:1007000090912401A0912501B091260182879387C1
:10071000A487B587D786C6860E94150E6DB77EB7AB
:10072000605F7F4F0FB6F8947EBF0FBE6DBF0E9413
:10073000A4040F9DC00111248A0D9B1D76CF0E9439
:100740006B0175CF0197F1F70895AF92BF92CF92E9
:10075000DF92EF92FF920F931F935B016C0120E0F9
:1007600030E04AEF54E40E94610C7B018C0120E0F0
:1007700030E040E85FE30E947B0B88231CF461E0DB
:1007800070E024C0C801B70120E03FEF4FE757E415
:100790000E945D0C1816B4F4C601B50120E030E0EB
:1007A00040E251E40E94610C0E947F0B88EC90E0D3
:1007B00005C0FC013197F1F761507040611571057A
:1007C000C1F707C0C801B7010E947F0BCB01019799
:1007D000F1F71F910F91FF90EF90DF90CF90BF90B6
:1007E000AF900895AC0120E001C02F5FFA01E20F45
:1007F000F11D80818823C9F7822F08950F931F93DD
:10080000082F0095802F807F8BBBD89ADA9A60E002
:1008100070E080E89FE30E94A503DA98D89860E032
:1008200070E080E89FE30E94A50310E084E0000FE1
:10083000111F8A95E1F70BBBD89ADA9A60E070E055
:1008400080E89FE30E94A503DA98D89860E070E002
:1008500080E89FE30E94A5031F910F9108950F93D5
:100860001F93082F807F8BBBDA9A60E070E080E8EE
:100870009FE30E94A503DA9860E070E080E89FE3C0
:100880000E94A50310E094E0000F111F9A95E1F774
:100890000BBBDA9A60E070E080E89FE30E94A5035A
:1008A000DA9860E070E080E89FE30E94A5031F9162
:1008B0000F9108951F9360E070E080E791E40E943B
:1008C000A5031BBA1BBA8AB3806F8ABB8AB3876041
:1008D0008ABB10E31BBBDA9A60E070E080E89FE31C
:1008E0000E94A503DA9860E070E080E89FE30E9430
:1008F000A5031BBBDA9A60E070E080E89FE30E94EA
:10090000A503DA9860E070E080E89FE30E94A50309
:1009100080E28BBBDA9A60E070E080E89FE30E949F
:10092000A503DA9860E070E080E89FE30E94A503E9
:1009300088E20E942F048EE00E942F041F910895E8
:1009400081E00E942F04089582E00E942F04089500
:10095000623031F0633031F0613029F4805C03C0E3
:100960008C5E01C08C5A80680E942F040895FF920B
:100970000F931F93CF93DF93EC010097B1F100E049
:1009800010E0FF2416C08A3089F4102F04C080E2E2
:100990000E94FE031F5F1031D0F380E061E00E94EF
:1009A000A804102F1250FF24F39402C00E94FE03EB
:1009B0000F5FFE01E00FF11D8081882321F7011BED
:1009C000102F04C080E20E94FE031F5F1131D0F39C
:1009D000FF2059F480E061E00E94A80410E080E26A
:1009E0000E94FE031F5F1031D1F7DF91CF911F915D
:1009F0000F91FF9008951F93CF93DF93EC01862F03
:100A0000642F0E94A80410E003C00E94FE031F5F31
:100A1000FE01E10FF11D84918823B9F7DF91CF9199
:100A20001F910895EF92FF920F931F93CF93DF933F
:100A30007C01162F110F110F110F1064C0E0D0E0D0
:100A4000F701EC0FFD1F0491812F8C0F0E942F04E2
:100A5000802F0E94FE032196C830D10589F7DF91CF
:100A6000CF911F910F91FF90EF9008950F931F93D7
:100A7000082F10E004C08EE10E942F041F5F1017A2
:100A8000D0F31F910F9108950F931F93082F10E03B
:100A900004C088E10E942F041F5F1017D0F31F913C
:100AA0000F9108958EE00E942F0408958FE00E9418
:100AB0002F0408958CE00E942F04089588E00E947E
:100AC0002F0408958CE00E942F0408950F931F9324
:100AD000082F10E004C080E10E942F041F5F101750
:100AE000D0F31F910F9108950F931F93082F10E0DB
:100AF00004C084E10E942F041F5F1017D0F31F91E0
:100B00000F91089524B381E090E00090300102C07D
:100B1000880F991F0A94E2F78095822384BB089579
:100B200024B381E090E00090300102C0880F991F4B
:100B30000A94E2F7282B24BB089525B381E090E0C6
:100B40000090300102C0880F991F0A94E2F7809547
:100B5000822385BB089525B381E090E000903001A9
:100B600002C0880F991F0A94E2F7282B25BB08952D
:100B700002C0000001970097E1F7089585B321E0D6
:100B800030E00090300102C0220F331F0A94E2F7D8
:100B9000522F422F4095842385BB84B3822B84BB84
:100BA00080EE91E001C0000001976FEF8F3F960744
:100BB000D1F784B3482344BB8CE390E001C000002C
:100BC00001974FEF8F3F9407D1F763B384EA91E029
:100BD00001C0000001974FEF8F3F9407D1F783B317
:100BE00040E090E0282339235623852F90E02817F2
:100BF000390709F441E0842F089595B321E030E0EE
:100C00000090300102C0220F331F0A94E2F7322F06
:100C10003095932395BB94B3292B24BB00008823E4
:100C200019F084B3832384BB8CE390E001C00000FF
:100C300001972FEF8F3F9207D1F784B3382334BB4E
:100C4000089525B34091300181E090E0042E02C068
:100C5000880F991F0A94E2F7382F3095232325BB7C
:100C600024B3822B84BB000084B3382334BB8EE0D2
:100C700090E001C0000001972FEF8F3F9207D1F75E
:100C800083B32DE230E001C00000215030409FEFDF
:100C90002F3F3907C9F790E002C0959587954A958F
:100CA000E2F7817008950F931F9308E010E009C0E8
:100CB0000E942106912F9695182F179511271795A9
:100CC000192B0150A8F7812F1F910F9108950F93B1
:100CD0001F93082F18E005C0802F81700E94FD052A
:100CE00006951150C8F71F910F910895FC0140E03F
:100CF00090E058E112C0308120E0892F832780FFE7
:100D000004C095279695906801C096952F5F28306E
:100D100011F03695F2CF4F5F3196461760F3892F69
:100D20000895FF920F931F93F62E042F122F8823FE
:100D300019F01092300103C081E0809330010E94CD
:100D4000BE05882311F081E022C08CEC0E9467066A
:100D50008EE40E946706802F0E9467068F2D0E94F6
:100D600067061295110F107E812F8F610E94670612
:100D700088E40E94670687E99AE301C000000197B2
:100D80002FEF8F3F9207D1F70E94BE0580E01F91A1
:100D90000F91FF900895CF93DF930E94BE058CECD6
:100DA0000E9467068EEB0E946706C7E2D1E00E94B0
:100DB0005306899381E0C033D807C9F7CE0109975C
:100DC00068E00E94760620E090912F01891321E0CF
:100DD000822FDF91CF9108958F929F92BF92CF92F1
:100DE000DF920F93DF93CF93CDB7DEB72C970FB67B
:100DF000F894DEBF0FBECDBF4B01DE011196E6E1D8
:100E0000F1E098E001900D929150E1F7882319F0FC
:100E10001092300103C081E0809330010E94BE0532
:100E2000882309F06CC08CEC0E94670684E40E9461
:100E300067060E9421068823E1F30E94CB068823DF
:100E400009F05DC00E94BE050E94BE05B0902B0156
:100E500080912701C82EDD249091280180E0C82AC6
:100E6000D92AD7FC02C000E005C0D094C194D108B3
:100E7000D39401E0B60124E0769567952A95E1F7D1
:100E800070E0882777FD8095982F0E94AD0B6987C9
:100E90007A878B879C87B294B69497E0B922EB2D22
:100EA000F0E0E370F070EE0FFF1FEC0FFD1F6181AB
:100EB0006C2170E0882777FD8095982F0E94AD0BFC
:100EC00020E030E040E85DE30E94610C9B01AC0152
:100ED00069857A858B859C850E94170BF401608358
:100EE000718382839383002341F0DC01CB01B058EE
:100EF000F40180839183A283B38380E001C081E009
:100F00002C960FB6F894DEBF0FBECDBFCF91DF9108
:100F10000F91DF90CF90BF909F908F900895A1E1A7
:100F2000B0E0E5E9F7E00C94C40C3C017F876E87E4
:100F30006A01FC0117821682838181FD03C06FEF75
:100F40007FEF6FC39E012F5F3F4F398B288BF301DB
:100F50002381EE85FF8523FD859123FF8191FF8706
:100F6000EE87882309F45AC3853251F4EE85FF8554
:100F700023FD859123FF8191FF87EE87853229F438
:100F800090E0B3010E94E90DE2CF982F10E0882491
:100F900099241032B0F49B3269F09C3228F49032DC
:100FA00051F0933271F40BC09D3239F0903349F413
:100FB000116028C01260146025C0186023C0106141
:100FC00021C017FD2AC0892F80538A3078F416FF7C
:100FD00006C0FAE09F9E902C1124980E13C03AE0B0
:100FE000839E802C1124880E10620CC09E3221F446
:100FF00016FD14C3106406C09C3611F4106802C0BC
:10100000983659F4EE85FF8523FD959123FF919144
:10101000FF87EE87992309F0BCCF892F8554833051
:1010200020F4812F8061905E07C0892F8556833020
:1010300008F09FC1812F8F7E86FD02C076E0972E3B
:101040006FE3F62EF822953619F4F0E4FF2A07C074
:10105000963619F420E8F22A02C091109A94F7FE0D
:101060000AC03BE3391518F45CE3B52E02C0B92C75
:10107000B39427E009C047E0491520F4BB2447E0BA
:10108000942EF7CF292DBB24C60104969D878C870B
:10109000F6016081718182819381AE014F5F5F4F64
:1010A0000B2D0E94FB0C6C010981202E332400FFC4
:1010B00004C003FD02C01DE209C0F1FE02C01BE234
:1010C00005C0F2FC02C010E001C010E2C1018C704A
:1010D0009070892BB9F1112311F483E001C084E0F1
:1010E000881510F088240AC0881AF3FC07C080E233
:1010F00090E0B3010E94E90D8A94C9F7112329F009
:10110000812F90E0B3010E94E90D23FE03C004E5A6
:1011100010E00EC008E510E00BC0E114F10409F086
:10112000805290E0B3010E94E90D0F5F1F4F05C090
:10113000EF2CFF24F0E1EF22FF24F80184918823B3
:1011400061F714C1F7FE12C0BC0C24FE04C08A81F2
:10115000813309F4BA941B141CF0BB24B3942DC042
:10116000F8E0FB1550F538E0B32E27C0F6FC25C09B
:10117000892D90E08C159D054CF02CEFC2162FEFB9
:10118000D20624F030E8F32A01C09A94992049F05D
:10119000E2E0F0E0EC0FFD1FE90DF11D80818033EE
:1011A000A1F3F7FE0AC0B92CB394892D90E0C816BC
:1011B000D90614F0992401C09C18F7FC03C025E05F
:1011C00030E009C01C141D041CF021E030E003C015
:1011D00096012F5F3F4F112311F02F5F3F4F992052
:1011E00029F0892D90E00196280F391F882D90E075
:1011F0002817390714F0882401C0821A4F2C55246F
:10120000C20189709070892B39F008C080E290E0AB
:10121000B3010E94E90D8A948820C1F7112329F0B7
:10122000812F90E0B3010E94E90D43FE07C008C082
:1012300080E390E0B3010E94E90D8A948820C1F711
:10124000F7FE46C08601D7FE02C000E010E076013E
:101250000894E11CF11CE01AF10A41E050E04C0F47
:101260005D1FE40EF51E26014B185108892D90E0F4
:10127000AA24BB24A81AB90A5FEF0F3F150729F467
:101280008EE290E0B3010E94E90DC016D10634F061
:10129000401651061CF4F701808101C080E3015023
:1012A00010400894E11CF11C0A151B052CF090E07D
:1012B000B3010E94E90DE0CF0C151D0539F49A81A8
:1012C000963318F4953311F424FE81E390E04BC07B
:1012D0008A81813309F00F7E90E0B3010E94E90D0D
:1012E0009920A1F08EE290E0B3010E94E90D12E096
:1012F000E1E0F0E0EC0FFD1FE10FF11D1F5F8081C9
:1013000090E0B3010E94E90D9A9491F744FC03C068
:1013100085E690E002C085E490E0B3010E94E90D0B
:10132000D7FC05C0C114D10441F404FF06C0D09419
:10133000C194D108D3948DE201C08BE290E0B30157
:101340000E94E90D80E305C08F5F26EF3FEFC20EDC
:10135000D31E3AE0C316D104BCF790E0B3010E945B
:10136000E90DC601C096B3010E94E90DCC84DD846D
:1013700052C1933631F0933799F0933509F059C043
:1013800023C0F601808189835E010894A11CB11CF1
:1013900022E030E0C20ED31E21E0E22EF12C12C07A
:1013A000F601A080B18016FD03C06FEF7FEF02C091
:1013B000692D70E022E030E0C20ED31EC5010E940C
:1013C000DE0D7C011F7713C0F601A080B18016FDF1
:1013D00003C06FEF7FEF02C0692D70E022E030E0C4
:1013E000C20ED31EC5010E94D30D7C01106813FFED
:1013F00007C01BC080E290E0B3010E94E90D8A940F
:10140000882D90E0E816F906A8F30FC0F50117FD46
:10141000859117FF81915F0190E0B3010E94E90D72
:1014200081108A940894E108F108E114F10471F73D
:10143000F2C0943611F0993689F517FF08C0F6010D
:10144000208131814281538184E090E00AC0F6011D
:10145000808191819C01442737FD4095542F82E083
:1014600090E0C80ED91E9FE6F92EF12257FF09C061
:1014700050954095309521953F4F4F4F5F4F90E8E5
:10148000F92ACA01B901AE014F5F5F4F2AE030E08F
:101490000E94390EE82EE889EE1A41C0953721F4F2
:1014A0001F7E2AE030E01CC0197F9F3661F0903724
:1014B00020F4983509F0B2C00FC0903739F0983752
:1014C00009F0ACC004C028E030E00AC0106114FD8F
:1014D000146020E130E004C014FD166020E132E029
:1014E00017FF08C0F601608171818281938144E019
:1014F00050E008C0F60180819181BC0180E090E05D
:1015000042E050E0C40ED51EAE014F5F5F4F0E9417
:10151000390EE82E5889E51A8FE7F82EF122F6FEEB
:101520000BC08EEFF822E91438F4F4FE07C0F2FC89
:1015300005C09FEEF92202C01E2D01C0192DF4FE38
:101540000DC0FE01EE0DF11D8081803319F4E9EE2E
:10155000FE2208C01F5FF2FE05C003C08F2D8678F3
:1015600009F01F5F0F2DF3FC14C0F0FE0FC018151B
:1015700010F09E2C0BC09E2C980C911A182D06C0B2
:1015800080E290E0B3010E94E90D1F5F1815C0F3DF
:1015900004C0181510F4811A01C0882404FF0FC07C
:1015A00080E390E0B3010E94E90D02FF1DC001FD40
:1015B00003C088E790E00EC088E590E00BC0802F64
:1015C000867891F001FF02C08BE201C080E2F7FC57
:1015D0008DE290E0B3010E94E90D06C080E390E047
:1015E000B3010E94E90D9A94E914C0F3EA94E1E092
:1015F000F0E0EC0FFD1FEE0DF11D808190E0B301D6
:101600000E94E90DEE2091F706C080E290E0B30160
:101610000E94E90D8A948820C1F799CCF301668174
:101620007781CB016196E2E10C94E00C5058BB2726
:10163000AA270ED008C1F9D030F0FED020F031F446
:101640009F3F11F41EF4EEC00EF4E095E7FBE4C0FA
:10165000E92F0AD180F3BA17620773078407950749
:1016600018F071F49EF522C10EF4E0950B2EBA2FFE
:10167000A02D0B01B90190010C01CA01A001112498
:10168000FF27591B99F0593F50F4503E68F11A1644
:10169000F040A22F232F342F4427585FF3CF4695D5
:1016A00037952795A795F0405395C9F77EF41F16F7
:1016B000BA0B620B730B840BBAF09150A1F0FF0FC1
:1016C000BB1F661F771F881FC2F70EC0BA0F621FAD
:1016D000731F841F48F4879577956795B795F7959D
:1016E0009E3F08F0B3CF9395880F08F09927EE0F2F
:1016F0009795879508956CD008F481E00895BCD043
:1017000088F09F5790F0B92F9927B751A0F0D1F0EA
:10171000660F771F881F991F1AF0BA95C9F712C074
:10172000B13081F0C3D0B1E00895C0C0672F782FE9
:101730008827B85F39F0B93FCCF3869577956795E0
:10174000B395D9F73EF490958095709561957F4F4C
:101750008F4F9F4F0895E89409C097FB3EF49095F2
:101760008095709561957F4F8F4F9F4F9923A9F07A
:10177000F92F96E9BB279395F69587957795679509
:10178000B795F111F8CFFAF4BB0F11F460FF1BC04D
:101790006F5F7F4F8F4F9F4F16C0882311F096E9E0
:1017A00011C0772321F09EE8872F762F05C066238E
:1017B00071F096E8862F70E060E02AF09A95660F47
:1017C000771F881FDAF7880F9695879597F9089500
:1017D000990F0008550FAA0BE0E8FEEF1616170642
:1017E000E807F907C0F012161306E407F50798F0AA
:1017F000621B730B840B950B39F40A2661F0232BC3
:10180000242B252B21F408950A2609F4A140A6953E
:101810008FEF811D811D089597F99F6780E870E023
:1018200060E008959FEF80EC089500240A94161656
:10183000170618060906089500240A9412161306BE
:10184000140605060895092E0394000C11F488234C
:1018500052F0BB0F40F4BF2B11F460FF04C06F5F68
:101860007F4F8F4F9F4F089557FD9058440F551F3E
:1018700059F05F3F71F04795880F97FB991F61F012
:101880009F3F79F087950895121613061406551F89
:10189000F2CF4695F1DF08C0161617061806991FF5
:1018A000F1CF86957105610508940895E894BB27EA
:1018B00066277727CB0197F908958ADF08F48FEF21
:1018C00008950BD0C0CFB1DF28F0B6DF18F0952314
:1018D00009F0A2CFA7CF1124EACFC6DFA0F3959FCE
:1018E000D1F3950F50E0551F629FF001729FBB2707
:1018F000F00DB11D639FAA27F00DB11DAA1F649FB3
:101900006627B00DA11D661F829F2227B00DA11D65
:10191000621F739FB00DA11D621F839FA00D611DEB
:10192000221F749F3327A00D611D231F849F600D0C
:10193000211D822F762F6A2F11249F5750408AF045
:10194000E1F088234AF0EE0FFF1FBB1F661F771FD1
:10195000881F91505040A9F79E3F510570F05CCF11
:10196000A6CF5F3FECF3983EDCF3869577956795BD
:10197000B795F795E7959F5FC1F7FE2B880F911DEF
:101980009695879597F908952F923F924F925F927F
:101990006F927F928F929F92AF92BF92CF92DF927F
:1019A000EF92FF920F931F93CF93DF93CDB7DEB7E4
:1019B000CA1BDB0B0FB6F894DEBF0FBECDBF099478
:1019C0002A88398848885F846E847D848C849B84CF
:1019D000AA84B984C884DF80EE80FD800C811B81DD
:1019E000AA81B981CE0FD11D0FB6F894DEBF0FBE0C
:1019F000CDBFED010895283008F027E03327DA0144
:101A0000990F311D87FD916000966105710539F4CC
:101A100032602E5F3D9330E32A95E1F708959F3FB2
:101A200030F080387105610509F03C5F3C5F3D9303
:101A3000913008F08068911DDF93CF931F930F932F
:101A4000FF92EF92192F987F9695E92F969596958C
:101A5000E90FFF27EA54FF4F99273327EE24FF248D
:101A6000A701E70105900894079428F4360FE71EB4
:101A7000F81E491F511D660F771F881F991F069476
:101A8000A1F70590079428F4E70EF81E491F561F8A
:101A9000C11D770F881F991F661F0694A1F7059037
:101AA000079428F4F80E491F561FC71FD11D880F31
:101AB000991F661F771F0694A1F70590079420F4DD
:101AC000490F561FC71FD81F990F661F771F881F02
:101AD0000694A9F784911095177041F0D695C79593
:101AE00057954795F794E7941A95C1F7ECE5F0E020
:101AF00068941590159135916591959105907FE2C7
:101B00007395E118F10A430B560BC90BD009C0F7C6
:101B1000E10CF11E431F561FC91FD01D7EF4703308
:101B200011F48A95E6CFE894015030F0080F0AF4DA
:101B30000027021708F4202F2395022F7A3328F06C
:101B400079E37D932A95E9F710C07D932A9589F66C
:101B5000069497956795379517951794E118F10AAC
:101B6000430B560BC90BD00998F023957E917395C2
:101B70007A3308F070E37C932013B8F77E9170619C
:101B80007D9330F0839571E37D9370E32A95E1F7BF
:101B90001124EF90FF900F911F91CF91DF91992722
:101BA00087FD90950895FC010590615070400110EB
:101BB000D8F7809590958E0F9F1F0895FC01615076
:101BC000704001900110D8F7809590958E0F9F1F5F
:101BD00008950F931F93CF93DF938C01EB018B81BB
:101BE00081FF1BC082FF0DC02E813F818C819D81B2
:101BF0002817390764F4E881F9810193F983E883B0
:101C000006C0E885F985802F0995892B31F48E81EE
:101C10009F8101969F838E8302C00FEF1FEFC80143
:101C2000DF91CF911F910F910895AEE0B0E0EBE10D
:101C3000FEE00C94D20C0D891E8986E08C831A83F9
:101C400009838FEF9FE79E838D839E01275E3F4F21
:101C5000CE0101966F89788DA9010E948F072F818F
:101C60003885020F131FF80110822E96E4E00C94C1
:101C7000EE0CFA01AA27283051F1203181F1E894C5
:101C80006F936E7F6E5F7F4F8F4F9F4FAF4FB1E06F
:101C90003ED0B4E03CD0670F781F891F9A1FA11D6A
:101CA000680F791F8A1F911DA11D6A0F711D811D6B
:101CB000911DA11D20D009F468943F912AE0269F30
:101CC00011243019305D3193DEF6CF010895462F8F
:101CD0004770405D4193B3E00FD0C9F7F6CF462F70
:101CE0004F70405D4A3318F0495D31FD40524193D9
:101CF00002D0A9F7EACFB4E0A69597958795779596
:101D00006795BA95C9F700976105710508959B011C
:101D1000AC010A2E06945795479537952795BA95A5
:101D2000C9F7620F731F841F951FA01D0895F894B3
:021D3000FFCFE3
:101D3200414C41524D20323230560046414E2054E1
:101D4200313D25642054323D25640A54333D2564D7
:101D5200005348552054343D25642054353D2564B4
:101D620000434F4E2054363D25642054373D2564B0
:101D72000A54383D256400414C41524D2054393DAE
:101D82002564004572726F720A496E646F6F722029
:101D920073656E736F72004572726F720A4F75745B
:101DA200646F6F722073656E736F7200496E646F39
:101DB2006F723A20252B2E31662563430A4F7574C4
:101DC200646F6F723A20252B2E31662563430043E0
:101DD2004F4F4C45522053595354454D00494E5490
:0E1DE200454752414C0008000C000E000F0057
:00000001FF
