:100000000C94AB000C94C8000C94C8000C94C8006D
:100010000C94C8000C94C8000C94C8000C94C80040
:100020000C94C8000C94C8000C94C8000C94C80030
:100030000C94C8000C94F3000C94C8000C94D300EA
:100040000C94C8000C94C8000C94C8000C94C80010
:100050000C94C8006E616E00696E660000407A10F4
:10006000F35A00A0724E18090010A5D4E80000E869
:100070007648170000E40B54020000CA9A3B0000C7
:1000800000E1F505000080969800000040420F0056
:100090000000A08601000000102700000000E80317
:1000A000000000006400000000000A0000000000E2
:1000B0000100000000002C76D888DC674F0823DFA1
:1000C000C1DFAE59E1B1B796E5E3E453C63AE65174
:1000D000997696E8E6C28426EB898C9B62ED407C9B
:1000E0006FFCEFBC9C9F40F2BAA56FA5F490055A37
:1000F0002AF75C936B6CF9676DC11BFCE0E40D475C
:10010000FEF520E6B500D0ED902E0300943577057E
:100110000080841E080000204E0A000000C80C3336
:100120003333330F986E12831141EF8D2114893BC5
:10013000E65516CFFEE6DB18D1844B381BF77C1D45
:10014000901DA4BBE424203284725E228100C9F198
:1001500024ECA1E53D2711241FBECFE5D8E0DEBF8A
:10016000CDBF11E0A0E6B0E0EAE0FEE102C00590FC
:100170000D92A233B107D9F711E0A2E3B1E001C0BB
:100180001D92A138B107E1F70E9423010C94030FDF
:100190000C94000083E389B910BC86E880BD88ED2B
:1001A0008AB9789408951F920F920FB60F92112476
:1001B0008F93EF93FF93E0913401F09135018081AB
:1001C000882339F08CB93196F0933501E0933401EE
:1001D00002C010923301FF91EF918F910F900FBEEB
:1001E0000F901F9018951F920F920FB60F92112427
:1001F0008F939F938CB18A3039F08A30E8F08B303E
:1002000049F08C30C9F40CC0809168018CB989E642
:1002100091E00BC080916F018CB980E791E005C03F
:10022000809157018CB988E591E0909335018093D6
:10023000340181E0809333019F918F910F900FBE25
:100240000F901F9018952F923F924F925F926F924E
:100250007F928F929F92AF92BF92CF92DF92EF9256
:10026000FF920F931F93DF93CF93CDB7DEB7A39782
:100270000FB6F894DEBF0FBECDBFDE011C96E1E1E4
:10028000F1E088E101900D928150E1F780E090E08B
:10029000A0E0B0E088879987AA87BB8783E389B904
:1002A00010BC86E880BD88ED8AB978940E94FD0272
:1002B00080E061E040E00E944A060E94BE030E9486
:1002C000820480E690E00E94070480E197E220E942
:1002D00031E0F9013197F1F70197D9F70E94F00366
:1002E00058E6A52E51E0B52E4FED242E312C2E01CF
:1002F0000894411C511C3FE6632E31E0732E27E524
:10030000822E21E0922ECE0108960E94260780912F
:1003100032018823A1F0688579858A859B8526E648
:1003200036E646EE5FE30E94760C20E030E040E0E7
:1003300052E40E944F0B688779878A879B87C8841D
:10034000D984EA84FB84C701B6012DEC3CEC47EC70
:1003500052E40E94720C181634F500D000D000D080
:100360000DB71EB70F5F1F4FADB7BEB71296BC9249
:10037000AE9211978CE790E0F80193838283C701D6
:10038000B6010E94B30BD80115967C936E93149717
:100390000E94810EEDB7FEB736960FB6F894FEBFF9
:1003A0000FBEEDBF23C08DB79EB708970FB6F89468
:1003B0009EBF0FBE8DBFEDB7FEB73196ADB7BEB7CE
:1003C0001296BC92AE92119780E890E0938382835C
:1003D000C482D582E682F7820E94810EADB7BEB795
:1003E00018960FB6F894BEBF0FBEADBF80E060E0B8
:1003F0000E94F803809132018823A1F0EDB7FEB787
:1004000038970FB6F894FEBF0FBEEDBF319686E366
:1004100091E0ADB7BEB712969C938E931197A6E864
:10042000B0E015C08DB79EB708970FB6F8949EBF81
:100430000FBE8DBFEDB7FEB7319686E391E0ADB745
:10044000BEB712969C938E931197ADE8B0E0B3833C
:10045000A283B582A482378226820E94810EEDB7E4
:10046000FEB738960FB6F894FEBF0FBEEDBF86E319
:1004700091E00E94070488E060E00E94F803C20156
:10048000BE016E5F7F4FAE014D5F5F4F9E012C5FDF
:100490003F4F0E94D60529813A814B818DB79EB787
:1004A00040970FB6F8949EBF0FBE8DBFEDB7FEB755
:1004B0003196ADB7BEB712967C926E92119784E9D1
:1004C00090E093838283822F6AE00E94FD0C8483F4
:1004D0001582822F0E94FD0C96831782832F0E9423
:1004E000FD0C80871186832F0E94FD0C9287138656
:1004F000842F0E94FD0C84871586842F0E94FD0C9A
:10050000968717860E94810EADB7BEB750960FB67C
:10051000F894BEBF0FBEADBFC3010E940704CE0159
:100520000596BE016A5F7F4FAE01495F5F4F0E9433
:100530007C052D813F81EDB7FEB770970FB6F8941B
:10054000FEBF0FBEEDBFADB7BEB7119692828182DE
:1005500083EA90E013969C938E931297EC81F0E0DF
:10056000EE0FFF1FEF52FF4F8081918115969C93F4
:100570008E931497822F6AE00E94FD0C16968C933E
:10058000169717961C921797822F0E94FD0C1896AB
:100590009C93189719961C921997EE81F0E0319769
:1005A000EE0FFF1FE40DF51D838594851B969C932C
:1005B0008E931A97832F0E94FD0C1C968C931C9788
:1005C0001D961C921D97832F0E94FD0C1E969C93D6
:1005D0001E971F961C920E94810EADB7BEB7509613
:1005E0000FB6F894BEBF0FBEADBF80E061E00E94C1
:1005F000F803C4010E94070486CE11B888E480B9CC
:100600000895982F84EA86BF06B607FEFDCF81B114
:10061000887F883021F0803111F081E0089593B90E
:1006200084E886BF06B607FEFDCF91B1987F98316A
:1006300011F480E0089580E0903409F081E008959D
:1006400044EA34E824E946BF06B607FEFDCF91B17F
:10065000987F983011F09031B1F783B936BF06B664
:1006600007FEFDCF91B1987F903211F0983529F4B3
:1006700026BF06B604FCFDCFE6CF08950E94010315
:10068000089584E986BF089583B984E886BF06B6D5
:1006900007FEFDCF81B190E0887F883209F091E0BC
:1006A000892F089584EC86BF06B607FEFDCF83B17F
:1006B000089584E886BF06B607FEFDCF83B108958E
:1006C000813059F484EC86BF06B607FEFDCF81B1B8
:1006D000887F803539F080E0089584E886BF06B6CB
:1006E00007FEFDCF83B10895AC0120E001C02F5F6C
:1006F000FA01E20FF11D80818823C9F7822F089546
:10070000282F207F2BBBD89ADA9A20EA3FE0F90104
:100710003197F1F7DA98D898F9013197F1F790E02D
:1007200044E0880F991F4A95E1F78BBBD89ADA9A73
:10073000C9010197F1F7DA98D898C9010197F1F743
:100740000895282F207F2BBBDA9A20EA3FE0F90199
:100750003197F1F7DA98F9013197F1F790E054E029
:10076000880F991F5A95E1F78BBBDA9AC901019757
:10077000F1F7DA98C9010197F1F7089580E69AEE4A
:100780000197F1F71BBA1BBA8AB3806F8ABB8AB391
:1007900087608ABB80E38BBBDA9A20EA3FE0F901ED
:1007A0003197F1F7DA98F9013197F1F78BBBDA9AC3
:1007B000C9010197F1F7DA98C9010197F1F780E2D1
:1007C0008BBBDA9AC9010197F1F7DA98C901019751
:1007D000F1F788E20E94A1038EE00E94A103089530
:1007E00081E00E94A103089582E00E94A103089580
:1007F000623031F0633031F0613029F4805C03C045
:100800008C5E01C08C5A80680E94A10308951F93DA
:10081000CF93DF93EC01009791F010E00AC08A308B
:1008200029F480E061E00E94F80302C00E94800386
:100830001F5FFE01E10FF11D8081882381F7DF91A9
:10084000CF911F9108951F93CF93DF93EC01862FD3
:10085000642F0E94F80310E003C00E9480031F5F12
:10086000FE01E10FF11D84918823B9F7DF91CF914B
:100870001F910895EF92FF920F931F93CF93DF93F1
:100880007C01162F110F110F110F1064C0E0D0E082
:10089000F701EC0FFD1F0491812F8C0F0E94A10323
:1008A000802F0E9480032196C830D10589F7DF91FF
:1008B000CF911F910F91FF90EF9008950F931F9389
:1008C000082F10E004C08EE10E94A1031F5F1017E3
:1008D000D0F31F910F9108950F931F93082F10E0ED
:1008E00004C088E10E94A1031F5F1017D0F31F917D
:1008F0000F9108958EE00E94A10308958FE00E9459
:10090000A10308958CE00E94A103089588E00E944D
:10091000A10308958CE00E94A10308950F931F93F3
:10092000082F10E004C080E10E94A1031F5F101790
:10093000D0F31F910F9108950F931F93082F10E08C
:1009400004C084E10E94A1031F5F1017D0F31F9120
:100950000F910895EF92FF920F931F93DF93CF9320
:1009600000D000D00F92CDB7DEB79C018B01FE0105
:10097000319685E0DF011D928A95E9F7FE013596F3
:100980000DC0C9016AE070E00E94090D8083C901B1
:100990006AE070E00E94090D9B0131972115310535
:1009A00081F7BFEF0F3F1B0779F420E030E0AE0185
:1009B0004F5F5F4F02C02F5F3F4FFA01E20FF31FFF
:1009C00080818823C1F304C025E030E0201B310B77
:1009D0007E010894E11CF11CE20EF31E890108C09F
:1009E000F70181917F01805D0E9480030F5F1F4F9F
:1009F00005301105ACF30F900F900F900F900F90F2
:100A0000CF91DF911F910F91FF90EF900895282FC4
:100A100022952F7030E0A90163E0440F551F6A95BD
:100A2000E1F7220F331F420F531F8F70840F089579
:100A3000482F6AE00E94FD0C282F30E074E0220F5E
:100A4000331F7A95E1F7842F0E94FD0C892F822BAA
:100A50000895CF92DF92EF92FF920F931F938C0134
:100A60007B016A0180ED0E94010384E00E9444033F
:100A7000F80180810E9418050E944403F7018081DB
:100A80000E9418050E944403F60180810E94180507
:100A90000E9444030E9441031F910F91FF90EF9029
:100AA000DF90CF900895EF92FF920F931F93F82E4F
:100AB000062F142FE22E80ED0E94010380E00E9499
:100AC0004403812F0E9418050E944403802F0E9436
:100AD00018050E9444038F2D0E9418050E944403AC
:100AE0008E2D0E9418050E9444030E9441031F910D
:100AF0000F91FF90EF900895CF92DF92EF92FF92C7
:100B00000F931F938C017B016A0180ED0E9401030A
:100B100084E00E94440381ED0E94010381E00E9471
:100B20006003282F22952F7030E0A90163E0440F65
:100B3000551F6A95E1F7220F331F420F531F8F7025
:100B4000840FF801808381E00E946003282F2295A2
:100B50002F7030E0A901B3E0440F551FBA95E1F7BB
:100B6000220F331F420F531F8F70840FF7018083B2
:100B700080E00E946003282F22952F7030E0A901A9
:100B8000F3E0440F551FFA95E1F7220F331F420F90
:100B9000531F8F70840FF60180830E9441031F91C1
:100BA0000F91FF90EF90DF90CF900895AF92BF929A
:100BB000CF92DF92EF92FF920F931F936C017B0114
:100BC0008A01590180ED0E94010380E00E944403E4
:100BD00081ED0E94010381E00E946003282F22958D
:100BE0002F7030E0A90163E0440F551F6A95E1F7CB
:100BF000220F331F420F531F8F70840FF801808321
:100C000081E00E946003282F22952F7030E0A90117
:100C100013E0440F551F1A95E1F7220F331F420FBF
:100C2000531F8F70840FF701808381E00E9460035F
:100C3000282F22952F7030E0A901A3E0440F551F03
:100C4000AA95E1F7220F331F420F531F8F70840FB5
:100C5000F601808380E00E946003282F22952F7088
:100C600030E0A901E3E0440F551FEA95E1F7220FB8
:100C7000331F420F531F8F70840FF50180830E9432
:100C800041031F910F91FF90EF90DF90CF90BF90A5
:100C9000AF9008951F93182F1370611110614111C7
:100CA000106880ED0E94010387E00E944403812FB9
:100CB0000E94440380E00E9460030E9441031F9150
:100CC0000895AA98A29A80E897E00197F1F7A29870
:100CD00080EF90E00197F1F723B380E996E0019768
:100CE000F1F783B340E090E084709070247030E0BE
:100CF0008217930709F441E0842F0895AA98A29AD5
:100D000095E09A95F1F78111A29880EF90E0019714
:100D1000F1F7A2980895AA98A29A85E08A95F1F72A
:100D2000A2988AE48A95F1F783B390EF9A95F1F748
:100D300090E09695879596958795817008950F9385
:100D40001F9308E010E009C00E948B06912F969532
:100D5000182F179511271795192B0150A8F7812FD8
:100D60001F910F9108950F931F93082F18E005C04E
:100D7000802F81700E947E0606951150C8F71F9142
:100D80000F910895FC0140E090E058E112C03081DD
:100D900020E0892F832780FF04C0952796959068CF
:100DA00001C096952F5F283011F03695F2CF4F5F36
:100DB0003196461760F3892F0895FF920F931F9382
:100DC000F82E062F142F0E946106882311F081E06F
:100DD00020C08CEC0E94B3068EE40E94B306802FE4
:100DE0000E94B3068F2D0E94B3061295110F107E3C
:100DF000812F8F610E94B3060E9461068CEC0E94D5
:100E0000B30688E40E94B30680E69AEE0197F1F7F4
:100E100080E01F910F91FF900895CF93DF93C8E773
:100E2000D1E00E949F06899381E0C138D807C9F7B5
:100E3000CE01099768E00E94C20620E090918001EF
:100E4000891321E0822FDF91CF9108958F929F9295
:100E5000BF92CF92DF920F93DF93CF93CDB7DEB7E0
:100E60002C970FB6F894DEBF0FBECDBF4C01DE014C
:100E70001196E9E2F1E088E001900D928150E1F7EE
:100E80000E946106882309F072C08CEC0E94B306B0
:100E900084E40E94B3060E948B068823E1F30E943B
:100EA00061068CEC0E94B3068EEB0E94B3060E9492
:100EB0000D07882309F05BC00E946106B0907C0199
:100EC00080917801C82EDD249091790180E0C82AB4
:100ED000D92AD7FC02C000E005C0D094C194D10843
:100EE000D39401E0B60154E0769567955A95E1F701
:100EF00070E0882777FD8095982F0E94E60B698720
:100F00007A878B879C87B294B69447E0B422EB2D06
:100F1000F0E0E370F070EE0FFF1FEC0FFD1F61813A
:100F20006C2170E0882777FD8095982F0E94E60B52
:100F300020E030E040E85DE30E94760C9B01AC01CC
:100F400069857A858B859C850E944F0BF4016083AF
:100F5000718382839383002341F0DC01CB01B0587D
:100F6000F40180839183A283B38380E001C081E098
:100F70002C960FB6F894DEBF0FBECDBFCF91DF9198
:100F80000F91DF90CF90BF909F908F900895A1E137
:100F9000B0E0EDECF7E00C941C0D3C017F876E8710
:100FA0006A01FC0117821682838181FD03C06FEF05
:100FB0007FEF6FC39E012F5F3F4F398B288BF3016B
:100FC0002381EE85FF8523FD859123FF8191FF8796
:100FD000EE87882309F45AC3853251F4EE85FF85E4
:100FE00023FD859123FF8191FF87EE87853229F4C8
:100FF00090E0B3010E94550EE2CF982F10E08824B4
:1010000099241032B0F49B3269F09C3228F490326B
:1010100051F0933271F40BC09D3239F0903349F4A2
:10102000116028C01260146025C0186023C01061D0
:1010300021C017FD2AC0892F80538A3078F416FF0B
:1010400006C0FAE09F9E902C1124980E13C03AE03F
:10105000839E802C1124880E10620CC09E3221F4D5
:1010600016FD14C3106406C09C3611F4106802C04B
:10107000983659F4EE85FF8523FD959123FF9191D4
:10108000FF87EE87992309F0BCCF892F85548330E1
:1010900020F4812F8061905E07C0892F85568330B0
:1010A00008F09FC1812F8F7E86FD02C076E0972ECB
:1010B0006FE3F62EF822953619F4F0E4FF2A07C004
:1010C000963619F420E8F22A02C091109A94F7FE9D
:1010D0000AC03BE3391518F45CE3B52E02C0B92C05
:1010E000B39427E009C047E0491520F4BB2447E04A
:1010F000942EF7CF292DBB24C60104969D878C879B
:10110000F6016081718182819381AE014F5F5F4FF3
:101110000B2D0E94670D6C010981202E332400FFE6
:1011200004C003FD02C01DE209C0F1FE02C01BE2C3
:1011300005C0F2FC02C010E001C010E2C1018C70D9
:101140009070892BB9F1112311F483E001C084E080
:10115000881510F088240AC0881AF3FC07C080E2C2
:1011600090E0B3010E94550E8A94C9F7112329F02B
:10117000812F90E0B3010E94550E23FE03C004E5C9
:1011800010E00EC008E510E00BC0E114F10409F016
:10119000805290E0B3010E94550E0F5F1F4F05C0B3
:1011A000EF2CFF24F0E1EF22FF24F8018491882343
:1011B00061F714C1F7FE12C0BC0C24FE04C08A8182
:1011C000813309F4BA941B141CF0BB24B3942DC0D2
:1011D000F8E0FB1550F538E0B32E27C0F6FC25C02B
:1011E000892D90E08C159D054CF02CEFC2162FEF49
:1011F000D20624F030E8F32A01C09A94992049F0ED
:10120000E2E0F0E0EC0FFD1FE90DF11D808180337D
:10121000A1F3F7FE0AC0B92CB394892D90E0C8164B
:10122000D90614F0992401C09C18F7FC03C025E0EE
:1012300030E009C01C141D041CF021E030E003C0A4
:1012400096012F5F3F4F112311F02F5F3F4F9920E1
:1012500029F0892D90E00196280F391F882D90E004
:101260002817390714F0882401C0821A4F2C5524FE
:10127000C20189709070892B39F008C080E290E03B
:10128000B3010E94550E8A948820C1F7112329F0DA
:10129000812F90E0B3010E94550E43FE07C008C0A5
:1012A00080E390E0B3010E94550E8A948820C1F734
:1012B000F7FE46C08601D7FE02C000E010E07601CE
:1012C0000894E11CF11CE01AF10A41E050E04C0FD7
:1012D0005D1FE40EF51E26014B185108892D90E084
:1012E000AA24BB24A81AB90A5FEF0F3F150729F4F7
:1012F0008EE290E0B3010E94550EC016D10634F084
:10130000401651061CF4F701808101C080E30150B2
:1013100010400894E11CF11C0A151B052CF090E00C
:10132000B3010E94550EE0CF0C151D0539F49A81CA
:10133000963318F4953311F424FE81E390E04BC00A
:101340008A81813309F00F7E90E0B3010E94550E2F
:101350009920A1F08EE290E0B3010E94550E12E0B8
:10136000E1E0F0E0EC0FFD1FE10FF11D1F5F808158
:1013700090E0B3010E94550E9A9491F744FC03C08B
:1013800085E690E002C085E490E0B3010E94550E2E
:10139000D7FC05C0C114D10441F404FF06C0D094A9
:1013A000C194D108D3948DE201C08BE290E0B301E7
:1013B0000E94550E80E305C08F5F26EF3FEFC20EFF
:1013C000D31E3AE0C316D104BCF790E0B3010E94EB
:1013D000550EC601C096B3010E94550ECC84DD8423
:1013E00052C1933631F0933799F0933509F059C0D3
:1013F00023C0F601808189835E010894A11CB11C81
:1014000022E030E0C20ED31E21E0E22EF12C12C009
:10141000F601A080B18016FD03C06FEF7FEF02C020
:10142000692D70E022E030E0C20ED31EC5010E949B
:101430004A0E7C011F7713C0F601A080B18016FD13
:1014400003C06FEF7FEF02C0692D70E022E030E053
:10145000C20ED31EC5010E943F0E7C01106813FF0F
:1014600007C01BC080E290E0B3010E94550E8A9431
:10147000882D90E0E816F906A8F30FC0F50117FDD6
:10148000859117FF81915F0190E0B3010E94550E95
:1014900081108A940894E108F108E114F10471F7CD
:1014A000F2C0943611F0993689F517FF08C0F6019D
:1014B000208131814281538184E090E00AC0F601AD
:1014C000808191819C01442737FD4095542F82E013
:1014D00090E0C80ED91E9FE6F92EF12257FF09C0F1
:1014E00050954095309521953F4F4F4F5F4F90E875
:1014F000F92ACA01B901AE014F5F5F4F2AE030E01F
:101500000E94A50EE82EE889EE1A41C0953721F415
:101510001F7E2AE030E01CC0197F9F3661F09037B3
:1015200020F4983509F0B2C00FC0903739F09837E1
:1015300009F0ACC004C028E030E00AC0106114FD1E
:10154000146020E130E004C014FD166020E132E0B8
:1015500017FF08C0F601608171818281938144E0A8
:1015600050E008C0F60180819181BC0180E090E0EC
:1015700042E050E0C40ED51EAE014F5F5F4F0E94A7
:10158000A50EE82E5889E51A8FE7F82EF122F6FE0F
:101590000BC08EEFF822E91438F4F4FE07C0F2FC19
:1015A00005C09FEEF92202C01E2D01C0192DF4FEC8
:1015B0000DC0FE01EE0DF11D8081803319F4E9EEBE
:1015C000FE2208C01F5FF2FE05C003C08F2D867883
:1015D00009F01F5F0F2DF3FC14C0F0FE0FC01815AB
:1015E00010F09E2C0BC09E2C980C911A182D06C042
:1015F00080E290E0B3010E94550E1F5F1815C0F302
:1016000004C0181510F4811A01C0882404FF0FC00B
:1016100080E390E0B3010E94550E02FF1DC001FD62
:1016200003C088E790E00EC088E590E00BC0802FF3
:10163000867891F001FF02C08BE201C080E2F7FCE6
:101640008DE290E0B3010E94550E06C080E390E069
:10165000B3010E94550E9A94E914C0F3EA94E1E0B4
:10166000F0E0EC0FFD1FEE0DF11D808190E0B30165
:101670000E94550EEE2091F706C080E290E0B30183
:101680000E94550E8A948820C1F799CCF301668197
:101690007781CB016196E2E10C94380D5058BB275D
:1016A000AA270ED0E5C0D6D030F0DBD020F031F440
:1016B0009F3F11F41EF4CBC00EF4E095E7FBC1C0D0
:1016C000E92FE7D080F3BA176207730784079507FD
:1016D00018F071F49EF5FFC00EF4E0950B2EBA2FB2
:1016E000A02D0B01B90190010C01CA01A001112428
:1016F000FF27591B99F0593F50F4503E68F11A16D4
:10170000F040A22F232F342F4427585FF3CF469564
:1017100037952795A795F0405395C9F77EF41F1686
:10172000BA0B620B730B840BBAF09150A1F0FF0F50
:10173000BB1F661F771F881FC2F70EC0BA0F621F3C
:10174000731F841F48F4879577956795B795F7952C
:101750009E3F08F0B3CF9395880F08F09927EE0FBE
:1017600097958795089504D06894B111B5C00895F0
:1017700098D088F09F5790F0B92F9927B751A0F0D3
:10178000D1F0660F771F881F991F1AF0BA95C9F715
:1017900012C0B13081F09FD0B1E008959CC0672F96
:1017A000782F8827B85F39F0B93FCCF386957795C5
:1017B0006795B395D9F73EF49095809570956195AE
:1017C0007F4F8F4F9F4F0895E89409C097FB3EF4D9
:1017D00090958095709561957F4F8F4F9F4F99237E
:1017E000A9F0F92F96E9BB279395F69587957795FC
:1017F0006795B795F111F8CFFAF4BB0F11F460FFBC
:101800001BC06F5F7F4F8F4F9F4F16C0882311F013
:1018100096E911C0772321F09EE8872F762F05C027
:10182000662371F096E8862F70E060E02AF09A95C2
:10183000660F771F881FDAF7880F9695879597F9B7
:10184000089597F99F6780E870E060E008959FEF42
:1018500080EC089500240A94161617061806090647
:10186000089500240A941216130614060506089516
:10187000092E0394000C11F4882352F0BB0F40F49E
:10188000BF2B11F460FF04C06F5F7F4F8F4F9F4FDE
:10189000089557FD9058440F551F59F05F3F71F060
:1018A0004795880F97FB991F61F09F3F79F08795C7
:1018B0000895121613061406551FF2CF4695F1DF50
:1018C00008C0161617061806991FF1CF86957105E0
:1018D000610508940895E894BB2766277727CB0114
:1018E00097F9089566D008F48FEF08950BD0C0CF14
:1018F000B1DF28F0B6DF18F0952309F0A2CFA7CF0B
:101900001124EACFC6DFA0F3959FD1F3950F50E0E5
:10191000551F629FF001729FBB27F00DB11D639FA1
:10192000AA27F00DB11DAA1F649F6627B00DA11D47
:10193000661F829F2227B00DA11D621F739FB00DED
:10194000A11D621F839FA00D611D221F749F33275D
:10195000A00D611D231F849F600D211D822F762FF6
:101960006A2F11249F5750408AF0E1F088234AF0F3
:10197000EE0FFF1FBB1F661F771F881F915050403F
:10198000A9F79E3F510570F05CCFA6CF5F3FECF307
:10199000983EDCF3869577956795B795F795E7952B
:1019A0009F5FC1F7FE2B880F911D9695879597F93C
:1019B0000895990F0008550FAA0BE0E8FEEF1616E0
:1019C0001706E807F907C0F012161306E407F50733
:1019D00098F0621B730B840B950B39F40A2661F0A7
:1019E000232B242B252B21F408950A2609F4A1404A
:1019F000A6958FEF811D811D0895991B79E004C084
:101A0000991F961708F0961B881F7A95C9F780953D
:101A1000089597FB092E07260AD077FD04D043D0FE
:101A200006D000201AF4709561957F4F0895F6F75F
:101A3000909581959F4F08952F923F924F925F927C
:101A40006F927F928F929F92AF92BF92CF92DF92CE
:101A5000EF92FF920F931F93CF93DF93CDB7DEB733
:101A6000CA1BDB0B0FB6F894DEBF0FBECDBF0994C7
:101A70002A88398848885F846E847D848C849B841E
:101A8000AA84B984C884DF80EE80FD800C811B812C
:101A9000AA81B981CE0FD11D0FB6F894DEBF0FBE5B
:101AA000CDBFED010895AA1BBB1B51E107C0AA1FC2
:101AB000BB1FA617B70710F0A61BB70B881F991FEF
:101AC0005A95A9F780959095BC01CD0108952830CD
:101AD00008F027E03327DA01990F311D87FD916067
:101AE00000966105710539F432602E5F3D9330E355
:101AF0002A95E1F708959F3F30F080387105610520
:101B000009F03C5F3C5F3D93913008F08068911D87
:101B1000DF93CF931F930F93FF92EF92192F987F2C
:101B20009695E92F96959695E90FFF27EA54FF4F72
:101B300099273327EE24FF24A701E7010590089495
:101B4000079428F4360FE71EF81E491F511D660F33
:101B5000771F881F991F0694A1F70590079428F412
:101B6000E70EF81E491F561FC11D770F881F991FCA
:101B7000661F0694A1F70590079428F4F80E491FF4
:101B8000561FC71FD11D880F991F661F771F069408
:101B9000A1F70590079420F4490F561FC71FD81FBF
:101BA000990F661F771F881F0694A9F784911095D7
:101BB000177041F0D695C79557954795F794E794D8
:101BC0001A95C1F7ECE5F0E0689415901591359100
:101BD0006591959105907FE27395E118F10A430BA9
:101BE000560BC90BD009C0F7E10CF11E431F561F5D
:101BF000C91FD01D7EF4703311F48A95E6CFE894A6
:101C0000015030F0080F0AF40027021708F4202FC3
:101C10002395022F7A3328F079E37D932A95E9F70B
:101C200010C07D932A9589F6069497956795379508
:101C300017951794E118F10A430B560BC90BD009FD
:101C400098F023957E9173957A3308F070E37C9336
:101C50002013B8F77E9170617D9330F0839571E326
:101C60007D9370E32A95E1F71124EF90FF900F9197
:101C70001F91CF91DF91992787FD90950895FC01E1
:101C80000590615070400110D8F7809590958E0FA7
:101C90009F1F0895FC016150704001900110D8F71A
:101CA000809590958E0F9F1F08950F931F93CF934C
:101CB000DF938C01EB018B8181FF1BC082FF0DC084
:101CC0002E813F818C819D812817390764F4E8813A
:101CD000F9810193F983E88306C0E885F985802FAF
:101CE0000995892B31F48E819F8101969F838E8384
:101CF00002C00FEF1FEFC801DF91CF911F910F912D
:101D00000895AEE0B0E0E7E8FEE00C942A0D0D89FE
:101D10001E8986E08C831A8309838FEF9FE79E8359
:101D20008D839E01275E3F4FCE0101966F89788D8E
:101D3000A9010E94C7072F813885020F131FF801E0
:101D400010822E96E4E00C94460DFA01AA27283062
:101D500051F1203181F1E8946F936E7F6E5F7F4F78
:101D60008F4F9F4FAF4FB1E03ED0B4E03CD0670FF4
:101D7000781F891F9A1FA11D680F791F8A1F911D47
:101D8000A11D6A0F711D811D911DA11D20D009F497
:101D900068943F912AE0269F11243019305D3193D9
:101DA000DEF6CF010895462F4770405D4193B3E0C2
:101DB0000FD0C9F7F6CF462F4F70405D4A3318F069
:101DC000495D31FD4052419302D0A9F7EACFB4E01A
:101DD000A6959795879577956795BA95C9F70097D2
:101DE0006105710508959B01AC010A2E0694579573
:101DF000479537952795BA95C9F7620F731F841FCA
:0A1E0000951FA01D0895F894FFCF70
:101E0A00445331333037202620445331384232305C
:101E1A000A55534152542044454D4F00252B640026
:101E2A00252B2E3166002573256346200025732550
:101E3A0063432000257525753A257525753A25755C
:101E4A0025750025732025752575202573203230C8
:101E5A002575257500FF0153756E004D6F6E005490
:101E6A0075650057656400546872004672690053CC
:101E7A00617400B700BB00BF00C300C700CB00CF2E
:101E8A00004A616E00466562004D617200417072DF
:101E9A00004D6179004A756E004A756C004175679C
:101EAA0000536570004F6374004E6F76004465639B
:101EBA0000E100E500E900ED00F100F500F900FDA0
:101ECA00000101050109010D0108000C000E000FB7
:021EDA00000006
:00000001FF
