:020000000C945E
:1000020052000C9400000C9400000C9400000C941C
:1000120000000C9400000C9400000C9400000C945E
:1000220000000C9400000C9400000C9400000C944E
:1000320000000C9400000C9400000C9400000C943E
:1000420000000C9400000C9400000C9400000C942E
:1000520000000000003FCDCC4C3D0AD7A33B6F12FD
:10006200033A17B75138ACC5A736BD37063580C03D
:1000720000004D5058343131352053656E736F7224
:100082000A44656D6F0050726573733A20257520BE
:100092006B50610002006002700002006402720094
:1000A2000000F894EE27ECBBF1E0FBBFEBBFE5BF2D
:1000B200F8E1F1BDE1BD8DE0A2E0BB27ED938A95A9
:1000C200E9F780E098E0A0E6ED930197E9F7E6E929
:1000D200F0E085919591009761F0A591B591059019
:1000E2001590BF01F00105900D920197E1F7FB0118
:1000F200F0CFEFE5EDBFE8E0EEBFC0E6D2E00C9452
:10010200BF00E1E0E7B9E7E8E6B90895E881E77002
:10011200E883E7B1A881EA2BE7B9369A349BFECF90
:10012200349AE4B1F5B12196089528971A930A9367
:10013200EA85FB85662777270E94E807A8E6B8EEDE
:100142008FE99BE30E94AD050E94B405E0E0F0E078
:1001520060EB71E40E947008ADECBCEC88E291E4C3
:100162000E9422080E94B9050E94BE050E94AF07A4
:100172008F01F801198108812C960895A1970E9498
:100182008200E0E1EA930E946105E4E7F0E0FA937D
:10019200EA930E943E05E8EEF3E0FA93EA930E94A6
:1001A200A606E3E0EA930E9487008F011A930A935E
:1001B2000E9496009F01FE01FA93EA93E8E8F0E0BC
:1001C200FA93EA93F901662777270E946A0784E087
:1001D2000E947A0428960E94FF04FE01FA93EA9391
:1001E2000E942F05E8ECF0E0FA93EA930E94A6063B
:1001F200D8CFFFCF5F9BFECFECB108955D9BFECFC2
:10020200E881ECB9219608951A930A93AC81BD81D5
:100212000E945A073097B9F0AA81BB810E945A07FF
:100222008F01309749F00230E0E01E0758F0F801E4
:1002320031978F01ED93FC93AC81BD810E94C30580
:10024200AE81A08304C0EE81EA930E94FF0019816F
:1002520008812796089524971A930A93A885A730B0
:1002620010F0E6E0E887E885A4E5B0E0F0E00E945F
:10027200F606EA0FFB1F0E9464070E94CA050E944D
:1002820022080E94CF0510E0E0E0F0E060E87FE3A2
:10029200EA83FB836C837D830E94D4050E94030959
:1002A20030F00E94D9050E94AD051F5FF5CF1030D6
:1002B20029F40E94DF05E0E3EC9322C0E12F115004
:1002C200E030F1F00E94D9050E94E605EA83FB8343
:1002D2006C837D830E94D4050E94BE080E94B107F0
:1002E2000E2F0E94DF050E94F2050E94B4050E94B3
:1002F200F7050E9470080E94CA050E94FD05DECF24
:10030200E885E03029F4AE81BF81E0E0EC9325C0BE
:100312000E94DF05EEE2EC93E885E150E887EF5FAB
:10032200C1F00E94CA050E9402060E94CF05E9851B
:10033200FA856B857C850E94AF070E2F0E94DF0530
:100342000E94F2050E94CA050E94F7050E94FD055F
:10035200E3CFAE81BF81E0E0EC93198108812D9655
:10036200089524970E942D09E0E0F0E060E87FE321
:100372000E940906AB85A73010F0E6E0EB871B85EB
:10038200E12F1150E03029F00E940E060E9409066A
:10039200F7CF0E9413060E94230931F430E00E9435
:1003A2000E060E94090634C03B850E94180609F019
:1003B20010F40C94E9010E940E060E9409060E94A4
:1003C200180628F00E9423060E942806F8CF0FC0C4
:1003D2000E94180640F40E9423060E9402060E9410
:1003E20034063150F5CF0E940E060E9409060E9483
:1003F2001306A0E0B0E080E09FE30E9422080E9482
:1004020034060E94180620F00E9423060E94280645
:1004120010E0EB85E117A0F1AC81BD818E819F8157
:10042200E0E0F0E060E271E40E94E6050E94090665
:10043200EC81FD816E817F810E9423060E94BE08AD
:100442000E94B1070E2F0E9439060E94F2050E94F7
:10045200F705AC81BD818E819F810E9470080E9448
:1004620023060E946F070E941B080E943406E12F98
:100472001F5FE03071F60E943906EEE2EC93C9CFBD
:100482000E944006AA85A08330302CF40E943906CF
:10049200EDE2EC9331953A3054F00E944006BF01F0
:1004A200A32FEAE00E941407E05DDB01EC930E94B7
:1004B2004006BF01A32FEAE00E943E07E05DDB0198
:1004C200EC93A885B985E0E0EC930E94340960962C
:1004D2000895EF972F970E942B0910E0FE01EC5A26
:1004E200FF4F0190F081E02DE88BF98BDE01A65AD7
:1004F200BF4F0E94C305E4912E2FE03011F40C94FB
:100502007504E12FE03039F4253211F411E002C014
:100512000E944706E8C1E130C1F4253219F40E9475
:100522004706E0C112E0E0E0EB8B00E02D3211F46F
:1005320001E0D9C12B3219F4EBE2EB8BD4C12032AA
:1005420019F4E0E2EB8BCFC102C0E23039F450E0A3
:1005520013E0203311F40068C6C102C0E330A1F4F5
:10056200203310F02A3308F009C0A52FEAE0EA9FF1
:10057200F0015E2FE22FE0535E0FB5C140E02E3254
:1005820011F414E0B0C111C0E430A9F4203310F02A
:100592002A3308F00AC00062A42FEAE0EA9FF001C1
:1005A2004E2FE22FE0534E0F9EC12C3619F40260FB
:1005B20015E099C104C0E53011F00C947404E22FE7
:1005C200E33631F40E945606E4810E945F068AC136
:1005D200E53411F0E53609F404C0E63611F00C9466
:1005E2003A03FE017496EA87FB870E945606349608
:1005F200DF010E945E070E94B905DF01CB010E9464
:10060200270924F0AB89AB3249F012C00E94BE0523
:100612000E947C070E94B905EDE2EB8B07FF04C044
:10062200EB890E945F0604C00E946E06AB89A0831C
:1006320005FF46E0263661F40E94BE050E946A0765
:100642004A93EF85F889FA93EA930E942C010CC031
:100652000E94BE050E946A074A932A93E889F98993
:10066200FA93EA930E94B201FE0174960E94750603
:100672001EC0E33739F40E9456060E947D060E948E
:1006820075060EC0E037C1F40E9456060E947D0630
:10069200EA87FB87FA93EA930E94A2051E2F08605D
:1006A2000F77403011F0411708F001C0142F40E0DD
:1006B200E0E0EA8B30E06FC0E43611F0E93611F485
:1006C200046002C0E537A1F4EAE0EA8B01FF08C04A
:1006D200E0E0FAEC6AE97BE30E9434061AE023C008
:1006E200E0E1F7E260E070E00E94340615E01BC032
:1006F200E83511F4086004C0E83711F00C94730473
:10070200E0E1EA8B01FF08C0E0E0F0E060E070E1C8
:100712000E94340618E007C0E0E0F0E160E070E01B
:100722000E94340614E0403011F00F7701C041E01E
:1007320001FF07C00E9456063496DF010E945E0741
:100742000FC002FF07C00E9456060E947D060E944B
:10075200010706C00E9456060E947D06662777277B
:10076200EE83FF836887798702FF14C00E948206A6
:100772000E94270944F40E94BE050E94EE060E94D0
:10078200B905EDE2EB8BEB89E03019F01F5F4F5FAB
:1007920001C00B7F342F00FD14C0151710F435175C
:1007A20008F00FC007FF08C002FF04C00B7F2B89AF
:1007B200115001C020E301C020E20E9447065150BF
:1007C200ECCF141788F4006102FF06C00E9487066E
:1007D20009F0515011504150E0E30E945F06503041
:1007E20009F051504150EDCF312FEA89E03011F537
:1007F2003030F9F003FF04C00E946E06E49105C098
:10080200AA85BB85ED91AA87BB87EA93FE01E95AC7
:10081200FF4F0190F081E02DFA93EA93FE01739667
:10082200FA93EA930E940501503009F05150315079
:10083200DFCF4FC00E9413060E9482060E94190752
:100842002E2F2A3030F003FF02C0295C01C0295A42
:1008520001C0205D04FD1FC0213350F40E94230615
:10086200A130E0E0BE07E0E08E07E0E09E0709F479
:100872000BC0431740F4531710F000FF01C010C023
:1008820020E207FF08C020E3006102FF04C00E94CB
:10089200870609F051500E944706503009F0515026
:1008A20031500E9413060E9482060E944A070E944B
:1008B200B905EA890E942306FF27662777270E9447
:1008C20019070E9434060E9413060E94230909F0A8
:1008D200B1CF00FF07C0503029F05150E0E20E9432
:1008E2005F06F9CF10E002CE0E943209EF966D96B4
:1008F2000895FF92F82E22971A930A93DE010E941E
:10090200EA068D01DE0116960E94EA060E945A0747
:10091200EA83FB83DE0114960E94EA060E945A07CC
:10092200FA93EA931A930A93FE013696FA93EA939C
:10093200E0E0F0E0FA93EA930E946A02AA81BB81A6
:10094200E0E0EC93198108812496FF900895FFE07E
:10095200FA95F1F70895A1B3AF70A1BB919A90985F
:100962000E94A804929A0E94A804A0B392980E949E
:10097200A804929A0E94A8049298A7FDF1CF089524
:10098200A07FAB2BA2BB929A0E94A80492980E94CD
:10099200A80408959198A1B3A76FA1BBB2B3BF7089
:1009A200A8810E94C104A881A2950E94C104919AC3
:1009B20021960895929A0E94A804E0B392980E9408
:1009C200A804E07F08950E94A8040E94DB04AE2FD1
:1009D2000E94DB049198E295EA2B08950E94AC04F0
:1009E200E881F0E0E05AFD4FE081A981EA0FEA9345
:1009F2000E94CB0459804880229608950E94AC043C
:100A0200E2E0EA930E94CB040E94AC04ECE0EA9399
:100A12000E94CB040E94AC04E1E0EA930E94CB0462
:100A2200E0E04E2E5E2E0895EF93FF93A881689426
:100A3200AA3021F0E8945394751438F44394E0E01A
:100A4200EA934A920E94EF042EF085DF909AA881E1
:100A5200AA93A0DFFF91EF91219608951A93A9819D
:100A6200BA81ED91A983BA831E2FE03021F01A9347
:100A72000E941505F4CF188110C01A93E981FA81FA
:100A82003196E983FA833197E4911E2FE03021F009
:100A92001A930E941505F2CF188123960895AA276A
:100AA200BB271197F1F708959198A1B3A76FA1BB46
:100AB200B2B3BF70A8810E94C104919A2196089591
:100AC200929890987880E881E058E0936202E881F9
:100AD200E054E09363020E949B060E949B060E94E0
:100AE2009B060E945005E0E2EA930E9455050E948F
:100AF2005005E8E20E94A106E4E00E94A106E5E8B2
:100B02000E94A106A1B3AF70A1BB919A0E94E40416
:100B1200E53011F0E0E009C00E94AC04E6E0EA939F
:100B22000E94CB040E94FF04E1E021960895A9915E
:100B3200B991EE27FF276D91662311F03196FBCF15
:100B42000895AA27BB27E991F9910590002011F099
:100B52001196FBCFFD0108950E947008EA83FB8382
:100B62006C837D830895AA81BB818C819D810895C8
:100B7200EE83FF83688779870895EE81FF81688518
:100B820079850895ED91FD913196FE93EE9331971B
:100B92000895A985BA858B859C850895E987FA878A
:100BA2006B877C870895EA81FB816C817D81F1CF1F
:100BB200DADFE0E0F0E060E271E40895AE81BF8147
:100BC2001196AE83BF83119708950E94BE08A0E0DC
:100BD200B0E080E09FE30E9422080E946A070C9422
:100BE200E106E02FE05DEC93E02F0895FF276627F2
:100BF20077270E94E80708950E946F070E941B084A
:100C0200CDCFE0E0F0E060E271E40E947008089568
:100C1200EC83FD836E837F830895AC81BD818E81D9
:100C22009F81EFCFEC85FD856E857F850895EC81F0
:100C3200FD816E817F81AC85BD858E859F850E94F9
:100C420003090895AC85BD858E859F850895E0E0F2
:100C5200F0E060E271E40E94BE08EC87FD876E87D7
:100C62007F873F5F0895EC87FD876E877F870895B2
:100C7200A885B9851196A887B98711970895E8853F
:100C8200F9853196E887F987319708952A93FE010D
:100C9200E95AFF4F0190F081E02DFA93EA93FE01A9
:100CA2007396FA93EA930C940501DE01A85ABF4F9A
:100CB200ED91FD913497FE93EE930895EA93FE0130
:100CC200E95AFF4F0190F081E02DFA93EA93FE0179
:100CD2007396FA93EA930C940501EA85FB853196A3
:100CE200EA87FB8731970895EA87FB87FA93EA93AD
:100CF2000E9498051E2F08953496DF010E945A071C
:100D02000895AE81BF818885998508950B7FEB890F
:100D1200EA93FE01E95AFF4F0190F081E02DFA9328
:100D2200EA93FE01E95AFF4FFA93EA930E94050102
:100D3200503008950E945005E0E3EA930C94550563
:100D4200EA930E94CB040C945005E991F9913096F4
:100D520039F088EE93E00197F1F7A8953197C9F73A
:100D620008957B816A81F981E88177FB770F67FDBE
:100D72007160972F9E5781F078F0983190F4AA27EE
:100D8200BB27882708948795B795A7959A95D1F799
:100D9200EA23FB23682305C0E8947727EE27FF2781
:100DA20066276F77769508F4606877F9A991B9910B
:100DB20089919991EA17FB076807790797FB0895CC
:100DC200D0DF09F40895F6F79FEBAA27BB2780E846
:100DD20038C10024AF0DB01D0895F095609570954F
:100DE200E195FF4F6F4F7F4F0895EE0FFF1FEE0FFC
:100DF200FF1F0895FE2FFF0FFF0B6F2F7F2F089508
:100E02006F2F660F660B762F0895002498E0AA0FC5
:100E1200001C0E1A10F40E0E01C0A1609A95B9F7CB
:100E2200EA2FA02D089539D0F0DF0EF4E195089550
:100E32003F934F935F93002411244427552730E2B8
:100E4200AA0FBB1F881F991F001C111C441F551F8E
:100E52000E1A1F0A460B570B28F40E0E1F1E461FB2
:100E6200571F01C0A1603A9559F7FD01BC01D0019D
:100E7200CA015F914F913F910895E894A7FF02C084
:100E8200A1956894E7FDE195C0DFEA2F0EF4E195A4
:100E92000895CEDFFD01BC010895E894E7FF02C08A
:100EA200E1956894A7FF04C0A19500F8039400FAA5
:100EB2000895ED91FC9111970895ED91FD916D9139
:100EC2007C91139708950590159065917491F001A6
:100ED20008957A936A93FA93EA930895182E862FC7
:100EE200612D192E972F712D1B2EBF2FF12D1A2E2A
:100EF200AE2FE12D089530976040704009F0705890
:100F02000895552342F4503811F4E0FF04C031969D
:100F1200691F791F6BF050E8572711F45F93CDC01A
:100F22005F3F31F0660F000C57956795752F089556
:100F32005F9300200AF0CDC0C6C050E8192E1522DA
:100F4200880F991F9527550F879550E8072E052280
:100F5200660F771F7527550F67950895689401C02E
:100F6200E8945F93F2DF703818F07F3F08F4A5C071
:100F720056E1571BAAF4519558300EF4593030F00F
:100F8200EFEFFFEF6FEF7FE777F91AC0772755236F
:100F9200B9F0EE0FFF1F661F771F5A95D1F710C0E9
:100FA2007727583028F0EF2FF62F672F5850F9CFB8
:100FB200552331F076956795F795E7955A95D1F7D0
:100FC20000200AF40ADF5F910895689401C0E89452
:100FD200309760407040B1F0002426F0772312F47D
:100FE2000094FBDE172E7EE1112032F07A95EE0F8F
:100FF200FF1F661F111CF9CFEF2FF62F612D5F9394
:101002008ADF5F9108954F93AF01FD01DA01AB01D1
:10101200BC01CA01402D012C142E4F910895EA0FF4
:10102200FB1F681F0895E095F0956095EF5FFF4FF5
:101032006F4F08955F9381DF903871F150E8152664
:1010420004C05F937ADF903839F1703821F1572F5D
:10105200591B13F112F4D7DFFACF583118F0AA272F
:10106200BB278827583028F0AB2FB82F8827585035
:10107200F9CF552329F08695B795A7955A95D9F7B3
:10108200502D512562F0CBDF38F46795F795E7953F
:10109200739513F41EC0B7DF3EDF5F910895EA1B1C
:1010A200FB0B680B51F010F40094BDDF6623A2F332
:1010B200EE0FFF1F661F7A95CBF7EE27FF276627F5
:1010C20077275F910895EFEFFFEF6FE77FEF5F9173
:1010D2000895EFEFFFEF6FE77FE75F9108955F936A
:1010E2002CDF703851F3903841F301240894791FB2
:1010F20023F41CF300203AF3ECCF0F921F932F93AB
:101102003F934F93112722279927689FA0018F9F12
:10111200302D410D591F6B9F300D411D591F8E9F60
:1011220027D0BF9F25D06A9F23D0BE9F1DD0AF9FDF
:101132001BD0AE9F110D291F391F491F591FE32FC5
:10114200F42F652F522F4F913F912F911F910F90A6
:1011520066232AF0550FEE1FFF1F661F02C073950C
:101162004BF2CFDE5F910895100D211D391F02C091
:10117200200D311D491F591F08955F93DEDE70381F
:1011820021F411200AF49FCFA4CF903809F495CF0F
:1011920001240894970B1BF4D4F30020F3CF792F8A
:1011A2001F932F933F934F93112411272227332705
:1011B2004427552790E2AE17BF078607410730F054
:1011C200AE1BBF0B860B410B089401C08894551FC0
:1011D200221F331F111CAA1FBB1F881F441F9A9571
:1011E20051F7F901612D4F913F912F911F91662384
:1011F20032F0550FEE1FFF1F661F7A9543F281DE14
:101202005F91089599239AF0772342F0971748F057
:1012120029F4AE17BF07860720F031F0989488941E
:1012220008959894089408951894889408957723BB
:10123200C2F7971798F3A9F7EA17FB07680788F32D
:1012420099F3ECCF3097604070400895109780403A
:10125200904008955A934A933A932A931A930A9381
:1012620008955D814C813B812A811981088108950D
:00000001FF
