:100000000C946E030C948B030C948B030C948B0355
:100010000C948B030C948B030C948B030C948B0328
:100020000C948B030C948B030C948B030C948B0318
:100030000C948B030C948B030C948B030C948B0308
:100040000C948B030C948B030C948B030C948B03F8
:100050000C948B0308000000BE922449123EABAA08
:10006000AA2ABECDCCCC4C3E00000080BEABAAAAD2
:10007000AA3E00000000BF000000803F000000001A
:1000800000084178D3BB4387D1133D190E3CC3BD53
:100090004282AD2B3E68EC8276BED98FE1A93E4C00
:1000A00080EFFFBE01C4FF7F3F00000000000000A2
:1000B0000000000000000000000000000000000040
:1000C0000000000000000000000000000000000030
:1000D0000000000000000000000000000000000020
:1000E0000000000000000000000000000000000010
:1000F0000000000000000000000000000000000000
:100100000000000000000000000000C020202020AF
:10011000202020202020C00000000000000000005F
:10012000F010101010E00000F0000080404040800F
:10013000000080404040800000804040408000003F
:1001400080404040800000000000000000000000EF
:100150000000000000000000000000000000000F90
:10016000113131D1F1D1D13111110F000000000056
:10017000000000001F010101010000001F00000F2E
:100180001212120B00000C12120A1F0000091212A8
:10019000120C00000F1212120B00000000000000F1
:1001A000000000000000000000000000000000004F
:1001B000000000F0188686E1F1E1E1861818F000F1
:1001C00000000000000000000000608000806080EF
:1001D0000080600040202020C00000E80020F820BF
:1001E000000000000000000000000000000000000F
:1001F00000000000000000000000000000000000FF
:1002000000000000000000030707070707070707B3
:1002100007070300000000000000000000000003CA
:100220000C0300030C030000060909050F00000F72
:1002300000000F080000000008000008000008008F
:1002400000000000000000000000000000000000AE
:10025000000000000000000000000000000000009E
:10026000000000000000000000000000000000008E
:10027000000000000000000000000000000000007E
:10028000000000000000000000000000000000006E
:10029000000000000000000000000000000000005E
:1002A000000000000000000000000000002F00001F
:1002B0000007000700147F147F14242A7F2A1232BB
:1002C0003408162636495522500005030000001C4C
:1002D0002241000041221C0014083E081408083E78
:1002E000080800005030001010101010006060006E
:1002F0000020100804023E5149453E00427F400064
:1003000042615149462141454B311814127F102753
:10031000454545393C4A494930017109050336498B
:10032000494936064949291E00363600000056362E
:100330000000081422410014141414140041221463
:10034000080201510906324959513E7E1111117EB0
:100350007F494949363E414141227F4141221C7F2C
:10036000494949417F090909013E4149497A7F08C4
:1003700008087F00417F41002040413F017F081471
:1003800022417F404040407F020C027F7F040810E2
:100390007F3E4141413E7F090909063E4151215EB0
:1003A0007F09192946464949493101017F01013F29
:1003B0004040403F1F2040201F3F4038403F6314D3
:1003C00008146307087008076151494543007F41DD
:1003D0004100552A552A550041417F00040201027F
:1003E000044040404040000102040020545454782E
:1003F0007F484444383844444420384444487F3893
:1004000054545418087E0901020C5252523E7F087F
:1004100004047800447D40002040443D007F1028C3
:10042000440000417F40007C041804787C080404E8
:100430007838444444387C14141408081414187C84
:100440007C080404084854545420043F4440203C91
:100450004040207C1C2040201C3C4030403C442834
:100460001028440C5050503C4464544C44007F3E8F
:100470001C08081C3E7F00087C7E7C08103E7E3EE7
:10048000103E3E3E3E3E007F3E1C08000609090627
:100490007E1111117E7F494949307F494949367F94
:1004A00001010101603E213F607F494949416718D0
:1004B0007F186722414949367F1008047F7F100961
:1004C000047F7F08142241403E01017E7F02040226
:1004D0007F7F0808087F3E4141413E7F0101017F47
:1004E0007F090909063E4141412201017F0101279F
:1004F0004848483F1E217F211E63140814633F2093
:10050000203F401F1010107F7F407F407F3F203FE3
:10051000207F017F4444387F447C007F7F444444F3
:1005200038224149493E7F087F417F462919097F8A
:1005300020545454783C4A4A4B307C545458207CC4
:10054000040404046038243C60385454541874087B
:100550007C087428445454287C2010087C7C211288
:10056000097C7C10102844407804047C7C08100826
:100570007C7C1010107C38444444387C0404047C97
:100580007C14141408384444442804047C04040CE7
:100590005050503C18247C241844281028443C20F7
:1005A000203C401C2020207C7C407C407C3C203C2B
:1005B000207C047C4848307C4848307C7C48484853
:1005C0003028445454387C38444438483414147C1B
:1005D0007E4B4A4B4238555455186E616E00696E19
:1005E000660000407A10F35A00A0724E18090010FD
:1005F000A5D4E80000E87648170000E40B54020098
:1006000000CA9A3B000000E1F505000080969800C2
:10061000000040420F000000A086010000001027EB
:1006200000000000E803000000006400000000007B
:100630000A00000000000100000000002C76D888AD
:10064000DC674F0823DFC1DFAE59E1B1B796E5E3C0
:10065000E453C63AE651997696E8E6C28426EB89D9
:100660008C9B62ED407C6FFCEFBC9C9F40F2BAA576
:100670006FA5F490055A2AF75C936B6CF9676DC10E
:100680001BFCE0E40D47FEF520E6B500D0ED902E12
:100690000300943577050080841E080000204E0A70
:1006A000000000C80C333333330F986E12831141AE
:1006B000EF8D2114893BE65516CFFEE6DB18D18479
:1006C0004B381BF77C1D901DA4BBE42420328472A0
:1006D0005E228100C9F124ECA1E53D2711241FBE53
:1006E000CFE5D8E0DEBFCDBF11E0A0E6B0E0EAEF95
:1006F000F2E402C005900D92AA38B107D9F713E0D1
:10070000AAE8B1E001C01D92A73EB107E1F70E943F
:10071000FA0C0C947B210C94000026B330E002C04C
:10072000359527958A95E2F72095822F8170089557
:100730002091BD0030E002C0359527958A95E2F7FB
:100740002095822F81700895CF92DF92EF92FF92D1
:100750000F931F93DF93CF93CDB7DEB760970FB69C
:10076000F894DEBF0FBECDBF2091AE0330E03093D2
:10077000DC032093DB038091AF0390E0909392031E
:1007800080939103281B390B3093DA032093D9030C
:100790008091BE009091BF009093C1008093C000F3
:1007A00083E590E09093C8038093C7036E0108949B
:1007B000C11CD11C39E0E32EF12CEC0EFD1E09E228
:1007C00010E066C08091C0009091C10024E0880FC5
:1007D000991F2A95E1F78C60906190939003809324
:1007E0008F030E940C18E82FF0E0F093A103E09330
:1007F000A0032091D9033091DA038091DB0390911B
:10080000DC03B901681B790B6E0F7F1F7093BD036A
:100810006093BC0385E0660F771F8A95E1F7882710
:1008200077FD8095982F442737FD4095542F0E94DF
:10083000621F29873A874B875C876D877E878F8702
:10084000988BD601F70188E001900D928150E1F775
:10085000698160938E038091C7030E948A11809101
:10086000C0009091C10001979093C1008093C00097
:100870008F5F9F4F21F41093C1000093C0008091BF
:10088000C7039091C80301979093C8038093C7034F
:100890008091C7039091C803899709F093CF609620
:1008A0000FB6F894DEBF0FBECDBFCF91DF911F9181
:1008B0000F91FF90EF90DF90CF9008958091BE0050
:1008C0009091BF0054E0880F991F5A95E1F78C6012
:1008D00090619093900380938F036091AD030E9489
:1008E00063181092AE0384E68093AF031092C8039E
:1008F0001092C70331C044E0880F991F4A95E1F771
:100900008C6090619093900380938F030E940C18E9
:10091000982F8093C6038150843648F080918F03CE
:10092000909190036091AD030E9463180CC0809178
:10093000AE03891710F49093AE038091AF0398171C
:1009400010F49093AF038091C7039091C803019670
:100950009093C8038093C7038091C7039091C80305
:100960008A32910541F60895CF92DF92EF92FF927D
:100970000F931F93DF93CF93CDB7DEB760970FB67A
:10098000F894DEBF0FBECDBF6091A2037091A303A8
:100990008091A4039091A50320E030E040E251E46F
:1009A0000E94991E0E94671D8B017093DC03609367
:1009B000DB0360919C0370919D0380919E03909155
:1009C0009F0320E030E040E251E40E94991E0E9423
:1009D000671D7093920360939103061B170B10938E
:1009E000DA030093D9038091BE009091BF009093E9
:1009F000C1008093C00083E590E09093C80380938A
:100A0000C7036E010894C11CD11CA9E0EA2EF12C89
:100A1000EC0EFD1E09E210E06FC06091C000709105
:100A2000C100F4E0660F771FFA95E1F7646070612A
:100A30007093900360938F0380E090E00E942518EC
:100A400020E030E040E251E40E94991E0E94671DC0
:100A5000FB017093A1036093A0032091D90330910F
:100A6000DA038091DB039091DC03B901681B790BF9
:100A70006E0F7F1F7093BD036093BC03E5E0660FAC
:100A8000771FEA95E1F7882777FD8095982F44270F
:100A900037FD4095542F0E94621F29873A874B8764
:100AA0005C876D877E878F87988BD601F70188E0FA
:100AB00001900D928150E1F7698160938E038091DE
:100AC000C7030E948A118091C0009091C1000197D4
:100AD0009093C1008093C0008F5F9F4F21F41093CB
:100AE000C1000093C0008091C7039091C803019793
:100AF0009093C8038093C7038091C7039091C80364
:100B0000899709F08ACF60960FB6F894DEBF0FBEC2
:100B1000CDBFCF91DF911F910F91FF90EF90DF90AC
:100B2000CF900895CF92DF92EF92FF920F931F9391
:100B3000DF93CF93CDB7DEB760970FB6F894DEBFE3
:100B40000FBECDBF6091D5037091D6038091D703BE
:100B50009091D80320E030E040E251E40E94991ED9
:100B60000E94671D8B017093DC036093DB0360912F
:100B7000D1037091D2038091D3039091D40320E0EC
:100B800030E040E251E40E94991E0E94671D70937C
:100B9000920360939103061B170B1093DA030093E3
:100BA000D9038091BE009091BF009093C1008093C3
:100BB000C00083E590E09093C8038093C7036E0163
:100BC0000894C11CD11C99E0E92EF12CEC0EFD1EFD
:100BD00009E210E06FC06091C0007091C10084E034
:100BE000660F771F8A95E1F76860706170939003D4
:100BF00060938F0380E090E00E94251820E030E0B1
:100C000040E251E40E94991E0E94671DFB0170930F
:100C1000A1036093A0032091D9033091DA0380915E
:100C2000DB039091DC03B901681B790B6E0F7F1F0A
:100C30007093BD036093BC03B5E0660F771FBA9550
:100C4000E1F7882777FD8095982F442737FD409559
:100C5000542F0E94621F29873A874B875C876D87D4
:100C60007E878F87988BD601F70188E001900D92DF
:100C70008150E1F7698160938E038091C7030E94E0
:100C80008A118091C0009091C10001979093C1009A
:100C90008093C0008F5F9F4F21F41093C100009399
:100CA000C0008091C7039091C80301979093C80337
:100CB0008093C7038091C7039091C803899709F077
:100CC0008ACF60960FB6F894DEBF0FBECDBFCF912E
:100CD000DF911F910F91FF90EF90DF90CF900895DB
:100CE000CF92DF92EF92FF920F931F93DF93CF93F8
:100CF000CDB7DEB760970FB6F894DEBF0FBECDBF9D
:100D00006091C9037091CA038091CB039091CC0389
:100D100020E030E040E251E40E94991E0E94671DED
:100D20008B017093DC036093DB036091DD037091B2
:100D3000DE038091DF039091E00320E030E040E2A9
:100D400051E40E94991E0E94671D70939203609364
:100D50009103061B170B1093DA030093D9038091BC
:100D6000BE009091BF009093C1008093C00083E5C6
:100D700090E09093C8038093C7036E010894C11C50
:100D8000D11C69E0E62EF12CEC0EFD1E09E210E00C
:100D90006EC06091C0007091C10054E0660F771F73
:100DA0005A95E1F770617093900360938F0380E030
:100DB00090E00E94251820E030E040E251E40E94DB
:100DC000991E0E94671DFB017093A1036093A0030D
:100DD0002091D9033091DA038091DB039091DC03F9
:100DE000B901681B790B6E0F7F1F7093BD03609371
:100DF000BC0345E0660F771F4A95E1F7882777FD2A
:100E00008095982F442737FD4095542F0E94621FEC
:100E100029873A874B875C876D877E878F87988B7A
:100E2000D601F70188E001900D928150E1F76981C8
:100E300060938E038091C7030E948A118091C00045
:100E40009091C10001979093C1008093C0008F5F83
:100E50009F4F21F41093C1000093C0008091C703FD
:100E60009091C80301979093C8038093C703809122
:100E7000C7039091C803899709F08BCF60960FB68E
:100E8000F894DEBF0FBECDBFCF91DF911F910F91C0
:100E9000FF90EF90DF90CF900895EF92FF920F9325
:100EA0001F936091BE007091BF00F4E0660F771F42
:100EB000FA95E1F7646070617093900360938F031B
:100EC00080918B01882359F480E090E02091B40355
:100ED0003091B5034091B6035091B7030CC08130F7
:100EE00061F480E090E02091E1033091E2034091D1
:100EF000E3035091E4030E94D51880E090E0A8E459
:100F0000B3EC8093A2039093A303A093A403B093A4
:100F1000A50380E090E0A6E9B4E480939C0390935D
:100F20009D03A0939E03B0939F031092C803109259
:100F3000C70387C0E4E0660F771FEA95E1F76460B6
:100F400070617093900360938F0380E090E00E9443
:100F500025187B018C016093A7037093A8038093ED
:100F6000A9039093AA0320E030E048E453EC0E94E8
:100F7000FB1C87FD0AC0C801B70120E030E046E94C
:100F800054E40E944A1E18163CF580918B01882378
:100F900079F460918F037091900380E090E020914C
:100FA000B4033091B5034091B6035091B70311C01B
:100FB000813009F03DC060918F037091900380E013
:100FC00090E02091E1033091E2034091E3035091DE
:100FD000E4030E94D5182CC0C801B7012091A203D8
:100FE0003091A3034091A4035091A5030E944A1E8F
:100FF000181644F4E092A203F092A3030093A40312
:101000001093A503C801B70120919C0330919D0363
:1010100040919E0350919F030E94FB1C882344F43F
:10102000E0929C03F0929D0300939E0310939F0314
:101030008091C7039091C80301969093C803809351
:10104000C7036091C7037091C8036932710509F045
:1010500071CF1F910F91FF90EF900895EF92FF9243
:101060000F931F936091BE007091BF00B4E0660FB4
:10107000771FBA95E1F76860706170939003609391
:101080008F0380918A01882359F480E090E02091B9
:10109000B0033091B1034091B2035091B3030CC03F
:1010A000813061F480E090E02091B8033091B90381
:1010B0004091BA035091BB030E94D51880E090E0A4
:1010C000A8E4B3EC8093D5039093D603A093D70301
:1010D000B093D80380E090E0A8E4B3E48093D10318
:1010E0009093D203A093D303B093D4031092C80378
:1010F0001092C70387C0A4E0660F771FAA95E1F797
:10110000686070617093900360938F0380E090E05B
:101110000E9425187B018C016093CD037093CE0350
:101120008093CF039093D00320E030E048E453EC69
:101130000E94FB1C87FD0AC0C801B70120E030E017
:1011400048E453E40E944A1E18163CF580918A0137
:10115000882379F460918F037091900380E090E090
:101160002091B0033091B1034091B2035091B30389
:1011700011C0813009F03DC060918F0370919003E0
:1011800080E090E02091B8033091B9034091BA0318
:101190005091BB030E94D5182CC0C801B701209103
:1011A000D5033091D6034091D7035091D8030E94C4
:1011B0004A1E181644F4E092D503F092D603009329
:1011C000D7031093D803C801B7012091D103309100
:1011D000D2034091D3035091D4030E94FB1C882377
:1011E00044F4E092D103F092D2030093D30310931E
:1011F000D4038091C7039091C80301969093C803CC
:101200008093C7036091C7037091C8036A32710568
:1012100009F071CF1F910F91FF90EF900895EF9219
:10122000FF920F931F936091BE007091BF0004E086
:10123000660F771F0A95E1F77061709390036093D2
:101240008F038091AB039091AC03CC97E8F480912D
:101250008A01882359F480E090E02091BE03309108
:10126000BF034091C0035091C1030CC0813061F4B1
:1012700080E090E02091C2033091C3034091C40309
:101280005091C5030E94D51886EC9CE0A8E4B3EC0D
:101290008093C9039093CA03A093CB03B093CC036C
:1012A00086EC9CE0A8E4B3E48093DD039093DE0336
:1012B000A093DF03B093E0031092C8031092C7031A
:1012C00092C014E0660F771F1A95E1F77061709372
:1012D000900360938F0380E090E00E9425187B01CB
:1012E0008C016093890370938A0380938B0390939E
:1012F0008C0320E030E048E453EC0E94FB1C87FDA7
:101300000AC0C801B70120E030E048E453E40E947D
:101310004A1E18166CF58091AB039091AC03CC97E4
:1013200038F580918A01882379F460918F03709158
:10133000900380E090E02091BE033091BF03409184
:10134000C0035091C10311C0813009F043C06091C6
:101350008F037091900380E090E02091C203309160
:10136000C3034091C4035091C5030E94D51832C0F5
:101370008091AB039091AC03CC9760F5C801B701A5
:101380002091C9033091CA034091CB035091CC0303
:101390000E944A1E181644F4E092C903F092CA0350
:1013A0000093CB031093CC03C801B7012091DD0358
:1013B0003091DE034091DF035091E0030E94FB1C5B
:1013C000882344F4E092DD03F092DE030093DF0310
:1013D0001093E0038091C7039091C8030196909306
:1013E000C8038093C7036091C7037091C8036A3232
:1013F000710509F066CF1F910F91FF90EF9008954E
:10140000BF92CF92DF92EF92FF920F931F93DF93E1
:10141000CF9300D00F92CDB7DEB719821A821B820C
:10142000CE010196BE016E5F7F4FAE014D5F5F4FF3
:101430000E94271784E062E00E94D01080E690E0CE
:101440000E94371287E065E00E94D01089E690E0A4
:101450000E94371204E014E030E9E32E31E0F32E6D
:1014600023E6D22E9CE0C92E8FE1B82E86B380935E
:10147000BD0084E063E00E94D01089816AE00E9490
:101480002F1F805D0E94011289816AE00E942F1F38
:10149000892F805D0E9401128FE20E9401128A81D1
:1014A0006AE00E942F1F805D0E9401128A816AE01B
:1014B0000E942F1F892F805D0E9401128FE20E94DF
:1014C00001128B816AE00E942F1F805D0E94011231
:1014D0008B816AE00E942F1F892F805D0E9401127C
:1014E000153041F0802F612F0E94D0108CE690E0E3
:1014F0000E943712B1992BC080EB94E0F70131972D
:10150000F1F70197D9F7043041F489818F3118F44C
:101510008F5F898319C0198217C0073041F48A810F
:101520008C3018F48F5F8A830FC01A820DC00A3086
:1015300059F4153009F46EC08B81833618F48F5F2F
:101540008B8305C01B8203C0153009F463C0B299B8
:1015500027C08091BD0082FF23C0043041F48981FF
:10156000882319F08150898319C0B98217C00730C8
:1015700041F48A81882319F081508A830FC0CA827E
:101580000DC00A3059F4153009F444C08B8188230A
:1015900019F081508B8304C0DB8202C01530D1F179
:1015A000B09932C08091BD0080FF2EC0802F64E0D2
:1015B0000E94D0108FE690E00E9437120A3011F09E
:1015C0000D5F22C0153081F01F5F86E0612F0E9401
:1015D000D0108CE30E94011289E0612F0E94D0108C
:1015E0008EE30E94011210C086E065E00E94D010D8
:1015F00080E20E94011289E065E00E94D01080E242
:101600000E94011204E014E0B39930CF86B38093B6
:10161000BD000AC0CE010196BE016E5F7F4FAE01D4
:101620004D5F5F4F0E94D4160F900F900F90CF9197
:10163000DF911F910F91FF90EF90DF90CF90BF90BF
:101640000895CF92DF92EF92FF920F931F93DF9353
:10165000CF9300D000D0CDB7DEB719821A821B829B
:101660001C82CE010196BE016E5F7F4FAE014D5FC1
:101670005F4F9E012C5F3F4F0E94811784E062E024
:101680000E94D01082E790E00E94371287E065E068
:101690000E94D01089E690E00E94371204E014E026
:1016A00060E9E62E61E0F62E5BE3D52E47E1C42E1D
:1016B00086B38093BD0084E063E00E94D0108981EE
:1016C0006AE00E942F1F805D0E94011289816AE0FA
:1016D0000E942F1F892F805D0E9401128AE30E94C1
:1016E00001128A816AE00E942F1F805D0E94011210
:1016F0008A816AE00E942F1F892F805D0E9401125B
:101700008AE30E9401128B816AE00E942F1F805D94
:101710000E9401128B816AE00E942F1F892F805D39
:101720000E940112053041F0812F602F0E94D010DD
:101730008CE690E00E943712B19927C080EB94E0CC
:10174000F7013197F1F70197D9F7143041F4898106
:10175000873118F48F5F898315C0198213C0173041
:1017600041F48A818B3318F48F5F8A830BC01A820D
:1017700009C01A3039F48B818B3318F48F5F8B8357
:1017800001C01B82053009F45FC0B29923C080916B
:10179000BD0082FF1FC0143041F48981882319F0F5
:1017A0008150898315C0C98213C0173041F48A81E2
:1017B000882319F081508A830BC0DA8209C01A305D
:1017C00039F48B81882319F081508B8301C0DB822F
:1017D0000530D1F1B09932C08091BD0080FF2EC09C
:1017E000812F64E00E94D0108FE690E00E943712B3
:1017F0001A3011F01D5F22C0053081F00F5F86E0C6
:10180000602F0E94D0108CE30E94011289E0602FAB
:101810000E94D0108EE30E94011210C086E065E0A5
:101820000E94D01080E20E94011289E065E00E94CF
:10183000D01080E20E94011204E014E0B39938CF86
:1018400086B38093BD0006C089816A814B812C815B
:101850000E94FE160F900F900F900F90CF91DF9186
:101860001F910F91FF90EF90DF90CF9008958F928E
:101870009F92AF92BF92CF92DF92FF920F931F93EE
:10188000DF93CF9300D000D000D0CDB7DEB7DE011C
:101890001196E8E6F1E086E001900D928150E1F7C3
:1018A00084E061E00E94D0108BE790E00E94371244
:1018B00083E063E00E94D01089809A80C4010E9476
:1018C000371283E064E00E94D010AB80BC80C50179
:1018D0000E94371283E065E00E94D010CD80DE8048
:1018E000C6010E94371200E010E086B38093BD006D
:1018F00073E0F72EF00E82E06F2D0E94D01085E885
:1019000090E00E943712B19911C08091BD0081FF13
:101910000DC00230110551F082E06F2D0E94D010F1
:1019200087E890E00E9437120F5F1F4FB29912C0F4
:101930008091BD0082FF0EC00115110559F0602F86
:101940006D5F82E00E94D01087E890E00E9437121D
:1019500001501040B09931C08091BD0080FF2DC072
:101960000E946E120115110521F00130110531F4AC
:1019700003C00E94210B02C00E94000A0E946E1246
:1019800084E061E00E94D0108BE790E00E94371263
:1019900083E063E00E94D010C4010E94371283E00C
:1019A00064E00E94D010C5010E94371283E065E018
:1019B0000E94D010C6010E943712B39996CF809131
:1019C000BD0083FF92CF86B38093BD000E946E124C
:1019D00026960FB6F894DEBF0FBECDBFCF91DF9134
:1019E0001F910F91FF90DF90CF90BF90AF909F908D
:1019F0008F9008952F923F924F925F926F927F92B5
:101A00008F929F92AF92BF92CF92DF92EF92FF920E
:101A10000F931F93DF93CF93CDB7DEB7CE54D04053
:101A20000FB6F894DEBF0FBECDBFDE011896E9E316
:101A3000F1E08EE001900D928150E1F7DE015696C3
:101A4000E5E0F1E088E101900D928150E1F70E941C
:101A5000A3100E946F0E0E94E50E89EC6DE740E036
:101A60000E944C1580E061E040E00E94F5170E9462
:101A7000971286E063E00E94D01089E890E00E940F
:101A8000371285E064E00E94D0108FE890E00E9459
:101A9000371286E065E00E94D01087E990E00E944E
:101AA000371280E29EE420E931E0F9013197F1F745
:101AB0000197D9F78EEA90E00E947F140E94BD1230
:101AC00080E29EE420E931E0F9013197F1F70197D6
:101AD000D9F70E946E128E01025D1F4F74E0272E0F
:101AE000312C2C0E3D1E7E010894E11CF11C65E09A
:101AF000462E512C4C0E5D1E56E0652E712C6C0E40
:101B00007D1E47E0842E912C8C0E9D1E3CE9A32E59
:101B100030E0B32E2EEAC22E20E0D22E82E063E027
:101B20000E94D010C8010E943712C701BE016E5F2B
:101B30007F4FAE014D5F5F4F91010E948117C2013F
:101B4000B301A4010E94271729813A814B818DB7E7
:101B50009EB742970FB6F8949EBF0FBE8DBFADB72C
:101B6000BEB71196EDB7FEB7128301831396BC92F0
:101B7000AE921297822F6AE00E942F1F14968C93C8
:101B8000149715961C921597822F0E942F1F169658
:101B90009C93169717961C921797832F0E942F1FBE
:101BA00018968C93189719961C921997832F0E9458
:101BB0002F1F1A969C931A971B961C921B97842F83
:101BC0000E942F1F1C968C931C971D961C921D978C
:101BD000842F0E942F1F1E969C931E971F961C9267
:101BE0001F97EC81F0E03197EE0FFF1FEE0DFF1D08
:101BF0008781908551969C938E9350970E94F920EF
:101C00008DB79EB742960FB6F8949EBF0FBE8DBF9C
:101C100082E065E00E94D010C8010E9437122D8139
:101C20003F81EDB7FEB73E970FB6F894FEBF0FBEEB
:101C3000EDBFADB7BEB71196128301831396DC9248
:101C4000CE921297822F6AE00E942F1F14968C93D7
:101C5000149715961C921597822F0E942F1F169687
:101C60009C93169717961C921797EE81F0E0319788
:101C7000EE0FFF1FEE0DFF1D8589968919969C9327
:101C80008E931897832F0E942F1F1A968C931A9762
:101C90001B961C921B97832F0E942F1F1C969C93B0
:101CA0001C971D961C920E94F9208DB79EB70E9628
:101CB0000FB6F8949EBF0FBE8DBF82E066E00E9413
:101CC000D010C8010E943712B09928CF8091BD0072
:101CD00080FF24CF0E946E120E94370C1FCF15BACE
:101CE00084E084BB0895582FA39A90E820E030E068
:101CF00072E06DE0892F852311F0AB9A01C0AB989B
:101D000042E0872F8A95F1F7AA9A862F8A95F1F7F4
:101D1000AA9896952F5F3F4F2830310559F7A39821
:101D2000842F8A95F1F7AA9A842F8A95F1F783B3C5
:101D3000AA98942F9A95F1F788700895682FA39820
:101D400040E880E020E030E052E0AA9A952F9A9592
:101D5000F1F79B99842BAA98952F9A95F1F74695C0
:101D60002F5F3F4F2830310581F7662329F0A39A72
:101D7000AB9892E09A95F1F7AA9A9DE09A95F1F7BF
:101D8000AA9892E09A95F1F7A3980895A39AAB9A2E
:101D9000AA9882E0982F9A95F1F7AA9A982F9A9587
:101DA000F1F7AB98982F9A95F1F7AA989DE09A953C
:101DB000F1F7AA9A982F9A95F1F7AB9A982F9A95DE
:101DC000F1F7AA988A95F1F70895A39AAB9AAA9881
:101DD00082E08A95F1F790E022E0AA9A822F8A9514
:101DE000F1F7AA98822F8A95F1F79F5F9930A9F7AA
:101DF0000E94C60E08950E94E50E8EE10E94730EA9
:101E00000895DF92EF92FF920F931F938C017B0155
:101E10000E94C60E87E00E94730ED82E81E00E94B9
:101E20009E0EF801808380E00E949E0EF701808361
:101E30008D2D1F910F91FF90EF90DF900895FF92ED
:101E40000F931F938C010E94C60E86E00E94730EB2
:101E5000F82EF80180810E94730E8F0D1F910F9153
:101E6000FF900895CF92DF92EF92FF921F93CF934E
:101E7000DF937C016B01142F0E94C60E112329F001
:101E8000113029F0C0E0D0E007C083E001C085E058
:101E90000E94730EC82FD0E0A39880E090E032E05B
:101EA000232F2A95F1F79B9B05C001962FEF8F3FBB
:101EB0009207B1F79B99219681E00E949E0EF7014F
:101EC000818381E00E949E0EF701808380E00E9462
:101ED0009E0EF60180838C2FDF91CF911F91FF9092
:101EE000EF90DF90CF9008952F923F924F925F92A4
:101EF0006F927F928F929F92AF92BF92CF92DF921A
:101F0000EF92FF920F931F93DF93CF9300D000D0F7
:101F1000CDB7DEB79A8389837C836B83FC01A08075
:101F2000B180C280D380FB01608171818281938105
:101F30002AE037ED43E25DE30E94991E23E333E399
:101F40004FE152E40E94961C1B012C0120E030E07E
:101F500048EC51E40E94961C7B018C01C601B5013E
:101F60002CEA35EC47EA5AE30E94991E2AE037ED45
:101F700043E25CE30E94971C9B01AC01C801B701DE
:101F80000E94991E3B014C01C601B5012BE335E2CD
:101F900046ED59EB0E94991EA60195010E94991EDB
:101FA0007B018C01C601B5012DEB32E546E15FE313
:101FB0000E94991E9B01AC01C801B7010E94971CA9
:101FC00025EC3EEF42E050E40E94961C9B01AC01E0
:101FD000C401B3010E94971C7B018C0120E030E01A
:101FE00048EC52E40E944A1E18165CF40F2EF0E0F2
:101FF000EF2EF0E0FF2EF8EC0F2FF2E41F2FF02D64
:1020000014C0C801B7012DEC3CEC4CEC5DE30E9420
:10201000FB1C882354F40F2EFDECEF2EFCECFF2E5E
:10202000FCEC0F2FFDE31F2FF02DEB81FC812082B4
:10203000318242825382E981FA81E082F182028315
:1020400013830F900F900F900F90CF91DF911F91FE
:102050000F91FF90EF90DF90CF90BF90AF909F9047
:102060008F907F906F905F904F903F902F9008954A
:102070006F927F928F929F92AF92BF92CF92DF9298
:10208000EF92FF920F931F9359016A010E944E1E17
:102090003B014C01C601B50120E030E040EF50E4C7
:1020A0000E94991E7B018C01C601B5012DEC3CE418
:1020B0004DE653E40E94971C9B01AC01C801B70197
:1020C0000E94FF1C29E338E249E25FE30E94971C6B
:1020D0007B018C01C401B30120E030E040E050E41A
:1020E0000E94961C9B01AC01C801B7010E94971C7D
:1020F0005B016C0129E338E249E25FE30E94961C30
:102100002DEC3CE44DE653E40E94991E7B018C01CA
:1021100064E872E982E091E4A60195010E94961CB0
:102120009B01AC01C801B7010E94FF1C1F910F91D8
:10213000FF90EF90DF90CF90BF90AF909F908F90E7
:102140007F906F90089580E487B987E886B90895F5
:1021500097B18770892B87B9369A349BFECF349A12
:1021600024B135B1C9010895A0E0B0E0BC01CD01B2
:102170000E94981D28E638EE4FE95BE30E94991E05
:1021800020E030E040EB51E40E94991E2DEC3CEC45
:1021900048E251E40E94971C0E946C1DCB010895F7
:1021A00096E0899FC00111248A55904024E5629FE2
:1021B000B0011124860F971F9093E6038093E503E7
:1021C000089590E08555904024E5629FB001112468
:1021D000860F971F9093E6038093E5030895982F49
:1021E0008AB38C608ABBD998613011F4DA9A01C045
:1021F000DA9827E030E0492F50E0CA01022E02C0F1
:10220000959587950A94E2F780FF02C0DB9A01C09A
:10221000DB98DC9ADC98215030408FEF2F3F380755
:1022200061F7D99A8AB3837F8ABB8BB38C608BBBEF
:1022300008950F931F938C0164E570E00E943B1F8B
:10224000806860E00E94EF10C80164E570E00E94C1
:102250003B1F862F806460E00E94EF101F910F915A
:1022600008958091E5039091E6030E94191180E0A2
:1022700061E00E94EF1086E061E00E94EF108FE0C5
:1022800061E00E94EF108FE061E00E94EF1086E0B5
:1022900061E00E94EF1080E061E00E94EF10809109
:1022A000E5039091E60306969093E6038093E50399
:1022B00008951F93182F862F8770806460E00E9416
:1022C000EF10812F806860E00E94EF101F91089549
:1022D0001F93182F8DE060E00E94EF108AB38C608E
:1022E0008ABBD998DA9A88E010FD02C0DB9801C059
:1022F000DB9ADC9ADC98815011F01695F5CFD99ACB
:102300008AB3837F8ABBDB9A8CE060E00E94EF1087
:102310001F910895DF92EF92FF920F931F93D82E93
:1023200020E080E090E0A0E0B0E006C08160880F8F
:10233000991FAA1FBB1F2F5F2617C1F722E0E22EAD
:10234000F12C012D112DE82AF92A0A2B1B2B8D2D9A
:1023500061E00E945911812F9927AA27BB270E946B
:1023600068118D2D62E00E945911802F0E94681122
:102370008D2D63E00E9459118F2D0E9468118D2DC3
:1023800064E00E9459118E2D0E9468111F910F91D7
:10239000FF90EF90DF9008950F931F93CF93DF93FB
:1023A000182F8091E5039091E6030E941911113CCA
:1023B00008F01E5385E0189FC0011124EC01CA5F8C
:1023C000DD4F8C010B5910400A551D4FFE018491C1
:1023D000880F0E9468112196C017D107B9F780E0D5
:1023E00061E00E94EF108091E5039091E60306966C
:1023F0009093E6038093E503DF91CF911F910F91B6
:1024000008950F931F93CF93DF93182F8091E503C7
:102410009091E6030E941911113C08F01E5385E0CB
:10242000189FC0011124EC01CA5FDD4F8C010B59CC
:1024300010400A551D4FFE018491880F61E00E94F3
:10244000EF102196C017D107B1F780E061E00E943C
:10245000EF108091E5039091E60306969093E603D2
:102460008093E503DF91CF911F910F910895CF9352
:10247000DF93EC0103C021960E940112888188231A
:10248000D1F7DF91CF9108950F931F93CF93DF93EF
:1024900094E5899FC0011124845590408C01040F5C
:1024A000111D01501040C62FD0E02197C80FD91F31
:1024B000CE010E94191105C080E061E00E94EF107A
:1024C0002196C017D107C0F3DF91CF911F910F91D3
:1024D000089561E044E50E9444120895CF93DF938C
:1024E0001092E6031092E50380E090E00E9419113B
:1024F000C0E0D0E080E061E00E94EF10219681E032
:10250000C83FD807B9F7DF91CF9108951F93182FCF
:1025100081E260E00E94EF10812F806860E00E94FD
:10252000EF1080E260E00E94EF101F910895D89AAA
:102530008AB38F618ABB80E395E70197F1F7D8985A
:10254000D89AD99A81E260E00E94EF1088EC60E0AE
:102550000E94EF1086E060E00E94EF1083E160E0EF
:102560000E94EF1080E260E00E94EF108DE060E0DA
:102570000E94EF100E946E120895EF92FF920F9347
:102580001F93CF93DF93809184039091850397FFEE
:1025900005C0109285031092840309C0885F9140A2
:1025A00034F087EF91E090938503809384038091CA
:1025B00086039091870397FF05C0109287031092BE
:1025C000860309C0885F914034F087EF91E09093D3
:1025D000870380938603C0918403D0918503CE0145
:1025E00064E570E00E944F1F806860E00E94EF1079
:1025F000CE0164E570E00E944F1F862F806460E08A
:102600000E94EF10E0908603F09087038E0104573C
:102610001E4F07C0F80181918F0161E00E94EF1009
:102620002196EC16FD06B4F787EF91E090938503B1
:10263000809384031092870310928603109288037C
:10264000DF91CF911F910F91FF90EF900895582F38
:10265000853508F05AC0613308F057C0862F86953B
:102660008695869590E024E530E0829FD001839F97
:10267000B00D929FB00D1124A50FB11D53E0880F2E
:10268000991F5A95E1F7681BFD01E457FE4F208121
:10269000442351F481E090E002C0880F991F6A95AD
:1026A000E2F78095282315C0413049F481E090E09D
:1026B00002C0880F991F6A95E2F7282B0AC04230A2
:1026C00041F481E090E002C0880F991F6A95E2F71B
:1026D0002827FD01E457FE4F2083809184039091C9
:1026E0008503A817B90720F4B0938503A09384034A
:1026F00080918603909187038A179B0720F4B093FB
:102700008703A093860380E0089581E008955F9297
:102710006F927F928F929F92AF92BF92CF92DF92F1
:10272000EF92FF920F931F93CF93DF93C82E562EF5
:10273000D42E622E702E022F10E0041B1109C62F1A
:10274000D0E0C81BD10917FD04C0B1E08B2E912C3D
:1027500006C0109501951F4F88248A94982CD7FDA8
:1027600004C0A1E0AA2EB12C06C0D095C195DF4FC0
:10277000AA24AA94BA2C8C2D6D2D472D0E942713C4
:102780008823E9F57E01EE0CFF1C000F111F0E15CA
:102790001F05CCF4C70195958795E801C81BD90B97
:1027A0000FC0D7FD03C0D80CCE19DF09CA0C8C2D81
:1027B0006D2D472D0E942713882309F5C00FD11FC7
:1027C000C51479F718C0C80195958795E701C81B0E
:1027D000D90B0FC0D7FD03C0CA0CC01BD10BD80C3E
:1027E0008C2D6D2D472D0E942713882341F4CE0D8B
:1027F000DF1DD61479F781E08093880380E0DF91B4
:10280000CF911F910F91FF90EF90DF90CF90BF90ED
:10281000AF909F908F907F906F905F9008959F9260
:10282000AF92BF92CF92DF92EF92FF920F931F93DE
:10283000982EA62EC22E84E5891508F456C080E392
:10284000861708F452C0D42E842F880F03E0081B8B
:10285000EE2448C01E2D190DFD2CFA0C812F6F2D72
:102860004C2D0E942713BA2CBD18812F6B2D4C2D97
:102870000E942713192D1E19812F6F2D4C2D0E9498
:102880002713812F6B2D4C2D0E9427131D2D190D01
:10289000FE2CFA0C812F6F2D4C2D0E942713BA2C81
:1028A000BE18812F6B2D4C2D0E942713192D1D1939
:1028B000812F6F2D4C2D0E942713812F6B2D4C2DB6
:1028C0000E94271307FF06C00A5F8E2D880F880F0E
:1028D000080F07C0065F8E2D8D19880F880F080F0F
:1028E000DA94E394DE140CF0B5CF1F910F91FF90B2
:1028F000EF90DF90CF90BF90AF909F900895BC0174
:102900008CE891E048EF51E00E94AE2010928503E0
:102910001092840387EF91E090938703809386035E
:1029200081E080938803089588EF91E0ECE8F1E07E
:10293000DF019C011D9221503040E1F71092850388
:102940001092840387EF91E090938703809386032E
:1029500081E080938803089502C0000001970097EA
:10296000E1F70895AC98A49A80EE91E001C00000D0
:1029700001972FEF8F3F9207D1F7A4988CE390E057
:1029800001C0000001973FEF8F3F9307D1F723B3BA
:1029900084EA91E001C0000001973FEF8F3F930769
:1029A000D1F783B340E090E080719070207130E007
:1029B0008217930709F441E0842F0895AC98A49AF4
:1029C00000008111A4988CE390E001C00000019701
:1029D0002FEF8F3F9207D1F7A4980895AC98A49A4F
:1029E0000000A4988EE090E001C0000001972FEF56
:1029F0008F3F9207D1F783B32DE230E001C0000092
:102A0000215030409FEF2F3F3907C9F790E024E075
:102A1000969587952A95E1F7817008950F931F93F6
:102A200008E010E009C00E94EE14912F9695182F2F
:102A3000179511271795192B0150A8F7812F1F9172
:102A40000F9108950F931F93082F18E005C0802F52
:102A500081700E94DE1406951150C8F71F910F91E6
:102A60000895FC0190E040E058E112C0308120E080
:102A7000832F892780FF04C095279695906801C011
:102A800096952F5F283011F03695F2CF4F5F319633
:102A9000461760F3892F0895FF920F931F93F82E26
:102AA000062F142F0E94B214882311F081E025C054
:102AB0008CEC0E9422158EE40E942215802F0E9429
:102AC00022158F2D0E9422151295110F107E812F35
:102AD0008F610E9422150E94B2148CEC0E94221574
:102AE00088E40E94221587E99AE301C0000001975B
:102AF0002FEF8F3F9207D1F780E01F910F91FF904A
:102B00000895CF93DF93C3E9D3E00E940E15899314
:102B100083E0CC39D807C9F7CE01099768E00E9455
:102B2000311520E090919B03891321E0822FDF91E2
:102B3000CF9108958F929F92BF92CF92DF920F9381
:102B4000DF93CF93CDB7DEB72C970FB6F894DEBFE7
:102B50000FBECDBF4C01DE011196E2E8F1E088E046
:102B600001900D928150E1F70E94B214882309F080
:102B700072C08CEC0E94221584E40E9422150E94EF
:102B8000EE148823E1F30E94B2148CEC0E9422150B
:102B90008EEB0E9422150E948115882309F05BC0EC
:102BA0000E94B214B090970380919303C82EDD2445
:102BB0009091940380E0C82AD92AD7FC02C000E093
:102BC00005C0D094C194D108D39401E0B60154E07B
:102BD000769567955A95E1F770E0882777FD80959F
:102BE000982F0E949A1D69877A878B879C87B29459
:102BF000B69447E0B422EB2DF0E0E370F070EE0FF6
:102C0000FF1FEC0FFD1F61816C2170E0882777FDAD
:102C10008095982F0E949A1D20E030E040E85DE307
:102C20000E94991E9B01AC0169857A858B859C85E4
:102C30000E94971CF4016083718382839383002335
:102C400041F0DC01CB01B058F40180839183A28371
:102C5000B38380E001C081E02C960FB6F894DEBF0C
:102C60000FBECDBFCF91DF910F91DF90CF90BF907E
:102C70009F908F90089511B880E280B90895982FA1
:102C800084EA86BF06B607FEFDCF81B1887F883013
:102C900021F0803111F081E0089593B984E886BF76
:102CA00006B607FEFDCF91B1987F983111F480E010
:102CB000089580E0903409F081E0089544EA34E812
:102CC00024E946BF06B607FEFDCF91B1987F983044
:102CD00011F09031B1F783B936BF06B607FEFDCFCC
:102CE00091B1987F903211F0983529F426BF06B63D
:102CF00004FCFDCFE6CF08950E943F16089584E9B5
:102D000086BF089583B984E886BF06B607FEFDCF67
:102D100081B190E0887F883209F091E0892F089591
:102D200084EC86BF06B607FEFDCF83B1089584E824
:102D300086BF06B607FEFDCF83B10895813059F4F2
:102D400084EC86BF06B607FEFDCF81B1887F803553
:102D500039F080E0089584E886BF06B607FEFDCF0F
:102D600083B10895282F22952F7030E0A90163E0E8
:102D7000440F551F6A95E1F7220F331F420F531F6F
:102D80008F70840F0895482F6AE00E942F1F282F0C
:102D900030E074E0220F331F7A95E1F7842F0E9410
:102DA0002F1F892F822B0895CF92DF92EF92FF92EF
:102DB0000F931F938C017B016A0180ED0E943F16E7
:102DC00084E00E948216F80180810E94C3160E944E
:102DD0008216F70180810E94C3160E948216F601B6
:102DE00080810E94C3160E9482160E947F161F9146
:102DF0000F91FF90EF90DF90CF900895EF92FF92A8
:102E00000F931F93F82E062F142FE22E80ED0E94B1
:102E10003F1680E00E948216812F0E94C3160E94F6
:102E20008216802F0E94C3160E9482168F2D0E9448
:102E3000C3160E9482168E2D0E94C3160E9482160F
:102E40000E947F161F910F91FF90EF900895CF92EF
:102E5000DF92EF92FF920F931F938C017B016A0127
:102E600080ED0E943F1684E00E94821681ED0E9450
:102E70003F1681E00E949E16282F22952F7030E089
:102E8000A90163E0440F551F6A95E1F7220F331F34
:102E9000420F531F8F70840FF801808381E00E94DE
:102EA0009E16282F22952F7030E0A901B3E0440F21
:102EB000551FBA95E1F7220F331F420F531F8F7032
:102EC000840FF701808380E00E949E16282F2295B0
:102ED0002F7030E0A901F3E0440F551FFA95E1F798
:102EE000220F331F420F531F8F70840FF601808310
:102EF0000E947F161F910F91FF90EF90DF90CF906F
:102F00000895AF92BF92CF92DF92EF92FF920F930C
:102F10001F936C017B018A01590180ED0E943F16CD
:102F200080E00E94821681ED0E943F1681E00E949F
:102F30009E16282F22952F7030E0A90163E0440FE0
:102F4000551F6A95E1F7220F331F420F531F8F70F1
:102F5000840FF801808381E00E949E16282F22951D
:102F60002F7030E0A90113E0440F551F1A95E1F7C7
:102F7000220F331F420F531F8F70840FF70180837E
:102F800081E00E949E16282F22952F7030E0A90123
:102F9000A3E0440F551FAA95E1F7220F331F420FFC
:102FA000531F8F70840FF601808380E00E949E166D
:102FB000282F22952F7030E0A901E3E0440F551F20
:102FC000EA95E1F7220F331F420F531F8F70840FD2
:102FD000F50180830E947F161F910F91FF90EF9063
:102FE000DF90CF90BF90AF9008951F93182F13706C
:102FF000611110614111106880ED0E943F1687E059
:103000000E948216812F0E94821680E00E949E16E6
:103010000E947F161F9108950F931F938C0180EAE1
:103020000E943F16812F0E948216802F0E948216D6
:1030300081EA0E943F1680E00E949E16182F0E948F
:103040007F16812F1F910F910895CF92DF92EF92FB
:10305000FF920F931F93DF93CF9300D000D0CDB793
:10306000DEB77B018E010F5F1F4F81E1C82ED12C8F
:10307000CC0EDD1EC7010E940C1890E0A0E0B0E06D
:10308000BC01CD010E94981DF80161937193819359
:1030900091938F010894E11CF11CEC15FD0551F78B
:1030A00029813A814B815C81B901CA010F900F904F
:1030B0000F900F90CF91DF911F910F91FF90EF90A4
:1030C000DF90CF900895FF920F931F93182F092F31
:1030D000F62E80EA0E943F16802F0E948216812FD2
:1030E0000E9482168F2D0E94821680E29EE4019734
:1030F000F1F70E947F161F910F91FF900895CF92D4
:10310000DF92EF92FF920F931F93DF93CF9300D044
:1031100000D0CDB7DEB781E0898382E08A8383E087
:103120008B8384E08C8300E010E06E010894C11C66
:10313000D11C22E0E22EF601E00FF11FC8016081F0
:103140000E94631892E0F92E8E2D8A95F1F70F5F99
:103150001F4F0430110579F780E090E00E940C18B1
:103160008F2D8A95F1F781E090E00E940C188F2D49
:103170008A95F1F782E090E00E940C188F2D8A95D5
:10318000F1F783E090E00E940C189F2D9A95F1F7DB
:103190000F900F900F900F90CF91DF911F910F9193
:1031A000FF90EF90DF90CF900895CF92DF92EF9253
:1031B000FF920F931F93DF93CF9300D000D0CDB732
:1031C000DEB729833A834B835C837E010894E11C3C
:1031D000F11C8B0131E1C32ED12CCC0EDD1EF70189
:1031E00061917191819191917F010E946C1D9B0170
:1031F000AC01C801622F0E9463180F5F1F4FEC14CF
:10320000FD0469F70F900F900F900F90CF91DF9111
:103210001F910F91FF90EF90DF90CF900895A1E163
:10322000B0E0E5E1F9E10C947D1F3C017F876E87FA
:103230006A01FC0117821682838181FD03C06FEF52
:103240007FEF6FC39E012F5F3F4F398B288BF301B8
:103250002381EE85FF8523FD859123FF8191FF87E3
:10326000EE87882309F45AC3853251F4EE85FF8531
:1032700023FD859123FF8191FF87EE87853229F415
:1032800090E0B3010E94CD20E2CF982F10E0882477
:1032900099241032B0F49B3269F09C3228F49032B9
:1032A00051F0933271F40BC09D3239F0903349F4F0
:1032B000116028C01260146025C0186023C010611E
:1032C00021C017FD2AC0892F80538A3078F416FF59
:1032D00006C0FAE09F9E902C1124980E13C03AE08D
:1032E000839E802C1124880E10620CC09E3221F423
:1032F00016FD14C3106406C09C3611F4106802C099
:10330000983659F4EE85FF8523FD959123FF919121
:10331000FF87EE87992309F0BCCF892F855483302E
:1033200020F4812F8061905E07C0892F85568330FD
:1033300008F09FC1812F8F7E86FD02C076E0972E18
:103340006FE3F62EF822953619F4F0E4FF2A07C051
:10335000963619F420E8F22A02C091109A94F7FEEA
:103360000AC03BE3391518F45CE3B52E02C0B92C52
:10337000B39427E009C047E0491520F4BB2447E097
:10338000942EF7CF292DBB24C60104969D878C87E8
:10339000F6016081718182819381AE014F5F5F4F41
:1033A0000B2D0E94D61F6C010981202E332400FFB3
:1033B00004C003FD02C01DE209C0F1FE02C01BE211
:1033C00005C0F2FC02C010E001C010E2C1018C7027
:1033D0009070892BB9F1112311F483E001C084E0CE
:1033E000881510F088240AC0881AF3FC07C080E210
:1033F00090E0B3010E94CD208A94C9F7112329F0EF
:10340000812F90E0B3010E94CD2023FE03C00AED7E
:1034100015E00EC00EED15E00BC0E114F10409F04B
:10342000805290E0B3010E94CD200F5F1F4F05C076
:10343000EF2CFF24F0E1EF22FF24F8018491882390
:1034400061F714C1F7FE12C0BC0C24FE04C08A81CF
:10345000813309F4BA941B141CF0BB24B3942DC01F
:10346000F8E0FB1550F538E0B32E27C0F6FC25C078
:10347000892D90E08C159D054CF02CEFC2162FEF96
:10348000D20624F030E8F32A01C09A94992049F03A
:10349000E2E0F0E0EC0FFD1FE90DF11D80818033CB
:1034A000A1F3F7FE0AC0B92CB394892D90E0C81699
:1034B000D90614F0992401C09C18F7FC03C025E03C
:1034C00030E009C01C141D041CF021E030E003C0F2
:1034D00096012F5F3F4F112311F02F5F3F4F99202F
:1034E00029F0892D90E00196280F391F882D90E052
:1034F0002817390714F0882401C0821A4F2C55244C
:10350000C20189709070892B39F008C080E290E088
:10351000B3010E94CD208A948820C1F7112329F09D
:10352000812F90E0B3010E94CD2043FE07C008C068
:1035300080E390E0B3010E94CD208A948820C1F7F7
:10354000F7FE46C08601D7FE02C000E010E076011B
:103550000894E11CF11CE01AF10A41E050E04C0F24
:103560005D1FE40EF51E26014B185108892D90E0D1
:10357000AA24BB24A81AB90A5FEF0F3F150729F444
:103580008EE290E0B3010E94CD20C016D10634F047
:10359000401651061CF4F701808101C080E3015000
:1035A00010400894E11CF11C0A151B052CF090E05A
:1035B000B3010E94CD20E0CF0C151D0539F49A818E
:1035C000963318F4953311F424FE81E390E04BC058
:1035D0008A81813309F00F7E90E0B3010E94CD20F3
:1035E0009920A1F08EE290E0B3010E94CD2012E07C
:1035F000E1E0F0E0EC0FFD1FE10FF11D1F5F8081A6
:1036000090E0B3010E94CD209A9491F744FC03C04E
:1036100085E690E002C085E490E0B3010E94CD20F1
:10362000D7FC05C0C114D10441F404FF06C0D094F6
:10363000C194D108D3948DE201C08BE290E0B30134
:103640000E94CD2080E305C08F5F26EF3FEFC20EC2
:10365000D31E3AE0C316D104BCF790E0B3010E9438
:10366000CD20C601C096B3010E94CD20CC84DD845C
:1036700052C1933631F0933799F0933509F059C020
:1036800023C0F601808189835E010894A11CB11CCE
:1036900022E030E0C20ED31E21E0E22EF12C12C057
:1036A000F601A080B18016FD03C06FEF7FEF02C06E
:1036B000692D70E022E030E0C20ED31EC5010E94E9
:1036C000C2207C011F7713C0F601A080B18016FDD7
:1036D00003C06FEF7FEF02C0692D70E022E030E0A1
:1036E000C20ED31EC5010E94B7207C01106813FFD3
:1036F00007C01BC080E290E0B3010E94CD208A94F5
:10370000882D90E0E816F906A8F30FC0F50117FD23
:10371000859117FF81915F0190E0B3010E94CD2058
:1037200081108A940894E108F108E114F10471F71A
:10373000F2C0943611F0993689F517FF08C0F601EA
:10374000208131814281538184E090E00AC0F601FA
:10375000808191819C01442737FD4095542F82E060
:1037600090E0C80ED91E9FE6F92EF12257FF09C03E
:1037700050954095309521953F4F4F4F5F4F90E8C2
:10378000F92ACA01B901AE014F5F5F4F2AE030E06C
:103790000E941D21E82EE889EE1A41C0953721F4D8
:1037A0001F7E2AE030E01CC0197F9F3661F0903701
:1037B00020F4983509F0B2C00FC0903739F098372F
:1037C00009F0ACC004C028E030E00AC0106114FD6C
:1037D000146020E130E004C014FD166020E132E006
:1037E00017FF08C0F601608171818281938144E0F6
:1037F00050E008C0F60180819181BC0180E090E03A
:1038000042E050E0C40ED51EAE014F5F5F4F0E94F4
:103810001D21E82E5889E51A8FE7F82EF122F6FED1
:103820000BC08EEFF822E91438F4F4FE07C0F2FC66
:1038300005C09FEEF92202C01E2D01C0192DF4FE15
:103840000DC0FE01EE0DF11D8081803319F4E9EE0B
:10385000FE2208C01F5FF2FE05C003C08F2D8678D0
:1038600009F01F5F0F2DF3FC14C0F0FE0FC01815F8
:1038700010F09E2C0BC09E2C980C911A182D06C08F
:1038800080E290E0B3010E94CD201F5F1815C0F3C5
:1038900004C0181510F4811A01C0882404FF0FC059
:1038A00080E390E0B3010E94CD2002FF1DC001FD26
:1038B00003C088E790E00EC088E590E00BC0802F41
:1038C000867891F001FF02C08BE201C080E2F7FC34
:1038D0008DE290E0B3010E94CD2006C080E390E02D
:1038E000B3010E94CD209A94E914C0F3EA94E1E078
:1038F000F0E0EC0FFD1FEE0DF11D808190E0B301B3
:103900000E94CD20EE2091F706C080E290E0B30146
:103910000E94CD208A948820C1F799CCF30166815A
:103920007781CB016196E2E10C94991F5058BB2737
:10393000AA270ED075C166D130F06BD120F031F4DA
:103940009F3F11F41EF45BC10EF4E095E7FB51C1FB
:10395000E92F77D180F3BA176207730784079507B9
:1039600018F071F49EF58FC10EF4E0950B2EBA2F6E
:10397000A02D0B01B90190010C01CA01A001112475
:10398000FF27591B99F0593F50F4503E68F11A1621
:10399000F040A22F232F342F4427585FF3CF4695B2
:1039A00037952795A795F0405395C9F77EF41F16D4
:1039B000BA0B620B730B840BBAF09150A1F0FF0F9E
:1039C000BB1F661F771F881FC2F70EC0BA0F621F8A
:1039D000731F841F48F4879577956795B795F7957A
:1039E0009E3F08F0B3CF9395880F08F09927EE0F0C
:1039F000979587950895D9D008F481E008950CD063
:103A00000FC107D140F0FED030F021F45F3F19F034
:103A1000F0C0511139C1F3C014D198F39923C9F3FF
:103A20005523B1F3951B550BBB27AA2762177307C4
:103A3000840738F09F5F5F4F220F331F441FAA1F78
:103A4000A9F333D00E2E3AF0E0E830D09150504038
:103A5000E695001CCAF729D0FE2F27D0660F771FE6
:103A6000881FBB1F261737074807AB07B0E809F0C8
:103A7000BB0B802DBF01FF2793585F4F2AF09E3F5D
:103A8000510568F0B6C000C15F3FECF3983EDCF32F
:103A9000869577956795B795F7959F5FC9F7880FD6
:103AA000911D9695879597F90895E1E0660F771F28
:103AB000881FBB1F621773078407BA0720F0621BB9
:103AC000730B840BBA0BEE1F88F7E095089504D0B2
:103AD0006894B111D9C00895BCD088F09F5790F078
:103AE000B92F9927B751A0F0D1F0660F771F881F23
:103AF000991F1AF0BA95C9F712C0B13081F0C3D03E
:103B0000B1E00895C0C0672F782F8827B85F39F0DB
:103B1000B93FCCF3869577956795B395D9F73EF481
:103B200090958095709561957F4F8F4F9F4F089529
:103B3000E89409C097FB3EF4909580957095619547
:103B40007F4F8F4F9F4F9923A9F0F92F96E9BB27FD
:103B50009395F695879577956795B795F111F8CF79
:103B6000FAF4BB0F11F460FF1BC06F5F7F4F8F4FE4
:103B70009F4F16C0882311F096E911C0772321F0DA
:103B80009EE8872F762F05C0662371F096E8862F72
:103B900070E060E02AF09A95660F771F881FDAF7C9
:103BA000880F9695879597F90895990F0008550FF6
:103BB000AA0BE0E8FEEF16161706E807F907C0F0B3
:103BC00012161306E407F50798F0621B730B840BBB
:103BD000950B39F40A2661F0232B242B252B21F495
:103BE00008950A2609F4A140A6958FEF811D811D35
:103BF000089597F99F6780E870E060E008959FEF6F
:103C000080EC089500240A94161617061806090673
:103C1000089500240A941216130614060506089542
:103C2000092E0394000C11F4882352F0BB0F40F4CA
:103C3000BF2B11F460FF04C06F5F7F4F8F4F9F4F0A
:103C4000089557FD9058440F551F59F05F3F71F08C
:103C50004795880F97FB991F61F09F3F79F08795F3
:103C60000895121613061406551FF2CF4695F1DF7C
:103C700008C0161617061806991FF1CF869571050C
:103C8000610508940895E894BB2766277727CB0140
:103C900097F908958ADF08F48FEF08950AD029ED87
:103CA0003BE54EED5EE345C00EF0A6C0A8CF68949C
:103CB000A0CFCFDFC8F39923D1F3C6F3DF93CF931F
:103CC0001F930F93FF92C92FDD2788232AF0219796
:103CD000660F771F881FDAF720E030E040E85FEBDF
:103CE0009FE3883920F0803E30F021968F771FDEE9
:103CF000E4E5F0E003C01BDEE1E8F0E08BD08B01EF
:103D0000BE01EC01FB2E6F5771097595771F880B6B
:103D1000990B10DF28E132E741E35FE316D0AF2DC6
:103D20009801AE01FF900F911F91CF91DF9110DEAE
:103D300077CF0BD075CF66DF28F06BDF18F09523B7
:103D400009F057CF5CCF11249FCF7BDFA0F3959F65
:103D5000D1F3950F50E0551F629FF001729FBB2772
:103D6000F00DB11D639FAA27F00DB11DAA1F649F1E
:103D70006627B00DA11D661F829F2227B00DA11DD1
:103D8000621F739FB00DA11D621F839FA00D611D57
:103D9000221F749F3327A00D611D231F849F600D78
:103DA000211D822F762F6A2F11249F5750408AF0B1
:103DB000E1F088234AF0EE0FFF1FBB1F661F771F3D
:103DC000881F91505040A9F79E3F510570F011CFC8
:103DD0005BCF5F3FECF3983EDCF386957795679574
:103DE000B795F795E7959F5FC1F7FE2B880F911D5B
:103DF0009695879597F908959F3F31F0915020F45B
:103E0000879577956795B795880F911D96958795B6
:103E100097F90895DF93CF931F930F93FF92EF923B
:103E2000DF927B018C01689405C0DA2EEF018DDFF3
:103E3000FE01E894A5912591359145915591AEF3F8
:103E4000EF0186DDFE019701A801DA9479F7DF9092
:103E5000EF90FF900F911F91CF91DF910895991BE3
:103E600079E004C0991F961708F0961B881F7A9571
:103E7000C9F780950895AA1BBB1B51E107C0AA1F73
:103E8000BB1FA617B70710F0A61BB70B881F991FFB
:103E90005A95A9F780959095BC01CD01089597FB9F
:103EA000092E07260AD077FD04D0E5DF06D00020D2
:103EB0001AF4709561957F4F0895F6F79095819566
:103EC0009F4F089597FB092E05260ED057FD04D06D
:103ED0004BD00AD0001C38F4509540953095219570
:103EE0003F4F4F4F5F4F0895F6F79095809570952F
:103EF00061957F4F8F4F9F4F08952F923F924F9222
:103F00005F926F927F928F929F92AF92BF92CF9269
:103F1000DF92EF92FF920F931F93CF93DF93CDB772
:103F2000DEB7CA1BDB0B0FB6F894DEBF0FBECDBFEA
:103F300009942A88398848885F846E847D848C84BB
:103F40009B84AA84B984C884DF80EE80FD800C81C4
:103F50001B81AA81B981CE0FD11D0FB6F894DEBFA7
:103F60000FBECDBFED010895A1E21A2EAA1BBB1B07
:103F7000FD010DC0AA1FBB1FEE1FFF1FA217B30735
:103F8000E407F50720F0A21BB30BE40BF50B661F4B
:103F9000771F881F991F1A9469F76095709580950F
:103FA00090959B01AC01BD01CF010895283008F028
:103FB00027E03327DA01990F311D87FD91600096C4
:103FC0006105710539F432602E5F3D9330E32A9527
:103FD000E1F708959F3F30F080387105610509F0E1
:103FE0003C5F3C5F3D93913008F08068911DDF930A
:103FF000CF931F930F93FF92EF92192F987F96956F
:10400000E92F96959695E90FFF27E45CF94F9927DC
:104010003327EE24FF24A701E701059008940794B5
:1040200028F4360FE71EF81E491F511D660F771F33
:10403000881F991F0694A1F70590079428F4E70EAE
:10404000F81E491F561FC11D770F881F991F661F35
:104050000694A1F70590079428F4F80E491F561FFF
:10406000C71FD11D880F991F661F771F0694A1F7E0
:104070000590079420F4490F561FC71FD81F990FAA
:10408000661F771F881F0694A9F7849110951770F3
:1040900041F0D695C79557954795F794E7941A95AB
:1040A000C1F7E2EEF5E068941590159135916591B0
:1040B000959105907FE27395E118F10A430B560B39
:1040C000C90BD009C0F7E10CF11E431F561FC91FD1
:1040D000D01D7EF4703311F48A95E6CFE894015038
:1040E00030F0080F0AF40027021708F4202F239558
:1040F000022F7A3328F079E37D932A95E9F710C0EF
:104100007D932A9589F60694979567953795179527
:104110001794E118F10A430B560BC90BD00998F01C
:1041200023957E9173957A3308F070E37C93201386
:10413000B8F77E9170617D9330F0839571E37D9344
:1041400070E32A95E1F71124EF90FF900F911F91F2
:10415000CF91DF91992787FD90950895FB01DC01B0
:1041600002C005900D9241505040D8F70895FC01CF
:104170000590615070400110D8F7809590958E0F92
:104180009F1F0895FC016150704001900110D8F705
:10419000809590958E0F9F1F08950F931F93CF9337
:1041A000DF938C01EB018B8181FF1BC082FF0DC06F
:1041B0002E813F818C819D812817390764F4E88125
:1041C000F9810193F983E88306C0E885F985802F9A
:1041D0000995892B31F48E819F8101969F838E836F
:1041E00002C00FEF1FEFC801DF91CF911F910F9118
:1041F0000895AEE0B0E0EFEFF0E20C948B1F0D8974
:104200001E8986E08C831A8309838FEF9FE79E8344
:104210008D839E01275E3F4FCE0101966F89788D79
:10422000A9010E940F192F813885020F131FF80171
:1042300010822E96E4E00C94A71FFA01AA272830DA
:1042400051F1203181F1E8946F936E7F6E5F7F4F63
:104250008F4F9F4FAF4FB1E03ED0B4E03CD0670FDF
:10426000781F891F9A1FA11D680F791F8A1F911D32
:10427000A11D6A0F711D811D911DA11D20D009F482
:1042800068943F912AE0269F11243019305D3193C4
:10429000DEF6CF010895462F4770405D4193B3E0AD
:1042A0000FD0C9F7F6CF462F4F70405D4A3318F054
:1042B000495D31FD4052419302D0A9F7EACFB4E005
:1042C000A6959795879577956795BA95C9F70097BD
:1042D0006105710508959B01AC010A2E069457955E
:1042E000479537952795BA95C9F7620F731F841FB5
:0A42F000951FA01D0895F894FFCF5C
:1042FA006464206D6D207979004F4B005E5E00206A
:10430A0020006868206D6D207373004D41494E206E
:10431A004D454E55003E002000CCE5F2E5EE00D1B9
:10432A00F2E0EDF669FF00C4E5ECEE0025752575AF
:10433A003A257525753A2575257520257300257545
:10434A0025752025732032302575257500FF140048
:10435A000A00D169F72E00CBFEF22E00C1E5F02E3D
:10436A0000CAE269F22E00D2F0E0E22E00D7E5F0B0
:10437A00E22E00CBE8EF2E00D1E5F0EF2E00C2E5E9
:10438A00F02E00C6EEE2F22E00CBE8F1F22E00C3C8
:10439A00F0F3E42E00C200C700CC00D100D700DD44
:1043AA0000E300E800EE00F300F900FF00CDE42E80
:1043BA0000CFED2E00C2F22E00D1F02E00D7F22E41
:1043CA0000CFF22E00D1E12E001D01210125012985
:1043DA00012D0131013501205365742054696D6541
:1043EA0020002053657420446174652000205365C1
:1043FA007474696E67732000470152015D01C5FE3E
:10440A0002C0BD52163F3B25D6B90AD7233CACC5DC
:0A441A00A73A08000C000E000F0086
:00000001FF
