:100000000C94CD010C94EA010C94EA010C94EA01E1
:100010000C94EA010C94EA010C94EA010C94EA01B4
:100020000C94EA010C94EA010C94EA010C94EA01A4
:100030000C94EA010C94EA010C94EA010C94EA0194
:100040000C94EA010C94EA010C94EA010C94EA0184
:100050000C94EA0108000000BE922449123EABAAAB
:10006000AA2ABECDCCCC4C3E00000080BEABAAAAD2
:10007000AA3E00000000BF000000803F000000001A
:1000800000084178D3BB4387D1133D190E3CC3BD53
:100090004282AD2B3E68EC8276BED98FE1A93E4C00
:1000A00080EFFFBE01C4FF7F3F00000000000000A2
:1000B00000000000002F00000007000700147F145C
:1000C0007F14242A7F2A12323408162636495522F4
:1000D000500005030000001C2241000041221C00CA
:1000E00014083E081408083E0808000050300010AC
:1000F00010101010006060000020100804023E5133
:1001000049453E00427F40004261514946214145F8
:100110004B311814127F1027454545393C4A49494F
:100120003001710905033649494936064949291EF6
:100130000036360000005636000008142241001434
:100140001414141400412214080201510906324902
:1001500059513E7E1111117E7F494949363E414138
:1001600041227F4141221C7F494949417F090909B8
:10017000013E4149497A7F0808087F00417F4100DC
:100180002040413F017F081422417F404040407F92
:10019000020C027F7F0408107F3E4141413E7F09EF
:1001A0000909063E4151215E7F0919294646494900
:1001B000493101017F01013F4040403F1F20402065
:1001C0001F3F4038403F6314081463070870080756
:1001D0006151494543007F414100552A552A550048
:1001E00041417F00040201020440404040400001C0
:1001F00002040020545454787F484444383844441E
:100200004420384444487F3854545418087E090127
:10021000020C5252523E7F0804047800447D400094
:100220002040443D007F1028440000417F40007C76
:10023000041804787C0804047838444444387C1456
:10024000141408081414187C7C0804040848545436
:100250005420043F4440203C4040207C1C2040204F
:100260001C3C4030403C44281028440C5050503C2A
:100270004464544C44007F3E1C08081C3E7F000828
:100280007C7E7C08103E7E3E103E3E3E3E3E007F21
:100290003E1C0800060909066E616E00696E660064
:1002A00000407A10F35A00A0724E18090010A5D42D
:1002B000E80000E87648170000E40B54020000CA8A
:1002C0009A3B000000E1F5050000809698000000D0
:1002D00040420F000000A08601000000102700002F
:1002E0000000E803000000006400000000000A00B5
:1002F000000000000100000000002C76D888DC67B8
:100300004F0823DFC1DFAE59E1B1B796E5E3E4530F
:10031000C63AE651997696E8E6C28426EB898C9B2C
:1003200062ED407C6FFCEFBC9C9F40F2BAA56FA5CC
:10033000F490055A2AF75C936B6CF9676DC11BFC4E
:10034000E0E40D47FEF520E6B500D0ED902E030069
:10035000943577050080841E080000204E0A0000B6
:1003600000C80C333333330F986E12831141EF8D75
:100370002114893BE65516CFFEE6DB18D1844B38B5
:100380001BF77C1D901DA4BBE424203284725E22E6
:100390008100C9F124ECA1E53D2711241FBECFE562
:1003A000D8E0DEBFCDBF12E0A0E6B0E0EEE4F2E2BE
:1003B00002C005900D92A83DB107D9F712E0A8ED53
:1003C000B2E001C01D92A33EB107E1F70E94EC012B
:1003D0000C9425110C9400002F923F924F925F9243
:1003E0006F927F928F929F92AF92BF92CF92DF9245
:1003F000EF92FF920F931F93DF93CF93CDB7DEB7AA
:10040000AF970FB6F894DEBF0FBECDBF80E090E08F
:10041000A0E0B0E08B879C87AD87BE8781E08A83B0
:100420000E94E1050E94AD030E94230489EC6DE760
:1004300040E00E942F080E946C0780E40E945B0746
:1004400081E063E00E940E0680E690E00E940C07C7
:1004500082E064E00E940E068FE690E00E940C07A6
:1004600080E29EE424E630E0F9013197F1F701974C
:10047000D9F70E9443078E010E5F1F4FC8010E94EB
:100480005D04C801BE016F5F7F4F0E943F0483E09F
:1004900062E00E940E068CE790E00E940C0700D0FC
:1004A00000D000D0EDB7FEB731968E01015F1F4F2F
:1004B000ADB7BEB712961C930E93119758E8E52E70
:1004C00050E0F52EF382E2828A81848315820E94B5
:1004D000A310EDB7FEB736960FB6F894FEBF0FBE69
:1004E000EDBF83E063E00E940E06C8010E940C0786
:1004F00083E064E00E940E068DE890E00E940C0705
:1005000000D000D000D0EDB7FEB73196ADB7BEB782
:1005100012961C930E931197F382E2828981848351
:1005200015820E94A310EDB7FEB736960FB6F89469
:10053000FEBF0FBEEDBF83E065E00E940E06C8015E
:100540000E940C0780E29EE424E630E0F901319736
:10055000F1F70197D9F70E94430743E0442E512C4D
:100560004C0E5D1E3E010894611C711C37E0832E09
:10057000912C8C0E9D1E2FE0E22EF12CEC0EFD1E18
:1005800091E8A92EB12C82ED282E80E0382EC201F0
:10059000B30141E00E947004082FC401B30140E0A0
:1005A0000E947004182F85E00E94E6050E94F20563
:1005B0006C01CE010B960E947D08100F19F00E946D
:1005C0002304E5CF6B817C8180E090E00E94A70D41
:1005D0006B837C838D839E836F81788580E090E040
:1005E0000E94A70D6F83788789879A87C201B4011B
:1005F0000E94B2046B817C818D819E812F81388520
:1006000049855A850E94760583E061E00E940E06C6
:1006100087E990E00E940C078DB79EB70E970FB642
:10062000F8949EBF0FBE8DBF0DB71EB70F5F1F4F53
:10063000ADB7BEB71296FC92EE92119783EA90E0A6
:10064000F801938382838F819885A985BA858483F5
:100650009583A683B783B186A0866B857C858D85BF
:100660009E850E94760DD8011B967C936E931A97F7
:100670001D96BC92AE921C970E94A310EDB7FEB7D8
:100680003E960FB6F894FEBF0FBEEDBF81E062E06C
:100690000E940E06C7010E940C0784E063E00E94DE
:1006A0000E0685EB90E00E940C078DB79EB7089769
:1006B0000FB6F8949EBF0FBE8DBFEDB7FEB7319653
:1006C000ADB7BEB71296FC92EE9211978EEB90E00A
:1006D000938382838B819C81AD81BE81848395834A
:1006E000A683B7830E94A310ADB7BEB718960FB606
:1006F000F894BEBF0FBEADBF85E064E00E940E0659
:10070000C7010E940C0784E065E00E940E0689EC98
:1007100090E00E940C0700D000D000D0EDB7FEB7EB
:100720003196ADB7BEB71296FC92EE921197338216
:100730002282D582C4820E94A310EDB7FEB73696FE
:100740000FB6F894FEBF0FBEEDBF85E066E00E94D5
:100750000E06C7010E940C071ACF15BA81E084BBB0
:100760000895582FA19A90E820E030E071E066E00B
:10077000892F852311F0A99A01C0A99841E0872FFC
:100780008A95F1F7A89A862F8A95F1F7A8989695F9
:100790002F5F3F4F2830310559F7A198842F8A9554
:1007A000F1F7A89A842F8A95F1F783B3A898942F2C
:1007B0009A95F1F782700895682FA19840E880E03B
:1007C00020E030E051E0A89A952F9A95F1F7999999
:1007D000842BA898952F9A95F1F746952F5F3F4F58
:1007E0002830310581F7662329F0A19AA99891E074
:1007F0009A95F1F7A89A96E09A95F1F7A89891E062
:100800009A95F1F7A1980895A19AA99AA89881E0DC
:10081000982F9A95F1F7A89A982F9A95F1F7A99899
:10082000982F9A95F1F7A89896E09A95F1F7A89ADB
:10083000982F9A95F1F7A99A982F9A95F1F7A89879
:100840008A95F1F70895A19AA99AA89881E08A95C6
:10085000F1F790E021E0A89A822F8A95F1F7A89805
:10086000822F8A95F1F79F5F9930A9F70E940404BF
:1008700008950E9423048EE10E94B1030895DF923F
:10088000EF92FF920F931F938C017B010E9404044F
:1008900087E00E94B103D82E81E00E94DC03F801BA
:1008A000808380E00E94DC03F70180838D2D1F91FF
:1008B0000F91FF90EF90DF900895FF920F931F9399
:1008C0008C010E94040486E00E94B103F82EF80116
:1008D00080810E94B1038F0D1F910F91FF900895A9
:1008E000CF92DF92EF92FF921F93CF93DF937C0121
:1008F0006B01142F0E940404112329F0113029F0F8
:10090000C0E0D0E007C083E001C085E00E94B103F1
:10091000C82FD0E0A19880E090E031E0232F2A9505
:10092000F1F7999B05C001962FEF8F3F9207B1F722
:100930009999219681E00E94DC03F701818381E08F
:100940000E94DC03F701808380E00E94DC03F60153
:1009500080838C2FDF91CF911F91FF90EF90DF90DC
:10096000CF9008952F923F924F925F926F927F9215
:100970008F929F92AF92BF92CF92DF92EF92FF92AF
:100980000F931F93DF93CF9300D000D0CDB7DEB786
:100990009A8389837C836B83FC01A080B180C280B1
:1009A000D380FB0160817181828193812AE037EDE0
:1009B00043E25DE30E94A80E23E333E34FE152E4F8
:1009C0000E94A50C1B012C0120E030E048EC51E412
:1009D0000E94A50C7B018C01C601B5012CEA35EC07
:1009E00047EA5AE30E94A80E2AE037ED43E25CE3AF
:1009F0000E94A60C9B01AC01C801B7010E94A80E81
:100A00003B014C01C601B5012BE335E246ED59EB44
:100A10000E94A80EA60195010E94A80E7B018C01E0
:100A2000C601B5012DEB32E546E15FE30E94A80E59
:100A30009B01AC01C801B7010E94A60C25EC3EEF5A
:100A400042E050E40E94A50C9B01AC01C401B3013B
:100A50000E94A60C7B018C0120E030E048EC52E4BF
:100A60000E94590E18165CF40F2EF0E0EF2EF0E005
:100A7000FF2EF8EC0F2FF2E41F2FF02D14C0C80149
:100A8000B7012DEC3CEC4CEC5DE30E940A0D882391
:100A900054F40F2EFDECEF2EFCECFF2EFCEC0F2F90
:100AA000FDE31F2FF02DEB81FC81208231824282F9
:100AB0005382E981FA81E082F182028313830F90ED
:100AC0000F900F900F90CF91DF911F910F91FF909A
:100AD000EF90DF90CF90BF90AF909F908F907F90DE
:100AE0006F905F904F903F902F9008956F927F92FC
:100AF0008F929F92AF92BF92CF92DF92EF92FF922E
:100B00000F931F9359016A010E945D0E3B014C0136
:100B1000C601B50120E030E040EF50E40E94A80E8D
:100B20007B018C01C601B5012DEC3CE44DE653E49C
:100B30000E94A60C9B01AC01C801B7010E940E0DDA
:100B400029E338E249E25FE30E94A60C7B018C01B5
:100B5000C401B30120E030E040E050E40E94A50C65
:100B60009B01AC01C801B7010E94A60C5B016C019E
:100B700029E338E249E25FE30E94A50C2DEC3CE456
:100B80004DE653E40E94A80E7B018C0164E872E9F3
:100B900082E091E4A60195010E94A50C9B01AC01A5
:100BA000C801B7010E940E0D1F910F91FF90EF90A9
:100BB000DF90CF90BF90AF909F908F907F906F907D
:100BC000089580E487B987E886B9089597B187705A
:100BD000892B87B9369A349BFECF349A24B135B12C
:100BE000C9010895A0E0B0E0BC01CD010E94A70DAD
:100BF00028E638EE4FE95BE30E94A80E20E030E0E3
:100C000040EB51E40E94A80E2DEC3CEC48E251E48C
:100C10000E94A60C0E947B0DCB01089596E0899F4F
:100C2000C00111248A55904024E5629FB00111242F
:100C3000860F971F9093E2028093E102089590E05F
:100C40008555904024E5629FB0011124860F971FBF
:100C50009093E2028093E1020895982F8AB38C600A
:100C60008ABBD998613011F4DA9A01C0DA9827E08A
:100C700030E0492F50E0CA01022E02C095958795B9
:100C80000A94E2F780FF02C0DB9A01C0DB98DC9A8D
:100C9000DC98215030408FEF2F3F380761F7D99A09
:100CA0008AB3837F8ABB8BB38C608BBB08950F9311
:100CB0001F938C0164E570E00E943E0F806860E045
:100CC0000E942D06C80164E570E00E943E0F862F49
:100CD000806460E00E942D061F910F910895CF92CD
:100CE000DF92EF92FF920F931F93DF93CF930F92B8
:100CF000CDB7DEB7982F8032C8F187FD37C085E0C9
:100D0000989F802D1124805A282F30E089010151AD
:100D10001F4F805FC82EDD244FED51E0C40ED51E5D
:100D200084EFE82E80E0F82EE20EF31E903510F4EA
:100D3000F80101C0F601808161E099830E942D06CF
:100D40000F5F1F4F0894C11CD11C99810E151F0500
:100D500069F780E061E00E942D068091E1029091A8
:100D6000E20206969093E2028093E1020F90CF9107
:100D7000DF911F910F91FF90EF90DF90CF9008953A
:100D80001F93182F8091E1029091E2020E94570672
:100D9000812F0E946F061F910895CF93DF93EC017E
:100DA00003C021960E94C00688818823D1F7DF9175
:100DB000CF9108950F931F93CF93DF93082F8091C6
:100DC000E1029091E2020E94570685E0089F8001AF
:100DD0001124E801C25FDF4F0B59104002551F4F2D
:100DE000FE018491880F61E00E942D062196C017B4
:100DF000D107B1F780E061E00E942D068091E10209
:100E00009091E20206969093E2028093E102DF91D4
:100E1000CF911F910F910895CF93DF93EC0103C001
:100E200021960E94DA0688818823D1F7DF91CF913D
:100E300008950F931F93CF93DF9394E5899FC0018B
:100E40001124845590408C01040F111D0150104055
:100E5000C62FD0E02197C80FD91FCE010E94570698
:100E600005C080E061E00E942D062196C017D107E1
:100E7000C0F3DF91CF911F910F91089561E044E598
:100E80000E9419070895CF93DF931092E202109207
:100E9000E10280E090E00E945706C0E0D0E080E0F0
:100EA00061E00E942D06219681E0C83FD807B9F77E
:100EB000DF91CF9108951F93182F81E260E00E9487
:100EC0002D06812F806860E00E942D0680E260E0A0
:100ED0000E942D061F910895D89A8AB38F618ABB0C
:100EE00088E99AE30197F1F7D898D89AD99A81E2DC
:100EF00060E00E942D0688EC60E00E942D0686E0EE
:100F000060E00E942D0683E160E00E942D0680E2F1
:100F100060E00E942D068CE060E00E942D060E9499
:100F20004307089502C0000001970097E1F7089574
:100F3000AA98A29A80EF90E001C0000001972FEFDD
:100F40008F3F9207D1F7A2988EE190E001C0000098
:100F500001973FEF8F3F9307D1F723B382ED90E0E6
:100F600001C0000001973FEF8F3F9307D1F783B394
:100F700040E090E084709070247030E08217930716
:100F800009F441E0842F0895AA98A29A8111A298A9
:100F90008EE190E001C0000001972FEF8F3F920794
:100FA000D1F7A2980895AA98A29AA29887E090E013
:100FB00001C0000001972FEF8F3F9207D1F783B355
:100FC00026E130E001C00000215030409FEF2F3F6C
:100FD0003907C9F790E09695879596958795817022
:100FE00008950F931F9308E010E009C00E94D307F3
:100FF000912F9695182F179511271795192B01509A
:10100000A8F7812F1F910F9108950F931F93082F19
:1010100018E005C0802F81700E94C407069511500A
:10102000C8F71F910F910895FC0190E040E058E14E
:1010300012C0308120E0832F892780FF04C09527CC
:101040009695906801C096952F5F283011F03695DF
:10105000F2CF4F5F3196461760F3892F0895FF92C4
:101060000F931F93F82E062F142F0E9498078823A2
:1010700011F081E025C08CEC0E9405088EE40E94EE
:101080000508802F0E9405088F2D0E9405081295E3
:10109000110F107E812F8F610E9405080E94980712
:1010A0008CEC0E94050888E40E9405088BE49DE111
:1010B00001C0000001972FEF8F3F9207D1F780E02A
:1010C0001F910F91FF900895CF93DF93C8EDD2E069
:1010D0000E94F107899382E0C13ED807C9F7CE018B
:1010E000099768E00E94140820E09091E0028913BB
:1010F00021E0822FDF91CF9108958F929F92BF922E
:10110000CF92DF920F93DF93CF93CDB7DEB72C97BB
:101110000FB6F894DEBF0FBECDBF4C01DE011196B5
:10112000EFECF2E088E001900D928150E1F70E942F
:101130009807882309F072C08CEC0E94050884E4AB
:101140000E9405080E94D3078823E1F30E949807B4
:101150008CEC0E9405088EEB0E9405080E94640832
:10116000882309F05BC00E949807B090DC02809150
:10117000D802C82EDD249091D90280E0C82AD92A4D
:10118000D7FC02C000E005C0D094C194D108D3942C
:1011900001E0B60154E0769567955A95E1F770E065
:1011A000882777FD8095982F0E94A90D69877A87F7
:1011B0008B879C87B294B69447E0B422EB2DF0E085
:1011C000E370F070EE0FFF1FEC0FFD1F61816C21CB
:1011D00070E0882777FD8095982F0E94A90D20E068
:1011E00030E040E85DE30E94A80E9B01AC016985F8
:1011F0007A858B859C850E94A60CF401608371839F
:1012000082839383002341F0DC01CB01B058F401C9
:1012100080839183A283B38380E001C081E02C9618
:101220000FB6F894DEBF0FBECDBFCF91DF910F9107
:10123000DF90CF90BF909F908F900895A1E1B0E094
:10124000E4E2F9E00C94520F3C017F876E876A015B
:10125000FC0117821682838181FD03C06FEF7FEF4F
:101260006FC39E012F5F3F4F398B288BF301238182
:10127000EE85FF8523FD859123FF8191FF87EE8712
:10128000882309F45AC3853251F4EE85FF8523FD86
:10129000859123FF8191FF87EE87853229F490E0C5
:1012A000B3010E947710E2CF982F10E08824992490
:1012B0001032B0F49B3269F09C3228F4903251F035
:1012C000933271F40BC09D3239F0903349F41160C0
:1012D00028C01260146025C0186023C0106121C0AE
:1012E00017FD2AC0892F80538A3078F416FF06C074
:1012F000FAE09F9E902C1124980E13C03AE0839E32
:10130000802C1124880E10620CC09E3221F416FD30
:1013100014C3106406C09C3611F4106802C09836DD
:1013200059F4EE85FF8523FD959123FF9191FF8769
:10133000EE87992309F0BCCF892F8554833020F4A0
:10134000812F8061905E07C0892F8556833008F019
:101350009FC1812F8F7E86FD02C076E0972E6FE3BE
:10136000F62EF822953619F4F0E4FF2A07C09636D7
:1013700019F420E8F22A02C091109A94F7FE0AC0EC
:101380003BE3391518F45CE3B52E02C0B92CB394D5
:1013900027E009C047E0491520F4BB2447E0942E1C
:1013A000F7CF292DBB24C60104969D878C87F601B3
:1013B0006081718182819381AE014F5F5F4F0B2D00
:1013C0000E94890F6C010981202E332400FF04C084
:1013D00003FD02C01DE209C0F1FE02C01BE205C010
:1013E000F2FC02C010E001C010E2C1018C709070EC
:1013F000892BB9F1112311F483E001C084E0881531
:1014000010F088240AC0881AF3FC07C080E290E03C
:10141000B3010E9477108A94C9F7112329F0812F14
:1014200090E0B3010E94771023FE03C008E912E0A8
:101430000EC00CE912E00BC0E114F10409F0805277
:1014400090E0B3010E9477100F5F1F4F05C0EF2C93
:10145000FF24F0E1EF22FF24F8018491882361F753
:1014600014C1F7FE12C0BC0C24FE04C08A81813373
:1014700009F4BA941B141CF0BB24B3942DC0F8E0FB
:10148000FB1550F538E0B32E27C0F6FC25C0892D9A
:1014900090E08C159D054CF02CEFC2162FEFD20674
:1014A00024F030E8F32A01C09A94992049F0E2E050
:1014B000F0E0EC0FFD1FE90DF11D80818033A1F3F9
:1014C000F7FE0AC0B92CB394892D90E0C816D9064E
:1014D00014F0992401C09C18F7FC03C025E030E00B
:1014E00009C01C141D041CF021E030E003C096016B
:1014F0002F5F3F4F112311F02F5F3F4F992029F0AD
:10150000892D90E00196280F391F882D90E028172B
:10151000390714F0882401C0821A4F2C5524C201C7
:1015200089709070892B39F008C080E290E0B30197
:101530000E9477108A948820C1F7112329F0812F07
:1015400090E0B3010E94771043FE07C008C080E31B
:1015500090E0B3010E9477108A948820C1F7F7FECB
:1015600046C08601D7FE02C000E010E07601089474
:10157000E11CF11CE01AF10A41E050E04C0F5D1F44
:10158000E40EF51E26014B185108892D90E0AA247F
:10159000BB24A81AB90A5FEF0F3F150729F48EE2A2
:1015A00090E0B3010E947710C016D10634F04016C7
:1015B00051061CF4F701808101C080E30150104006
:1015C0000894E11CF11C0A151B052CF090E0B301F6
:1015D0000E947710E0CF0C151D0539F49A819633DF
:1015E00018F4953311F424FE81E390E04BC08A8116
:1015F000813309F00F7E90E0B3010E9477109920AB
:10160000A1F08EE290E0B3010E94771012E0E1E0D9
:10161000F0E0EC0FFD1FE10FF11D1F5F808190E0F6
:10162000B3010E9477109A9491F744FC03C085E6B9
:1016300090E002C085E490E0B3010E947710D7FCEF
:1016400005C0C114D10441F404FF06C0D094C19474
:10165000D108D3948DE201C08BE290E0B3010E94E7
:10166000771080E305C08F5F26EF3FEFC20ED31ED9
:101670003AE0C316D104BCF790E0B3010E947710A2
:10168000C601C096B3010E947710CC84DD8452C19C
:10169000933631F0933799F0933509F059C023C050
:1016A000F601808189835E010894A11CB11C22E0AF
:1016B00030E0C20ED31E21E0E22EF12C12C0F60162
:1016C000A080B18016FD03C06FEF7FEF02C0692DCF
:1016D00070E022E030E0C20ED31EC5010E946C1003
:1016E0007C011F7713C0F601A080B18016FD03C0F6
:1016F0006FEF7FEF02C0692D70E022E030E0C20E94
:10170000D31EC5010E9461107C01106813FF07C041
:101710001BC080E290E0B3010E9477108A94882D6C
:1017200090E0E816F906A8F30FC0F50117FD8591C2
:1017300017FF81915F0190E0B3010E947710811043
:101740008A940894E108F108E114F10471F7F2C0F9
:10175000943611F0993689F517FF08C0F6012081FB
:1017600031814281538184E090E00AC0F60180819A
:1017700091819C01442737FD4095542F82E090E0F1
:10178000C80ED91E9FE6F92EF12257FF09C05095C9
:101790004095309521953F4F4F4F5F4F90E8F92A84
:1017A000CA01B901AE014F5F5F4F2AE030E00E94ED
:1017B000C710E82EE889EE1A41C0953721F41F7E44
:1017C0002AE030E01CC0197F9F3661F0903720F48A
:1017D000983509F0B2C00FC0903739F0983709F04A
:1017E000ACC004C028E030E00AC0106114FD1460F1
:1017F00020E130E004C014FD166020E132E017FF64
:1018000008C0F601608171818281938144E050E0DB
:1018100008C0F60180819181BC0180E090E042E047
:1018200050E0C40ED51EAE014F5F5F4F0E94C7103F
:10183000E82E5889E51A8FE7F82EF122F6FE0BC044
:101840008EEFF822E91438F4F4FE07C0F2FC05C06C
:101850009FEEF92202C01E2D01C0192DF4FE0DC00D
:10186000FE01EE0DF11D8081803319F4E9EEFE22B8
:1018700008C01F5FF2FE05C003C08F2D867809F0F7
:101880001F5F0F2DF3FC14C0F0FE0FC0181510F0F1
:101890009E2C0BC09E2C980C911A182D06C080E22D
:1018A00090E0B3010E9477101F5F1815C0F304C0C9
:1018B000181510F4811A01C0882404FF0FC080E3BA
:1018C00090E0B3010E94771002FF1DC001FD03C02C
:1018D00088E790E00EC088E590E00BC0802F867806
:1018E00091F001FF02C08BE201C080E2F7FC8DE2C3
:1018F00090E0B3010E94771006C080E390E0B3014E
:101900000E9477109A94E914C0F3EA94E1E0F0E0C1
:10191000EC0FFD1FEE0DF11D808190E0B3010E94E0
:101920007710EE2091F706C080E290E0B3010E94AC
:1019300077108A948820C1F799CCF301668177816A
:10194000CB016196E2E10C946E0F5058BB27AA2799
:101950000ED075C166D130F06BD120F031F49F3FCD
:1019600011F41EF45BC10EF4E095E7FB51C1E92FC1
:1019700077D180F3BA17620773078407950718F0C9
:1019800071F49EF58FC10EF4E0950B2EBA2FA02DA9
:101990000B01B90190010C01CA01A0011124FF271C
:1019A000591B99F0593F50F4503E68F11A16F04017
:1019B000A22F232F342F4427585FF3CF4695379516
:1019C0002795A795F0405395C9F77EF41F16BA0BDB
:1019D000620B730B840BBAF09150A1F0FF0FBB1F89
:1019E000661F771F881FC2F70EC0BA0F621F731FD2
:1019F000841F48F4879577956795B795F7959E3F2F
:101A000008F0B3CF9395880F08F09927EE0F9795BC
:101A100087950895D9D008F481E008950CD00FC1BE
:101A200007D140F0FED030F021F45F3F19F0F0C054
:101A3000511139C1F3C014D198F39923C9F3552337
:101A4000B1F3951B550BBB27AA27621773078407B1
:101A500038F09F5F5F4F220F331F441FAA1FA9F367
:101A600033D00E2E3AF0E0E830D091505040E69559
:101A7000001CCAF729D0FE2F27D0660F771F881FBA
:101A8000BB1F261737074807AB07B0E809F0BB0BA9
:101A9000802DBF01FF2793585F4F2AF09E3F5105CD
:101AA00068F0B6C000C15F3FECF3983EDCF386956A
:101AB00077956795B795F7959F5FC9F7880F911D43
:101AC0009695879597F90895E1E0660F771F881F2F
:101AD000BB1F621773078407BA0720F0621B730BE2
:101AE000840BBA0BEE1F88F7E095089504D0689434
:101AF000B111D9C00895BCD088F09F5790F0B92F8C
:101B00009927B751A0F0D1F0660F771F881F991F52
:101B10001AF0BA95C9F712C0B13081F0C3D0B1E064
:101B20000895C0C0672F782F8827B85F39F0B93F74
:101B3000CCF3869577956795B395D9F73EF4909554
:101B40008095709561957F4F8F4F9F4F0895E894D2
:101B500009C097FB3EF490958095709561957F4FF5
:101B60008F4F9F4F9923A9F0F92F96E9BB279395A3
:101B7000F695879577956795B795F111F8CFFAF4B3
:101B8000BB0F11F460FF1BC06F5F7F4F8F4F9F4FE4
:101B900016C0882311F096E911C0772321F09EE842
:101BA000872F762F05C0662371F096E8862F70E0A8
:101BB00060E02AF09A95660F771F881FDAF7880F82
:101BC0009695879597F90895990F0008550FAA0BD8
:101BD000E0E8FEEF16161706E807F907C0F0121640
:101BE0001306E407F50798F0621B730B840B950B43
:101BF00039F40A2661F0232B242B252B21F4089598
:101C00000A2609F4A140A6958FEF811D811D089534
:101C100097F99F6780E870E060E008959FEF80EC9F
:101C2000089500240A941616170618060906089542
:101C300000240A9412161306140605060895092EA8
:101C40000394000C11F4882352F0BB0F40F4BF2B17
:101C500011F460FF04C06F5F7F4F8F4F9F4F089557
:101C600057FD9058440F551F59F05F3F71F047954D
:101C7000880F97FB991F61F09F3F79F08795089532
:101C8000121613061406551FF2CF4695F1DF08C051
:101C9000161617061806991FF1CF8695710561056E
:101CA00008940895E894BB2766277727CB0197F916
:101CB00008958ADF08F48FEF08950AD029ED3BE5F7
:101CC0004EED5EE345C00EF0A6C0A8CF6894A0CF4D
:101CD000CFDFC8F39923D1F3C6F3DF93CF931F93DC
:101CE0000F93FF92C92FDD2788232AF02197660FD3
:101CF000771F881FDAF720E030E040E85FEB9FE3D2
:101D0000883920F0803E30F021968F771FDEE4E5A1
:101D1000F0E003C01BDEE1E8F0E08BD08B01BE01F8
:101D2000EC01FB2E6F5771097595771F880B990B86
:101D300010DF28E132E741E35FE316D0AF2D9801D1
:101D4000AE01FF900F911F91CF91DF9110DE77CF01
:101D50000BD075CF66DF28F06BDF18F0952309F004
:101D600057CF5CCF11249FCF7BDFA0F3959FD1F39A
:101D7000950F50E0551F629FF001729FBB27F00D39
:101D8000B11D639FAA27F00DB11DAA1F649F66278E
:101D9000B00DA11D661F829F2227B00DA11D621FDD
:101DA000739FB00DA11D621F839FA00D611D221F97
:101DB000749F3327A00D611D231F849F600D211D7B
:101DC000822F762F6A2F11249F5750408AF0E1F01E
:101DD00088234AF0EE0FFF1FBB1F661F771F881F67
:101DE00091505040A9F79E3F510570F011CF5BCF45
:101DF0005F3FECF3983EDCF3869577956795B79552
:101E0000F795E7959F5FC1F7FE2B880F911D96957B
:101E1000879597F908959F3F31F0915020F4879569
:101E200077956795B795880F911D9695879597F942
:101E30000895DF93CF931F930F93FF92EF92DF925A
:101E40007B018C01689405C0DA2EEF018DDFFE0165
:101E5000E894A5912591359145915591AEF3EF0107
:101E600086DDFE019701A801DA9479F7DF90EF9003
:101E7000FF900F911F91CF91DF910895AA1BBB1B7B
:101E800051E107C0AA1FBB1FA617B70710F0A61B7A
:101E9000B70B881F991F5A95A9F780959095BC019B
:101EA000CD0108952F923F924F925F926F927F9251
:101EB0008F929F92AF92BF92CF92DF92EF92FF925A
:101EC0000F931F93CF93DF93CDB7DEB7CA1BDB0B06
:101ED0000FB6F894DEBF0FBECDBF09942A883988AB
:101EE00048885F846E847D848C849B84AA84B984B2
:101EF000C884DF80EE80FD800C811B81AA81B981BE
:101F0000CE0FD11D0FB6F894DEBF0FBECDBFED01D1
:101F10000895283008F027E03327DA01990F311DA2
:101F200087FD916000966105710539F432602E5F7E
:101F30003D9330E32A95E1F708959F3F30F08038D4
:101F40007105610509F03C5F3C5F3D93913008F0FD
:101F50008068911DDF93CF931F930F93FF92EF92B1
:101F6000192F987F9695E92F96959695E90FFF275B
:101F7000E650FD4F99273327EE24FF24A701E70100
:101F800005900894079428F4360FE71EF81E491FA1
:101F9000511D660F771F881F991F0694A1F70590A2
:101FA000079428F4E70EF81E491F561FC11D770F2E
:101FB000881F991F661F0694A1F70590079428F4BF
:101FC000F80E491F561FC71FD11D880F991F661F86
:101FD000771F0694A1F70590079420F4490F561F28
:101FE000C71FD81F990F661F771F881F0694A9F770
:101FF00084911095177041F0D695C79557954795E0
:10200000F794E7941A95C1F7E0EAF2E06894159026
:10201000159135916591959105907FE27395E11841
:10202000F10A430B560BC90BD009C0F7E10CF11EA6
:10203000431F561FC91FD01D7EF4703311F48A95BB
:10204000E6CFE894015030F0080F0AF40027021799
:1020500008F4202F2395022F7A3328F079E37D931B
:102060002A95E9F710C07D932A9589F606949795ED
:102070006795379517951794E118F10A430B560B9E
:10208000C90BD00998F023957E9173957A3308F0A7
:1020900070E37C932013B8F77E9170617D9330F0EC
:1020A000839571E37D9370E32A95E1F71124EF9016
:1020B000FF900F911F91CF91DF91992787FD909508
:1020C0000895FC010590615070400110D8F780958B
:1020D00090958E0F9F1F0895FC01615070400190F4
:1020E0000110D8F7809590958E0F9F1F08950F933C
:1020F0001F93CF93DF938C01EB018B8181FF1BC07A
:1021000082FF0DC02E813F818C819D812817390768
:1021100064F4E881F9810193F983E88306C0E885D6
:10212000F985802F0995892B31F48E819F81019645
:102130009F838E8302C00FEF1FEFC801DF91CF9105
:102140001F910F910895AEE0B0E0E9EAF0E10C9440
:10215000600F0D891E8986E08C831A8309838FEFB7
:102160009FE79E838D839E01275E3F4FCE010196A0
:102170006F89788DA9010E941E092F813885020F71
:10218000131FF80110822E96E4E00C947C0FFA01E4
:10219000AA27283051F1203181F1E8946F936E7FA6
:1021A0006E5F7F4F8F4F9F4FAF4FB1E03ED0B4E097
:1021B0003CD0670F781F891F9A1FA11D680F791FD8
:1021C0008A1F911DA11D6A0F711D811D911DA11DE9
:1021D00020D009F468943F912AE0269F11243019F9
:1021E000305D3193DEF6CF010895462F4770405D94
:1021F0004193B3E00FD0C9F7F6CF462F4F70405D43
:102200004A3318F0495D31FD4052419302D0A9F79D
:10221000EACFB4E0A6959795879577956795BA9597
:10222000C9F700976105710508959B01AC010A2E5D
:1022300006945795479537952795BA95C9F7620F34
:0E224000731F841F951FA01D0895F894FFCFF3
:10224E00534854582026204D5058343131350053C0
:10225E00656E736F72732044656D6F007374617475
:10226E0075735F7265673A0030782558006368654C
:10227E00636B73756D3A0054656D7065726174753C
:10228E00726500252B332E316625634320252B6482
:10229E00256343200048756D6964697479002533A0
:1022AE002E316620252520200050726573737572BD
:1022BE0065002575206B5061202000C5FE02C0BD53
:1022CE0052163F3B25D6B90AD7233CACC5A73A00D8
:1022DE000000000000005F00000007000700147FF0
:1022EE00147F14242A7F2A12231308646236495558
:1022FE0022500005030000001C2241000041221C58
:10230E000014083E081408083E080800503000006B
:10231E000808080808006060000020100804023E4B
:10232E005149453E00427F4000426151494621419C
:10233E00454B311814127F1027454545393C4A4903
:10234E00493001710905033649494936064949297B
:10235E001E003636000000563600000814224100DA
:10236E0014141414140041221408020151090632E7
:10237E004979413E7E1111117E7F494949363E41D0
:10238E004141227F4141221C7F494949417F090930
:10239E0009013E4149497A7F0808087F00417F4183
:1023AE00002040413F017F081422417F40404040C1
:1023BE007F020C027F7F0408107F3E4141413E7F29
:1023CE00090909063E4151215E7F091929464649F0
:1023DE0049493101017F01013F4040403F1F2040EC
:1023EE00201F3F4038403F631408146307087008ED
:1023FE00076151494543007F414100020408102006
:10240E000041417F00040201020440404040400070
:10241E000102040020545454787F48444438384410
:10242E00444420384444487F3854545418087E0994
:10243E0001020C5252523E7F0804047800447D4043
:10244E00002040443D007F1028440000417F4000A2
:10245E007C041804787C0804047838444444387C9E
:10246E0014141408081414187C7C08040408485426
:10247E00545420043F4440203C4040207C1C2040CB
:10248E00201C3C4030403C44281028440C505050F6
:10249E003C4464544C44000836410000007F000068
:1024AE0000413608001008081008784641467808A2
:0824BE00000C000E000F0000ED
:00000001FF
