:0C0000000C94B9010C9400000C9400005A
:10000C000C9400000C9400000C9400000C94000064
:10001C000C9400000C9400000C9400000C94000054
:10002C000C9400000C9400000C9400000C94000044
:10003C000C9400000C9400000C9400000C94000034
:10004C000C9400000C94000017001B0032003C00C4
:10005C00FF0000B4B4007878006363005E5E0000BB
:10006C00E3E300BCBC007070005E5E000000630047
:10007C000A006400000064002C01E8030001010E7A
:10008C000E0D3C3D00003C3D00004F4B2100C702D3
:10009C00000000B802BB02BE02C102C402002A204A
:1000AC00A16FBB6FB3BD65204D65BDC6202A000690
:1000BC00000600050002000400000003000500CF4C
:1000CC0002D402D802DE02EA02F402050310030095
:1000DC0016031A031E03220326032A032E03000011
:1000EC000000000000000100000000000000000003
:1000FC00000000000000000008000C000E000F00C3
:10010C00C5FE02C0BD52163F3B25D6B90AD7233CCB
:10011C00ACC5A73A0000003FCDCC4C3D0AD7A33B61
:10012C006F12033A17B75138ACC5A736BD37063531
:10013C0080C00000257525753A257525753A2575FD
:10014C002575204F4B2100202000257525752F2566
:10015C007525752F25752575204F4B2100546D691C
:10016C006E3A202575256343200A546D61783A2038
:10017C0025752563432000486D696E3A2025752549
:10018C0025200A486D61783A2025752525200053D5
:10019C006D696E3A2025752525200A536D61783AD4
:1001AC0020257525252000496D696E3A202575207E
:1001BC006C78200A496D61783A202575206C78207E
:1001CC0000BE7000B4B4007878005E5E004F464606
:1001DC00004F4E200023257520257525753A257571
:1001EC002575202573204F4B2100E041544100AB75
:1001FC00414300A84FA7A5420054454DA845504186
:10020C0054A9504100424FA74FA1494354C4004246
:10021C004FA74FA1494354C420A150A94854A90049
:10022C004F43424954A7454848B10042A55849E0BC
:10023C000048E32E00A8BD2E0042BF2E0043702EB6
:10024C0000ABBF2E00A8BF2E0043B22E0043A54327
:10025C0054454D4100A9A8504142A7494848B10016
:10026C004D494B504F4BA7494D41544F4D004220E7
:10027C005445A8A7A5E14900502E204B61BBB8BF3F
:10028C006FB363C4BAB8B900284329203230313671
:10029C0000252B332E31662563432025332E316602
:1002AC0025252052482000252B642563432000255A
:1002BC007525753A25752575202573000200600299
:1002CC005400020062025600020064025800020050
:1002DC0066025A00010005005C000300B802CD0163
:1002EC000300BB02D0010300BE02D3010300C10214
:1002FC00D6010300C402D6010400C702D9010500CF
:10030C00CF02F6010400D402FB010600D802FF0163
:10031C000C00DE0205020A00EA0211021100F402CE
:10032C001B020B0005032C0206001003370204000D
:10033C0016033D0204001A03410204001E03450289
:10034C00040022034902040026034D0204002A0380
:10035C00510204002E0355020200B2023C010200BD
:10036C00B6023E010000F894EE27ECBBF1E0FBBFB7
:10037C00EBBFE5BFF8E1F1BDE1BD8DE0A2E0BB272D
:10038C00ED938A95E9F780E098E0A0E6ED9301976C
:10039C00E9F7E8ECF2E085919591009761F0A59171
:1003AC00B59105901590BF01F00105900D92019744
:1003BC00E1F7FB01F0CFEFE5EDBFE8E0EEBFC0E603
:1003CC00D2E00C94D00516B20E94AB10A12D0E9465
:1003DC00B21005C00E94AB10A52D0E94B210219640
:1003EC0008952D978DE0A0E0B0E0EEE5F0E00E94DE
:1003FC009F160E94911603E010E020E030E040E0F0
:10040C0050E0EDB7FEB7FA93EA932F93EDB7FEB732
:10041C00FA93EA935F93EDB7FEB7FA93EA934F938F
:10042C00FE013C96FA93EA930E947E0F4F915F91E6
:10043C002F91303011F00C949C020E94B810E0E423
:10044C00F1E00E94BE100A930E940611A3E01A9FCD
:10045C00F001DE0117960E940A1121F10E9416117B
:10046C0031F4273111F420E001C02F5F19C0E130C5
:10047C00A0E0FA0731F45B3311F450E001C05F5F88
:10048C000FC0E230A0E0FA0731F44B3311F440E036
:10049C0001C04F5F05C0E330A0E0FA0709F431E07A
:1004AC000E941A110E94201121F10E94161131F4A0
:1004BC00203011F427E101C0215019C0E130A0E037
:1004CC00FA0731F4503011F45BE301C051500FC006
:1004DC00E230A0E0FA0731F4403011F44BE301C0F4
:1004EC00415005C0E330A0E0FA0709F431E00E9466
:1004FC001A110E94261179F00E942C1161F40A93B2
:10050C000E9406110E943211133019F410E003E01E
:10051C0002C00D5F1F5F0E94381139F00E943E111E
:10052C0021F40E941A1156B208C083CF2A935A9311
:10053C004A93E985EA930E949B0F0E949816639652
:10054C0008952C978CE0A0E0B0E0ECE6F0E00E947F
:10055C009F160E94911600E010E033E0EDB7FEB755
:10056C00FA93EA932F93EDB7FEB7FA93EA935F935E
:10057C00EDB7FEB7FA93EA934F930E94AA0F4F91EF
:10058C005F912F910E94BA0E103011F00C9453030E
:10059C000E94B810E6E5F1E00E94BE103A930E946A
:1005AC000611A3E00A9FF001DE0116960E940A11C3
:1005BC0051F10E94441139F1E1E00E944A1119F500
:1005CC00E02F0E944F1131F42F3111F420E001C0C3
:1005DC002F5F19C0E130A0E0FA0731F45C3011F460
:1005EC0050E001C05F5F0FC0E230A0E0FA0731F4C9
:1005FC00433611F440E001C04F5F05C0E330A0E08A
:10060C00FA0709F411E00E94201151F10E94201107
:10061C0039F1E2E00E944A1119F5E02F0E944F11C6
:10062C0031F4203011F42FE101C0215019C0E13018
:10063C00A0E0FA0731F4503011F45CE001C05150E5
:10064C000FC0E230A0E0FA0731F4403011F443E679
:10065C0001C0415005C0E330A0E0FA0709F411E0F5
:10066C000E94261179F00E942C1161F43A930E9499
:10067C0006110E943211033019F400E033E002C07D
:10068C000F5F3D5F0E94381139F00E943E1121F43A
:10069C000E941A1156B206C077CF2A935A934A93E6
:1006AC000E94C20F0E94981662960895A69782E245
:1006BC00A4E0B0E0E8E7F0E00E949F161A930A93DA
:1006CC0000E010E0E8A5F9A5DE01129684E00E9496
:1006DC00BF140E94BA0E003011F00C943F0456B2B5
:1006EC00EAA50E944F11A9F40E945211E9E6F1E02B
:1006FC00FA93EA930E9457110E945E11E889F989D6
:10070C000E9465110E945E1180E10E94310E649678
:10071C0026C0E130A0E0FA0729F40E945211E3E868
:10072C00F1E011C0E230A0E0FA0729F40E94521166
:10073C00EBE9F1E008C0E330A0E0FA0781F40E9495
:10074C005211E3EBF1E0FA93EA930E945711EC8516
:10075C00FD850E94651188E00E94310E2C960E9446
:10076C006A110E9470110E9475110E948511DE01A0
:10077C005C960E9418140E940A1161F10E941611D5
:10078C0069F4EC81FD81AA81BB81AE17BF0728F407
:10079C00EA81FB813196EA83FB831AC0E130A0E049
:1007AC00FA0789F40E948811DE0118960E948D11B7
:1007BC00AC81BD81AE17BF0728F4EC81FD81319669
:1007CC00EC83FD8305C0E230A0E0FA0709F401E0F8
:1007DC000E941A110E94201161F10E94161189F4D5
:1007EC000E948811DE0116960E948D11AA81BB8190
:1007FC00EA17FB0728F4EA81FB813197EA83FB8334
:10080C0016C0E130A0E0FA0769F4EA81FB81AC8103
:10081C00BD81EA17FB0728F4EC81FD813197EC834D
:10082C00FD8305C0E230A0E0FA0709F401E00E9464
:10083C001A110E94261191F00E942C1179F40E9439
:10084C0085110E9475110E943211123031F410E0A2
:10085C00E4E5F1E00E94921101C01F5F0E94381183
:10086C0039F00E943E1121F40E941A1156B208C0B0
:10087C0032CFFE013296A8A5B9A584E00E94BF1420
:10088C0019810881AB9608952F978FE0A0E0B0E016
:10089C00EAE9F0E00E949F160E94911600E010E039
:1008AC0020E030E00E949611203011F00C941905D4
:1008BC000E94B810E1EEF1E0FA93EA93E02FEF5FBB
:1008CC000E94AA110E943C140E94AA110E94B2110B
:1008DC00A42F0E94BA11A42FEAE00E94B211EAA13F
:1008EC00F0E0DE015E960E94C3110E94651188E162
:1008FC000E94310E6C960E946A110E94EA0E3A9385
:10090C000E9406110E948511DE011B960E94C311E4
:10091C000E94C61191F10E94161141F4073010F497
:10092C000F5F01C000E00E94961125C0E130A0E0ED
:10093C00FA0731F4573111F450E001C05F5F1BC06E
:10094C00E230A0E0FA0731F44B3311F440E001C07F
:10095C004F5F11C0E330A0E0FA0741F4EA85E030C4
:10096C0011F0E0E001C0E1E0EA8705C0E430A0E06E
:10097C00FA0709F421E00E941A110E94201191F14A
:10098C000E94161141F4013010F0015001C008E032
:10099C000E94961125C0E130A0E0FA0731F45030E6
:1009AC0011F457E101C051501BC0E230A0E0FA072E
:1009BC0031F4403011F44BE301C0415011C0E3302D
:1009CC00A0E0FA0741F4EA85E03011F4E1E001C05F
:1009DC00E0E0EA8705C0E430A0E0FA0709F421E082
:1009EC000E941A110E94261199F00E942C1181F478
:1009FC003A930E9406110E943211143019F410E03F
:100A0C0030E006C0393011F43C5F01C03D5F1F5F20
:100A1C000E94381139F00E943E1121F40E941A11E3
:100A2C0056B214C041CFE3E0E09FF001E059FD4F16
:100A3C005083E3E0E09FF001EF58FD4F4083E3E08B
:100A4C00E09FF001EE58FD4FAA85A0830E949816F6
:100A5C0065960895E19781E3A0E0B0E0EAEAF0E062
:100A6C000E949F161A9310E056B20E94CB110E945E
:100A7C00A60EFE013196FA93EA930E947011DE01E4
:100A8C005296EE0FFF1FAE0FBF1FEC91EA930E9420
:100A9C0006110E948511DE0192960E94C3110E94DC
:100AAC00C61159F0E1E00E944A1139F4173011F4E3
:100ABC0010E001C01F5F0E94BA0E0E94201159F075
:100ACC00E2E00E944A1139F4103011F417E001C031
:100ADC0011500E94BA0E0E94261111F40C94C505F7
:100AEC000E942C1111F00C94C5050E94BA0E0E94A4
:100AFC00161119F40E94A70240C0E130A0E0FA07D9
:100B0C0019F40E94F70139C0E230A0E0FA0719F499
:100B1C000E944A0432C0E330A0E0FA0739F4E0E066
:100B2C00EA93E0E6F2E00E94CF1127C0E430A0E0A7
:100B3C00FA0739F4E1E0EA93E4E6F2E00E94CF111F
:100B4C001CC0E530A0E0FA0739F4E2E0EA93E8E6ED
:100B5C00F2E00E94CF1111C0E630A0E0FA0739F4A0
:100B6C00E3E0EA93ECE6F2E00E94CF1106C0E73036
:100B7C00A0E0FA0711F418810BC00E94BA0E0E9473
:100B8C00381129F00E943E1111F4188101C06CCF6C
:100B9C00E2960895A79787E2A0E0B0E0ECEDF0E0D4
:100BAC000E949F1600E010E020E030E00E94AD08AB
:100BBC000E941909E9ECEA93EDE7EA93E0E0EA9385
:100BCC000E94E2070E946D13E0E0EA93E1E0EA93F1
:100BDC00E0E0EA930E94670FE0E0EA930E94530F73
:100BEC00E078F0E0EA8BFB8B309721F00E94CB1180
:100BFC000E94600FE0E1EA930E941C0F0E94BA0E63
:100C0C00E4E0EA93E0E0EA930E94A60EE9E5F2E064
:100C1C000E949211E3E0EA930E940611E1E6F2E0F1
:100C2C000E9492110E94D311E1E0EA93E0E0EA9372
:100C3C000E94A60EECE6F2E00E949211E3E0EA9329
:100C4C000E940611EAE7F2E00E9492110E94D31171
:100C5C000E94CB110E94A60EE4E8F2E00E949211D1
:100C6C00E4E0EA930E940611E4E9F2E00E9492119A
:100C7C000E94D311FE017696FA93EA930E944409DE
:100C8C00FE017696FA93EA93EDB7FEB7FA93EA93E0
:100C9C004F930E942B094F91A59AAD98A69AAE98A6
:100CAC00A79AAF98FE017B96FA93EA930E943908B3
:100CBC0050E0FE01B396FA93EA93EDB7FEB7FA93C0
:100CCC00EA934F93E1E0EA930E9454094F910E94FA
:100CDC00DB11FE017F96FA93EA93EDB7FEB7FA9318
:100CEC00EA934F93E0E0EA930E9454094F910E94DB
:100CFC00DB11503019F00E9419095EC0EBA1FCA168
:100D0C000E94DE11EBA3FCA36DA37EA3EF8DF8A1D3
:100D1C000E94DE11EF8FF8A369A37AA3FE01B396AC
:100D2C00FA93EA93FE01B196FA93EA930E9493091F
:100D3C000E94E3110E94E3110E942D0AEF8BF88FA1
:100D4C00698F7A8F0E945211EDE9F2E0FA93EA93DF
:100D5C00EF8DF8A169A17AA10E94A8140E945E11DE
:100D6C00EFA5F8A969A97AA90E94A8148CE00E94A1
:100D7C00310E60960E946A110E94EA0E0E94521176
:100D8C00E3EBF2E0FA93EA93EBA1FCA16DA17EA157
:100D9C000E9411150E942C140E94A8140E945E112E
:100DAC0088E00E94310E2C96E0E0EA930E94061136
:100DBC000E9452110E94EA0EE0916202F0916302CD
:100DCC00AB8DBC8D8D8D9E8D0E94DE110E946316A5
:100DDC0009F010F40C94F406AD9A01C0AD98E091B2
:100DEC006402F0916502ABA1BCA18DA19EA10E94F1
:100DFC00DE110E94631610F4AE9A01C0AE98E09119
:100E0C006C02F0916D022E173F0710F4AF9A01C0DF
:100E1C00AF98FE017196FA93EA93FE0172960E94C6
:100E2C00EA11FE017496FA93EA930E947E0F0E94D7
:100E3C005211EBEBF2E0FA93EA93AD890E94BA11EE
:100E4C00A98DEAE00E94B211AC8D0E94BA11A8A142
:100E5C00EAE00E94B211EAA1F0E03197DE0154966B
:100E6C000E94C3110E94651184E10E94310E6896A4
:100E7C00E7E0EA930E9406110E9452110E94EA0ECA
:100E8C000E94261149F00E942C1131F40E94BA0ED6
:100E9C000E9430050E94BA0E05CFFFCF1A93AC9872
:100EAC00A49A80EC93E00197F1F7A49880EA8A95D4
:100EBC00F1F7E3B3E0711E2F88E493E00197F1F7AB
:100ECC00E3B3E071AE2F0E948511B0E0EA17FB0787
:100EDC0011F4E1E022C0E0E020C0AC98A49A83E0D9
:100EEC008A95F1F7E881E03009F0A49880EA8A95B8
:100EFC00F1F7A498219608951A9310E0AC98A49A4F
:100F0C0083E08A95F1F7A49885E28A95F1F79C998C
:100F1C0011E088E78A95F1F7E12F199108951A935A
:100F2C000A9300E018E0E12F1150E03049F00695EB
:100F3C000E948207E795E0E0E795F0E00E2BF3CFF7
:100F4C00E02F0991199108951A9318E0E12F11508F
:100F5C00E03049F0E981E170EA930E947307E9817E
:100F6C00E695E983F3CF1881229608950E94931693
:100F7C0020E010E0EC811E17D0F4AD81BE81EE278D
:100F8C00A10FBE1F0C9130E0383078F4E22FF0E066
:100F9C00E027E17031F0E8E1E227E695E0682E2FDA
:100FAC0001C0269506953F5FEFCF1F5FE3CFE22F81
:100FBC000E949A1627960895E881E295E07FEE0F3D
:100FCC00EF61E8830E945407E03011F0E1E021C0AA
:100FDC000E94F111EEE4EA930E94AA07E981EA93D8
:100FEC000E94AA07EA81EA930E94AA07E881EA9381
:100FFC000E94AA070E9454070E94F111E8E4EA93A8
:10100C000E94AA07EFE0F0E0FA93EA930E94BF1364
:10101C00E0E0239608950E94931610E029EA32E04E
:10102C003F932F932F5F3F4F0E949507AF91BF9136
:10103C00EC931F5F1930A0F3E9EAF2E0FA93EA931C
:10104C00E8E0EA930E94BC07AE2FE091B1020E9447
:10105C00F511EA17FB0711F0E1E001C0E0E00E9496
:10106C009A1624960895289788E0A0E0B0E0E4E072
:10107C00F1E00E949F160E9491160E945407E030E6
:10108C0011F0E1E060C00E94F111E4E4EA930E94E7
:10109C00AA070E948207E030E1F30E9454070E94E5
:1010AC00F111EEEBEA930E94AA070E941108E030BE
:1010BC0011F0E1E048C00E945407E091AD02E295C6
:1010CC00EF70E695E3703E2F4091A9025527F09101
:1010DC00AA02E0E04E2B5F2B57FF08C021E0EFEF98
:1010EC00FFEF4E275F274F5F5F4F01C020E0FA01F3
:1010FC000E941D141E2FE32FF0E0DE0116960E94B5
:10110C00C311E423F5230E2F0E94F811A0E0B0E0E8
:10111C0080E89DE30E94D015A12FB0E00E9431140D
:10112C000E94AF140E948215AE85BF850E949D144B
:10113C00203041F0AE85BF850E9497140E94DC14CC
:10114C000E949D14E0E00E94981660960895E0E0DD
:10115C00E5BBE4E0E4BB08951A930A9300E0A39A7C
:10116C0010E8113098F0EA81F0E0A12FB0E0EA230A
:10117C00FB23309711F0AB9A01C0AB980E94FF1182
:10118C008DE08A95F1F7AA981695EBCFA3980E945B
:10119C00FF1183E08A95F1F7E3B3E8700E2F0E94FC
:1011AC000412E02F1981088177C01A930A9300E08A
:1011BC00A39810E8113058F00E9409129B9B03C0B1
:1011CC000E9485110E2B0E9404121695F3CFEA8112
:1011DC00E03029F0A39AAB9883E08A95F1F7AA9AAC
:1011EC008DE08A95F1F70E940412A398E02F1981E3
:1011FC00088152C0A39AAB9AAA980E94FF1183E06F
:10120C008A95F1F7AB9883E08A95F1F7AA988DE06F
:10121C008A95F1F70E940912AB9A83E08A95F1F74F
:10122C000E94041208951A93A39AAB9A0E94041276
:10123C0010E0193030F40E9409120E9404121F5F52
:10124C00F8CF0E940009199108951A9310E00E949A
:10125C000009E7E0EA930E94B2081E2F0E940E12CA
:10126C00AB81BC81EC93E0E0EA930E94DB08A9819E
:10127C00BA81EC93E12F1881259608951A9310E00A
:10128C000E940009E6E00E941212A981BA81EC9139
:10129C000E941212E12F1881239608950E94931632
:1012AC0000E010E00E940009EC810E944F1121F433
:1012BC00E3E00E94181207C0E130A0E0FA0719F42D
:1012CC00E5E00E941812A39820E030E02F3FEFEFEA
:1012DC003E0740F483E08A95F1F79B9B03C02F5F98
:1012EC003F4FF4CF9B9B02C00F5F1F4F0E940E120B
:1012FC00AF81B8851196EC930E940E12AF81B88520
:10130C00EC93E0E0EA930E94DB08AD81BE81EC93A4
:10131C00F8010E949A16299608956497AE89BF89A0
:10132C000E949714E88BF98B6A8B7B8BAC89BD89F7
:10133C000E9497140E941F120E942412EAE0F7EDFB
:10134C0063E27DE30E94D015DF01CB01E3E3F3E31D
:10135C006FE172E40E942912E883F9836A837B832C
:10136C00E4E1F1E00E94A2140E942E120E942E12BF
:10137C007F936F93FF93EF93E0E1F1E00E94A2144F
:10138C000E942E12AF91BF918F919F910E94821556
:10139C00DF01CB01ECE0F1E00E94A2140E94821567
:1013AC00E887F9876A877B87A881B9818A819B81C5
:1013BC00E0E0F0E068EC71E40E9429127F936F93F7
:1013CC00FF93EF93E8E1F1E00E94A2147F936F93F7
:1013DC00FF93EF93ECE1F1E00E94A2140E942E1215
:1013EC00AF91BF918F919F910E948215AF91BF9148
:1013FC008F919F910E94D015A885B9858A859B8570
:10140C000E943512E0E0F0E068EC72E40E94631692
:10141C0009F010F40C94140A0E9440120E94451218
:10142C00EDECFCEC6CEC7DE30E94631610F40E9476
:10143C0040120E944A12AC89BD890E949D140E94E0
:10144C004F12AE89BF890E949D1468960895289703
:10145C00E885F9856A857B85A0E0B0E080EF90E4B3
:10146C000E94D0157F936F93FF93EF93E885F985D6
:10147C006A857B85ADECBCE48DE693E40E94821515
:10148C00AF91BF918F919F910E941E16A9E3B8E274
:10149C0089E29FE30E9482157F936F93FF93EF93F2
:1014AC000E9454120E94A8140E946710DF01CB0105
:1014BC00E0E0F0E060E070E40E942912AF91BF918F
:1014CC008F919F910E943512E9E3F8E269E27FE384
:1014DC000E942912ADECBCE48DE693E40E94D01579
:1014EC007F936F93FF93EF930E944512E4E8F2E928
:1014FC0062E071E40E947B15AF91BF918F919F9137
:10150C000E941E16E883F9836A837B830E944A1229
:10151C00609608955F9BFECFECB108955D9BFECF66
:10152C00E881ECB9219608951A930A93AC81BD8198
:10153C000E9493143097B9F0AA81BB810E94931436
:10154C008F01309749F00230E0E01E0758F0F801A7
:10155C0031978F01ED93FC93AC81BD810E945912A0
:10156C00AE81A08304C0EE81EA930E94940A198193
:10157C0008812796089524971A930A93A885A73073
:10158C0010F0E6E0E887E885F0E0A0E2B1E00E9428
:10159C001814EA0FFB1F0E94A2140E9460120E94F2
:1015AC0082150E94651210E00E946A120E946F124E
:1015BC000E9474120E94631640F00E9479120E94DD
:1015CC00D0150E946F121F5FF3CF103029F40E94C8
:1015DC008212E0E3EC9324C0E12F1150E03001F1D2
:1015EC000E9479120E9489120E946F120E9474123A
:1015FC000E941E160E9411150E2F0E9482120E942C
:10160C009512AA81BB818C819D810E949B120E94A4
:10161C00D0150E9460120E9429120E946512DCCF24
:10162C00E885E03029F4AE81BF81E0E0EC9327C07F
:10163C000E948212EEE2EC93E885E150E887EF5FBE
:10164C00D1F00E9460120E94A0120E946512E985DE
:10165C00FA856B857C850E940F150E2F0E948212D5
:10166C000E9495120E9460120E949B120E942912E5
:10167C000E946512E1CFAE81BF81E0E0EC9319814D
:10168C0008812D96089524970E9493160E946A1241
:10169C000E944012AB85A73010F0E6E0EB871B856B
:1016AC00E12F1150E03029F00E94A7120E94401245
:1016BC00F7CF0E9454120E94831631F430E00E943E
:1016CC00A7120E94401230C03B850E94A91209F05B
:1016DC0010F40C947C0B0E94A7120E9440120E94E2
:1016EC00A91218F00E94AE12FACF0FC00E94A912D4
:1016FC0040F40E9424120E94A0120E941F1231502A
:10170C00F5CF0E94A7120E9440120E945412A0E032
:10171C00B0E080E09FE30E9482150E941F120E949D
:10172C00A91210F00E94AE1210E0EB85E11768F1DF
:10173C000E944512E0E0F0E060E271E40E94891240
:10174C000E9440120E944F120E9424120E941E16E8
:10175C000E9411150E2F0E94B812E02FE05DEC9341
:10176C000E94F8110E9445120E94D0150E9424126A
:10177C000E9429120E941F12E12F1F5FE030A9F670
:10178C000E94B812EEE2EC93D0CF0E94BF12AA8551
:10179C00A08330302CF40E94B812EDE2EC9331951A
:1017AC003A304CF00E94BF12BF01A32FEAE00E9416
:1017BC004A140E94C6120E94BF12BF01A32FEAE076
:1017CC000E9474140E94C612A885B985E0E0EC93BF
:1017DC000E949A1660960895EF972F970E94911683
:1017EC0010E0FE01EC5AFF4F0190F081E02DE88BE8
:1017FC00F98BDE01A65ABF4F0E945912E4912E2F8D
:10180C00E03011F40C942C0E0E94161149F4253280
:10181C0011F411E004C00E94CD120E949A0A15C264
:10182C00E130A0E0FA07D1F4253229F40E94CD1260
:10183C000E949A0A09C212E0E0E0EB8B00E02D3224
:10184C0011F401E002C22B3219F4EBE2EB8BFDC177
:10185C00203219F4E0E2EB8BF8C104C0E230A0E0D6
:10186C00FA0739F450E013E0203311F40068EDC1AD
:10187C0004C0E330A0E0FA07A9F4203310F02A33B7
:10188C0008F00AC0A52FEAE0EA9FF0015E2FE22FD4
:10189C00E0530E94DB11D9C140E02E3211F414E068
:1018AC00D4C114C0E430A0E0FA07B1F4203310F036
:1018BC002A3308F00BC00062A42FEAE0EA9FF00183
:1018CC004E2FE22FE053F0E04E0FBFC12C3619F42F
:1018DC00026015E0BAC106C0E530A0E0FA0711F0CD
:1018EC000C942B0EE22FF0E0E336A0E0FA0741F463
:1018FC000E94D512E4810E94DE120E949A0AA4C1B1
:10190C00E534A0E0FA0721F0E536A0E0FA0709F487
:10191C0006C0E636A0E0FA0711F00C94DF0CFE01CD
:10192C007496EA87FB870E94D5123496DF010E94D9
:10193C0097140E94E612DF01CB010E94871624F057
:10194C00AB89AB3249F014C00E94EB120E94DC143C
:10195C000E94E612EDE2EB8B07FF06C0EB890E94BA
:10196C00DE120E949A0A04C00E94F012AB89A08376
:10197C0005FF46E0263661F40E94EB120E94A81483
:10198C004A93EF85F889FA93EA930E94C10A0CC036
:10199C000E94EB120E94A8144A932A93E889F989B1
:1019AC00FA93EA930E94490BFE0174960E94F71277
:1019BC0022C0E337A0E0FA0739F40E94D5120E9446
:1019CC00FF120E94F71210C0E037A0E0FA07C1F432
:1019DC000E94D5120E94FF12EA87FB87FA93EA93C2
:1019EC000E948B101E2F08600F77403011F04117AA
:1019FC0008F001C0142F40E0E0E0EA8B30E079C041
:101A0C00E436A0E0FA0721F0E936A0E0FA0711F479
:101A1C00046004C0E537A0E0FA07A1F4EAE0EA8B21
:101A2C0001FF08C0E0E0FAEC6AE97BE30E941F12B8
:101A3C001AE027C0E0E1F7E260E070E00E941F12BC
:101A4C0015E01FC0E835A0E0FA0711F4086006C0E5
:101A5C00E837A0E0FA0711F00C942A0EE0E1EA8BCB
:101A6C0001FF08C0E0E0F0E060E070E10E941F12AE
:101A7C0018E007C0E0E0F0E160E070E00E941F12A7
:101A8C0014E0403011F00F7701C041E001FF07C0B6
:101A9C000E94D5123496DF010E9497140FC002FFEA
:101AAC0007C00E94D5120E94FF120E942C1406C07F
:101ABC000E94D5120E94FF1266277727EE83FF83C0
:101ACC006887798702FF14C00E9404130E9487164E
:101ADC0044F40E94EB120E9407140E94E612EDE2FD
:101AEC00EB8BEB89E03019F01F5F4F5F01C00B7F70
:101AFC00342F00FD16C0151710F4351708F011C05F
:101B0C0007FF08C002FF04C00B7F2B89115001C0D6
:101B1C0020E301C020E20E94CD120E949A0A51508B
:101B2C00EACF141798F4006102FF06C00E94091353
:101B3C0009F0515011504150E0E30E94DE120E9416
:101B4C009A0A503009F051504150EBCF312FEA89AD
:101B5C00E030F1F43030D9F003FF04C00E94F012F1
:101B6C00E49105C0AA85BB85ED91AA87BB87EA9352
:101B7C00FE01E95AFF4F0190F081E02D0E94EA111D
:101B8C000E949A0A503009F051503150E3CF51C0A5
:101B9C000E9454120E9404130E944F142E2F2A30BC
:101BAC0030F003FF02C0295C01C0295A01C0205D3E
:101BBC0004FD1FC0213350F40E942412A130E0E038
:101BCC00BE07E0E08E07E0E09E0709F40BC0431768
:101BDC0040F4531710F000FF01C012C020E207FFC1
:101BEC0008C020E3006102FF04C00E94091309F041
:101BFC0051500E94CD120E949A0A503009F0515057
:101C0C0031500E9454120E9404130E9483140E94AB
:101C1C00E612EA89F0E00E9424120E942C140E9421
:101C2C004F140E941F120E9454120E94831609F036
:101C3C00AFCF00FF09C0503039F05150E0E20E94A4
:101C4C00DE120E949A0AF7CF10E0D3CD0E949816AC
:101C5C00EF966D960895FF92F82E22971A930A9399
:101C6C00DE010E9403148D01DE0116960E940314FE
:101C7C000E949314EA83FB83DE0114960E940314E2
:101C8C000E949314FA93EA931A930A93FE013696E0
:101C9C00FA93EA93E0E0F0E0FA93EA930E94F20BF5
:101CAC00AA81BB81E0E0EC93198108812496FF9016
:101CBC000895FFE0FA95F1F70895A1B3AF70A1BBB9
:101CCC00919A90980E945F0E929A0E945F0EA0B318
:101CDC0092980E945F0E929A0E945F0E9298A7FDB6
:101CEC00F1CF0895A07FAB2BA2BB929A0E945F0EFE
:101CFC0092980E945F0E08959198A1B3A76FA1BB13
:101D0C00B2B3BF70A8810E94780EA881A2950E94E0
:101D1C00780E919A21960895929A0E945F0EE0B3E4
:101D2C0092980E945F0EE07F08950E945F0E0E94C1
:101D3C00920EAE2F0E94920E9198E295EA2B089586
:101D4C000E94630EE881F0E0EE54FD4FE081AE2F6F
:101D5C00E9810E94F511EA0FFB1FEA930E94820EA3
:101D6C0049807880229608950E94630EE2E0EA93FF
:101D7C000E94820E0E94630EECE0EA930E94820E97
:101D8C000E94630EE1E0EA930E94820EE0E07E2E58
:101D9C004E2E0895EF93FF93A8816894AA3021F0FA
:101DAC00E8944394641438F47394E0E0EA937A92E0
:101DBC000E94A60E2EF081DF909AA881AA939CDF38
:101DCC00FF91EF91219608951A93A981BA81ED9113
:101DDC00A983BA831E2FE03021F01A930E94D00EF3
:101DEC00F4CF188110C01A93E981FA813196E983F6
:101DFC00FA833197E4911E2FE03021F01A930E9460
:101E0C00D00EF2CF188123960895AA27BB271197DD
:101E1C00F1F708959198A1B3A76FA1BBB2B3BF70AE
:101E2C00A8810E94780E919A219608959298909884
:101E3C006880E881E058E093B402E881E054E093D4
:101E4C00B5020E941D130E941D130E941D130E94B7
:101E5C000B0FE0E2EA930E94100F0E940B0FE8E2D6
:101E6C000E942313E4E00E942313E5E80E9423134D
:101E7C00A1B3AF70A1BB919A0E949B0EE53011F0FB
:101E8C00E0E009C00E94630EE6E0EA930E94820E35
:101E9C000E94BA0EE1E0219608951A930E9428132D
:101EAC000E9432130E9438131E2F0E948113E12FBF
:101EBC00188105C00E942813E8810E943C132296C9
:101ECC000895EA81E370EA83E981E03019F0EA8150
:101EDC00E061EA83E881E03019F0EA81E068EA83A6
:101EEC000E944113E7E00E9447130E943C1353C029
:101EFC000E944113E0E0EA930E94A6130E94321361
:101F0C000E944C13AA81BB81EC930E944C13AC81B0
:101F1C00BD81EC930E944C13AE81BF81EC930E9467
:101F2C0038130E945313289608950E944113E0E041
:101F3C000E945B130E9447130E946213EB810E9464
:101F4C0062130E946813D5C00E944113E4E0EA9327
:101F5C000E94A6130E9432130E944C13AC81BD81C7
:101F6C00EC930E944C13AA81BB81EC930E94381312
:101F7C000E945313269608950E944113E4E00E9498
:101F8C004713EA930E94A2100E945B13EA930E94EB
:101F9C00A6130E9468132396089524971A930A9304
:101FAC000E9404130E948B162CF0EFEFFFEF6FE7EB
:101FBC007FEF83C00E94EB120E94A814EDB7FEB70E
:101FCC003197FA93EA931F930F930E94C9140F91C0
:101FDC001F910E94E6120E940413E3EFF4E065E304
:101FEC007FE30E94631650F40E94EB120E940413CC
:101FFC000E9482150E94E612015010400E940413A8
:10200C000E946A120E9429127F936F93FF93EF93A1
:10201C000E94EB12A0E0B0E080E89FE30E948215E2
:10202C00AF91BF918F919F910E941E160E94E61254
:10203C000E94EB120E9404130E94D0150E946F1292
:10204C00EA81FB816C817D81A6E2B2E485E69FE3A7
:10205C000E94D015DF01CB01EEE4F1E164E570E400
:10206C000E9429120E9404130E94D0157F936F9333
:10207C00FF93EF93AA81BB818C819D81EDE4F1E10B
:10208C0064ED7FE30E942912AF91BF918F919F91D4
:10209C000E941E167F936F93FF93EF93F8010E949B
:1020AC009B12A8E1B2E781E39FE30E94D015AF91A8
:1020BC00BF918F919F910E948215198108812A9658
:1020CC000895A881B9818A819B810E948B162CF07E
:1020DC00EFEFFFEF6FE77FEF0CC00E944A120E94F8
:1020EC00A8140E94D30FA9EDBBE58EED9EE30E94D0
:1020FC00D01524960895A991B991EE27FF276D91DB
:10210C00662311F03196FBCF0895AA27BB27E991DE
:10211C00F9910590002011F01196FBCFFD01089567
:10212C00E881E295EF70AE2FAA0FAA0FEA0FEE0F1F
:10213C00A991AF70EA0F0895A991EE27AA5012F059
:10214C00E05FFCCFA65FEA0F0895E881F0E0A1E024
:10215C00B0E00E940F140895B0E0EA23FB230E9424
:10216C003614089556B2E8E8F2E0FA93EA9308952B
:10217C00FA93EA93A22FEAE00E943C14FF27662709
:10218C0077270E94A814A22FEAE00E948014FF2750
:10219C00662777270E94A814A52FEAE00E943C141A
:1021AC00FF27662777270E94A814A52FEAE00E9434
:1021BC008014FF27662777270E94A814A42FEAE033
:1021CC000E943C14FF27662777270E94A814A42F8F
:1021DC00EAE00E948014FF27662777270E94A81444
:1021EC0088E10E94310E6C96E3E0EA93E0E0EA931A
:1021FC000E94A60EE8E8F2E0FA93EA930C94EA0E39
:10220C00E1E0EA930C94A60EEA0FFB1FFA93EA9313
:10221C000E94EA0EE1E0EA930E94E901E0300895A1
:10222C00E12FF0E030970895ECE2F1E0FA93EA93B5
:10223C000C94BF13E2E0EA930E94E901E0300895A8
:10224C00E0E0EA930E94E901E0300895E0E0EA93CF
:10225C000E94F001E0300895E3E5F1E0FA93EA938F
:10226C000C94F90EE3E0EA930E94E901E030089542
:10227C00E3E0EA930E94F001E0300895E1E0EA9394
:10228C000E94E901E0300895EA930E94F001E030E9
:10229C000895F0E030970895E8E8F2E0FA93EA93B5
:1022AC000895EE81FF81662777270E94A814089570
:1022BC00EFEDF0E060E070E00E94A814089566274E
:1022CC0077270E94A8140895E0E0EA93EA930E940D
:1022DC00A60EE2CF0E94EA0EE12FF0E008950F0166
:1022EC00DE015996AE0FBF1FEC91EA93F001DE01AF
:1022FC005796AE0FBF1FEC91EA930C94A60EE12FEC
:10230C00F0E00895EAA5F0E00E9418140895AE0FCD
:10231C00BF1F0E9493140895FA93EA930C94F90E3C
:10232C00E3E0E09FF001E059FD4F5081E3E0E09FD6
:10233C00F001EF58FD4F4081E3E0E09FF001EE58D3
:10234C00FD4FE081EA870895FF27662777270E94D3
:10235C00A814A52FEAE008950E948014FF27662791
:10236C0077270E94A8140895EAE00E943C14FF27E6
:10237C00662777270E94A8140895EE0FFF1FC7CF7A
:10238C00FA93EA930E94EA0E79CFE0E0EA93EA939B
:10239C000895FA93EA930C945C03E0EDF7E0FA935A
:1023AC00EA930E94BF130C94BA0EF0E05E0F0895EE
:1023BC00662777270E9448150895EBA1FCA16DA113
:1023CC007EA10E94A8140895FA93EA93FE017396D5
:1023DC00FA93EA930895ECECEA930C94AA07F0E0D4
:1023EC00B0E00895E02FFF27662777270E94481555
:1023FC00089583E08A95F1F7AA9A0895AA9883E044
:10240C008A95F1F70895AA9A83E08A95F1F70895D1
:10241C00E1E0EA930C94DB08EA930E94B208F0E046
:10242C001E0F0895EA930E94B208F0E00E0F1F1FD2
:10243C000895EC87FD876E877F870895AC85BD85F1
:10244C008E859F8508950E94B2140E947B15089575
:10245C00A889B9898A899B890E94D01508950E9400
:10246C008215EC83FD836E837F83AC81BD818E816D
:10247C009F810895EC83FD836E837F830895AC81E7
:10248C00BD818E819F810895E881F9816A817B816C
:10249C000895EC81FD816E817F810895EC85FD8529
:1024AC006E857F850895ED91FD913196FE93EE93A7
:1024BC0031970895A985BA858B859C850895E98700
:1024CC00FA876B877C870895E0E0F0E060E87FE3B3
:1024DC000895EA83FB836C837D830895EA81FB81F5
:1024EC006C817D81E7CFAA81BB818C819D81E0E0ED
:1024FC00F0E060E271E40895AE81BF811196AE8385
:10250C00BF83119708950E941E16A0E0B0E080E0F2
:10251C009FE30E9482150E94A8140C94FA13E02FDA
:10252C00E05DEC93E02FF0E008950E942C140E94E3
:10253C0048150895E0E0F0E060E271E40E94D015E7
:10254C0008959DDFF7CFA5DF79DF0E94631608950C
:10255C0075DFE0E0F0E060E271E40E941E1669DFD6
:10256C003F5F0895A885B9851196A887B9871197FB
:10257C000895E885F9853196E887F98731970895AC
:10258C00F0E0E7FDFFEFF096DB01EC9308952A9362
:10259C00FE01E95AFF4F0190F081E02D15CFDE01CD
:1025AC00A85ABF4FED91FD913497FE93EE93089589
:1025BC00EA93FE01E95AFF4F0190F081E02D04CF20
:1025CC00EE83FF83688779870895EE81FF816885A4
:1025DC0079850895EA85FB853196EA87FB873197E3
:1025EC000895EA87FB87FA93EA930E9481101E2FC5
:1025FC0008953496DF010E9493140895AE81BF8133
:10260C008885998508950B7FEB89EA93FE01E95A39
:10261C00FF4F0190F081E02DFA93EA93FE01E95A05
:10262C00FF4FFA93EA930E949A0A503008950E9441
:10263C000B0FE0E3EA930C94100FEA930E94820EC6
:10264C000C940B0F0E947213E0EDEA930E94A613F8
:10265C00E981EA930C94A6130E947213E1EDEA93BC
:10266C000C94A613E0E0EA930C948B13EA930E946B
:10267C00A6130C9481130E947213E0EDEA930C9450
:10268C00A613EA930E94A613EA810895E1E0EA9367
:10269C000E948B13EA930C949610EA930E94961066
:1026AC00A881B981EC930C948113EA930E94A61330
:1026BC00E981EA930C94A210EA930E94A210EA9387
:1026CC000C94A613E881EA930E94A210CFCFA8988D
:1026DC00A998A09AA19815C0A198A098EE270000DF
:1026EC00999B0895989B089504D0A19A02D0A09A22
:1026FC00E1E06DE007C0A19AA09A03D0A098F9DFA1
:10270C00A1986BE16A95F1F7089578E0A098F1DF54
:10271C00989BFECFEEDF889499990894A09AF1DFEC
:10272C00EE1F7A9599F77991772311F4A19801C04E
:10273C00A19ADFDFA098E5DFA09ADBDFA198D9CFC3
:10274C00E99178E0EE0F10F4A19801C0A19AD9DFBD
:10275C00A098CFDF989BFECFCCDFA09A7A9591F70B
:10276C00A198C7DFA098CDDFE1E09999EE27A09A58
:10277C000895E991F991309639F080ED97E0019741
:10278C00F1F7A8953197C9F708957B816A81F98192
:10279C00E88177FB770F67FD7160972F9E5781F06B
:1027AC0078F0983190F4AA27BB278827089487954E
:1027BC00B795A7959A95D1F7EA23FB23682305C013
:1027CC00E8947727EE27FF2766276F77769508F42E
:1027DC00606877F9A991B99189919991EA17FB07EA
:1027EC006807790797FB0895D0DF09F40895F6F789
:1027FC009FEBAA27BB2780E87FC10024AF0DB01D3B
:10280C000895F09560957095E195FF4F6F4F7F4F50
:10281C000895EE230E2EFD0121F0EE0FFF1F0A94FA
:10282C00E1F70895EE0FFF1FEE0FFF1F0895F695C9
:10283C00E795F695E795F695E795F695E79508955E
:10284C00FE2FFF0FFF0B6F2F7F2F08956F2F660F3B
:10285C00660B762F08958B2F880F880B982F089571
:10286C003097E1E0F0E009F0EE270895002498E0BD
:10287C00AA0F001C0E1A10F40E0E01C0A1609A953E
:10288C00B9F7EA2FA02D08953CD0F0DF0EF4E195B6
:10289C0008953F934F935F930024112444275527A9
:1028AC0030E2AA0FBB1F881F991F001C111C441F6C
:1028BC00551F0E1A1F0A460B570B28F40E0E1F1E1F
:1028CC00461F571F01C0A1603A9559F7FD01BC0185
:1028DC00D001CA015F914F913F910895E894A7FFF1
:1028EC0002C0A1956894E7FDE195C0DFEA2F0EF4D4
:1028FC00E1950895BBDFEA2F0895CBDFFD01BC0104
:10290C000895E894E7FF02C0E1956894A7FF04C01E
:10291C00A19500F8039400FA0895ED91FC9111979C
:10292C000895ED91FD916D917C9113970895ED9320
:10293C00FD936D937C93089505901590659174911A
:10294C00F00108957A936A93FA93EA930895689440
:10295C0001C0E89401D097D0182E862F612D192E26
:10296C00972F712D1B2EBF2FF12D1A2EAE2FE12D6F
:10297C0008959927EF93FF9361916D930197E1F778
:10298C00FF91EF910895A991B991E991F99169910C
:10299C00799177FB660F771F88277E57880B7D937D
:1029AC008C937EE7769567950EF00895309760408E
:1029BC00704009F070580895552342F4503811F4C2
:1029CC00E0FF04C03196691F791F6BF050E8572760
:1029DC0011F45F93CDC05F3F31F0660F000C57953B
:1029EC006795752F08955F9300200AF0CDC0C6C07F
:1029FC0050E8192E1522880F991F9527550F87958A
:102A0C0050E8072E0522660F771F7527550F67951F
:102A1C000895689401C0E8945F93F2DF703818F061
:102A2C007F3F08F4A5C056E1571BAAF451955830C6
:102A3C000EF4593030F0EFEFFFEF6FEF7FE777F9DF
:102A4C001AC077275523B9F0EE0FFF1F661F771FAB
:102A5C005A95D1F710C07727583028F0EF2FF62F62
:102A6C00672F5850F9CF552331F076956795F79528
:102A7C00E7955A95D1F700200AF4C3DE5F910895CB
:102A8C00689401C0E894309760407040B1F0002425
:102A9C0026F0772312F40094B4DE172E7EE1112079
:102AAC0032F07A95EE0FFF1F661F111CF9CFEF2F36
:102ABC00F62F612D5F938ADF5F9108954F93AF01DD
:102ACC00FD01DA01AB01BC01CA01402D012C142E11
:102ADC004F910895EA0FFB1F681F0895E095F0953C
:102AEC006095EF5FFF4F6F4F08955F9381DF9038D4
:102AFC0071F150E8152604C05F937ADF903839F1F4
:102B0C00703821F1572F591B13F112F4D7DFFACF7C
:102B1C00583118F0AA27BB278827583028F0AB2F3C
:102B2C00B82F88275850F9CF552329F08695B7959B
:102B3C00A7955A95D9F7502D512562F0CBDF38F473
:102B4C006795F795E795739513F41EC0B7DF3EDFD5
:102B5C005F910895EA1BFB0B680B51F010F4009485
:102B6C00BDDF6623A2F3EE0FFF1F661F7A95CBF72E
:102B7C00EE27FF27662777275F910895EFEFFFEF8A
:102B8C006FE77FEF5F910895EFEFFFEF6FE77FE760
:102B9C005F9108955F932CDF703851F3903841F3B7
:102BAC0001240894791F23F41CF300203AF3ECCF92
:102BBC000F921F932F933F934F93112722279927FF
:102BCC00689FA0018F9F302D410D591F6B9F300DB9
:102BDC00411D591F8E9F27D0BF9F25D06A9F23D0A0
:102BEC00BE9F1DD0AF9F1BD0AE9F110D291F391F4B
:102BFC00491F591FE32FF42F652F522F4F913F91EF
:102C0C002F911F910F9066232AF0550FEE1FFF1F77
:102C1C00661F02C073954BF2CFDE5F910895100DC5
:102C2C00211D391F02C0200D311D491F591F089548
:102C3C005F93DEDE703821F411200AF49FCFA4CF0D
:102C4C00903809F495CF01240894970B1BF4D4F316
:102C5C000020F3CF792F1F932F933F934F93112481
:102C6C001127222733274427552790E2AE17BF0799
:102C7C008607410730F0AE1BBF0B860B410B089447
:102C8C0001C08894551F221F331F111CAA1FBB1F84
:102C9C00881F441F9A9551F7F901612D4F913F916F
:102CAC002F911F91662332F0550FEE1FFF1F661FE9
:102CBC007A9543F281DE5F91089599239AF07723F8
:102CCC0042F0971748F029F4AE17BF07860720F09B
:102CDC0031F09894889408959894089408951894D1
:102CEC00889408957723C2F7971798F3A9F7EA17F2
:102CFC00FB07680788F399F3ECCF3097604070407E
:102D0C000895109780409040089500240A160B06F1
:102D1C000806090608955A934A933A932A931A93EC
:102D2C000A9308955D814C813B812A811981088128
:102D3C000895AC0FBD1F05900D928A95E1F708958B
:00000001FF
