:100000000C94D8000C94F5000C94F5000C94F500B9
:100010000C94F5000C94F5000C94F5000C94F5008C
:100020000C94F5000C94F5000C94F5000C94F5007C
:100030000C94F5000C94F5000C94F5000C94F5006C
:100040000C94F5000C94F5000C94F5000C94F5005C
:100050000C94F50008000000BE922449123EABAAA1
:10006000AA2ABECDCCCC4C3E00000080BEABAAAAD2
:10007000AA3E00000000BF000000803F000000001A
:1000800000084178D3BB4387D1133D190E3CC3BD53
:100090004282AD2B3E68EC8276BED98FE1A93E4C00
:1000A00080EFFFBE01C4FF7F3F00000000006E61D3
:1000B0006E00696E660000407A10F35A00A0724E1E
:1000C00018090010A5D4E80000E87648170000E4FD
:1000D0000B54020000CA9A3B000000E1F505000045
:1000E00080969800000040420F000000A0860100AA
:1000F0000000102700000000E8030000000064007A
:10010000000000000A0000000000010000000000E4
:100110002C76D888DC674F0823DFC1DFAE59E1B108
:10012000B796E5E3E453C63AE651997696E8E6C217
:100130008426EB898C9B62ED407C6FFCEFBC9C9F1E
:1001400040F2BAA56FA5F490055A2AF75C936B6C40
:10015000F9676DC11BFCE0E40D47FEF520E6B50034
:10016000D0ED902E0300943577050080841E0800A2
:1001700000204E0A000000C80C333333330F986E52
:1001800012831141EF8D2114893BE65516CFFEE60F
:10019000DB18D1844B381BF77C1D901DA4BBE424D5
:1001A000203284725E228100C9F124ECA1E53D2752
:1001B00011241FBECFE5D8E0DEBFCDBF14E0A0E61E
:1001C000B0E0EEEFFEE202C005900D92AC32B10756
:1001D000D9F714E0ACE2B4E001C01D92A733B10737
:1001E000E1F70E9460040C947D170C94000026B384
:1001F00030E002C0359527958A95E2F72095822F49
:100200008170089520910A0130E002C0359527954C
:100210008A95E2F72095822F81700895EF92FF92E0
:100220000F931F93DF93CF9300D000D000D0CDB7B2
:10023000DEB7DE011196E5EAF1E086E001900D926D
:100240008150E1F760E00E94A50780E690E00E94FF
:10025000890700E010E07E010894E11CF11C86B3E0
:1002600080930A0180E061E00E94A507F801EE0F8B
:10027000FF1FEE0DFF1D808191810E948907B199BA
:100280000CC080910A0181FF08C0023011051CF0EA
:1002900000E010E002C00F5F1F4FB2990CC08091C8
:1002A0000A0182FF08C00115110519F402E010E0EF
:1002B00002C001501040B09909C080910A0180FF2E
:1002C00005C010932D0400932C0409C0B399C7CF27
:1002D00080910A0183FFC3CF86B380930A012696DB
:1002E0000FB6F894DEBF0FBECDBFCF91DF911F9147
:1002F0000F91FF90EF9008955F926F927F928F928F
:100300009F92AF92BF92CF92DF92EF92FF920F93A4
:100310001F93DF93CF93CDB7DEB72F970FB6F89427
:10032000DEBF0FBECDBF19821A821B82DE01189676
:10033000E7EBF1E088E001900D928150E1F781E078
:100340008C8384E08D8387E08E838BE08F838E01A6
:100350000F5F1F4FC801BE016E5F7F4FAE014D5F43
:100360005F4F0E94470DFF2464E0A62EB12CAC0E17
:10037000BD1E480158ECC52ED12C4CE0642E3FE147
:10038000532E23E6722E86B380930A0181E060E04B
:100390000E94A50789816AE00E947715805D0E940E
:1003A000110789816AE00E947715892F805D0E947C
:1003B00011078FE20E9411078A816AE00E94771577
:1003C000805D0E9411078A816AE00E947715892F5B
:1003D000805D0E9411078FE20E9411078B816AE005
:1003E0000E947715805D0E9411078B816AE00E9450
:1003F0007715892F805D0E94110780E20E94110706
:1004000081E790E00E9489070F2D10E0F501E00FD1
:10041000F11FE0808E2D61E00E94A507000F111FE3
:10042000080D191DF801878190850E948907B199EF
:100430002AC080ED97E0F6013197F1F70197D9F7DF
:10044000F1E0FF1689F0FF1638F082E0F816A1F00F
:10045000E3E0FE16C1F441C089818F3118F48F5F4B
:10046000898311C019820FC08A818C3018F48F5F84
:100470008A8309C01A8207C08B81833618F48F5F84
:100480008B8301C01B82B29933C080910A0182FF25
:100490002FC0F1E0FF1689F0FF1638F082E0F81661
:1004A000A1F0E3E0FE1621F518C08981882319F038
:1004B000815089831DC059821BC08A81882319F00D
:1004C00081508A8315C06A8213C08B81882319F0FA
:1004D00081508B830DC07B820BC0CE010196BE0183
:1004E0006E5F7F4FAE014D5F5F4F0E94F40C19C0ED
:1004F000B09912C080910A0180FF0EC08E2D61E07C
:100500000E94A50786E790E00E948907F2E0FF15A8
:1005100010F4FF2401C0F394B39935CF86B38093D0
:100520000A012F960FB6F894DEBF0FBECDBFCF9154
:10053000DF911F910F91FF90EF90DF90CF90BF90D0
:10054000AF909F908F907F906F905F9008956F9283
:100550007F928F929F92AF92BF92CF92DF92EF9253
:10056000FF920F931F93DF93CF93CDB7DEB76097C2
:100570000FB6F894DEBF0FBECDBF19821A821B8260
:100580001C82DE011996E8ECF1E088E001900D9202
:100590008150E1F781E08D8384E08E8387E08F8353
:1005A0008BE088878E010F5F1F4FC801BE016E5F11
:1005B0007F4FAE014D5F5F4F9E012C5F3F4F0E940A
:1005C000A10DFF24B5E08B2E912C8C0E9D1E5801A1
:1005D000A8ECCA2ED12CFBE37F2EE7E16E2E86B36A
:1005E00080930A0181E060E00E94A50789816AE0AA
:1005F0000E947715805D0E94110789816AE00E9440
:100600007715892F805D0E9411078AE30E941107E8
:100610008A816AE00E947715805D0E9411078A81B5
:100620006AE00E947715892F805D0E9411078AE396
:100630000E9411078B816AE00E947715805D0E94FD
:1006400011078B816AE00E947715892F805D0E94D7
:10065000110780E20E94110781E790E00E9489075C
:100660000F2D10E0F401E00FF11FE0808E2D61E00E
:100670000E94A507000F111F0A0D1B1DF8018085A0
:1006800091850E948907B1992AC080ED97E0F60113
:100690003197F1F70197D9F7FF2041F4898187312C
:1006A00018F48F5F89831BC0198219C0F1E0FF160F
:1006B00041F48A818B3318F48F5F8A8310C01A82C9
:1006C0000EC082E0F81641F48B818B3318F48F5FF3
:1006D0008B8305C01B8203C0E3E0FE1649F1B2998B
:1006E0002EC080910A0182FF2AC0FF2041F4898137
:1006F000882319F08150898322C0698220C0F1E0EB
:10070000FF1641F48A81882319F081508A8317C02B
:100710007A8215C082E0F81641F48B81882319F0A3
:1007200081508B830CC07B820AC0E3E0FE1639F453
:1007300089816A814B812C810E941E0D19C0B0995C
:1007400012C080910A0180FF0EC08E2D61E00E94D0
:10075000A50786E790E00E948907F2E0FF1510F4F4
:10076000FF2401C0F394B3993ACF86B380930A0172
:1007700060960FB6F894DEBF0FBECDBFCF91DF916C
:100780001F910F91FF90EF90DF90CF90BF90AF90AF
:100790009F908F907F906F900895EF92FF920F93AC
:1007A0001F93DF93CF93CDB7DEB728970FB6F8949A
:1007B000DEBF0FBECDBFDE011196E2E7F1E088E0BB
:1007C00001900D928150E1F760E00E94A50789E752
:1007D00090E00E94890700E010E07E010894E11C8F
:1007E000F11C86B380930A0180E061E00E94A507B6
:1007F000F801EE0FFF1FEE0DFF1D808191810E9419
:100800008907B1990CC080910A0181FF08C00330AB
:1008100011051CF000E010E002C00F5F1F4FB299FD
:100820000CC080910A0182FF08C00115110519F45E
:1008300003E010E002C001501040B09929C080913F
:100840000A0180FF25C00E9481070130110589F04F
:100850000230110524F40115110541F00FC00230DA
:10086000110551F00330110549F41DC00E94A70283
:1008700005C00E947C0102C00E940E010E948107F7
:1008800080E060E00E94A50789E790E00E94890768
:10089000B399A7CF80910A0183FFA3CF86B380933A
:1008A0000A010E94810728960FB6F894DEBF0FBE9A
:1008B000CDBFCF91DF911F910F91FF90EF900895E1
:1008C0002F923F924F925F926F927F928F929F9260
:1008D000AF92BF92CF92DF92EF92FF920F931F934E
:1008E000DF93CF93CDB7DEB7C454D0400FB6F894A2
:1008F000DEBF0FBECDBF80E090E0A0E0B0E08A8B0D
:100900009B8BAC8BBD8B81E08A83DE015696E0E247
:10091000F1E08EE001900D928150E1F70E9498087D
:100920000E940E0989EC6DE740E00E946C0B80E0AC
:1009300061E040E00E94150E0E944F070E941308DC
:1009400083E060E00E94A5078AE890E00E948907A2
:1009500083E061E00E94A50785E990E00E94890795
:1009600080E197E228EC30E0F9013197F1F7019747
:10097000D9F70E94810782E060E00E94A5078FE915
:1009800090E00E94890781E061E00E94A5078CEA5F
:1009900090E00E94890780E197E228EC30E0F901BD
:1009A0003197F1F70197D9F70E94810781E060E064
:1009B0000E94A5078BEB90E00E94890781E061E02F
:1009C0000E94A50786EC90E00E94890780E197E2EB
:1009D00028EC30E0F9013197F1F70197D9F70E943F
:1009E000810780E061E00E94A5078E010E5F1F4F26
:1009F000C8010E944809C8018E010F5F1F4FB8014E
:100A00000E942A09CC24FAE3DF2EEAE04E2E512C74
:100A10004C0E5D1E48017EE0672E712C6C0E7D1E13
:100A200064E2E62EF12CEC0EFD1E54EDA52E50E0F6
:100A3000B52E49EF242E40E0342ECE0142960E947E
:100A4000BA0BC201B40141E00E945B09182FC30137
:100A5000B40140E00E945B09180F19F00E940E09D2
:100A600010C16A857B8580E090E00E94E0136A8770
:100A70007B878C879D876E857F8580E090E00E94D4
:100A8000E0136E877F87888B998BC201B3010E9428
:100A90009D096A857B858C859D852E853F85488946
:100AA00059890E94610A80912C0490912D04813013
:100AB0009105D9F18230910509F47CC0892B09F0A8
:100AC000B6C02DB73EB7285030400FB6F8943EBFA1
:100AD0000FBE2DBFEDB7FEB73196ADB7BEB71296BC
:100AE000FC92EE921197B382A2828A899B89AC898B
:100AF000BD8984839583A683B7830E94FB162DB797
:100B00003EB7285F3F4F0FB6F8943EBF0FBE2DBFD4
:100B100080E060E00E94A507C7010E9489078FED71
:100B20000E9411078BED90E080C06A897B898C89D7
:100B30009D8926E636E646EE5FE30E94E11420E05A
:100B400030E040E052E40E94E4129B01AC012A8BA9
:100B50003B8B4C8B5D8BADB7BEB718970FB6F89437
:100B6000BEBF0FBEADBFEDB7FEB731961296FC9279
:100B7000EE921197B382A282CB01DA01848395832E
:100B8000A683B7830E94FB162DB73EB7285F3F4F61
:100B90000FB6F8943EBF0FBE2DBF80E060E00E940C
:100BA000A507C7010E9489078FED0E9411078EEDEE
:100BB00090E03BC06A897B898C899D8923E333E17E
:100BC00049E853E40E94E4129B01AC012A8B3B8B61
:100BD0004C8B5D8BADB7BEB718970FB6F894BEBF00
:100BE0000FBEADBFEDB7FEB731961296FC92EE92F6
:100BF0001197B382A282CB01DA0184839583A68305
:100C0000B7830E94FB162DB73EB7285F3F4F0FB644
:100C1000F8943EBF0FBE2DBF80E060E00E94A507A4
:100C2000C7010E94890781EE90E00E9489078DB775
:100C30009EB708970FB6F8949EBF0FBE8DBFEDB755
:100C4000FEB73196ADB7BEB71296FC92EE921197F1
:100C500024EE30E0338322838A859B85AC85BD8575
:100C600084839583A683B7830E94FB168DB79EB7B6
:100C700008960FB6F8949EBF0FBE8DBFC7010E94A5
:100C80008907CE010396BE016C5F7F4FAE014B5FBB
:100C90005F4F9E012A5F3F4F0E94A10DCE01079634
:100CA000BE01685F7F4FAE01475F5F4F0E94470DF7
:100CB000EE81F0E03197EE0FFF1FE80DF91D8589F9
:100CC00096890E94890780E20E9411071D81C11642
:100CD00041F09AE3D91619F02AE3D22E02C090E22D
:100CE000D92E2B813C81ADB7BEB71E970FB6F894B5
:100CF000BEBF0FBEADBFEDB7FEB731961296FC92E8
:100D0000EE9211978DEE90E093838283822F6AE0BA
:100D10000E94771584831582822F0E94771596830F
:100D20001782D0861186832F0E94771582871386BB
:100D3000832F0E947715948715860E94FB16ADB706
:100D4000BEB71E960FB6F894BEBF0FBEADBF80E013
:100D500061E00E94A507C7010E9489072F8138859D
:100D600049858DB79EB740970FB6F8949EBF0FBECA
:100D70008DBFEDB7FEB73196ADB7BEB71296FC92F8
:100D8000EE92119733822282822F6AE00E947715B9
:100D900084831582822F0E94771596831782832F72
:100DA0000E94771580871186832F0E94771592877E
:100DB0001386842F0E94771584871586842F0E94BE
:100DC0007715968717860E94FB162DB73EB7205FD2
:100DD0003F4F0FB6F8943EBF0FBE2DBFC7010E9414
:100DE0008907B09908C080910A0180FF04C00E9461
:100DF00081070E94CD0388EB9BE0E8ECF0E031979F
:100E0000F1F70197D1F7C12E18CEAC0120E001C057
:100E10002F5FFA01E20FF11D80818823C9F7822F2D
:100E20000895282F207F2BBBD89ADA9A20ED37E03F
:100E3000F9013197F1F7DA98D898F9013197F1F77C
:100E400090E044E0880F991F4A95E1F78BBBD89A50
:100E5000DA9AC9010197F1F7DA98D898C901019790
:100E6000F1F70895282F207F2BBBDA9A20ED37E089
:100E7000F9013197F1F7DA98F9013197F1F790E03C
:100E800054E0880F991F5A95E1F78BBBDA9AC90194
:100E90000197F1F7DA98C9010197F1F7089580E316
:100EA00095E70197F1F71BBA1BBA8AB3806F8ABB2B
:100EB0008AB387608ABB80E38BBBDA9A20ED37E088
:100EC000F9013197F1F7DA98F9013197F1F78BBB16
:100ED000DA9AC9010197F1F7DA98C9010197F1F798
:100EE00080E28BBBDA9AC9010197F1F7DA98C90160
:100EF0000197F1F788E20E9432078EE00E943207E4
:100F0000089581E00E943207089582E00E9432072E
:100F100008951F93CF93DF93EC01009791F010E0B9
:100F20000AC0803C28F0E82FF0E0E05FFC4F8081B1
:100F30000E9411071F5FFE01E10FF11D80818823D0
:100F400081F7DF91CF911F910895623031F06330C6
:100F500031F0613029F4805C03C08C5E01C08C5A92
:100F600080680E94320708951F93CF93DF93EC01AE
:100F7000862F642F0E94A50710E003C00E9411076E
:100F80001F5FFE01E10FF11D84918823B9F7DF9106
:100F9000CF911F910895EF92FF920F931F93CF93DC
:100FA000DF937C01162F110F110F110F1064C0E099
:100FB000D0E0F701EC0FFD1F0491812F8C0F0E94F0
:100FC0003207802F0E9411072196C830D10589F77A
:100FD000DF91CF911F910F91FF90EF9008950F93A4
:100FE0001F93082F10E004C08EE10E9432071F5F9C
:100FF0001017D0F31F910F9108950F931F93082F8F
:1010000010E004C088E10E9432071F5F1017D0F380
:101010001F910F9108958EE00E94320708958FE08E
:101020000E94320708958CE00E943207089588E0FC
:101030000E94320708958CE00E94320708950F93B2
:101040001F93082F10E004C080E10E9432071F5F49
:101050001017D0F31F910F9108950F931F93082F2E
:1010600010E004C084E10E9432071F5F1017D0F324
:101070001F910F910895EF92FF920F931F93DF93AB
:10108000CF9300D000D00F92CDB7DEB79C018B017B
:10109000FE01319685E0DF011D928A95E9F7FE0198
:1010A00035960DC0C9016AE070E00E948315808307
:1010B000C9016AE070E00E9483159B0131972115F8
:1010C000310581F7BFEF0F3F1B0779F420E030E0D7
:1010D000AE014F5F5F4F02C02F5F3F4FFA01E20F3B
:1010E000F31F80818823C1F304C025E030E0201B7A
:1010F000310B7E010894E11CF11CE20EF31E890104
:1011000008C0F70181917F01805D0E9411070F5F88
:101110001F4F05301105ACF30F900F900F900F90FB
:101120000F90CF91DF911F910F91FF90EF90089555
:1011300015BA84E084BB0895582FA39A90E820E064
:1011400030E072E06DE0892F852311F0AB9A01C089
:10115000AB9842E0872F8A95F1F7AA9A862F8A9555
:10116000F1F7AA9896952F5F3F4F2830310559F730
:10117000A398842F8A95F1F7AA9A842F8A95F1F77C
:1011800083B3AA98942F9A95F1F788700895682FE1
:10119000A39840E880E020E030E052E0AA9A952F42
:1011A0009A95F1F79B99842BAA98952F9A95F1F728
:1011B00046952F5F3F4F2830310581F7662329F090
:1011C000A39AAB9892E09A95F1F7AA9A9DE09A9526
:1011D000F1F7AA9892E09A95F1F7A3980895A39A47
:1011E000AB9AAA9882E0982F9A95F1F7AA9A982F2D
:1011F0009A95F1F7AB98982F9A95F1F7AA989DE0F8
:101200009A95F1F7AA9A982F9A95F1F7AB9A982F99
:101210009A95F1F7AA988A95F1F70895A39AAB9A4F
:10122000AA9882E08A95F1F790E022E0AA9A822FAC
:101230008A95F1F7AA98822F8A95F1F79F5F9930E6
:10124000A9F70E94EF0808950E940E098EE10E94FE
:101250009C080895DF92EF92FF920F931F938C01E9
:101260007B010E94EF0887E00E949C08D82E81E055
:101270000E94C708F801808380E00E94C708F70138
:1012800080838D2D1F910F91FF90EF90DF90089537
:10129000FF920F931F938C010E94EF0886E00E943B
:1012A0009C08F82EF80180810E949C088F0D1F91E8
:1012B0000F91FF900895CF92DF92EF92FF921F93CC
:1012C000CF93DF937C016B01142F0E94EF08112351
:1012D00029F0113029F0C0E0D0E007C083E001C060
:1012E00085E00E949C08C82FD0E0A39880E090E0A1
:1012F00032E0232F2A95F1F79B9B05C001962FEF33
:101300008F3F9207B1F79B99219681E00E94C70811
:10131000F701818381E00E94C708F701808380E0A4
:101320000E94C708F60180838C2FDF91CF911F9117
:10133000FF90EF90DF90CF9008952F923F924F92C1
:101340005F926F927F928F929F92AF92BF92CF9255
:10135000DF92EF92FF920F931F93DF93CF9300D012
:1013600000D0CDB7DEB79A8389837C836B83FC0181
:10137000A080B180C280D380FB01608171818281B5
:1013800093812AE037ED43E25DE30E94E11423E319
:1013900033E34FE152E40E94E3121B012C0120E0F1
:1013A00030E048EC51E40E94E3127B018C01C6015D
:1013B000B5012CEA35EC47EA5AE30E94E1142AE031
:1013C00037ED43E25CE30E94E4129B01AC01C801EB
:1013D000B7010E94E1143B014C01C601B5012BE3AA
:1013E00035E246ED59EB0E94E114A60195010E94F9
:1013F000E1147B018C01C601B5012DEB32E546E11C
:101400005FE30E94E1149B01AC01C801B7010E9497
:10141000E41225EC3EEF42E050E40E94E3129B010F
:10142000AC01C401B3010E94E4127B018C0120E0F5
:1014300030E048EC52E40E94921418165CF40F2E2F
:10144000F0E0EF2EF0E0FF2EF8EC0F2FF2E41F2F6C
:10145000F02D14C0C801B7012DEC3CEC4CEC5DE361
:101460000E944813882354F40F2EFDECEF2EFCEC61
:10147000FF2EFCEC0F2FFDE31F2FF02DEB81FC81E5
:101480002082318242825382E981FA81E082F182B4
:10149000028313830F900F900F900F90CF91DF91E5
:1014A0001F910F91FF90EF90DF90CF90BF90AF9082
:1014B0009F908F907F906F905F904F903F902F9074
:1014C00008956F927F928F929F92AF92BF92CF9228
:1014D000DF92EF92FF920F931F9359016A010E94CE
:1014E00096143B014C01C601B50120E030E040EF0D
:1014F00050E40E94E1147B018C01C601B5012DEC82
:101500003CE44DE653E40E94E4129B01AC01C801A7
:10151000B7010E944C1329E338E249E25FE30E94DD
:10152000E4127B018C01C401B30120E030E040E013
:1015300050E40E94E3129B01AC01C801B7010E9474
:10154000E4125B016C0129E338E249E25FE30E94A7
:10155000E3122DEC3CE44DE653E40E94E1147B01E0
:101560008C0164E872E982E091E4A60195010E9491
:10157000E3129B01AC01C801B7010E944C131F91FB
:101580000F91FF90EF90DF90CF90BF90AF909F9022
:101590008F907F906F90089502C000000197009790
:1015A000E1F70895AC98A49A80EE91E001C00000A4
:1015B00001972FEF8F3F9207D1F7A4988CE390E02B
:1015C00001C0000001973FEF8F3F9307D1F723B38E
:1015D00084EA91E001C0000001973FEF8F3F93073D
:1015E000D1F783B340E090E080719070207130E0DB
:1015F0008217930709F441E0842F0895AC98A49AC8
:1016000000008111A4988CE390E001C000000197D4
:101610002FEF8F3F9207D1F7A4980895AC98A49A22
:101620000000A4988EE090E001C0000001972FEF29
:101630008F3F9207D1F783B32DE230E001C0000065
:10164000215030409FEF2F3F3907C9F790E024E049
:10165000969587952A95E1F7817008950F931F93CA
:1016600008E010E009C00E940E0B912F9695182FEC
:10167000179511271795192B0150A8F7812F1F9146
:101680000F9108950F931F93082F18E005C0802F26
:1016900081700E94FE0A06951150C8F71F910F91A4
:1016A0000895FC0190E040E058E112C0308120E054
:1016B000832F892780FF04C095279695906801C0E5
:1016C00096952F5F283011F03695F2CF4F5F319607
:1016D000461760F3892F0895FF920F931F93F82EFA
:1016E000062F142F0E94D20A882311F081E025C012
:1016F0008CEC0E94420B8EE40E94420B802F0E94D1
:10170000420B8F2D0E94420B1295110F107E812FDC
:101710008F610E94420B0E94D20A8CEC0E94420B05
:1017200088E40E94420B87E99AE301C00000019718
:101730002FEF8F3F9207D1F780E01F910F91FF901D
:101740000895CF93DF93CEE2D4E00E942E0B8993CD
:1017500084E0C733D807C9F7CE01099768E00E9433
:10176000510B20E090913604891321E0822FDF9104
:10177000CF9108958F929F92BF92CF92DF920F9355
:10178000DF93CF93CDB7DEB72C970FB6F894DEBFBB
:101790000FBECDBF4C01DE011196E4E2F4E088E01B
:1017A00001900D928150E1F70E94D20A882309F03E
:1017B00072C08CEC0E94420B84E40E94420B0E9497
:1017C0000E0B8823E1F30E94D20A8CEC0E94420B9C
:1017D0008EEB0E94420B0E94A10B882309F05BC094
:1017E0000E94D20AB090320480912E04C82EDD24CB
:1017F00090912F0480E0C82AD92AD7FC02C000E0CB
:1018000005C0D094C194D108D39401E0B60154E04E
:10181000769567955A95E1F770E0882777FD809572
:10182000982F0E94E21369877A878B879C87B294EE
:10183000B69447E0B422EB2DF0E0E370F070EE0FC9
:10184000FF1FEC0FFD1F61816C2170E0882777FD81
:101850008095982F0E94E21320E030E040E85DE39D
:101860000E94E1149B01AC0169857A858B859C857A
:101870000E94E412F40160837183828393830023C6
:1018800041F0DC01CB01B058F40180839183A28345
:10189000B38380E001C081E02C960FB6F894DEBFE0
:1018A0000FBECDBFCF91DF910F91DF90CF90BF9052
:1018B0009F908F90089511B880E280B90895982F75
:1018C00084EA86BF06B607FEFDCF81B1887F8830E7
:1018D00021F0803111F081E0089593B984E886BF4A
:1018E00006B607FEFDCF91B1987F983111F480E0E4
:1018F000089580E0903409F081E0089544EA34E8E6
:1019000024E946BF06B607FEFDCF91B1987F983017
:1019100011F09031B1F783B936BF06B607FEFDCF9F
:1019200091B1987F903211F0983529F426BF06B610
:1019300004FCFDCFE6CF08950E945F0C089584E972
:1019400086BF089583B984E886BF06B607FEFDCF3B
:1019500081B190E0887F883209F091E0892F089565
:1019600084EC86BF06B607FEFDCF83B1089584E8F8
:1019700086BF06B607FEFDCF83B10895813059F4C6
:1019800084EC86BF06B607FEFDCF81B1887F803527
:1019900039F080E0089584E886BF06B607FEFDCFE3
:1019A00083B10895282F22952F7030E0A90163E0BC
:1019B000440F551F6A95E1F7220F331F420F531F43
:1019C0008F70840F0895482F6AE00E947715282FA2
:1019D00030E074E0220F331F7A95E1F7842F0E94E4
:1019E0007715892F822B0895CF92DF92EF92FF9285
:1019F0000F931F938C017B016A0180ED0E945F0CA5
:101A000084E00E94A20CF80180810E94E30C0E94F5
:101A1000A20CF70180810E94E30C0E94A20CF60147
:101A200080810E94E30C0E94A20C0E949F0C1F91D7
:101A30000F91FF90EF90DF90CF900895EF92FF927B
:101A40000F931F93F82E062F142FE22E80ED0E9485
:101A50005F0C80E00E94A20C812F0E94E30C0E9488
:101A6000A20C802F0E94E30C0E94A20C8F2D0E94DA
:101A7000E30C0E94A20C8E2D0E94E30C0E94A20C8B
:101A80000E949F0C1F910F91FF90EF900895CF92AD
:101A9000DF92EF92FF920F931F938C017B016A01FB
:101AA00080ED0E945F0C84E00E94A20C81ED0E94F8
:101AB0005F0C81E00E94BE0C282F22952F7030E031
:101AC000A90163E0440F551F6A95E1F7220F331F08
:101AD000420F531F8F70840FF801808381E00E94B2
:101AE000BE0C282F22952F7030E0A901B3E0440FDF
:101AF000551FBA95E1F7220F331F420F531F8F7006
:101B0000840FF701808380E00E94BE0C282F22956D
:101B10002F7030E0A901F3E0440F551FFA95E1F76B
:101B2000220F331F420F531F8F70840FF6018083E3
:101B30000E949F0C1F910F91FF90EF90DF90CF902C
:101B40000895AF92BF92CF92DF92EF92FF920F93E0
:101B50001F936C017B018A01590180ED0E945F0C8B
:101B600080E00E94A20C81ED0E945F0C81E00E9447
:101B7000BE0C282F22952F7030E0A90163E0440F9E
:101B8000551F6A95E1F7220F331F420F531F8F70C5
:101B9000840FF801808381E00E94BE0C282F2295DB
:101BA0002F7030E0A90113E0440F551F1A95E1F79B
:101BB000220F331F420F531F8F70840FF701808352
:101BC00081E00E94BE0C282F22952F7030E0A901E1
:101BD000A3E0440F551FAA95E1F7220F331F420FD0
:101BE000531F8F70840FF601808380E00E94BE0C2B
:101BF000282F22952F7030E0A901E3E0440F551FF4
:101C0000EA95E1F7220F331F420F531F8F70840FA5
:101C1000F50180830E949F0C1F910F91FF90EF9020
:101C2000DF90CF90BF90AF9008951F93182F13703F
:101C3000611110614111106880ED0E945F0C87E016
:101C40000E94A20C812F0E94A20C80E00E94BE0C78
:101C50000E949F0C1F9108950F931F938C0180EA9F
:101C60000E945F0C812F0E94A20C802F0E94A20C68
:101C700081EA0E945F0C80E00E94BE0C182F0E9437
:101C80009F0C812F1F910F910895CF92DF92EF92B9
:101C9000FF920F931F93DF93CF9300D000D0CDB767
:101CA000DEB77B018E010F5F1F4F81E1C82ED12C63
:101CB000CC0EDD1EC7010E942C0E90E0A0E0B0E02B
:101CC000BC01CD010E94E013F801619371938193EF
:101CD00091938F010894E11CF11CEC15FD0551F75F
:101CE00029813A814B815C81B901CA010F900F9023
:101CF0000F900F90CF91DF911F910F91FF90EF9078
:101D0000DF90CF900895FF920F931F93182F092F04
:101D1000F62E80EA0E945F0C802F0E94A20C812F79
:101D20000E94A20C8F2D0E94A20C80E29EE40197DB
:101D3000F1F70E949F0C1F910F91FF900895CF9291
:101D4000DF92EF92FF920F931F93DF93CF9300D018
:101D500000D0CDB7DEB781E0898382E08A8383E05B
:101D60008B8384E08C8300E010E06E010894C11C3A
:101D7000D11C22E0E22EF601E00FF11FC8016081C4
:101D80000E94830E92E0F92E8E2D8A95F1F70F5F57
:101D90001F4F0430110579F780E090E00E942C0E6F
:101DA0008F2D8A95F1F781E090E00E942C0E8F2D07
:101DB0008A95F1F782E090E00E942C0E8F2D8A9593
:101DC000F1F783E090E00E942C0E9F2D9A95F1F799
:101DD0000F900F900F900F90CF91DF911F910F9167
:101DE000FF90EF90DF90CF900895CF92DF92EF9227
:101DF000FF920F931F93DF93CF9300D000D0CDB706
:101E0000DEB729833A834B835C837E010894E11C0F
:101E1000F11C8B0131E1C32ED12CCC0EDD1EF7015C
:101E200061917191819191917F010E94B4139B0105
:101E3000AC01C801622F0E94830E0F5F1F4FEC148C
:101E4000FD0469F70F900F900F900F90CF91DF91E5
:101E50001F910F91FF90EF90DF90CF90089580E455
:101E600087B987E886B9089597B18770892B87B9B4
:101E7000369A349BFECF349A24B135B1C901089506
:101E8000A0E0B0E0BC01CD010E94E01328E638EEEE
:101E90004FE95BE30E94E11420E030E040EB51E4C5
:101EA0000E94E1142DEC3CEC48E251E40E94E41263
:101EB0000E94B413CB010895A1E1B0E0E2E6FFE097
:101EC0000C9496153C017F876E876A01FC0117828E
:101ED0001682838181FD03C06FEF7FEF6FC39E0188
:101EE0002F5F3F4F398B288BF3012381EE85FF85D0
:101EF00023FD859123FF8191FF87EE87882309F4D5
:101F00005AC3853251F4EE85FF8523FD859123FF69
:101F10008191FF87EE87853229F490E0B3010E941A
:101F2000CF16E2CF982F10E0882499241032B0F415
:101F30009B3269F09C3228F4903251F0933271F464
:101F40000BC09D3239F0903349F4116028C0126003
:101F5000146025C0186023C0106121C017FD2AC07D
:101F6000892F80538A3078F416FF06C0FAE09F9ECE
:101F7000902C1124980E13C03AE0839E802C1124DB
:101F8000880E10620CC09E3221F416FD14C310643A
:101F900006C09C3611F4106802C0983659F4EE85DC
:101FA000FF8523FD959123FF9191FF87EE8799236C
:101FB00009F0BCCF892F8554833020F4812F8061B4
:101FC000905E07C0892F8556833008F09FC1812F0E
:101FD0008F7E86FD02C076E0972E6FE3F62EF82204
:101FE000953619F4F0E4FF2A07C0963619F420E874
:101FF000F22A02C091109A94F7FE0AC03BE3391509
:1020000018F45CE3B52E02C0B92CB39427E009C0E4
:1020100047E0491520F4BB2447E0942EF7CF292D43
:10202000BB24C60104969D878C87F601608171816F
:1020300082819381AE014F5F5F4F0B2D0E94E115AE
:102040006C010981202E332400FF04C003FD02C06F
:102050001DE209C0F1FE02C01BE205C0F2FC02C095
:1020600010E001C010E2C1018C709070892BB9F1B1
:10207000112311F483E001C084E0881510F0882456
:102080000AC0881AF3FC07C080E290E0B3010E9406
:10209000CF168A94C9F7112329F0812F90E0B3015C
:1020A0000E94CF1623FE03C00EEA10E00EC002EB22
:1020B00010E00BC0E114F10409F0805290E0B3018C
:1020C0000E94CF160F5F1F4F05C0EF2CFF24F0E1D9
:1020D000EF22FF24F8018491882361F714C1F7FEF1
:1020E00012C0BC0C24FE04C08A81813309F4BA9466
:1020F0001B141CF0BB24B3942DC0F8E0FB1550F565
:1021000038E0B32E27C0F6FC25C0892D90E08C1551
:102110009D054CF02CEFC2162FEFD20624F030E8CC
:10212000F32A01C09A94992049F0E2E0F0E0EC0F24
:10213000FD1FE90DF11D80818033A1F3F7FE0AC078
:10214000B92CB394892D90E0C816D90614F09924BF
:1021500001C09C18F7FC03C025E030E009C01C1446
:102160001D041CF021E030E003C096012F5F3F4FBB
:10217000112311F02F5F3F4F992029F0892D90E016
:102180000196280F391F882D90E02817390714F081
:10219000882401C0821A4F2C5524C2018970907086
:1021A000892B39F008C080E290E0B3010E94CF167D
:1021B0008A948820C1F7112329F0812F90E0B30180
:1021C0000E94CF1643FE07C008C080E390E0B30131
:1021D0000E94CF168A948820C1F7F7FE46C0860178
:1021E000D7FE02C000E010E076010894E11CF11C6B
:1021F000E01AF10A41E050E04C0F5D1FE40EF51EBD
:1022000026014B185108892D90E0AA24BB24A81A56
:10221000B90A5FEF0F3F150729F48EE290E0B30192
:102220000E94CF16C016D10634F0401651061CF499
:10223000F701808101C080E3015010400894E11C47
:10224000F11C0A151B052CF090E0B3010E94CF167B
:10225000E0CF0C151D0539F49A81963318F49533A7
:1022600011F424FE81E390E04BC08A81813309F0B0
:102270000F7E90E0B3010E94CF169920A1F08EE26C
:1022800090E0B3010E94CF1612E0E1E0F0E0EC0F25
:10229000FD1FE10FF11D1F5F808190E0B3010E94DF
:1022A000CF169A9491F744FC03C085E690E002C0F3
:1022B00085E490E0B3010E94CF16D7FC05C0C1149D
:1022C000D10441F404FF06C0D094C194D108D39442
:1022D0008DE201C08BE290E0B3010E94CF1680E353
:1022E00005C08F5F26EF3FEFC20ED31E3AE0C31644
:1022F000D104BCF790E0B3010E94CF16C601C0968E
:10230000B3010E94CF16CC84DD8452C1933631F0E4
:10231000933799F0933509F059C023C0F6018081B5
:1023200089835E010894A11CB11C22E030E0C20E3A
:10233000D31E21E0E22EF12C12C0F601A080B18064
:1023400016FD03C06FEF7FEF02C0692D70E022E041
:1023500030E0C20ED31EC5010E94C4167C011F7757
:1023600013C0F601A080B18016FD03C06FEF7FEFB0
:1023700002C0692D70E022E030E0C20ED31EC5011C
:102380000E94B9167C01106813FF07C01BC080E2D1
:1023900090E0B3010E94CF168A94882D90E0E81651
:1023A000F906A8F30FC0F50117FD859117FF81917C
:1023B0005F0190E0B3010E94CF1681108A940894C7
:1023C000E108F108E114F10471F7F2C0943611F05C
:1023D000993689F517FF08C0F601208131814281C5
:1023E000538184E090E00AC0F601808191819C01D4
:1023F000442737FD4095542F82E090E0C80ED91E47
:102400009FE6F92EF12257FF09C05095409530956F
:1024100021953F4F4F4F5F4F90E8F92ACA01B9010C
:10242000AE014F5F5F4F2AE030E00E941F17E82E99
:10243000E889EE1A41C0953721F41F7E2AE030E08A
:102440001CC0197F9F3661F0903720F4983509F051
:10245000B2C00FC0903739F0983709F0ACC004C053
:1024600028E030E00AC0106114FD146020E130E083
:1024700004C014FD166020E132E017FF08C0F60129
:10248000608171818281938144E050E008C0F6014F
:1024900080819181BC0180E090E042E050E0C40E78
:1024A000D51EAE014F5F5F4F0E941F17E82E58895F
:1024B000E51A8FE7F82EF122F6FE0BC08EEFF82218
:1024C000E91438F4F4FE07C0F2FC05C09FEEF922CF
:1024D00002C01E2D01C0192DF4FE0DC0FE01EE0D2F
:1024E000F11D8081803319F4E9EEFE2208C01F5FE0
:1024F000F2FE05C003C08F2D867809F01F5F0F2DF7
:10250000F3FC14C0F0FE0FC0181510F09E2C0BC089
:102510009E2C980C911A182D06C080E290E0B30111
:102520000E94CF161F5F1815C0F304C0181510F4D1
:10253000811A01C0882404FF0FC080E390E0B3013A
:102540000E94CF1602FF1DC001FD03C088E790E086
:102550000EC088E590E00BC0802F867891F001FFD7
:1025600002C08BE201C080E2F7FC8DE290E0B30193
:102570000E94CF1606C080E390E0B3010E94CF1600
:102580009A94E914C0F3EA94E1E0F0E0EC0FFD1F47
:10259000EE0DF11D808190E0B3010E94CF16EE2078
:1025A00091F706C080E290E0B3010E94CF168A94B2
:1025B0008820C1F799CCF30166817781CB016196C0
:1025C000E2E10C94B2155058BB27AA270ED070C177
:1025D00061D130F066D120F031F49F3F11F41EF448
:1025E00056C10EF4E095E7FB4CC1E92F72D180F3A0
:1025F000BA17620773078407950718F071F49EF500
:102600008AC10EF4E0950B2EBA2FA02D0B01B90153
:1026100090010C01CA01A0011124FF27591B99F058
:10262000593F50F4503E68F11A16F040A22F232F64
:10263000342F4427585FF3CF469537952795A795B4
:10264000F0405395C9F77EF41F16BA0B620B730B5B
:10265000840BBAF09150A1F0FF0FBB1F661F771FCC
:10266000881FC2F70EC0BA0F621F731F841F48F481
:10267000879577956795B795F7959E3F08F0B3CF07
:102680009395880F08F09927EE0F979587950895F1
:10269000D4D008F481E008950CD00AC102D140F0F2
:1026A000F9D030F021F45F3F19F0EBC0511134C183
:1026B000EEC00FD198F39923C9F35523B1F3951BBD
:1026C000550BBB27AA2762177307840738F09F5F53
:1026D0005F4F220F331F441FAA1FA9F333D00E2EC2
:1026E0003AF0E0E830D091505040E695001CCAF72F
:1026F00029D0FE2F27D0660F771F881FBB1F2617F4
:1027000037074807AB07B0E809F0BB0B802DBF01C6
:10271000FF2793585F4F2AF09E3F510568F0B1C0E4
:10272000FBC05F3FECF3983EDCF3869577956795A9
:10273000B795F7959F5FC9F7880F911D9695879577
:1027400097F90895E1E0660F771F881FBB1F621796
:1027500073078407BA0720F0621B730B840BBA0B54
:10276000EE1F88F7E0950895BCD088F09F5790F051
:10277000B92F9927B751A0F0D1F0660F771F881FA6
:10278000991F1AF0BA95C9F712C0B13081F0C3D0C1
:10279000B1E00895C0C0672F782F8827B85F39F05F
:1027A000B93FCCF3869577956795B395D9F73EF405
:1027B00090958095709561957F4F8F4F9F4F0895AD
:1027C000E89409C097FB3EF49095809570956195CB
:1027D0007F4F8F4F9F4F9923A9F0F92F96E9BB2781
:1027E0009395F695879577956795B795F111F8CFFD
:1027F000FAF4BB0F11F460FF1BC06F5F7F4F8F4F68
:102800009F4F16C0882311F096E911C0772321F05D
:102810009EE8872F762F05C0662371F096E8862FF5
:1028200070E060E02AF09A95660F771F881FDAF74C
:10283000880F9695879597F90895990F0008550F79
:10284000AA0BE0E8FEEF16161706E807F907C0F036
:1028500012161306E407F50798F0621B730B840B3E
:10286000950B39F40A2661F0232B242B252B21F418
:1028700008950A2609F4A140A6958FEF811D811DB8
:10288000089597F99F6780E870E060E008959FEFF2
:1028900080EC089500240A941616170618060906F7
:1028A000089500240A9412161306140605060895C6
:1028B000092E0394000C11F4882352F0BB0F40F44E
:1028C000BF2B11F460FF04C06F5F7F4F8F4F9F4F8E
:1028D000089557FD9058440F551F59F05F3F71F010
:1028E0004795880F97FB991F61F09F3F79F0879577
:1028F0000895121613061406551FF2CF4695F1DF00
:1029000008C0161617061806991FF1CF869571058F
:10291000610508940895E894BB2766277727CB01C3
:1029200097F908958ADF08F48FEF08950AD029ED0A
:102930003BE54EED5EE345C00EF0A6C0A8CF68941F
:10294000A0CFCFDFC8F39923D1F3C6F3DF93CF93A2
:102950001F930F93FF92C92FDD2788232AF0219719
:10296000660F771F881FDAF720E030E040E85FEB62
:102970009FE3883920F0803E30F021968F7724DE67
:10298000E4E5F0E003C020DEE1E8F0E08BD08B016D
:10299000BE01EC01FB2E6F5771097595771F880BEF
:1029A000990B10DF28E132E741E35FE316D0AF2D4A
:1029B0009801AE01FF900F911F91CF91DF9115DE2D
:1029C00077CF0BD075CF66DF28F06BDF18F095233B
:1029D00009F057CF5CCF11249FCF7BDFA0F3959FE9
:1029E000D1F3950F50E0551F629FF001729FBB27F6
:1029F000F00DB11D639FAA27F00DB11DAA1F649FA2
:102A00006627B00DA11D661F829F2227B00DA11D54
:102A1000621F739FB00DA11D621F839FA00D611DDA
:102A2000221F749F3327A00D611D231F849F600DFB
:102A3000211D822F762F6A2F11249F5750408AF034
:102A4000E1F088234AF0EE0FFF1FBB1F661F771FC0
:102A5000881F91505040A9F79E3F510570F011CF4B
:102A60005BCF5F3FECF3983EDCF3869577956795F7
:102A7000B795F795E7959F5FC1F7FE2B880F911DDE
:102A80009695879597F908959F3F31F0915020F4DE
:102A9000879577956795B795880F911D969587953A
:102AA00097F90895DF93CF931F930F93FF92EF92BF
:102AB000DF927B018C01689405C0DA2EEF018DDF77
:102AC000FE01E894A5912591359145915591AEF37C
:102AD000EF018BDDFE019701A801DA9479F7DF9011
:102AE000EF90FF900F911F91CF91DF910895991B67
:102AF00079E004C0991F961708F0961B881F7A95F5
:102B0000C9F78095089597FB092E07260AD077FD0F
:102B100004D043D006D000201AF4709561957F4F01
:102B20000895F6F7909581959F4F08952F923F92C3
:102B30004F925F926F927F928F929F92AF92BF92CD
:102B4000CF92DF92EF92FF920F931F93CF93DF9379
:102B5000CDB7DEB7CA1BDB0B0FB6F894DEBF0FBED6
:102B6000CDBF09942A88398848885F846E847D8423
:102B70008C849B84AA84B984C884DF80EE80FD8025
:102B80000C811B81AA81B981CE0FD11D0FB6F8949B
:102B9000DEBF0FBECDBFED010895AA1BBB1B51E1E7
:102BA00007C0AA1FBB1FA617B70710F0A61BB70BBD
:102BB000881F991F5A95A9F780959095BC01CD0162
:102BC0000895283008F027E03327DA01990F311DE6
:102BD00087FD916000966105710539F432602E5FC2
:102BE0003D9330E32A95E1F708959F3F30F0803818
:102BF0007105610509F03C5F3C5F3D93913008F041
:102C00008068911DDF93CF931F930F93FF92EF92F4
:102C1000192F987F9695E92F96959695E90FFF279E
:102C2000E05FFE4F99273327EE24FF24A701E70139
:102C300005900894079428F4360FE71EF81E491FE4
:102C4000511D660F771F881F991F0694A1F70590E5
:102C5000079428F4E70EF81E491F561FC11D770F71
:102C6000881F991F661F0694A1F70590079428F402
:102C7000F80E491F561FC71FD11D880F991F661FC9
:102C8000771F0694A1F70590079420F4490F561F6B
:102C9000C71FD81F990F661F771F881F0694A9F7B3
:102CA00084911095177041F0D695C7955795479523
:102CB000F794E7941A95C1F7E6EBF0E06894159065
:102CC000159135916591959105907FE27395E11885
:102CD000F10A430B560BC90BD009C0F7E10CF11EEA
:102CE000431F561FC91FD01D7EF4703311F48A95FF
:102CF000E6CFE894015030F0080F0AF400270217DD
:102D000008F4202F2395022F7A3328F079E37D935E
:102D10002A95E9F710C07D932A9589F60694979530
:102D20006795379517951794E118F10A430B560BE1
:102D3000C90BD00998F023957E9173957A3308F0EA
:102D400070E37C932013B8F77E9170617D9330F02F
:102D5000839571E37D9370E32A95E1F71124EF9059
:102D6000FF900F911F91CF91DF91992787FD90954B
:102D70000895FC010590615070400110D8F78095CE
:102D800090958E0F9F1F0895FC0161507040019037
:102D90000110D8F7809590958E0F9F1F08950F937F
:102DA0001F93CF93DF938C01EB018B8181FF1BC0BD
:102DB00082FF0DC02E813F818C819D8128173907AC
:102DC00064F4E881F9810193F983E88306C0E8851A
:102DD000F985802F0995892B31F48E819F81019689
:102DE0009F838E8302C00FEF1FEFC801DF91CF9149
:102DF0001F910F910895AEE0B0E0E1E0F7E10C948F
:102E0000A4150D891E8986E08C831A8309838FEFB0
:102E10009FE79E838D839E01275E3F4FCE010196E3
:102E20006F89788DA9010E945C0F2F813885020F70
:102E3000131FF80110822E96E4E00C94C015FA01DD
:102E4000AA27283051F1203181F1E8946F936E7FE9
:102E50006E5F7F4F8F4F9F4FAF4FB1E03ED0B4E0DA
:102E60003CD0670F781F891F9A1FA11D680F791F1B
:102E70008A1F911DA11D6A0F711D811D911DA11D2C
:102E800020D009F468943F912AE0269F112430193C
:102E9000305D3193DEF6CF010895462F4770405DD7
:102EA0004193B3E00FD0C9F7F6CF462F4F70405D86
:102EB0004A3318F0495D31FD4052419302D0A9F7E1
:102EC000EACFB4E0A6959795879577956795BA95DB
:102ED000C9F700976105710508959B01AC010A2EA1
:102EE00006945795479537952795BA95C9F7620F78
:0E2EF000731F841F951FA01D0895F894FFCF37
:102EFE00D8CAC0CBC020C2C8CC2E20D2C5CCCF2EB3
:102F0E00003C4F4B3E002020002A20C3CECBCEC229
:102F1E00CDC520CCC5CDDE202A00D2E5F0ECEEECFE
:102F2E00E5F2F02D00E369E3F0EEECE5F2F000E7F8
:102F3E0020E3EEE4E8EDEDE8EAEEEC00EDE020CC87
:102F4E00CA2041546D656761333200D0EEE7F0EE72
:102F5E00E1E8E23A2000CEEBE5EAF169E920D4E5BA
:102F6E00E4E8EA00252B332E31660043200046208C
:102F7E00004B200025332E31662525200025752592
:102F8E00752563257525752000257525752E2575E6
:102F9E0025752E32302575257500FFCDE400CFED59
:102FAE0000C2F200D1F000D7F200CFF200D1E10062
:102FBE000B010E011101140117011A011D0120C28E
:102FCE00F1F2E0EDEEE2E8F2E820F7E0F12000C2E7
:102FDE00F1F2E0EDEEE2E8F2E820E4E0F2F32000B8
:102FEE00CEE4E8EDE8F66920F2E5ECEF2DF0E8200E
:102FFE00002020202020C2E8E9F2E8202020202016
:10300E0020002E013F015001610120202020D6E535
:10301E00EBFCF169FF202000202020D4E0F0E5ED4C
:10302E00E3E5E9F2E00020202020CAE5EBFCE269AE
:10303E00EDE02020007A0188019601E4E400ECEC3A
:10304E0000F0F0005E5E00AB01AE01B101B401E331
:10305E00E300F5F500F1F100BF01C201C501B401B5
:10306E00C800C900CA00CB00CC00CD00CE00CF00F6
:10307E00D000D100D200D300D400D500D600D700A6
:10308E00D800D900DA00DB00DC00DD00DE00DF0056
:10309E00E700E800E900EA00EB00EC00ED00EE00CE
:1030AE00EF00F000F100F200F300F400F500F6007E
:1030BE00A200F700F800F900FA00FB00FC00FD008A
:1030CE00FE00FF00E700E800E900EA00EB00EC007C
:1030DE00B500EE00EF00F000F100F200FD00FF0081
:1030EE004100A0004200A100E0004500A300A400A2
:1030FE00A500A6004B00A7004D0048004F00A800F9
:10310E00500043005400A900AA005800E100AB0093
:10311E00AC00E200AD00AE006200AF00B000B10046
:10312E006100B200B300B400E3006500B600B70062
:10313E00B800B900BA00BB00BC00BD006F00BE00F5
:10314E0070006300BF007900E4007800E500C00065
:10315E00C100E600C200C300C400C500C600C7001F
:10316E000000000000000000000000000000000051
:10317E000000000000000000000000000000000041
:10318E000000000000000000000000000000000031
:10319E000000000000000000000000000000000021
:1031AE000000000000000000000000000000000011
:1031BE000000000000000000000000000000000001
:1031CE0000000000000000000000000000000000F1
:1031DE0000000000000000000000000000000000E1
:1031EE0000000000000000000000000000000000D1
:1031FE0000000000000000000000000000000000C1
:10320E0000000000000000000000000000000000B0
:10321E0000000000000000000000000000000000A0
:10322E000000000000000000000000000000000090
:10323E000000000000000000000000000000000080
:10324E000000000000000000000000000000000070
:10325E000000000000000000000000000000000060
:10326E0041A042A1E045A3A4A5A64BA74D484FA857
:10327E00504354A9AA58E1ABACE2ADAE62AFB0B1C7
:10328E0061B2B3B4E365B6B7B8B9BABBBCBD6FBE75
:10329E007063BF79E478E5C0C1E6C2C3C4C5C6C7D2
:1032AE00C5FE02C0BD52163F3B25D6B90AD7233CF8
:0C32BE00ACC5A73A08000C000E000F0081
:00000001FF
