:020000040800F2
:100000000050002011350008293300083133000862
:10001000393300084133000849330008000000006C
:100020000000000000000000000000005133000844
:100030005D330008000000006933000875330008D4
:100040005935000859350008593500085935000858
:100050005935000859350008593500085935000848
:100060005935000859350008593500085935000838
:100070005935000859350008593500085935000828
:100080005935000859350008593500085935000818
:100090005935000859350008593500085935000808
:1000A00059350008593500085935000859350008F8
:1000B00059350008593500085935000859350008E8
:1000C00059350008593500085935000859350008D8
:1000D00059350008593500085935000859350008C8
:1000E000593500085935000859350008000000004E
:1000F0000000000000000000000000000000000000
:0C01000000000000000000005FF808F1A3
:1001100010B5054C237833B9044B13B10448AFF341
:1001200000800123237010BD380200200000000071
:10013000148F000808B5034B1BB103490348AFF304
:10014000008008BD000000003C020020148F000861
:10015000034613F8012B002AFBD1181A0138704707
:1001600081F0004102E000BF83F0004330B54FEA68
:1001700041044FEA430594EA050F08BF90EA020FD5
:100180001FBF54EA000C55EA020C7FEA645C7FEA68
:10019000655C00F0E2804FEA5454D4EB5555B8BF8B
:1001A0006D420CDD2C4480EA020281EA030382EAFC
:1001B000000083EA010180EA020281EA0303362D8E
:1001C00088BF30BD11F0004F4FEA01314FF4801C61
:1001D0004CEA113102D0404261EB410113F0004F73
:1001E0004FEA03334CEA133302D0524263EB43032A
:1001F00094EA050F00F0A780A4F10104D5F1200EC8
:100200000DDB02FA0EFC22FA05F2801841F1000122
:1002100003FA0EF2801843FA05F359410EE0A5F1F6
:1002200020050EF1200E012A03FA0EFC28BF4CF027
:10023000020C43FA05F3C01851EBE37101F00045DD
:1002400007D54FF0000EDCF1000C7EEB00006EEBEA
:100250000101B1F5801F1BD3B1F5001F0CD3490874
:100260005FEA30004FEA3C0C04F101044FEA4452CB
:1002700012F5800F80F09A80BCF1004F08BF5FEA52
:10028000500C50F1000041EB045141EA050130BD32
:100290005FEA4C0C404141EB0101013C28BFB1F544
:1002A000801FE9D291F0000F04BF01460020B1FA8F
:1002B00081F308BF2033A3F10B03B3F120020CDA62
:1002C0000C3208DD02F1140CC2F10C0201FA0CF040
:1002D00021FA02F10CE002F11402D8BFC2F1200CA5
:1002E00001FA02F120FA0CFCDCBF41EA0C0190405B
:1002F000E41AA2BF01EB0451294330BD6FEA0404A4
:100300001F3C1CDA0C340EDC04F11404C4F120028E
:1003100020FA04F001FA02F340EA030021FA04F3A0
:1003200045EA030130BDC4F10C04C4F1200220FAF7
:1003300002F001FA04F340EA0300294630BD21FA35
:1003400004F0294630BD94F0000F83F4801306BFFB
:1003500081F480110134013D4EE77FEA645C18BFEF
:100360007FEA655C29D094EA050F08BF90EA020F86
:1003700005D054EA000C04BF1946104630BD91EA7E
:10038000030F1EBF0021002030BD5FEA545C05D181
:100390004000494128BF41F0004130BD14F58004C0
:1003A0003CBF01F5801130BD01F0004545F0FE4134
:1003B00041F470014FF0000030BD7FEA645C1ABF69
:1003C000194610467FEA655C1CBF0B46024650EAA0
:1003D000013406BF52EA033591EA030F41F40021CC
:1003E00030BD00BF90F0000F04BF0021704730B552
:1003F0004FF4806404F132044FF000054FF0000127
:1004000050E700BF90F0000F04BF0021704730B5E7
:100410004FF4806404F1320410F0004548BF4042BC
:100420004FF000013EE700BF42004FEAE2014FEA11
:1004300031014FEA02701FBF12F07F4393F07F4FEC
:1004400081F06051704732F07F4208BF704793F0EF
:100450007F4F04BF41F40021704730B54FF4607402
:1004600001F0004521F000411CE700BF50EA010205
:1004700008BF704730B54FF000050AE050EA0102AE
:1004800008BF704730B511F0004502D5404261EB1E
:1004900041014FF4806404F132045FEA915C3FF45F
:1004A000D8AE4FF003025FEADC0C18BF03325FEAFC
:1004B000DC0C18BF033202EBDC02C2F1200300FAAD
:1004C00003FC20FA02F001FA03FE40EA0E0021FAD2
:1004D00002F11444BDE600BF70B54FF0FF0C4CF4C0
:1004E000E06C1CEA11541DBF1CEA135594EA0C0F72
:1004F00095EA0C0F00F0DEF82C4481EA030621EAAD
:100500004C5123EA4C5350EA013518BF52EA0335E7
:1005100041F4801143F4801338D0A0FB02CE4FF099
:100520000005E1FB02E506F00042E0FB03E54FF0C9
:100530000006E1FB03569CF0000F18BF4EF0010EC1
:10054000A4F1FF04B6F5007F64F5407404D25FEABD
:100550004E0E6D4146EB060642EAC62141EA555170
:100560004FEAC52040EA5E504FEACE2EB4F1FD0CB2
:1005700088BFBCF5E06F1ED8BEF1004F08BF5FEA30
:10058000500E50F1000041EB045170BD06F00046E2
:1005900046EA010140EA020081EA0301B4EB5C048F
:1005A000C2BFD4EB0C0541EA045170BD41F4801187
:1005B0004FF0000E013C00F3AB8014F1360FDEBFAC
:1005C000002001F0004170BDC4F10004203C35DA88
:1005D0000C341BDC04F11404C4F1200500FA05F30B
:1005E00020FA04F001FA05F240EA020001F00042AC
:1005F00021F0004110EBD37021FA04F642EB060122
:100600005EEA430E08BF20EAD37070BDC4F10C044B
:10061000C4F1200500FA04F320FA05F001FA04F20F
:1006200040EA020001F0004110EBD37041F10001FB
:100630005EEA430E08BF20EAD37070BDC4F1200506
:1006400000FA05F24EEA020E20FA04F301FA05F26E
:1006500043EA020321FA04F001F0004121FA04F216
:1006600020EA020000EBD3705EEA430E08BF20EAE6
:10067000D37070BD94F0000F0FD101F00046400020
:1006800041EB010111F4801F08BF013CF7D041EAA2
:10069000060195F0000F18BF704703F000465200A6
:1006A00043EB030313F4801F08BF013DF7D043EA77
:1006B0000603704794EA0C0F0CEA135518BF95EA2D
:1006C0000C0F0CD050EA410618BF52EA4306D1D1B4
:1006D00081EA030101F000414FF0000070BD50EAD3
:1006E000410606BF1046194652EA430619D094EA5D
:1006F0000C0F02D150EA013613D195EA0C0F05D147
:1007000052EA03361CBF104619460AD181EA03019A
:1007100001F0004141F0FE4141F470014FF0000052
:1007200070BD41F0FE4141F4780170BD70B54FF0ED
:10073000FF0C4CF4E06C1CEA11541DBF1CEA13556D
:1007400094EA0C0F95EA0C0F00F0A7F8A4EB05044F
:1007500081EA030E52EA03354FEA013100F0888046
:100760004FEA03334FF0805545EA131343EA12630F
:100770004FEA022245EA111545EA10654FEA0026C4
:100780000EF000419D4208BF964244F1FD0404F57D
:10079000407402D25B084FEA3202B61A65EB0305D9
:1007A0005B084FEA32024FF480104FF4002CB6EB96
:1007B000020E75EB030E22BFB61A754640EA0C0016
:1007C0005B084FEA3202B6EB020E75EB030E22BF56
:1007D000B61A754640EA5C005B084FEA3202B6EB97
:1007E000020E75EB030E22BFB61A754640EA9C0056
:1007F0005B084FEA3202B6EB020E75EB030E22BF26
:10080000B61A754640EADC0055EA060E18D04FEAE3
:10081000051545EA16754FEA06164FEAC30343EA83
:1008200052734FEAC2025FEA1C1CC0D111F4801F50
:100830000BD141EA00014FF000004FF0004CB6E749
:1008400011F4801F04BF01430020B4F1FD0C88BFE8
:10085000BCF5E06F3FF6AFAEB5EB030C04BFB6EBF3
:10086000020C5FEA500C50F1000041EB045170BDE6
:100870000EF0004E4EEA113114EB5C04C2BFD4EB13
:100880000C0541EA045170BD41F480114FF0000E97
:10089000013C90E645EA060E8DE60CEA135594EA13
:1008A0000C0F08BF95EA0C0F3FF43BAF94EA0C0F16
:1008B0000AD150EA01347FF434AF95EA0C0F7FF48B
:1008C00025AF104619462CE795EA0C0F06D152EADF
:1008D00003353FF4FDAE1046194622E750EA4106C3
:1008E00018BF52EA43067FF4C5AE50EA41047FF4D4
:1008F0000DAF52EA43057FF4EBAE12E74FF0FF3C39
:1009000006E000BF4FF0010C02E000BF4FF0010C09
:100910004DF804CD4FEA410C7FEA6C5C4FEA430C82
:1009200018BF7FEA6C5C1BD001B050EA410C0CBFD1
:1009300052EA430C91EA030F02BF90EA020F002033
:10094000704710F1000F91EA030F58BF994208BF9A
:1009500090422CBFD8176FEAE37040F00100704757
:100960004FEA410C7FEA6C5C02D150EA013C07D1AE
:100970004FEA430C7FEA6C5CD6D152EA033CD3D0F9
:100980005DF8040B704700BF8446104662468C46F3
:100990001946634600E000BF01B5FFF7B7FF002826
:1009A00048BF10F1000F01BD4DF808EDFFF7F4FF4F
:1009B0000CBF012000205DF808FB00BF4DF808EDDA
:1009C000FFF7EAFF34BF012000205DF808FB00BFFD
:1009D0004DF808EDFFF7E0FF94BF012000205DF81F
:1009E00008FB00BF4DF808EDFFF7CEFF94BF0120D4
:1009F00000205DF808FB00BF4DF808EDFFF7C4FFCD
:100A000034BF012000205DF808FB00BF4FEA410C15
:100A10007FEA6C5C02D150EA013C0AD14FEA430CF8
:100A20007FEA6C5C02D152EA033C02D14FF0000035
:100A300070474FF0010070474FEA410212F5001273
:100A400015D211D56FF47873B3EB625212D94FEA15
:100A5000C12343F0004343EA505311F0004F23FAFF
:100A600002F018BF404270474FF00000704750EA54
:100A7000013005D111F0004008BF6FF00040704711
:100A80004FF00000704700BF4FEA4102B2F1E0436F
:100A900024BFB3F5001CDCF1FE5C0DD901F0004C65
:100AA0004FEAC0024CEA5070B2F1004F40EB8300B5
:100AB00008BF20F00100704711F0804F21D113F1E1
:100AC0003872BCBF01F00040704741F480114FEA1A
:100AD0005252C2F11802C2F1200C10FA0CF320FAA3
:100AE00002F018BF40F001004FEAC1234FEAD323C0
:100AF00003FA0CFC40EA0C0023FA02F34FEA43032A
:100B0000CCE77FEA625307D150EA01331EBF4FF0B2
:100B1000FE4040F44000704701F0004040F0FE40CD
:100B200040F40000704700BF4FEA4002B2F1FE4FB0
:100B30000FD34FF09E03B3EB12620DD94FEA00239F
:100B400043F0004310F0004F23FA02F018BF404278
:100B500070474FF00000704712F1610F01D142025F
:100B600005D110F0004008BF6FF0004070474FF013
:100B70000000704780B483B000AF7860034A7B68A0
:100B8000136000BF0C37BD4680BC70475402002084
:100B900080B483B000AF0346FB71044AFB79137045
:100BA00000BF0C37BD4680BC704700BF6E020020FE
:100BB00098B500AFAA23184600F0DCF803461B02E4
:100BC0001CB2AB23184600F0D5F803461BB22343F2
:100BD0001AB2584B1A80AC23184600F0CBF80346E3
:100BE0001B021CB2AD23184600F0C4F803461BB22A
:100BF00023431AB24F4B5A80AE23184600F0BAF87E
:100C000003461B021CB2AF23184600F0B3F803469C
:100C10001BB223431AB2474B9A80B023184600F008
:100C2000A9F803461B021CB2B123184600F0A2F833
:100C300003461BB223431BB29AB23E4BDA80B22367
:100C4000184600F097F803461B021CB2B32318465F
:100C500000F090F803461BB223431BB29AB2354B07
:100C60001A81B423184600F085F803461B021CB213
:100C7000B523184600F07EF803461BB223431BB28F
:100C80009AB22C4B5A81B623184600F073F80346EB
:100C90001B021CB2B723184600F06CF803461BB2C7
:100CA00023431AB2234B9A81B823184600F062F806
:100CB00003461B021CB2B923184600F05BF803463A
:100CC0001BB223431AB21B4BDA81BA23184600F039
:100CD00051F803461B021CB2BB23184600F04AF829
:100CE00003461BB223431AB2124B1A82BC23184686
:100CF00000F040F803461B021CB2BD23184600F06A
:100D000039F803461BB223431AB20A4B5A82BE2358
:100D1000184600F02FF803461B021CB2BF231846EA
:100D200000F028F803461BB223431AB2014B9A8203
:100D300000BF98BD5802002080B586B002AF0346C0
:100D40000A46FB711346BB71FB793B73BB797B731E
:100D5000074B186807F10C024FF47A7300930223D3
:100D6000EE2103F075F800BF1037BD4680BD00BF0F
:100D70005402002080B586B002AF0346FB710D4BD4
:100D80001868FA1D4FF47A7300930123EE2103F0E3
:100D90005FF8084B186807F10F024FF47A7300935D
:100DA0000123EE2103F052F9FB7B18461037BD46B4
:100DB00080BD00BF5402002090B585B000AF2E2347
:100DC0001946F420FFF7B8FF1923184602F028FC53
:100DD000F620FFF7CFFF03461C02F720FFF7CAFFFC
:100DE00003462343FB60154B5B891A46FB689B1A3D
:100DF000124A128902FB03F3002B02DA03F5FF43C8
:100E00007F33DB13BB600D4BB3F91230DA020B4BAF
:100E1000B3F914301946BB680B4492FBF3F37B60C3
:100E2000BA687B6813443B603B680833002B00DAE8
:100E30000F331B1118461437BD4690BD58020020D1
:100E400080B582B000AFFFF7B7FF78607868FFF732
:100E5000D9FA4FF00002074BFFF768FC02460B4639
:100E600010461946FFF710FE034618460837BD46E0
:100E700080BD00BF0000244080B58CB000AF2E23A1
:100E80001946F420FFF758FF1923184602F0C8FB53
:100E900000F002F9B8627B4B1B781A467A4B9B5CD8
:100EA0001946F420FFF748FF764B1B781A46774B1C
:100EB0009B5C184602F0B4FB00F0FCF87862744BBF
:100EC0005B891A46BB6A9B1A714A128902FB03F3BB
:100ED000002B02DA03F5FF437F33DB133B626C4BDD
:100EE000B3F91230DA026A4BB3F9143019463B6A8F
:100EF0000B4492FBF3F3FB613A6AFB691344BB6159
:100F0000BB69A3F57A637B61614BB3F90E301A4676
:100F10007B6903FB03F3002B01DA03F6FF731B135A
:100F200002FB03F3002B01DA03F2FF73DB123B62D7
:100F3000574BB3F902301A467B6902FB03F3002BCF
:100F400001DA03F2FF73DB12FB613A6AFB691344B7
:100F50003B614F4BB3F900309A003B691344494A57
:100F6000127893400233002B00DA03339B10FB60AE
:100F7000474BB3F904301A467B6902FB03F3002B9D
:100F800002DA03F5FF531F335B133B62404BB3F9A7
:100F90000C301A467B6903FB03F3002B01DA03F6DE
:100FA000FF731B1302FB03F3002B02DA03F57F43ED
:100FB000FF331B14FB613A6AFB6913440233002BB5
:100FC00000DA03339B103B61314BDB881A463B69E7
:100FD00003F5004302FB03F3DB0BBB607A6AFB689B
:100FE000D31A284A127811464CF250320A4102FBB9
:100FF00003F37B607B68002B06DB7B685A00BB68D1
:10100000B2FBF3F3FB6205E07A68BB68B2FBF3F373
:101010005B00FB62FB6A002B00DAFF331B121A46EF
:10102000FB6A002B00DAFF331B1202FB03F33B6267
:101030003B6A40F6DE3202FB03F3002B02DA03F5D3
:101040007F43FF331B143B62FB6A124A02FB03F32C
:10105000002B02DA03F57F43FF331B14FB613A6A6E
:10106000FB69134403F6CF63002B00DA0F331B1127
:101070001A46FB6A1344FB62FB6A18463037BD46CA
:1010800080BD00BF6E020020589200085C920008EC
:101090005802002043E3FFFF98B500AFF620FFF7AA
:1010A00069FE03461C02F720FFF764FE0346234354
:1010B000184698BD98B500AFF620FFF75BFE0346D3
:1010C0001C04F720FFF756FE03461B021C43F820C2
:1010D000FFF750FE034644EA0302044B1B78C3F1BA
:1010E000080342FA03F3184698BD00BF6E020020C1
:1010F00080B586B000AF78600B467B8007F10803AF
:1011000000221A605A609A60DA607B88BB60012313
:10111000FB6002237B6107F108031946786802F03F
:1011200087FB00BF1837BD4680BD80B586B000AFD5
:1011300078600B467B8007F1080300221A605A6032
:101140009A60DA607B88BB600023FB6000233B6110
:1011500007F108031946786802F06AFB00BF1837E8
:10116000BD4680BD80B485B000AFF8600B467A60A4
:101170007B81074AFB681360064A7B891380064A15
:101180007B68136000BF1437BD4680BC704700BF4A
:1011900070020020740200207802002080B584B024
:1011A00000AF0346FB718023FB730023BB73002356
:1011B0007B7306E07B7B5E4A0021D1547B7B01334D
:1011C0007B737B7B042BF5D95A4B1B685A4A1288D8
:1011D00011461846FFF78CFF564B1B68564A11887C
:1011E0000022184602F0BFFCFB794FF47A7202FB32
:1011F00003F3184600F08CFE4E4B1B684E4A1288D3
:1012000011461846FFF791FF322000F081FE4B4B4C
:101210001B681B6800225A6208E0484B1B681B6869
:101220005B6AC82B02D96FF001037CE0414B1B685D
:10123000414A12881146184602F07EFC0346002BF4
:10124000EBD03E4B1B681B6800225A6208E03B4B08
:101250001B681B685B6AC82B02D96FF0010362E050
:10126000344B1B68344A12881146184602F064FC5D
:101270000346002BEBD128233B7350E02F4B1B6818
:101280001B6800225A6208E02C4B1B681B685B6AD3
:10129000C82B02D96FF0010345E0264B1B68264A94
:1012A00012881146184602F047FC0346002BEBD08B
:1012B000224B1B681B6800225A6208E01F4B1B6808
:1012C0001B685B6AC82B02D96FF001032BE0194B36
:1012D0001B68194A12881146184602F02DFC034675
:1012E000002BEBD1154B1B681B685B6A282B08D9B8
:1012F000BB7B0F4AD15CBB7BFA7B0A43D1B20C4A61
:10130000D154FB7B5B08FB73FB7B002B04D1802358
:10131000FB73BB7B0133BB733B7B013B3B733B7B71
:10132000002BABD1002318461037BD4680BD00BF4F
:101330007C0200207002002074020020780200204D
:1013400080B584B000AF7860396072B600BF1220FB
:10135000FFF724FFF86062B600BFFB68002B07D0E0
:101360007B682F4A1A603B682D4A1A60FB684FE081
:101370002C4B1B781B022B4A527813431846FFF75D
:1013800041F825A3D3E90023FFF7A6F802460B4650
:1013900010461946FFF778FB02467B681A60214B1E
:1013A0009B781B021F4AD27813431846FFF72AF88E
:1013B00019A3D3E90023FFF78FF802460B46104626
:1013C0001946FFF761FB02463B681A60154B9B7894
:1013D0005BB2002B05DA3B681B6883F000423B6878
:1013E0001A60104B1A780F4B5B781344DAB20D4B2E
:1013F0009B781344DAB20B4BDB781344FB72094B36
:101400001B79FA7A9A4202D04FF0FF3300E00023B2
:1014100018461037BD4680BD9A9999999999B93F58
:1014200000C079C47C020020B0B584B000AF786001
:1014300039603B681B681846FEF7F6FF4FF0000264
:10144000414BFFF749F802460B4614461D463B68E0
:101450001B681846FEF7E8FF35A3D3E90023FEF723
:1014600085FE02460B4620462946FFF75FF90246F5
:101470000B461046194630A3D3E90023FEF776FE4B
:1014800002460B4614461D467B681B681846FEF74D
:10149000CBFF02460B461046194607F0D5FA4FF02F
:1014A00000024FF08043FEF75FFE02460B462046E7
:1014B0002946FEF75BFE02460B4610461946FFF72B
:1014C000E3FA0346FB60F868FEF7AEFF1AA3D3E920
:1014D0000023FEF749FE02460B461046194614A3A8
:1014E000D3E90023FEF7F8FF02460B4614461D46DB
:1014F000F868FEF799FF02460B4611A1D1E90001F9
:10150000FEF732FE02460B4620462946FFF70EF94B
:1015100002460B4610461946FFF7B6FA0346BB6073
:10152000BB6818461037BD46B0BD00BFAFF30080A2
:101530009A99999999A96D4085B185200725E53F2C
:10154000185B08725052204000001E4080B582B0E7
:1015500000AF7860044A7B681360002000F006F852
:1015600000BF0837BD4680BD8402002080B584B02E
:1015700000AF0346FB71FB79002B01D0802300E014
:101580000023FB73002000F03DF803465BB203F03C
:101590007F035AB297F90F3013435BB2DBB219469F
:1015A000002000F011F800BF1037BD4680BD80B5A7
:1015B00000AF002000F026F80346DB11DBB203F099
:1015C0000103DBB2184680BD80B586B002AF03468A
:1015D0000A46FB711346BB71FB793B73BB797B7386
:1015E000074B186807F10C024FF47A73009302233B
:1015F000D02102F02DFC00BF1037BD4680BD00BFDA
:101600008402002080B586B002AF0346FB710D4B0B
:101610001868FA1D4FF47A7300930123D02102F069
:1016200017FC084B186807F10F024FF47A73009308
:101630000123D02102F00AFDFB7B18461037BD467E
:1016400080BD00BF8402002080B584B000AF034697
:10165000FB710720FFF7D6FF0346FB7397F90F30A6
:1016600023F010035AB2FB791B015BB203F01003A5
:101670005BB213435BB2BB73BB7B19460720FFF71A
:10168000A3FF00BF1037BD4680BD80B584B000AF5A
:101690000346FB710720FFF7B5FF0346FB7397F97D
:1016A0000F3023F003035AB297F9073013435BB2AC
:1016B000BB73BB7B19460720FFF786FF00BF1037BF
:1016C000BD4680BD80B500AF0320FFF79BFF0346FA
:1016D000184600F013F90346184680BD80B500AFE8
:1016E0000420FFF78FFF0346184600F007F9034672
:1016F000184680BD80B500AF0520FFF783FF034685
:10170000184600F0FBF80346184680BD80B582B04D
:1017100000AF1020FFF776FF03461A4692001344ED
:101720001A4691001A460B4613449B00FB80062084
:10173000FFF768FF0346184600F0E0F80346184636
:101740000837BD4680BD80B500AF0220FFF75AFFC5
:10175000034603F03F03DBB2184600F0CFF8034620
:10176000184680BD80B500AF0120FFF74BFF034650
:10177000184600F0C3F80346184680BD80B500AF98
:101780000020FFF73FFF034603F07F03DBB218465C
:1017900000F0B4F80346184680BD80B500AF0820BD
:1017A000FFF730FF03465BB2184680BD80B500AF3F
:1017B0000920FFF727FF0346184680BD80B582B099
:1017C00000AF0346FB71FB79184600F0AFF8034603
:1017D00019460320FFF7F8FE00BF0837BD4680BD5D
:1017E00080B582B000AF0346FB71FB79184600F06C
:1017F0009DF8034619460420FFF7E6FE00BF0837B0
:10180000BD4680BD80B582B000AF0346FB71FB7959
:10181000184600F08BF8034619460520FFF7D4FE62
:1018200000BF0837BD4680BD80B582B000AF03461B
:10183000FB80FB88104AA2FB03235B099BB2DBB24F
:1018400019461020FFF7C0FEFB880B4AA2FB0312CB
:101850005209642101FB02F29B1A9BB2DBB21846CB
:1018600000F064F8034619460620FFF7ADFE00BFFE
:101870000837BD4680BD00BF1F85EB5180B582B0E3
:1018800000AF0346FB71FB7903F03F03DBB2184660
:1018900000F04CF8034619460220FFF795FE00BF02
:1018A0000837BD4680BD80B582B000AF0346FB71EE
:1018B000FB79184600F03AF8034619460120FFF775
:1018C00083FE00BF0837BD4680BD80B584B000AF41
:1018D0000346FB71FFF76BFE0346FB73FA79FB7B54
:1018E0001343DBB2184600F021F8034619460020E6
:1018F000FFF76AFE00BF1037BD4680BD80B483B0DD
:1019000000AF0346FB71FB791B09DBB21A4692005C
:1019100013445B00DAB2FB7903F00F03DBB213442C
:10192000DBB218460C37BD4680BC704780B483B02C
:1019300000AF0346FB71FA790C4BA3FB0213D908E5
:101940000B469B000B445B00D31ADAB2FB790749C4
:10195000A1FB0313DB08DBB21B01DBB21344DBB2D8
:1019600018460C37BD4680BC704700BFCDCCCCCCF0
:1019700080B400AF144BDB68134A23F08073D3604C
:10198000114BDB68104A43F08073D3600F4B1B6828
:101990000E4A23F0010313600C4B1B680B4A43F003
:1019A00001031360094B00225A6000BF00BF00BF53
:1019B000064B5B68002B01D0002300E00123184692
:1019C000BD4680BC704700BFF0ED00E0001000E0B5
:1019D00080B500AF0B4B1B680B4A118801221846DB
:1019E00002F0C1F8142000F093FA064B1B68064A77
:1019F00011880022184602F0B6F83C2000F088FA60
:101A000000BF80BD880200208E02002080B582B019
:101A100000AF0346FB71064B1B68064A1188FA7932
:101A2000184602F0A0F800BF0837BD4680BD00BFD1
:101A3000880200208C02002080B584B000AF0346ED
:101A4000FB71FB7903F00F03FB73FB791B09BB737D
:101A50005F4B1B78002B5AD05E4B18685E4B198881
:101A6000FB7B03F00103DBB21A4602F07CF8594B12
:101A700018685A4B1988FB7B03F00203DBB21A4645
:101A800002F071F8534B1868554B1988FB7B03F033
:101A90000403DBB21A4602F066F84E4B1868514B4D
:101AA0001988FB7B03F00803DBB21A4602F05BF8EF
:101AB0004D4B18684D4B1988BB7B03F00103DBB21B
:101AC0001A4602F050F8484B1868494B1988BB7BFE
:101AD00003F00203DBB21A4602F045F8424B1868E5
:101AE000444B1988BB7B03F00403DBB21A4602F0B7
:101AF0003AF83D4B1868404B1988BB7B03F008034C
:101B0000DBB21A4602F02FF8FFF762FF5BE0364BBC
:101B10001868364B1988BB7B03F00103DBB21A4609
:101B200002F021F8304B1868314B1988BB7B03F069
:101B30000203DBB21A4602F016F82B4B18682D4B45
:101B40001988BB7B03F00403DBB21A4602F00BF8E2
:101B5000254B1868284B1988BB7B03F00803DBB2C0
:101B60001A4602F000F8FFF733FF1F4B18681F4BAF
:101B70001988FB7B03F00103DBB21A4601F0F3FF87
:101B8000194B18681A4B1988FB7B03F00203DBB270
:101B90001A4601F0E8FF144B1868164B1988FB7BB6
:101BA00003F00403DBB21A4601F0DDFF0E4B1868A8
:101BB000114B1988FB7B03F00803DBB21A4601F0D6
:101BC000D2FFFFF705FF00BF1037BD4680BD00BF45
:101BD00000000020900200209402002096020020C5
:101BE000980200209A0200209C020020A0020020FF
:101BF000A2020020A4020020A602002080B582B02C
:101C000000AF0346FB710020FFF700FFFB79184689
:101C1000FFF712FF00BF0837BD4680BD80B582B018
:101C200000AF0346FB710120FFF7F0FEFB79184679
:101C3000FFF702FF00BF0837BD4680BD80B582B008
:101C400000AF0346FB71FB7903F00F03FB7100202B
:101C5000FFF7DCFE184B1868184B1988FB7903F066
:101C60000103DBB21A4601F07EFF134B1868144BD8
:101C70001988FB7903F00203DBB21A4601F073FF07
:101C80000D4B18680F4B1988FB7903F00403DBB286
:101C90001A4601F068FF084B18680B4B1988FB794E
:101CA00003F00803DBB21A4601F05DFFFFF790FE78
:101CB00000BF0837BD4680BD9C020020A002002066
:101CC000A2020020A4020020A602002080B584B059
:101CD00000AFF8607B600B467B8113463B81FFF7CA
:101CE00047FE244AFB681360234A7B891380234AFA
:101CF0003B891380224A7B681360224A3B8B138006
:101D0000214ABB8B1380214A3B8C1380204ABB8C19
:101D10001380204B00221A701F4B28221A701420A7
:101D200001F07EFC0320FFF789FF052001F078FC1D
:101D30000320FFF783FF012001F072FC0320FFF76F
:101D40007DFF012001F06CFC0220FFF777FF0120EE
:101D500001F066FC2820FFF751FF0F20FFF74EFF30
:101D60000120FFF74BFF032001F05AFC00BF1037A2
:101D7000BD4680BD880200208C0200208E0200201B
:101D80009C020020A0020020A2020020A402002049
:101D9000A6020020000000200200002080B584B0D0
:101DA00000AF03460A46FB711346BB71BB7903F0D3
:101DB0000F03FB73FB79002B08D1FB7B63F07F03E0
:101DC000FB73FB7B1846FFF719FF07E0FB7B63F013
:101DD0003F03FB73FB7B1846FFF710FF00BF103774
:101DE000BD4680BD80B500AF00210020FFF7D6FFC3
:101DF00000BF80BD80B500AF00210120FFF7CEFFFE
:101E000000BF80BD80B582B000AF0346FB71FB7997
:101E1000002B0CD00E4B1B7843F00303DAB20C4BB3
:101E20001A700B4B1B781846FFF7E8FE0BE0084BC7
:101E30001B7823F00303DAB2054B1A70044B1B78AE
:101E40001846FFF7DBFE00BF0837BD4680BD00BF68
:101E50000100002080B500AF0120FFF7CFFE032076
:101E600001F0DEFB00BF80BD0FB490B589B000AFBC
:101E700007F134037B6007F108037A68396B184671
:101E800004F006FD0023FB770AE0FB7F20333B4490
:101E900013F8183C1846FFF7C1FEFB7F0133FB77B0
:101EA000FC7F07F108031846FEF752F903469C42EF
:101EB00002D2FB7F0F2BE8D900BF2437BD46BDE817
:101EC000904004B0704780B584B000AF03463960DD
:101ED000FB71FB79072B17D8FB790833DBB2DB00EA
:101EE000DBB21846FFF78AFE0023FB7309E0FB7B99
:101EF0003A6813441B781846FFF790FEFB7B0133CA
:101F0000FB73FB7B072BF2D900BF1037BD4680BDAA
:101F100080B483B000AF0346FB80084B1B680022EF
:101F20005A6200BF054B1B685A6AFB889A42F9D374
:101F300000BF00BF0C37BD4680BC7047FC020020CC
:101F400090B589B002AF0023FB750223BB757B4BB4
:101F50003C460FCB84E80F0000237B7500233B75C4
:101F60000023FB740123BB7400237B74FFF7EBFB9E
:101F700003467B75FFF7F6FB03463B75FFF7FEFB59
:101F80000346FB74C3E0BB7C002B21D0FFF762FF4C
:101F900002210020FFF702FF7A7D397DFB7C009350
:101FA0000B466749674804F0F9FB6648FFF75CFF9A
:101FB000BB7D19460120FFF7F1FEFB7D9B00183326
:101FC0003B4453F8183C1846FFF74EFF0023BB7400
:101FD0004FF400715C4801F0AFFD0346012B33D193
:101FE000FB7D032B2BD801A252F823F0FD1F000824
:101FF0001120000825200008392000087B7D172BC0
:1020000002D100237B751AE07B7D01337B7516E0DE
:102010003B7D3B2B02D100233B7510E03B7D013320
:102020003B750CE0FB7C3B2B02D10023FB7406E0EC
:10203000FB7C0133FB7402E001237B7400BF0123AE
:10204000BB74C82001F0ECFA4FF480613E4801F007
:1020500073FD0346012B33D1FB7D032B2BD801A24B
:1020600052F823F075200008892000089D20000800
:10207000B12000087B7D002B02D117237B751AE06D
:102080007B7D013B7B7516E03B7D002B02D13B2322
:102090003B7510E03B7D013B3B750CE0FB7C002B6E
:1020A00002D13B23FB7406E0FB7C013BFB7402E0A6
:1020B00001237B7400BF0123BB74C82001F0B0FA78
:1020C0004FF48071204801F037FD0346012B12D1F7
:1020D000FB7D032B04D10023FB750223BB7505E0B8
:1020E000FB7D0133FB75BB7D0333BB750123BB74E3
:1020F000C82001F095FA4FF40061134801F01CFD6F
:102100000346012B03D1C82001F08AFA12E07B7C40
:1021100083F00103DBB2002B7FF435AF7B7D1846E3
:10212000FFF7ACFB3B7D1846FFF7BDFBFB7C184679
:10213000FFF7CBFB1C37BD4690BD00BF9C8F00084E
:10214000788F00088C030020000C0140B0B58AB0E5
:1021500002AF994B3C1D1D460FCD0FC42B68236069
:102160000023FB770023BB7700237B7700233B779B
:102170000023FB760023BB7601237B7600233B768E
:10218000FFF7ACFA0346FB77FFF7B4FA0346BB77D9
:10219000FFF7BCFA03467B77FFF794FA0346013B4F
:1021A0003B77E9E07B7E002B27D0FFF753FEF97FDA
:1021B000B87F7B7F3A7F814C54F8222001920093B4
:1021C00003460A467E497F4804F0E8FA00210020D1
:1021D000FFF7E4FD7B48FFF747FEBB7E1946012071
:1021E000FFF7DCFDFB7E9B0020333B4453F81C3C97
:1021F0001846FFF739FE00237B764FF400717248D2
:1022000001F09AFC0346012B40D1FB7E042B38D809
:1022100001A252F823F000BF2D220008412200083D
:1022200055220008692200087D220008FB7F1F2B31
:1022300002D10123FB7724E0FB7F0133FB7720E011
:10224000BB7F0C2B02D10123BB771AE0BB7F01338C
:10225000BB7716E07B7F632B02D100237B7710E0F6
:102260007B7F01337B770CE03B7F062B02D1002381
:102270003B7706E03B7F01333B7702E001233B766F
:1022800000BF01237B76C82001F0CAF94FF48061BA
:102290004D4801F051FC0346012B3FD1FB7E042B3E
:1022A00037D801A252F823F0BD220008D12200083D
:1022B000E5220008F92200080D230008FB7F012B0E
:1022C00002D11F23FB7724E0FB7F013BFB7720E05B
:1022D000BB7F012B02D10C23BB771AE0BB7F013BF4
:1022E000BB7716E07B7F002B02D163237B7710E066
:1022F0007B7F013B7B770CE03B7F002B02D10623E9
:102300003B7706E03B7F013B3B7702E001233B76D6
:1023100000BF01237B76C82001F082F94FF4807161
:10232000294801F009FC0346012B19D1FB7E042B3F
:1023300004D10023FB760023BB760CE0FB7E032B4D
:1023400003D1BB7E0433BB7602E0BB7E0333BB7696
:10235000FB7E0133FB7601237B76C82001F060F918
:102360004FF40061184801F0E7FB0346012B03D14D
:10237000C82001F055F91CE03B7E83F00103DBB27D
:10238000002B7FF40FAFFB7F1846FFF729FABB7FC6
:102390001846FFF737FA7B7F9BB203F5FA639BB2CF
:1023A0001846FFF741FA3B7F0133DBB21846FFF7CF
:1023B00005FA2037BD46B0BDD08F00082C000020A4
:1023C000AC8F00088C030020000C014090B587B052
:1023D00000AF424B3C1D0FCB07C4238002341B0CC3
:1023E00023703F4B3B600023FB750123BB75BB7D16
:1023F000002B29D0FFF72EFD01210020FFF7CEFC96
:102400003B1D1846FFF730FD00210120FFF7C6FCF9
:102410003448FFF729FD0E210120FFF7BFFC3248A9
:10242000FFF722FDFB7D18333B4413F8183C194697
:102430000120FFF7B3FCFB7D2C4A52F823301846ED
:10244000FFF712FD0023BB754FF40071284801F01F
:1024500073FB0346012B0DD1FB7D032B02D100231F
:10246000FB7502E0FB7D0133FB750123BB75C820C2
:1024700001F0D6F84FF480611D4801F05DFB034682
:10248000012B0DD1FB7D002B02D10323FB7502E054
:10249000FB7D013BFB750123BB75C82001F0C0F833
:1024A0004FF48071124801F047FB0346012B07D11E
:1024B00097F917200F4B1A70C82001F0B1F80AE005
:1024C0004FF400610A4801F037FB0346012B8ED11F
:1024D000C82001F0A5F81C37BD4690BDEC8F000860
:1024E00007060606E48F0008E88F00081C0000209D
:1024F000000C014060000020B0B586B000AF3E4B3C
:102500003C1D1D460FCD0FC42B6823700023FB75A7
:102510000123BB75BB7D002B24D0FFF79BFC002162
:102520000020FFF73BFC3B1D1846FFF79DFC0021F8
:102530000120FFF733FC3148FFF796FC0E21012004
:10254000FFF72CFC2E48FFF78FFC07210120FFF737
:1025500025FCFB7D2B4A52F823301846FFF784FCFC
:102560000023BB754FF40071274801F0E5FA0346DC
:10257000012B0DD1FB7D022B02D10023FB7502E064
:10258000FB7D0133FB750123BB75C82001F048F8C2
:102590004FF480611C4801F0CFFA0346012B0DD1A6
:1025A000FB7D002B02D10223FB7502E0FB7D013B8A
:1025B000FB750123BB75C82001F032F84FF4807120
:1025C000114801F0B9FA0346012B07D197F91720FA
:1025D0000E4B1A70C82001F023F80AE04FF4006196
:1025E000094801F0A9FA0346012B93D1C82001F054
:1025F00017F81837BD46B0BDFC8F0008E48F0008FF
:10260000E88F000810000020000C01405404002056
:10261000B0B58CB000AF5B4B07F114041D460FCD75
:102620000FC42B682360584B3C1D0FCB84E80F0070
:102630000023FB62002387F82B30FFF70BFCFFF72A
:10264000D1FB3B1D1846FFF70FFCFFF7D3FBFB6ADE
:102650009B0030333B4453F81C3C1846FFF704FC06
:1026600097F82B30002B0DD0FFF7C4FBFB6A9B00C3
:1026700030333B4453F81C3C1846FFF7F5FB00236E
:1026800087F82B304FF40071404801F055FA0346AB
:10269000012B0ED1FB6A042B02D10023FB6202E066
:1026A000FB6A0133FB62012387F82B30C82000F05E
:1026B000B7FF4FF48061354801F03EFA0346012B25
:1026C0000ED1FB6A002B02D10423FB6202E0FB6AFD
:1026D000013BFB62012387F82B30C82000F0A0FFEC
:1026E0004FF48071294801F027FA0346012B37D1B6
:1026F000C82000F095FFFB6A042B19D801A252F8FC
:1027000023F000BF192700081F270008252700080D
:102710002B2700087B270008FFF7EEFE09E0FFF7F4
:1027200055FE06E0FFF70CFC03E0FFF70FFD00E0AD
:1027300000BFFFF78FFBFFF755FB00210020FFF7DD
:102740002DFB3B1D1846FFF78FFBFFF753FBFB6A82
:102750009B0030333B4453F81C3C1846FFF784FB86
:102760004FF40061094801F0E7F90346012B7FF4BB
:1027700077AFC82000F054FF00E000BF3037BD46FF
:10278000B0BD00BF6090000874900008000C0140CC
:10279000F0B5B1B006AFAC4A07F13C031146522286
:1027A000184604F00CF94FF00003BB634FF0000330
:1027B0007B634FF00003C7F8A4300023C7F8A030B4
:1027C000002387F89F30A14B3C1D1D460FCD0FC441
:1027D0000FCD0FC495E80F0084E80F0000F0BEFE97
:1027E00000F056FB00F038FC00F08EFB00F00AFC15
:1027F00000F0B8FB964802F07BFE402303932023B1
:1028000002931023019308230093924B0422022188
:102810009048FFF75BFA90490020FFF754FB8F497F
:102820000120FFF750FB8E490220FFF74CFB0020F0
:10283000FFF7E8FAFFF7D6FA8A48FFF715FBFFF72C
:10284000D9FA8948FFF710FB4FF47A7000F0E8FEE0
:10285000FFF700FB02210020FFF7A0FA8348FFF7F3
:1028600003FB00210120FFF799FA8148FFF7FCFAEA
:102870004FF47A7000F0D4FE07F13C031846FDF7E0
:1028800067FC03469AB207F13C01FF23794803F045
:10289000E7F87948FEF76EF90120FEF779F9FEF7BF
:1028A00087F96B4A4FF480517448FEF75BFC72481D
:1028B000FEF74CFE0020FEF7E8FE0120FEF7C4FE06
:1028C0004FF400516D4801F066F997F89F3083F09E
:1028D0000103DBB2002B00F01582FEF7B1FAC7F856
:1028E000A400FEF7C9FAC7F8A00007F1380207F103
:1028F000340311461846FEF723FD07F1380207F1AD
:10290000340311461846FEF78FFDC7F898005C4B5C
:1029100093F90030012B02D0022B1CD02EE0D7F807
:10292000A000FDF76FFD42A3D3E90023FDF7D4FD1E
:1029300002460B46104619463FA3D3E90023FDF794
:10294000CBFD02460B4610461946FEF775F80346C6
:10295000C7F8A03012E0D7F8A000FDF753FD34A36C
:10296000D3E90023FDF7B8FD02460B461046194691
:10297000FEF762F80346C7F8A03000BF414B93F959
:102980000030012B03D0022B00F08080B4E0D7F898
:10299000A400FDF749FD2AA3D3E90023FDF79CFD20
:1029A00002460B46104619464FF00002364BFDF723
:1029B000DDFB02460B4610461946FEF765F8034656
:1029C000C7F8A430BB6B1846FDF72EFD1CA3D3E956
:1029D0000023FDF781FD02460B46104619464FF0D5
:1029E0000002294BFDF7C2FB02460B461046194672
:1029F000FEF74AF80346BB63D7F89800FDF714FDCD
:102A00000FA3D3E90023FDF767FD02460B461046EE
:102A100019464FF000021C4BFDF7A8FB02460B467F
:102A200010461946FEF730F80346C7F8983063E0C1
:102A30007F5E8C17FF3D9E3F78627361666639400A
:102A4000CDCCCCCCCCCCFC3FA49100082892000883
:102A5000FC0200200008014048000020580000202F
:102A6000500000208490000894900008A490000872
:102A7000B490000844030020A8020020000C01408C
:102A8000600000205404002000004040D7F8A4005B
:102A9000FDF7CAFC88A3D3E90023FDF767FB0246D4
:102AA0000B4610461946FDF7EFFF0346C7F8A43062
:102AB000BB6B1846FDF7B8FC7FA3D3E90023FDF7F5
:102AC00055FB02460B4610461946FDF7DDFF03464F
:102AD000BB63D7F89800FDF7A7FC77A3D3E90023E1
:102AE000FDF744FB02460B4610461946FDF7CCFFA6
:102AF0000346C7F8983000BFD7F8A400FDF794FC50
:102B000002460B466E4991F9001008466D4951F88E
:102B10002000D7F8A0106C4C84FB01546411C91735
:102B2000611A6A4C94F900402546694C54F82540D6
:102B30000294019100906749674803F02FFE6648B0
:102B4000FDF706FB03469AB2FF236349634802F090
:102B500087FFFF2307226249604802F081FFBB6BB9
:102B60001846FDF761FC02460B46554991F90010E5
:102B70000846544951F8201000915A49564803F02C
:102B80000DFE5548FDF7E4FA03469AB2FF23524979
:102B9000524802F065FF7B6B1846FDF745FC024684
:102BA0000B4651494C4803F0F9FD4B48FDF7D0FA6C
:102BB00003469AB2FF234849484802F051FFD7F82C
:102BC0009800FDF731FC02460B463D4991F9001093
:102BD00008463C4951F82010009144493E4803F012
:102BE000DDFD3D48FDF7B4FA03469AB2FF233A49AA
:102BF0003A4802F035FFFFF72DF9FFF7F3F8002010
:102C0000FFF70CF8D7F8A400FDF78EFF2C4B93F9D3
:102C100000301A46364B53F82210D7F8A0302A4A13
:102C200082FB03425211DB17D31A284A92F9002083
:102C30001446274A52F82420019200930B4602467C
:102C40002C49254803F0AAFD2348FFF70DF9FFF7AB
:102C5000D1F8BB6B1846FDF767FF0546184B93F993
:102C600000301A46224B53F822407B6B1846FDF782
:102C70005BFF0346009323462A461F49164803F08C
:102C80008DFD1548FFF7F0F81C48FFF7EDF8D7F871
:102C90009800FDF749FF0246094B93F900301946A9
:102CA000134B53F8213016490B4803F077FD0A48BF
:102CB000FFF7DAF8B5E000BF666666666622714027
:102CC00054040020040000201F85EB516000002008
:102CD0001C000020C89000088C0300204403002042
:102CE000F0900008F890000808910008189100087A
:102CF00010000020309100083C9100084491000829
:102D000048910008FEF7EAFC034687F89730FEF783
:102D1000F1FC034687F89630FEF7F8FC0346A7F867
:102D20009430FEF7CFFC034687F89330FEF70BFD97
:102D3000034687F89230FEF715FD034687F8913079
:102D4000FEF71CFD034687F89030FEF726FD03468C
:102D500087F88F30FEF72AFD034687F88E3097F804
:102D6000975097F89660B7F8943097F8922097F8B4
:102D7000911097F8900097F89340013CDFF8F4C069
:102D80005CF824400494039002910192009333462E
:102D90002A463949394803F001FD3848FDF7D8F98A
:102DA00003469AB24FF47A733449354802F058FE1C
:102DB000FFF750F8FFF716F80220FEF72FFF97F8FD
:102DC000921097F8910097F8903097F89320013A75
:102DD000284C54F822200192009303460A462949C0
:102DE000264803F0DBFC2548FFF73EF8FFF702F822
:102DF00097F8971097F89600B7F8942097F89630C0
:102E0000013B9B00A8333B4453F8A43C0193009240
:102E100003460A461C49194803F0C0FC1748FFF74F
:102E200023F84FF48071194800F086FE0346012B09
:102E300001D1FFF7EDFB4FF40061144800F07CFE78
:102E40000346012B11D197F89F30002B14BF0123AB
:102E50000023DBB283F00103DBB287F89F3097F8E1
:102E60009F3003F0010387F89F304FF42F7000F07C
:102E7000D7FB25E52C000020509100088C03002092
:102E8000440300208091000894910008000C014048
:102E900080B590B000AF07F1180328220021184632
:102EA00003F000FD3B1D00221A605A609A60DA6050
:102EB0001A610223BB610123BB621023FB62002362
:102EC0007B6307F11803184601F0B2FE0346002B9E
:102ED00001D000F049F90F237B600023BB60002381
:102EE000FB6000233B6100237B613B1D00211846F2
:102EF00002F020F90346002B01D000F035F900BFA5
:102F00004037BD4680BD000080B500AF124B134A6C
:102F10001A60114B124A5A600F4B00229A600E4BF6
:102F20000022DA600C4B4FF480421A610A4B0022F7
:102F30005A61094B00229A61074B0022DA61064B65
:102F400000221A62044800F03FFE0346002B01D025
:102F500000F00AF900BF80BDA80200200054004024
:102F6000A086010080B586B000AF07F108030022FB
:102F70001A605A609A60DA603B4600221A605A6012
:102F80001E4B1F4A1A601D4B07225A601B4B002222
:102F90009A601A4B4FF6FE72DA60184B00221A61E3
:102FA000164B00225A61154B00229A61134802F019
:102FB0004FFA0346002B01D000F0D6F84FF48053AF
:102FC000BB6007F1080319460C4802F0DBFA034620
:102FD000002B01D000F0C8F800233B6000237B6089
:102FE0003B461946054802F08DFC0346002B01D0F4
:102FF00000F0BAF800BF1837BD4680BDFC020020C3
:10300000002C014080B500AF114B124A1A60104BE2
:103010004FF416525A600E4B00229A600C4B00225D
:10302000DA600B4B00221A61094B0C225A61084BE3
:1030300000229A61064B0022DA61054802F0C0FCCA
:103040000346002B01D000F08FF800BF80BD00BF09
:10305000440300200038014080B588B000AF07F17C
:10306000100300221A605A609A60DA603B4B9B6939
:103070003A4A43F020039361384B9B6903F02003E5
:10308000FB60FB68354B9B69344A43F00403936152
:10309000324B9B6903F00403BB60BB682F4B9B69F9
:1030A0002E4A43F0080393612C4B9B6903F00803FD
:1030B0007B607B6800227E21294800F054FD0022BD
:1030C00043F20401274800F04EFD7E233B610123BB
:1030D0007B610023BB610223FB6107F110031946EA
:1030E0001F4800F0A5FB04233B6101237B61002303
:1030F000BB610323FB6107F110031946194800F077
:1031000097FB4FF460633B6100237B610023BB614D
:1031100007F110031946134800F08AFB4FF440539F
:103120003B6101237B610023BB610223FB6107F14B
:10313000100319460B4800F07BFB4FF480733B6192
:1031400000237B610223BB6107F110031946054888
:1031500000F06EFB00BF2037BD4680BD001002406E
:1031600000080140000C014080B400AF72B600BFFF
:1031700000BFFDE780B485B000AF154B9B69144AD2
:1031800043F001039361124B9B6903F00103BB60A1
:10319000BB680F4BDB690E4A43F08053D3610C4B85
:1031A000DB6903F080537B607B680A4B5B68FB60E4
:1031B000FB6823F0E063FB60FB6843F08063FB6027
:1031C000044AFB68536000BF1437BD4680BC70479B
:1031D000001002400000014080B588B000AF786068
:1031E00007F1100300221A605A609A60DA607B6867
:1031F0001B68154A934223D1144B9B69134A43F031
:1032000008039361114B9B6903F00803FB60FB68A3
:10321000C0233B6112237B610323FB6107F1100391
:1032200019460B4800F004FB084BDB69074A43F4DE
:103230000013D361054BDB6903F40013BB60BB686B
:1032400000BF2037BD4680BD005400400010024042
:10325000000C014080B485B000AF78607B681B68CB
:10326000094A93420BD1094B9B69084A43F4006316
:103270009361064B9B6903F40063FB60FB6800BF2E
:103280001437BD4680BC7047002C0140001002403E
:1032900080B588B000AF786007F1100300221A6093
:1032A0005A609A60DA607B681B681C4A934231D18D
:1032B0001B4B9B691A4A43F480439361184B9B69EB
:1032C00003F48043FB60FB68154B9B69144A43F091
:1032D00004039361124B9B6903F00403BB60BB685A
:1032E0004FF400733B6102237B610323FB6107F111
:1032F000100319460B4800F09BFA4FF480633B61C2
:1033000000237B610023BB6107F1100319460548C8
:1033100000F08EFA00BF2037BD4680BD0038014066
:10332000001002400008014080B400AF00BFFDE77C
:1033300080B400AF00BFFDE780B400AF00BFFDE781
:1033400080B400AF00BFFDE780B400AF00BFFDE771
:1033500080B400AF00BFBD4680BC704780B400AFF2
:1033600000BFBD4680BC704780B400AF00BFBD4603
:1033700080BC704780B500AF00F036F900BF80BD5B
:1033800080B400AF01231846BD4680BC704780B5AD
:1033900082B000AF7860396003F0D6FA0346162297
:1033A0001A604FF0FF3318460837BD4680BD80B520
:1033B00082B000AF78604FF0FF317868FFF7E7FF29
:1033C00000BFFDE780B586B000AFF860B9607A60F5
:1033D00000237B610AE0AFF300800146BB685A1C02
:1033E000BA60CAB21A707B6901337B617A697B6803
:1033F0009A42F0DB7B6818461837BD4680BD80B521
:1034000086B000AFF860B9607A6000237B6109E0A4
:10341000BB685A1CBA601B781846AFF300807B6902
:1034200001337B617A697B689A42F1DB7B681846DD
:103430001837BD4680BD80B483B000AF78604FF0D0
:10344000FF3318460C37BD4680BC704780B483B04C
:1034500000AF786039603B684FF400525A60002337
:1034600018460C37BD4680BC704780B483B000AFAF
:103470007860012318460C37BD4680BC704780B485
:1034800085B000AFF860B9607A6000231846143741
:10349000BD4680BC7047000080B586B000AF786044
:1034A000144A154BD31A7B617B693B61134B1B6834
:1034B000002B02D1114B124A1A60104B1A687B681C
:1034C00013443A699A4207D203F03EFA03460C22AB
:1034D0001A604FF0FF3309E0084B1B68FB60074B95
:1034E0001A687B681344054A1360FB68184618374E
:1034F000BD4680BD0050002000040000580400209C
:10350000B005002080B400AF00BFBD4680BC70474E
:10351000FFF7F8FF0B480C490C4A002302E0D4588F
:10352000C4500433C4188C42F9D3094A094C00230F
:1035300001E013600432A242FBD303F00BFAFFF761
:1035400027F9704700000020380200200896000884
:1035500038020020AC050020FEE7000080B500AF77
:10356000084B1B68074A43F010031360032000F068
:103570002BF90F2000F008F8FFF7FCFD0023184698
:1035800080BD00BF0020024080B582B000AF7860EF
:10359000124B1A68124B1B7819464FF47A73B3FB1F
:1035A000F1F3B2FBF3F3184600F035F90346002BB4
:1035B00001D001230EE07B680F2B0AD80022796826
:1035C0004FF0FF3000F00BF9064A7B6813600023D0
:1035D00000E0012318460837BD4680BD6400002086
:1035E0006C0000206800002080B400AF054B1B7801
:1035F0001A46054B1B681344034A136000BFBD46BF
:1036000080BC70476C0000205C04002080B400AFD8
:10361000024B1B681846BD4680BC70475C04002006
:1036200080B584B000AF7860FFF7F0FFB8607B68CA
:10363000FB60FB68B3F1FF3F05D00A4B1B781A46CD
:10364000FB681344FB6000BFFFF7E0FF0246BB6866
:10365000D31AFA689A42F7D800BF00BF1037BD46A8
:1036600080BD00BF6C00002080B485B000AF7860E2
:103670007B6803F00703FB600C4BDB68BB60BA6838
:103680004FF6FF031340BB60FB681A02BB6813438D
:1036900043F0BF6343F40033BB60044ABB68D360AC
:1036A00000BF1437BD4680BC704700BF00ED00E08E
:1036B00080B400AF044BDB681B0A03F00703184615
:1036C000BD4680BC704700BF00ED00E080B483B011
:1036D00000AF03463960FB7197F90730002B0ADB16
:1036E0003B68DAB20C4997F907301201D2B20B44A9
:1036F00083F800230AE03B68DAB20849FB7903F05B
:103700000F03043B1201D2B20B441A7600BF0C37F0
:10371000BD4680BC704700BF00E100E000ED00E066
:1037200080B489B000AFF860B9607A60FB6803F0DC
:103730000703FB61FB69C3F10703042B28BF0423C4
:10374000BB61FB690433062B02D9FB69033B00E034
:1037500000237B614FF0FF32BB6902FA03F3DA43C7
:10376000BB681A407B699A404FF0FF317B6901FAD0
:1037700003F3D9437B680B40134318462437BD46F7
:1037800080BC704780B582B000AF78607B68013B39
:10379000B3F1807F01D301230FE00A4A7B68013B2C
:1037A00053600F214FF0FF30FFF790FF054B0022D1
:1037B0009A60044B07221A60002318460837BD465A
:1037C00080BD00BF10E000E080B582B000AF78603F
:1037D0007868FFF749FF00BF0837BD4680BD80B558
:1037E00086B000AF0346B9607A60FB7300237B614B
:1037F000FFF75EFF78617A68B9687869FFF790FF34
:10380000024697F90F3011461846FFF75FFF00BFD9
:103810001837BD4680BD80B582B000AF786078684B
:10382000FFF7B0FF034618460837BD4680BD0000CD
:1038300080B48BB000AF7860396000237B620023D6
:103840003B6269E101227B6A02FA03F3FB613B6898
:103850001B68FA691340BB61BA69FB699A4240F080
:1038600058813B685B689A4A93425ED0984A93427B
:1038700075D8984A934258D0964A93426FD8964A40
:10388000934252D0944A934269D8944A93424CD07E
:10389000924A934263D8924A934246D0904A9342C6
:1038A0005DD8122B2AD8122B59D801A252F823F036
:1038B0002B39000805390008173900085939000864
:1038C0005F3900085F3900085F3900085F39000878
:1038D0005F3900085F3900085F3900085F39000868
:1038E0005F3900085F3900085F3900085F39000858
:1038F0005F3900080D39000821390008794A9342E0
:1039000013D02CE03B68DB683B6229E03B68DB6856
:1039100004333B6224E03B68DB6808333B621FE012
:103920003B68DB680C333B621AE03B689B68002B0A
:1039300002D104233B6213E03B689B68012B05D155
:1039400008233B627B68FA691A6109E008233B623D
:103950007B68FA695A6103E000233B6200E000BF24
:10396000BB69FF2B01D87B6801E07B6804337B6176
:10397000BB69FF2B02D87B6A9B0002E07B6A083B95
:103980009B003B617B691A680F213B6901FA03F3D5
:10399000DB431A40396A3B6901FA03F31A437B6936
:1039A0001A603B685B6803F08053002B00F0B18025
:1039B0004D4B9B694C4A43F0010393614A4B9B6911
:1039C00003F00103BB60BB68484A7B6A9B08023373
:1039D00052F82330FB607B6A03F003039B000F2245
:1039E00002FA03F3DB43FA681340FB607B68404A4A
:1039F000934213D07B683F4A93420DD07B683E4A86
:103A0000934207D07B683D4A934201D1032306E0ED
:103A1000042304E0022302E0012300E000237A6A89
:103A200002F0030292009340FA681343FB602F49AF
:103A30007B6A9B080233FA6841F823203B685B6885
:103A400003F48013002B06D02D4B9A682C49BB69D8
:103A500013438B6006E02A4B9A68BB69DB43284915
:103A600013408B603B685B6803F40013002B06D0A7
:103A7000234BDA682249BB691343CB6006E0204B35
:103A8000DA68BB69DB431E491340CB603B685B6867
:103A900003F40033002B06D0194B5A681849BB6950
:103AA00013434B6006E0164B5A68BB69DB4314496D
:103AB00013404B603B685B6803F48033002B21D0DC
:103AC0000F4B1A680E49BB6913430B6021E000BF1E
:103AD0000000321000003110000022100000211000
:103AE0000000121000001110001002400000014000
:103AF00000080140000C014000100140001401408A
:103B0000000401400B4B1A68BB69DB4309491340B1
:103B10000B607B6A01337B623B681A687B6A22FA1E
:103B200003F3002B7FF48EAE00BF00BF2C37BD46E1
:103B300080BC70470004014080B485B000AF78605D
:103B40000B467B807B689A687B881340002B02D0F1
:103B50000123FB7301E00023FB73FB7B1846143742
:103B6000BD4680BC704780B483B000AF78600B4620
:103B70007B8013467B707B78002B03D07A887B6830
:103B80001A6103E07B881A047B681A6100BF0C3756
:103B9000BD4680BC704780B485B000AF78600B46EE
:103BA0007B807B68DB68FB607A88FB6813401A04C3
:103BB000FB68D9437B880B401A437B681A6100BFBE
:103BC0001437BD4680BC704780B584B000AF7860C4
:103BD0007B68002B01D101232BE17B6893F83D30FA
:103BE000DBB2002B06D17B68002283F83C2078688A
:103BF000FFF7F2FA7B68242283F83D207B681B687C
:103C00001A687B681B6822F001021A607B681B68D7
:103C10001A687B681B6842F400421A607B681B6864
:103C20001A687B681B6822F400421A6001F0CAFB24
:103C3000F8607B685B68814A934207D8FB68804ADA
:103C4000934294BF01230023DBB206E0FB687D4A68
:103C5000934294BF01230023DBB2002B01D0012348
:103C6000E7E0FB68784AA2FB03239B0CBB607B6800
:103C70001B685B6823F03F017B681B68BA680A43D6
:103C80005A607B681B681B6A23F03F017B685B6896
:103C90006A4A934202D8BB68013309E0BB684FF41B
:103CA000967202FB03F3694AA2FB03239B090133CB
:103CB0007A6812680B4313627B681B68DB6923F424
:103CC0004F4222F0FF027B685B685C498B4219D847
:103CD000FB68591E7B685B685B00B1FBF3F3591C02
:103CE00040F6FC730B40002B0AD0FB68591E7B6822
:103CF0005B685B00B1FBF3F30133C3F30B0351E0EB
:103D000004234FE07B689B68002B11D1FB68581E91
:103D10007B6859680B465B000B44B0FBF3F301333F
:103D2000C3F30B03002B0CBF01230023DBB212E013
:103D3000FB68581E7B6859680B469B000B44990032
:103D40000B44B0FBF3F30133C3F30B03002B0CBFA5
:103D500001230023DBB2002B01D0012322E07B688A
:103D60009B68002B0ED1FB68581E7B6859680B4678
:103D70005B000B44B0FBF3F30133C3F30B0343F4D9
:103D800000430FE0FB68581E7B6859680B469B0098
:103D90000B4499000B44B0FBF3F30133C3F30B0363
:103DA00043F44043796809681343CB617B681B681F
:103DB0001B6823F0C0017B68DA697B681B6A1A43C1
:103DC0007B681B680A431A607B681B689B6823F446
:103DD000034323F0FF037A6811697A68D2681143BC
:103DE0007A6812680B4393607B681B68DB6823F07A
:103DF000FF017B685A697B689B691A437B681B6873
:103E00000A43DA607B681B681A687B681B6842F0AB
:103E100001021A607B6800221A647B68202283F802
:103E20003D207B6800221A637B68002283F83E20D5
:103E3000002318461037BD4680BD00BFA086010094
:103E40007F841E00FF083D0083DE1B43D34D6210BC
:103E500080B588B002AFF8607A601A460B467B8165
:103E600013463B81FFF7D2FB7861FB6893F83D3046
:103E7000DBB2202B40F0E0807B6900931923012204
:103E80007049F86800F09EFC0346002B01D0022325
:103E9000D3E0FB6893F83C30012B01D10223CCE046
:103EA000FB68012283F83C20FB681B681B6803F059
:103EB0000103012B07D0FB681B681A68FB681B68AD
:103EC00042F001021A60FB681B681A68FB681B68F5
:103ED00022F400621A60FB68212283F83D20FB680F
:103EE000102283F83E20FB6800221A64FB687A687F
:103EF0005A62FB683A895A85FB685B8D9AB2FB6807
:103F00001A85FB68504ADA6279897B693A6AF868EF
:103F100000F008FB0346002B01D001238DE00023B5
:103F20003B61FB681B685B693B61FB681B689B69C5
:103F30003B613B6966E07A69396AF86800F05CFDCC
:103F40000346002B0DD0FB681B6C042B07D1FB68CC
:103F50001B681A68FB681B6842F400721A60012330
:103F60006BE0FB685B6A1A78FB681B681A61FB6888
:103F70005B6A5A1CFB685A62FB685B8D9BB2013B13
:103F80009AB2FB685A85FB681B8D013B9AB2FB68AD
:103F90001A85FB681B685B6903F00403042B1BD1C3
:103FA000FB681B8D002B17D0FB685B6A1A78FB68D7
:103FB0001B681A61FB685B6A5A1CFB685A62FB68E3
:103FC0005B8D9BB2013B9AB2FB685A85FB681B8DE7
:103FD000013B9AB2FB681A857A69396AF86800F081
:103FE00053FD0346002B0DD0FB681B6C042B07D13F
:103FF000FB681B681A68FB681B6842F400721A6051
:1040000001231AE0FB681B8D002B94D1FB681B6811
:104010001A68FB681B6842F400721A60FB68202271
:1040200083F83D20FB68002283F83E20FB680022D5
:1040300083F83C20002300E0022318461837BD46D1
:1040400080BD00BF020010000000FFFF80B58CB0F3
:1040500002AFF8607A601A460B467B8113463B81BB
:1040600000233B62FFF7D2FA7862FB6893F83D3099
:10407000DBB2202B40F04B827B6A00931923012294
:104080007F49F86800F09EFB0346002B01D0022315
:104090003EE2FB6893F83C30012B01D1022337E26A
:1040A000FB68012283F83C20FB681B681B6803F057
:1040B0000103012B07D0FB681B681A68FB681B68AB
:1040C00042F001021A60FB681B681A68FB681B68F3
:1040D00022F400621A60FB68222283F83D20FB680C
:1040E000102283F83E20FB6800221A64FB687A687D
:1040F0005A62FB683A895A85FB685B8D9AB2FB6805
:104100001A85FB685F4ADA6279897B6A3A6BF868DC
:1041100000F08AFA0346002B01D00123F8E1FB6886
:104120001B8D002B13D10023FB61FB681B685B69AF
:10413000FB61FB681B689B69FB61FB69FB681B6893
:104140001A68FB681B6842F400721A60CCE1FB68D5
:104150001B8D012B1ED1FB681B681A68FB681B684E
:1041600022F480621A6072B600BF0023BB61FB6854
:104170001B685B69BB61FB681B689B69BB61BB69B2
:10418000FB681B681A68FB681B6842F400721A60BF
:1041900062B635E0FB681B8D022B1ED1FB681B68E5
:1041A0001A68FB681B6842F400621A6072B600BFAE
:1041B00000237B61FB681B685B697B61FB681B6894
:1041C0009B697B617B69FB681B681A68FB681B68DD
:1041D00022F480621A6062B612E0FB681B681A68FB
:1041E000FB681B6842F480621A6000233B61FB6835
:1041F0001B685B693B61FB681B689B693B613B69B2
:1042000072E1FB681B8D032B00F21F81FB681B8D85
:10421000012B23D17A6A396BF86800F07DFC0346E4
:10422000002B01D0012373E1FB681B681A69FB684E
:104230005B6AD2B21A70FB685B6A5A1CFB685A62EE
:10424000FB681B8D013B9AB2FB681A85FB685B8D8E
:104250009BB2013B9AB2FB685A8545E1FB681B8D16
:10426000022B52D17B6A00933B6B00220649F8680F
:1042700000F0A8FA0346002B08D0012348E100BF54
:10428000020010000000FFFF0400010072B600BF32
:10429000FB681B681A68FB681B6842F400721A60AE
:1042A000FB681B681A69FB685B6AD2B21A70FB680C
:1042B0005B6A5A1CFB685A62FB681B8D013B9AB211
:1042C000FB681A85FB685B8D9BB2013B9AB2FB6869
:1042D0005A8562B600BFFB681B681A69FB685B6A97
:1042E000D2B21A70FB685B6A5A1CFB685A62FB68A0
:1042F0001B8D013B9AB2FB681A85FB685B8D9BB2F4
:10430000013B9AB2FB685A85EEE07B6A00933B6BF7
:1043100000228149F86800F055FA0346002B01D0CD
:104320000123F5E0FB681B681A68FB681B6822F430
:1043300080621A6072B600BFFB681B681A69FB686E
:104340005B6AD2B21A70FB685B6A5A1CFB685A62DD
:10435000FB681B8D013B9AB2FB681A85FB685B8D7D
:104360009BB2013B9AB2FB685A856C4B1B68DB0819
:104370006B4AA2FB03231A0A13469B001344DA007C
:10438000D31A3B623B6A013B3B623B6A002B18D16C
:10439000FB6800221A63FB68202283F83D20FB683B
:1043A000002283F83E20FB681B6C43F02002FB6870
:1043B0001A6462B600BFFB68002283F83C20012328
:1043C000A6E0FB681B685B6903F00403042BD9D1EA
:1043D000FB681B681A68FB681B6842F400721A606D
:1043E000FB681B681A69FB685B6AD2B21A70FB68CB
:1043F0005B6A5A1CFB685A62FB681B8D013B9AB2D0
:10440000FB681A85FB685B8D9BB2013B9AB2FB6827
:104410005A8562B600BFFB681B681A69FB685B6A55
:10442000D2B21A70FB685B6A5A1CFB685A62FB685E
:104430001B8D013B9AB2FB681A85FB685B8D9BB2B2
:10444000013B9AB2FB685A854EE07A6A396BF8688C
:1044500000F062FB0346002B01D0012358E0FB680B
:104460001B681A69FB685B6AD2B21A70FB685B6AE8
:104470005A1CFB685A62FB681B8D013B9AB2FB68B1
:104480001A85FB685B8D9BB2013B9AB2FB685A852B
:10449000FB681B685B6903F00403042B24D1FB68F1
:1044A0001B8D032B07D1FB681B681A68FB681B6810
:1044B00022F480621A60FB681B681A69FB685B6AF9
:1044C000D2B21A70FB685B6A5A1CFB685A62FB68BE
:1044D0001B8D013B9AB2FB681A85FB685B8D9BB212
:1044E000013B9AB2FB685A85FB681B8D002B7FF459
:1044F00088AEFB68202283F83D20FB68002283F809
:104500003E20FB68002283F83C20002300E00223C9
:1045100018462837BD4680BD040001006400002015
:1045200089B5F81480B588B002AFF8607A603B6056
:104530000B467B81FB68DB6A7B617B69082B06D0BD
:104540007B69012B03D07B6913F5803F08D1FB68A1
:104550001B681A68FB681B6842F480721A600BE0E3
:10456000FB681B6B122B07D1FB681B681A68FB6882
:104570001B6842F480721A603B6800937B680022DB
:104580004FF00111F86800F01DF90346002B0DD023
:10459000FB681B681B6803F48073B3F5807F03D14D
:1045A000FB684FF400721A64032335E0FB681B6953
:1045B000B3F5804F08D17B89DBB21A46FB681B68D4
:1045C00002F0FE021A611BE07B89DB11DBB203F013
:1045D0000603DBB263F00F03DAB2FB681B681A61F3
:1045E0003B687A680E49F86800F066F90346002BCC
:1045F00001D0012310E07B89DAB2FB681B681A61E5
:104600003B687A680749F86800F056F90346002BC2
:1046100001D0012300E0002318461837BD4680BDB5
:10462000080001000200010080B588B002AFF86008
:104630007A603B600B467B81FB68DB6A7B61FB68D1
:104640001B681A68FB681B6842F480621A607B6909
:10465000082B06D07B69012B03D07B6913F5803FC3
:1046600008D1FB681B681A68FB681B6842F48072FB
:104670001A600BE0FB681B6B112B07D1FB681B68F2
:104680001A68FB681B6842F480721A603B680093EA
:104690007B6800224FF00111F86800F093F80346A0
:1046A000002B0DD0FB681B681B6803F48073B3F507
:1046B000807F03D1FB684FF400721A64032379E012
:1046C000FB681B69B3F5804F08D17B89DBB243F0EF
:1046D0000103DAB2FB681B681A615FE07B89DB11BA
:1046E000DBB203F00603DBB263F00F03DAB2FB6860
:1046F0001B681A613B687A683049F86800F0DCF89A
:104700000346002B01D0012354E07B89DAB2FB6819
:104710001B681A613B687A682949F86800F0CCF890
:104720000346002B01D0012344E000233B61FB68DA
:104730001B685B693B61FB681B689B693B613B696C
:10474000FB681B681A68FB681B6842F480721A6079
:104750003B6800937B6800224FF00111F86800F07D
:1047600031F80346002B0DD0FB681B681B6803F46F
:104770008073B3F5807F03D1FB684FF400721A6435
:10478000032317E07B89DB11DBB203F00603DBB206
:1047900063F00E03DAB2FB681B681A613B687A6843
:1047A0000749F86800F088F80346002B01D0012380
:1047B00000E0002318461837BD4680BD0800010000
:1047C0000200010080B584B000AFF860B9603B60C2
:1047D0001346FB7148E03B68B3F1FF3F44D0FEF75E
:1047E00015FF0246BB69D31A3A689A4202D33B6866
:1047F000002B39D1BB681B0CDBB2012B0DD1FB6840
:104800001B685B69DA43BB6813409BB2002B0CBF8B
:1048100001230023DBB21A460CE0FB681B689B698E
:10482000DA43BB6813409BB2002B0CBF012300236B
:10483000DBB21A46FB799A4216D1FB6800221A6352
:10484000FB68202283F83D20FB68002283F83E208D
:10485000FB681B6C43F02002FB681A64FB680022B3
:1048600083F83C20012323E0BB681B0CDBB2012B47
:104870000DD1FB681B685B69DA43BB6813409BB2D0
:10488000002B0CBF01230023DBB21A460CE0FB68AF
:104890001B689B69DA43BB6813409BB2002B0CBFBB
:1048A00001230023DBB21A46FB799A4293D00023FE
:1048B00018461037BD4680BD80B584B000AFF860A3
:1048C000B9607A603B6071E0FB681B685B6903F468
:1048D0008063B3F5806F23D1FB681B681A68FB689F
:1048E0001B6842F400721A60FB681B686FF48062F8
:1048F0005A61FB6800221A63FB68202283F83D207E
:10490000FB68002283F83E20FB681B6C43F0040226
:10491000FB681A64FB68002283F83C20012367E0EF
:104920007B68B3F1FF3F41D0FEF770FE02463B6863
:10493000D31A7A689A4202D37B68002B36D1BB68BF
:104940001B0CDBB2012B0CD1FB681B685B69DA43E3
:10495000BB6813409BB2002B14BF01230023DBB2C2
:104960000BE0FB681B689B69DA43BB6813409BB292
:10497000002B14BF01230023DBB2002B16D0FB68F1
:1049800000221A63FB68202283F83D20FB68002286
:1049900083F83E20FB681B6C43F02002FB681A641E
:1049A000FB68002283F83C20012321E0BB681B0C3C
:1049B000DBB2012B0CD1FB681B685B69DA43BB6877
:1049C00013409BB2002B14BF01230023DBB20BE08A
:1049D000FB681B689B69DA43BB6813409BB2002BE2
:1049E00014BF01230023DBB2002B7FF46DAF002343
:1049F00018461037BD4680BD80B584B000AFF86062
:104A0000B9607A6034E0F86800F0E3F80346002B00
:104A100001D0012334E0BB68B3F1FF3F28D0FEF79B
:104A2000F5FD02467B68D31ABA689A4202D3BB6886
:104A3000002B1DD1FB681B685B6903F08003802B92
:104A400016D0FB6800221A63FB68202283F83D2001
:104A5000FB68002283F83E20FB681B6C43F02002B9
:104A6000FB681A64FB68002283F83C20012307E0FE
:104A7000FB681B685B6903F08003802BC3D10023B4
:104A800018461037BD4680BD80B584B000AFF860D1
:104A9000B9607A6034E0F86800F09BF80346002BB8
:104AA00001D0012334E0BB68B3F1FF3F28D0FEF70B
:104AB000ADFD02467B68D31ABA689A4202D3BB683E
:104AC000002B1DD1FB681B685B6903F00403042BFA
:104AD00016D0FB6800221A63FB68202283F83D2071
:104AE000FB68002283F83E20FB681B6C43F0200229
:104AF000FB681A64FB68002283F83C20012307E06E
:104B0000FB681B685B6903F00403042BC3D100231B
:104B100018461037BD4680BD80B584B000AFF86040
:104B2000B9607A6049E0FB681B685B6903F01003B9
:104B3000102B19D1FB681B686FF010025A61FB68DB
:104B400000221A63FB68202283F83D20FB680022C4
:104B500083F83E20FB681A6CFB681A64FB6800222D
:104B600083F83C20012330E0FEF750FD02467B68CD
:104B7000D31ABA689A4202D3BB68002B1DD1FB68D6
:104B80001B685B6903F04003402B16D0FB680022D2
:104B90001A63FB68202283F83D20FB68002283F81B
:104BA0003E20FB681B6C43F02002FB681A64FB6824
:104BB000002283F83C20012307E0FB681B685B6947
:104BC00003F04003402BAED1002318461037BD46FA
:104BD00080BD80B483B000AF78607B681B685B6980
:104BE00003F48063B3F5806F1BD17B681B686FF49F
:104BF00080625A617B6800221A637B68202283F8F6
:104C00003D207B68002283F83E207B681B6C43F0CC
:104C100004027B681A647B68002283F83C2001232D
:104C200000E0002318460C37BD4680BC70470000EA
:104C300080B586B000AF78607B68002B01D101237E
:104C400072E27B681B6803F00103002B00F0878091
:104C5000924B5B6803F00C03042B0CD08F4B5B680A
:104C600003F00C03082B12D18C4B5B6803F48033E8
:104C7000B3F5803F0BD1894B1B6803F40033002B45
:104C80006CD07B685B68002B68D101234CE27B68A9
:104C90005B68B3F5803F06D1804B1B687F4A43F4C5
:104CA000803313602EE07B685B68002B0CD17B4B5C
:104CB0001B687A4A23F480331360784B1B68774A69
:104CC00023F4802313601DE07B685B68B3F5A02F9D
:104CD0000CD1724B1B68714A43F4802313606F4BF5
:104CE0001B686E4A43F4803313600BE06B4B1B6808
:104CF0006A4A23F480331360684B1B68674A23F4C5
:104D0000802313607B685B68002B13D0FEF77EFC6A
:104D1000386108E0FEF77AFC02463B69D31A642B3F
:104D200001D9032300E25D4B1B6803F40033002B21
:104D3000F0D014E0FEF76AFC386108E0FEF766FC8C
:104D400002463B69D31A642B01D90323ECE1534B90
:104D50001B6803F40033002BF0D100E000BF7B6838
:104D60001B6803F00203002B63D04C4B5B6803F01D
:104D70000C03002B0BD0494B5B6803F00C03082B92
:104D80001CD1464B5B6803F48033002B16D1434B98
:104D90001B6803F00203002B05D07B681B69012B05
:104DA00001D00123C0E13D4B1B6823F0F8027B6872
:104DB0005B69DB00394913430B603AE07B681B6990
:104DC000002B20D0364B01221A60FEF71FFC386101
:104DD00008E0FEF71BFC02463B69D31A022B01D9FF
:104DE0000323A1E12D4B1B6803F00203002BF0D03D
:104DF0002A4B1B6823F0F8027B685B69DB002749BC
:104E000013430B6015E0264B00221A60FEF7FEFBF1
:104E1000386108E0FEF7FAFB02463B69D31A022B21
:104E200001D9032380E11D4B1B6803F00203002B13
:104E3000F0D17B681B6803F00803002B3AD07B6835
:104E40009B69002B19D0174B01221A60FEF7DEFB7D
:104E5000386108E0FEF7DAFB02463B69D31A022B01
:104E600001D9032360E10D4B5B6A03F00203002BC1
:104E7000F0D0012000F0CEFA1CE00A4B00221A60AC
:104E8000FEF7C4FB38610FE0FEF7C0FB02463B694A
:104E9000D31A022B08D9032346E100BF00100240B9
:104EA0000000424280044242924B5B6A03F00203DC
:104EB000002BE9D17B681B6803F00403002B00F092
:104EC000A6800023FB758B4BDB6903F08053002B1E
:104ED0000DD1884BDB69874A43F08053D361854B02
:104EE000DB6903F08053BB60BB680123FB75824B19
:104EF0001B6803F48073002B18D17F4B1B687E4A1C
:104F000043F480731360FEF781FB386108E0FEF71D
:104F10007DFB02463B69D31A642B01D9032303E1CD
:104F2000754B1B6803F48073002BF0D07B68DB6843
:104F3000012B06D16F4B1B6A6E4A43F001031362CB
:104F40002DE07B68DB68002B0CD16A4B1B6A694A39
:104F500023F001031362674B1B6A664A23F00403C4
:104F600013621CE07B68DB68052B0CD1614B1B6A6C
:104F7000604A43F0040313625E4B1B6A5D4A43F0D0
:104F8000010313620BE05B4B1B6A5A4A23F00103D7
:104F90001362584B1B6A574A23F0040313627B6861
:104FA000DB68002B15D0FEF731FB38610AE0FEF715
:104FB0002DFB02463B69D31A41F28832934201D954
:104FC0000323B1E04B4B1B6A03F00203002BEED02E
:104FD00014E0FEF71BFB38610AE0FEF717FB024600
:104FE0003B69D31A41F28832934201D903239BE0F3
:104FF000404B1B6A03F00203002BEED1FB7D012B1B
:1050000005D13C4BDB693B4A23F08053D3617B687D
:10501000DB69002B00F08780364B5B6803F00C03E4
:10502000082B61D07B68DB69022B46D1334B002211
:105030001A60FEF7EBFA386108E0FEF7E7FA02467D
:105040003B69D31A022B01D903236DE0294B1B685E
:1050500003F00073002BF0D17B681B6AB3F5803F2F
:1050600008D1244B5B6823F400327B689B6821499C
:1050700013434B601F4B5B6823F474127B68196AFF
:105080007B685B6A0B431B4913434B601B4B01223C
:105090001A60FEF7BBFA386108E0FEF7B7FA02467D
:1050A0003B69D31A022B01D903233DE0114B1B6846
:1050B00003F00073002BF0D035E0104B00221A6093
:1050C000FEF7A4FA386108E0FEF7A0FA02463B6951
:1050D000D31A022B01D9032326E0064B1B6803F0E9
:1050E0000073002BF0D11EE07B68DB69012B07D138
:1050F000012319E0001002400070004060004242AD
:105100000B4B5B68FB60FB6803F480327B681B6AB7
:105110009A4206D1FB6803F470127B685B6A9A427C
:1051200001D0012300E0002318461837BD4680BD9A
:105130000010024080B584B000AF786039607B68B1
:10514000002B01D10123D0E06A4B1B6803F0070359
:105150003A689A4210D9674B1B6823F007026549E9
:105160003B6813430B60634B1B6803F007033A680B
:105170009A4201D00123B8E07B681B6803F0020368
:10518000002B20D07B681B6803F00403002B05D0A4
:10519000594B5B68584A43F4E06353607B681B6873
:1051A00003F00803002B05D0534B5B68524A43F4CD
:1051B00060535360504B5B6823F0F0027B689B6840
:1051C0004D4913434B607B681B6803F00103002BC0
:1051D00040D07B685B68012B07D1474B1B6803F409
:1051E0000033002B15D101237FE07B685B68022B25
:1051F00007D1414B1B6803F00073002B09D1012339
:1052000073E03D4B1B6803F00203002B01D1012327
:105210006BE0394B5B6823F003027B685B683649BF
:1052200013434B60FEF7F2F9F8600AE0FEF7EEF97F
:105230000246FB68D31A41F28832934201D9032314
:1052400053E02D4B5B6803F00C027B685B689B00AE
:105250009A42EBD1274B1B6803F007033A689A4246
:1052600010D2244B1B6823F0070222493B681343EA
:105270000B60204B1B6803F007033A689A4201D089
:10528000012332E07B681B6803F00403002B08D085
:10529000194B5B6823F4E0627B68DB6816491343B3
:1052A0004B607B681B6803F00803002B09D0124B8E
:1052B0005B6823F460527B681B69DB000E49134373
:1052C0004B6000F021F802460B4B5B681B0903F0B2
:1052D0000F030A49CB5C22FA03F3094A1360094B16
:1052E0001B681846FEF750F9002318461037BD46D4
:1052F00080BD00BF00200240001002406092000804
:10530000640000206800002080B487B000AF002354
:10531000FB600023BB6000237B6100237B600023D4
:105320003B611E4B5B68FB60FB6803F00C03042BC6
:1053300002D0082B03D027E0194B3B6127E0FB6824
:105340009B0C03F00F03174AD35C7B60FB6803F4EC
:105350008033002B10D0114B5B685B0C03F0010312
:10536000114AD35CBB607B680D4A03FB02F2BB6849
:10537000B2FBF3F37B6104E07B680C4A02FB03F3AE
:105380007B617B693B6102E0054B3B6100BF3B6990
:1053900018461C37BD4680BC704700BF0010024055
:1053A00000127A00789200088892000800093D00F7
:1053B00080B400AF024B1B681846BD4680BC7047E6
:1053C0006400002080B500AFFFF7F2FF0246054BF6
:1053D0005B681B0A03F007030349CB5C22FA03F363
:1053E000184680BD001002407092000880B500AFE2
:1053F000FFF7DEFF0246054B5B68DB0A03F007039D
:105400000349CB5C22FA03F3184680BD001002402A
:105410007092000880B485B000AF78600A4B1B68BA
:105420000A4AA2FB03235B0A7A6802FB03F3FB60D0
:1054300000BFFB685A1EFA60002BF9D100BF00BF05
:105440001437BD4680BC704764000020D34D621005
:1054500080B582B000AF78607B68002B01D101235A
:1054600041E07B6893F83D30DBB2002B06D17B68CE
:10547000002283F83C207868FDF7ECFE7B6802226E
:1054800083F83D207B681A687B6804331946104610
:1054900000F040F97B68012283F846207B680122F6
:1054A00083F83E207B68012283F83F207B6801223D
:1054B00083F840207B68012283F841207B68012229
:1054C00083F842207B68012283F843207B68012215
:1054D00083F844207B68012283F845207B68012201
:1054E00083F83D20002318460837BD4680BD0000E4
:1054F00080B485B000AF78607B6893F83D30DBB254
:10550000012B01D0012332E07B68022283F83D2089
:105510007B681B68184A93420ED07B681B68B3F106
:10552000804F09D07B681B68144A934204D07B6883
:105530001B68134A934211D17B681B689B6803F078
:105540000703FB60FB68062B10D07B681B681A689A
:105550007B681B6842F001021A6007E07B681B68E9
:105560001A687B681B6842F001021A600023184623
:105570001437BD4680BC7047002C01400004004039
:105580000008004080B584B000AF78603960002327
:10559000FB737B6893F83C30012B01D10223B4E00C
:1055A0007B68012283F83C207B68022283F83D203F
:1055B0007B681B689B68BB60BB6823F07703BB609C
:1055C000BB6823F47F43BB607B681B68BA689A6042
:1055D0003B681B68B3F5005F3ED0B3F5005F00F297
:1055E0008780B3F5805F00F08680B3F5805F7FD859
:1055F000702B1AD0702B7BD8602B50D0602B77D8B3
:10560000502B3CD0502B73D8402B58D0402B6FD808
:10561000302B64D0302B6BD8202B60D0202B67D858
:10562000002B5CD0102B5AD062E07B6818683B6876
:1056300099683B685A683B68DB6800F044F97B680E
:105640001B689B68BB60BB6843F07703BB607B68EB
:105650001B68BA689A604FE07B6818683B68996875
:105660003B685A683B68DB6800F02DF97B681B6873
:105670009A687B681B6842F480429A603CE07B68D1
:1056800018683B6859683B68DB681A4600F0A4F864
:105690007B681B685021184600F0FBF82CE07B6803
:1056A00018683B6859683B68DB681A4600F0C2F826
:1056B0007B681B686021184600F0EBF81CE07B68F3
:1056C00018683B6859683B68DB681A4600F084F844
:1056D0007B681B684021184600F0DBF80CE07B6813
:1056E0001A683B681B681946104600F0D2F803E0C0
:1056F0000123FB7300E000BF7B68012283F83D209B
:105700007B68002283F83C20FB7B18461037BD469F
:1057100080BD000080B485B000AF786039607B68E0
:105720001B68FB607B68294A93420BD07B68B3F10E
:10573000804F07D07B68264A934203D07B68254A76
:10574000934208D1FB6823F07003FB603B685B6801
:10575000FA681343FB607B681C4A93420BD07B685A
:10576000B3F1804F07D07B68194A934203D07B681E
:10577000184A934208D1FB6823F44073FB603B68EE
:10578000DB68FA681343FB60FB6823F080023B6828
:105790005B691343FB607B68FA681A603B689A6830
:1057A0007B68DA623B681A687B689A627B68074AA2
:1057B000934203D13B681A697B681A637B680122B4
:1057C0005A6100BF1437BD4680BC7047002C0140B1
:1057D000000400400008004080B487B000AFF860CB
:1057E000B9607A60FB681B6A7B61FB681B6A23F007
:1057F0000102FB681A62FB689B693B613B6923F00D
:10580000F0033B617B681B013A6913433B617B6991
:1058100023F00A037B617A69BB6813437B61FB68F1
:105820003A699A61FB687A691A6200BF1C37BD4603
:1058300080BC704780B487B000AFF860B9607A6010
:10584000FB681B6A7B61FB681B6A23F01002FB6824
:105850001A62FB689B693B613B6923F470433B61BF
:105860007B681B033A6913433B617B6923F0A00308
:105870007B61BB681B017A6913437B61FB683A69F2
:105880009A61FB687A691A6200BF1C37BD4680BC0A
:10589000704780B485B000AF786039607B689B68E2
:1058A000FB60FB6823F07003FB603A68FB681343FE
:1058B00043F00703FB607B68FA689A6000BF143707
:1058C000BD4680BC704780B487B000AFF860B96057
:1058D0007A603B60FB689B687B617B6923F47F4354
:1058E0007B613B681A027B681A43BB6813437A6981
:1058F00013437B61FB687A699A6000BF1C37BD4621
:1059000080BC704780B485B000AF786039607B6838
:1059100093F83C30012B01D1022346E07B68012241
:1059200083F83C207B68022283F83D207B681B685B
:105930005B68FB607B681B689B68BB60FB6823F04F
:105940007003FB603B681B68FA681343FB607B686D
:105950001B68FA685A607B681B68164A93420ED02F
:105960007B681B68B3F1804F09D07B681B68124AC3
:10597000934204D07B681B68104A93420CD1BB68E9
:1059800023F08003BB603B685B68BA681343BB606D
:105990007B681B68BA689A607B68012283F83D20A7
:1059A0007B68002283F83C20002318461437BD464C
:1059B00080BC7047002C01400004004000080040FB
:1059C00080B582B000AF78607B68002B01D10123E5
:1059D00042E07B6893F84130DBB2002B06D17B6854
:1059E000002283F840207868FDF752FC7B6824226F
:1059F00083F841207B681B68DA687B681B6822F4A7
:105A00000052DA60786800F01DF97B681B681A693B
:105A10007B681B6822F490421A617B681B685A6994
:105A20007B681B6822F02A025A617B681B68DA686F
:105A30007B681B6842F40052DA607B6800225A647B
:105A40007B68202283F841207B68202283F8422053
:105A50007B6800225A63002318460837BD4680BD84
:105A600080B58AB002AFF860B9603B601346FB8036
:105A700000237B61FB6893F84130DBB2202B6DD1B2
:105A8000BB68002B02D0FB88002B01D1012366E00C
:105A9000FB6800225A64FB68212283F84120FDF74D
:105AA000B5FD7861FB68FA889A84FB68FA88DA8425
:105AB000FB689B68B3F5805F08D1FB681B69002B0E
:105AC00004D10023FB61BB68BB6103E0BB68FB61E1
:105AD0000023BB612AE03B6800937B6900228021A0
