:100000000C9408010C9425010C9425010C942501F5
:100010000C9425010C9425010C9425010C942501C8
:100020000C9425010C9425010C9425010C942501B8
:100030000C9425010C9425010C9425010C942501A8
:100040000C9425010C9425010C9425010C94250198
:100050000C9425010C9425010C9425010C94250188
:100060000C9425010C9425010C9425010C94250178
:100070000C9425010C9425010C9425010C94250168
:100080000C9425010C9425010C942501076342363C
:10009000B79BD8A71A39685618AEBAAB558C1D3C19
:1000A000B7CC5763BD6DEDFD753EF6177231BF00DD
:1000B0000000803F08000000BE922449123EABAA17
:1000C000AA2ABECDCCCC4C3E00000080BEABAAAA72
:1000D000AA3E00000000BF000000803F00000000BA
:1000E00000084178D3BB4387D1133D190E3CC3BDF3
:1000F0004282AD2B3E68EC8276BED98FE1A93E4CA0
:1001000080EFFFBE01C4FF7F3F00000000006E6172
:100110006E00696E660000407A10F35A00A0724EBD
:1001200018090010A5D4E80000E87648170000E49C
:100130000B54020000CA9A3B000000E1F5050000E4
:1001400080969800000040420F000000A086010049
:100150000000102700000000E80300000000640019
:10016000000000000A000000000001000000000084
:100170002C76D888DC674F0823DFC1DFAE59E1B1A8
:10018000B796E5E3E453C63AE651997696E8E6C2B7
:100190008426EB898C9B62ED407C6FFCEFBC9C9FBE
:1001A00040F2BAA56FA5F490055A2AF75C936B6CE0
:1001B000F9676DC11BFCE0E40D47FEF520E6B500D4
:1001C000D0ED902E0300943577050080841E080042
:1001D00000204E0A000000C80C333333330F986EF2
:1001E00012831141EF8D2114893BE65516CFFEE6AF
:1001F000DB18D1844B381BF77C1D901DA4BBE42475
:10020000203284725E228100C9F124ECA1E53D27F1
:1002100011241FBECFEFD0E1DEBFCDBF11E0A0E0C3
:10022000B1E0E2E6FEE202C005900D92AA3FB107FE
:10023000D9F712E0AAEFB1E001C01D92AF34B107C7
:10024000E1F70E94C1020C942F170C94000023B315
:1002500030E002C0359527958A95E2F72095822FE8
:10026000817008952091A30130E002C03595279553
:100270008A95E2F72095822F81700895CF93DF93BE
:100280000E94C50480E060E00E94CD0480E091E01F
:100290000E94DC0480E061E00E94CD048091B30103
:1002A0009091B4010E94DC0480E20E945504809188
:1002B000B5019091B6010E94DC0480E20E945504D1
:1002C0008091B7019091B8010E94DC0480E20E9405
:1002D0005504C0E0D0E03FC08091A30181FF0EC073
:1002E0008C2F62E00E94CD0480E20E945504C4304D
:1002F000D1051CF0C0E0D0E001C022969A9911C04F
:100300008091A30182FF0DC08C2F62E00E94CD047A
:1003100080E20E945504D7FD03C0C4E0D0E001C0D4
:10032000229798990EC08091A30180FF0AC0CE0148
:1003300062E070E00E94F8147093FD016093FC018C
:1003400017C09B9908C08091A30183FF04C083B3A9
:100350008093A3010DC083B38093A3018C2F62E02F
:100360000E94CD048EE50E945504999BB5CFC6CF5F
:10037000DF91CF910895CF93DF930E94C50480E071
:1003800060E00E94CD0481E191E00E94DC0480E005
:1003900061E00E94CD048091A4010E94550480E296
:1003A0000E9455048091A5010E94550480E20E949C
:1003B00055048091A6010E94550480E20E945504D4
:1003C000C0E0D0E03FC08091A30181FF0EC08C2F20
:1003D00062E00E94CD0480E20E945504C430D10541
:1003E0001CF0C0E0D0E001C022969A9911C0809123
:1003F000A30182FF0DC08C2F62E00E94CD0480E239
:100400000E945504D7FD03C0C4E0D0E001C022978C
:1004100098990EC08091A30180FF0AC0CE0162E0CE
:1004200070E00E94F8147093FB016093FA0117C00A
:100430009B9908C08091A30183FF04C083B380937C
:10044000A3010DC083B38093A3018C2F62E00E94AF
:10045000CD048EE50E945504999BB5CFC6CFDF91A0
:10046000CF910895DF92EF92FF920F931F93DF9346
:10047000CF93CDB7DEB766970FB6F894DEBF0FBE49
:10048000CDBFDE011196E3EFF1E086E001900D9221
:100490008150E1F7DE011796E5E2F1E08EE0019090
:1004A0000D928150E1F761E00E94CD0497E0E92EC2
:1004B000F12CEC0EFD1EC7010E94DC0400E0FE8A58
:1004C000ED8ADD881E897E010894E11CF11C83B34E
:1004D0008093A30182E060E00E94CD048D2D912FD6
:1004E0000E94DC0480E061E00E94CD04E02FF0E097
:1004F000EE0FFF1FEE0DFF1D808191810E94DC0435
:10050000999909C08091A30181FF05C0053011F4BC
:1005100000E001C00F5F9A9909C08091A30182FF9A
:1005200005C0002311F405E001C00150989912C0E4
:100530008091A30180FF0EC0013041F0013018F01E
:10054000023031F410C00E94BB0102C00E943E0183
:100550000E94C5049B99BBCF8091A30183FFB7CFB5
:1005600083B38093A30166960FB6F894DEBF0FBEE7
:10057000CDBFCF91DF911F910F91FF90EF90DF9052
:1005800008952F923F924F925F926F927F928F9237
:100590009F92AF92BF92CF92DF92EF92FF920F9312
:1005A0001F93DF93CF93CDB7DEB7AE970FB6F89416
:1005B000DEBF0FBECDBF1A821B821C821D821E822F
:1005C0001F8218861986198280E090E0A0E0B0E0D2
:1005D0008A879B87AC87BD878E879F87A88BB98BBF
:1005E00084B3807F84BB85B38F6085BB0E94B20DCE
:1005F0000E9493040E94570588EE93E00E94DC0558
:10060000CE014F96BE016E5E7F4FAE014F5F5F4FD2
:100610000E94070BCE01489663E00E94AD0B80E07C
:1006200060E00E94CD0483E391E00E94DC0480E05E
:1006300061E00E94CD0486E491E00E94DC0480E049
:1006400062E00E94CD0488E591E00E94DC0480E035
:1006500063E00E94CD0480E691E00E94DC0480E12A
:1006600097E220E931E0F9013197F1F70197D9F7E5
:100670000E94C5046EEFA62E61E0B62E5FED852EBA
:10068000912C4EE0242E312C2C0E3D1E33E9432EAE
:1006900031E0532E20E4622E2CE9722ECE014F96CB
:1006A000BE016E5E7F4FAE014E5F5F4F9E012A5FBF
:1006B0003F4F8E010F5F1F4F0E942E092DB73EB78F
:1006C0002E5030400FB6F8943EBF0FBE2DBF0DB771
:1006D0001EB70F5F1F4FADB7BEB71296BC92AE925A
:1006E000119722E731E0F801338322836A817B810D
:1006F0008C819D810E94611220E030E040E251E453
:100700000E94C611D80114966D937D938D939C938E
:10071000179719969C928E9218976E817F81888583
:1007200099850E9461122AE037ED43E25CE30E9462
:100730001113F80162877387848795870E94AD162D
:100740002DB73EB7225F3F4F0FB6F8943EBF0FBEA6
:100750002DBF80E060E00E94CD04C5010E94DC0452
:1007600080E00E94B70D0E94C30D6B017C016E8179
:100770007F81888599850E94850BADB7BEB71E978E
:100780000FB6F894BEBF0FBEADBF0DB71EB70F5F5B
:100790001F4F1296BC92AE92119724E831E0F801F7
:1007A000338322832AE030E040E050E00E942D15A0
:1007B000D80114962D933D934D935C931797F801B0
:1007C000C086D186E286F386958684860E94AD1621
:1007D0002DB73EB7225F3F4F0FB6F8943EBF0FBE16
:1007E0002DBF80E061E00E94CD04C5010E94DC04C1
:1007F000CE014896BE01665F7F4FA1010E941F0D8A
:100800008DB79EB70E970FB6F8949EBF0FBE8DBFE3
:10081000EDB7FEB73196ADB7BEB71296BC92AE92A9
:100820001197538242828A859B85AC85BD858483DE
:100830009583A683B783918680868E859F85A889B8
:10084000B98982879387A487B5870E94AD16EDB7D3
:10085000FEB73E960FB6F894FEBF0FBEEDBF80E028
:1008600062E00E94CD04C5010E94DC04C30101972F
:10087000F1F798990AC08091A30180FF06C00E94F9
:10088000C5040E9432020E94C50483B38093A30171
:1008900005CFAC0120E001C02F5FFA01E20FF11D8E
:1008A00080818823C9F7822F0895282F207F2BBBB2
:1008B000D89ADA9A20EA3FE0F9013197F1F7DA980D
:1008C000D898F9013197F1F790E044E0880F991F2B
:1008D0004A95E1F78BBBD89ADA9AC9010197F1F7EB
:1008E000DA98D898C9010197F1F70895282F207F49
:1008F0002BBBDA9A20EA3FE0F9013197F1F7DA9859
:10090000F9013197F1F790E054E0880F991F5A955B
:10091000E1F78BBBDA9AC9010197F1F7DA98C901BF
:100920000197F1F7089580E69AEE0197F1F71BBA67
:100930001BBA8AB3806F8ABB8AB387608ABB80E3A5
:100940008BBBDA9A20EA3FE0F9013197F1F7DA98A8
:10095000F9013197F1F78BBBDA9AC9010197F1F7E9
:10096000DA98C9010197F1F780E28BBBDA9AC901E5
:100970000197F1F7DA98C9010197F1F788E20E942F
:1009800076048EE00E947604089581E00E94760449
:10099000089582E00E9476040895623031F0633059
:1009A00031F0613029F4805C03C08C5E01C08C5A48
:1009B00080680E94760408951F93CF93DF93EC0123
:1009C000009791F010E00AC08A3029F480E061E0DD
:1009D0000E94CD0402C00E9455041F5FFE01E10F7A
:1009E000F11D8081882381F7DF91CF911F910895B8
:1009F0001F93CF93DF93EC01862F642F0E94CD04C9
:100A000010E003C00E9455041F5FFE01E10FF11DBD
:100A100084918823B9F7DF91CF911F910895EF92C8
:100A2000FF920F931F93CF93DF937C01162F110F2B
:100A3000110F110F1064C0E0D0E0F701EC0FFD1FA3
:100A40000491812F8C0F0E947604802F0E94550400
:100A50002196C830D10589F7DF91CF911F910F9171
:100A6000FF90EF9008950F931F93082F10E004C09C
:100A70008EE10E9476041F5F1017D0F31F910F9133
:100A800008950F931F93082F10E004C088E10E947F
:100A900076041F5F1017D0F31F910F9108958EE019
:100AA0000E94760408958FE00E94760408958CE0F9
:100AB0000E947604089588E00E94760408958CE0F0
:100AC0000E94760408950F931F93082F10E004C02E
:100AD00080E10E9476041F5F1017D0F31F910F91E1
:100AE00008950F931F93082F10E004C084E10E9423
:100AF00076041F5F1017D0F31F910F910895EF92A6
:100B0000FF920F931F93DF93CF9300D000D00F92EB
:100B1000CDB7DEB79C018B01FE01319685E0DF0188
:100B20001D928A95E9F7FE0135960DC0C9016AE06C
:100B300070E00E94F8148083C9016AE070E00E94AE
:100B4000F8149B0131972115310581F7BFEF0F3F55
:100B50001B0779F420E030E0AE014F5F5F4F02C029
:100B60002F5F3F4FFA01E20FF31F80818823C1F30B
:100B700004C025E030E0201B310B7E010894E11C0D
:100B8000F11CE20EF31E890108C0F70181917F017B
:100B9000805D0E9455040F5F1F4F05301105ACF3B7
:100BA0000F900F900F900F900F90CF91DF911F91AA
:100BB0000F91FF90EF90089510927100A0E0B0E0C7
:100BC000BC01CD010E945F129B01AC0160E070E0AE
:100BD0008AE796E40E94C6110E943312603188F0C1
:100BE00070E060517040882777FD8095982F0E94B3
:100BF000611220E030E040E05EE30E9411130E94A9
:100C000033126093700085B3806385BB089584EAD6
:100C100080937400089584E98093740090E025E047
:100C200004C0822F8A95F1F79F5F8091740084FF42
:100C300003C09A35B1F704C09A3510F480E00895E6
:100C400085E08A95F1F784E608958093730084E83F
:100C500080937400089584EC80937400089584E870
:100C600080937400089590E025E004C0822F8A9557
:100C7000F1F79F5F8091740087FD03C09A35B1F74B
:100C800004C09A3510F480E0089585E08A95F1F764
:100C900084E608958091730008952091710030E0FA
:100CA000287F307090E02817390711F08AE0089506
:100CB00080E00895EF92FF920F931F93CF93DF93FD
:100CC000182FEB0184EA809374000E943306888316
:100CD000882349F480917100887F883011F08AE080
:100CE00001C080E088838881882349F48EEE809358
:100CF000730084E8809374000E943306888388819F
:100D0000882349F480917100887F883111F08AE04E
:100D100001C080E088838881882341F410937300A8
:100D200084E8809374000E94330688838881882336
:100D300049F480917100887F883211F08AE001C007
:100D400080E088838881882331F484EA809374006A
:100D50000E94330688838881882349F4809171003A
:100D6000887F803111F08AE001C080E0888388812B
:100D7000882349F48FEE8093730084E88093740095
:100D80000E94330688838881882349F4809171000A
:100D9000887F803411F08AE001C080E088838881F8
:100DA000882331F484EC809374000E943306888396
:100DB0008881882319F0EE24FF2407C080917300F6
:100DC000E82EFF240E94330688838881882349F413
:100DD00080917100887F803511F08AE001C080E049
:100DE00088838881882331F484E8809374000E948A
:100DF000330688838881882319F000E010E007C05B
:100E000080917300082F10E00E9433068883888148
:100E1000882349F480917100887F883511F08AE039
:100E200001C080E088838881882319F40E940B0622
:100E300088833E2D2227200F311FC901DF91CF91DA
:100E40001F910F91FF90EF9008956F927F928F9274
:100E50009F92AF92BF92CF92DF92EF92FF920F9349
:100E60001F93CF93DF93182FEB0184EA80937400D4
:100E70000E9433068883882349F480917100887F1B
:100E8000883011F08AE001C080E08883888188235F
:100E900049F48EEE8093730084E8809374000E947E
:100EA000330688838881882349F480917100887F84
:100EB000883111F08AE001C080E08883888188232E
:100EC00041F41093730084E8809374000E94330609
:100ED00088838881882349F480917100887F8832D3
:100EE00011F08AE001C080E088838881882331F492
:100EF00084EA809374000E94330688838881882363
:100F000049F480917100887F803111F08AE001C03E
:100F100080E088838881882349F48FEE8093730072
:100F200084E8809374000E94330688838881882334
:100F300049F480917100887F803411F08AE001C00B
:100F400080E088838881882331F484EC8093740066
:100F50000E94330688838881882321F066247724C1
:100F6000430109C080917300682E77248824992456
:100F70000E94330688838881882349F48091710018
:100F8000887F803511F08AE001C080E08883888105
:100F9000882331F484E8809374000E9433068883A8
:100FA0008881882321F0AA24BB24650109C080918F
:100FB0007300A82EBB24CC24DD240E943306888332
:100FC0008881882331F484E8809374000E9433067A
:100FD00088838881882321F0EE24FF24870109C0BB
:100FE00080917300E82EFF2400E010E00E94330699
:100FF00088838881882349F480917100887F8835AF
:1010000011F08AE001C080E088838881882319F488
:101010000E940B0688835C2D4B2D3A2D2227D3018D
:1010200099278827280F391F4A1F5B1F2E0D3F1D48
:10103000401F511F95E056954795379527959A95EE
:10104000D1F7B901CA01DF91CF911F910F91FF90A4
:10105000EF90DF90CF90BF90AF909F908F907F9058
:101060006F900895CF93DF93EC0184EA809374002E
:101070000E9433068883882349F480917100887F19
:10108000883011F08AE001C080E08883888188235D
:1010900049F48EEE8093730084E8809374000E947C
:1010A000330688838881882349F480917100887F82
:1010B000883111F08AE001C080E08883888188232C
:1010C00049F484EF8093730084E8809374000E9455
:1010D000330688838881882349F480917100887F52
:1010E000883211F08AE001C080E0888388818823FB
:1010F00049F48EE28093730084E8809374000E9428
:10110000330688838881882349F480917100887F21
:10111000883211F08AE001C080E0888388818823CA
:1011200019F40E940B06888380E29EE40197F1F790
:101130008881882329F020E030E040E050E007C0BB
:1011400086EFBE010E945A069C0140E050E0B901C2
:10115000CA01DF91CF910895CF93DF93EC0184EA28
:10116000809374000E943306982F8883209751F44F
:1011700080917100887F883011F08AE001C080E0A2
:1011800080930000992349F48EEE8093730084E8E5
:10119000809374000E94330688838881882349F4F1
:1011A00080917100887F883111F08AE001C080E071
:1011B00088838881882349F484EF8093730084E8CE
:1011C000809374000E94330688838881882349F4C1
:1011D00080917100887F883211F08AE001C080E040
:1011E00088838881882349F484EF8093730084E89E
:1011F000809374000E94330688838881882349F491
:1012000080917100887F883211F08AE001C080E00F
:1012100088838881882319F40E940B0688838AEFCB
:1012200090E020E931E0F9013197F1F70197D9F722
:101230008881882329F020E030E040E050E009C0B8
:1012400086EFBE010E942507AC01CB01DA019C01AB
:10125000AD01B901CA01DF91CF9108952F923F925C
:101260004F925F926F927F928F929F92AF92BF92B6
:10127000CF92DF92EF92FF920F931F93DF93CF9362
:10128000CDB7DEB762970FB6F894DEBF0FBECDBF05
:10129000FC014A013A8B298B3801208131813A8740
:1012A00029878281938198878F83A481B581BE83AA
:1012B000AD83DB010D90BC91A02DB88BAF87DB0116
:1012C0001296AD90BC9013971496CD90DC90159724
:1012D000268137813C832B83808591859A838983FE
:1012E0004484558426843784D8018C91882321F046
:1012F000EE24FF24870105C0C8010E9432087B014B
:101300008C01F3018081882329F01B861C861D86B1
:101310001E8607C0C3010E94AC086B877C878D873F
:101320009E87C601A0E0B0E0E81AF90A0A0B1B0B81
:10133000950140E050E0C801B7010E94D9147B013B
:101340008C013FE015950795F794E7943A95D1F70E
:10135000B201882777FD8095982F2BE0660F771FC5
:10136000881F991F2A95D1F79101442737FD409591
:10137000542F2E0D3F1D401F511F0E942D15590146
:101380006A01AE0CBF1CC01ED11E88E090E0A0E038
:10139000B0E0A80EB91ECA1EDB1ED601C50114E0BE
:1013A000B595A795979587951A95D1F7F401808300
:1013B0009183A283B38388E590EFAFEFBFEFA80ED0
:1013C000B91ECA1EDB1EC601B501A60195010E9409
:1013D000D9143B014C01ACE09594879477946794C1
:1013E000AA95D1F7AD81BE819D01442737FD409577
:1013F000542FC601B5010E94D9147B018C01FDE078
:1014000015950795F794E794FA95D1F782E090E067
:10141000A0E0B0E0E80EF91E0A1F1B1FAB81BC81E3
:101420009D01442737FD4095542FC401B3010E940C
:10143000D914BC01992777FD9095892FE60EF71EE8
:10144000081F191F62E015950795F794E7946A95B0
:10145000D1F780E090E8A0E0B0E0E80EF91E0A1FA6
:101460001B1FAF85B8899D0140E050E0C801B7015E
:101470000E94D9141B012C015FE0569447943794C5
:1014800027945A95D1F7EF81F8859F01442737FDBE
:101490004095542FC601B5010E94D9147B018C01DF
:1014A0004BE015950795F794E7944A95D1F7298570
:1014B0003A85C901AA2797FDA095BA2F32E0880F77
:1014C000991FAA1FBB1F3A95D1F7E80EF91E0A1FF4
:1014D0001B1F89819A819C01442737FD4095542F19
:1014E000C401B3010E94D9142BE095958795779597
:1014F00067952A95D1F7E60EF71E081F191FEE0C07
:10150000FF1C001F111F8B859C85AD85BE858E1924
:101510009F09A00BB10B8B879C87AD87BE87BC0151
:10152000CD012AE638E140E050E00E94D91497FD51
:101530000DC0660F771F881F991FA20191010E949D
:101540000B15C901DA015C016D010AC0A20191010C
:101550000E940B1559016A01AA0CBB1CCC1CDD1C96
:101560005527D7FC5A954D2D3C2D2B2DCA01B9017D
:101570000E94D9142EED3BE040E050E00E94D914C7
:101580007B018C01C601B50123E433EE4FEF5FEF21
:101590000E94D914BC01992777FD9095892F61533A
:1015A000714F8F4F9F4F78011127F7FC1095012F36
:1015B0006E0D7F1D801F911FE4E0959587957795AF
:1015C0006795EA95D1F76A0D7B1D8C1D9D1DA98934
:1015D000BA896D937D938D939C93139762960FB602
:1015E000F894DEBF0FBECDBFCF91DF911F910F9159
:1015F000FF90EF90DF90CF90BF90AF909F908F9033
:101600007F906F905F904F903F902F900895EF9252
:10161000FF920F931F93CF93DF938C017B01EA011D
:101620008881882339F48AEABA010E945A06F801AF
:10163000918380838881882339F48CEABE010E94DB
:101640005A06F801938382838881882339F48EEACD
:10165000BE010E945A06F8019583848388818823FD
:1016600039F480EBBE010E945A06F7019183808312
:101670008881882339F482EBBE010E945A06F70163
:10168000938382838881882339F484EBBE010E948E
:101690005A06F701958384838881882339F486EB81
:1016A000BE010E945A06F8019783868388818823A9
:1016B00039F488EBBE010E945A06F80191878087B1
:1016C0008881882339F48AEBBE010E945A06F8010A
:1016D000938782878881882339F48CEBBE010E942E
:1016E0005A06F801958784878881882339F48EEB20
:1016F000BE010E945A06F80197878687DF91CF9135
:101700001F910F91FF90EF9008950E94611220E8C1
:1017100036EE45EC57E40E94C61122E63BED42E46A
:101720005EE30E9474139B01AC0160E070E080E80E
:101730009FE30E945D1120E03AE24DE257E40E94EF
:10174000111320E030E048EC52E40E9411130E9493
:101750002E129B01AC01CA010895FC0166833AB3C5
:1017600081E090E002C0880F991F6A95E2F7282F68
:10177000209523232ABB2BB3822B8BBB0895FF928A
:101780000F931F93CF93DF93DC012BB381E090E0A5
:1017900016960C90169702C0880F991F0A94E2F7CC
:1017A000282B2BBB84EC99E020E931E0F90131973B
:1017B000F1F70197D9F714961C92149713961C927F
:1017C000139712961C92129711961C9211971C92C5
:1017D0008AB321E030E016960C90169702C0220FD3
:1017E000331F0A94E2F7822B8ABB8BB3322F3095DA
:1017F00083238BBB88EC90E040E951E0FA013197FC
:10180000F1F70197D9F7F8948BB3282B2BBB85ED13
:101810008A95F1F78AB338233ABB10E0E1E060E043
:1018200070E0C1E0D0E000E1F02E05E0AE011696D8
:101830000C90169702C0440F551F0A94E2F720E05F
:1018400030E089B39F2D9A95F1F790E0842395239A
:1018500095958795E81741F42F5F3F4F802F8A9524
:10186000F1F72F3F310569F799B32F3F310509F1A2
:10187000643090F060FD10C0812F86958695869526
:10188000FD01E80FF11D8081880F8083273031052D
:1018900010F0816080831F5F6F5F7F4F653571053A
:1018A00041F0892F90E04823592355954795E42F1F
:1018B000BDCF78944C9111962C91119712968C91E2
:1018C000129713963C911397183210F490E009C0C8
:1018D00090E0240F280F230F14968C91821709F49F
:1018E00091E0892FDF91CF911F910F91FF90089583
:1018F000CF92DF92EF92FF920F931F93CF93DF93DC
:10190000EC016B010E94BF0B8823F1F16A8170E04A
:101910006F777070882777FD8095982F0E946112ED
:1019200020E030E040E853E40E9411137B018C0179
:10193000F60160837183828393836B8170E08827D3
:1019400077FD8095982F0E9461129B01AC01C80120
:10195000B7010E945E1120E030E040E251E40E94B5
:10196000C6119B01AC01F60160837183828393836E
:101970008A8187FF08C0DA01C901B058F601808367
:101980009183A283B38381E0DF91CF911F910F9167
:10199000FF90EF90DF90CF900895CF92DF92EF927B
:1019A000FF920F931F93CF93DF93EC016B010E9483
:1019B000BF0B882311F410E038C0688170E080E02C
:1019C00090E00E945F1220E030E040E853E40E9483
:1019D00011137B018C01F6016083718382839383F1
:1019E000698170E0882777FD8095982F0E946112A9
:1019F0009B01AC01C801B7010E945E1120E030E0FC
:101A000040E251E40E94C611F60160837183828333
:101A1000938310E020E030E040E050E00E94C211EB
:101A2000882309F411E081E01827812FDF91CF91FD
:101A30001F910F91FF90EF90DF90CF900895AF929C
:101A4000BF92CF92DF92EF92FF920F931F93CF93AB
:101A5000DF93EC016B015A010E94BF0B882311F444
:101A600010E074C06A8170E06F777070882777FD2E
:101A70008095982F0E94611220E030E040E853E406
:101A80000E9411137B018C01F601608371838283B4
:101A900093836B8170E0882777FD8095982F0E9453
:101AA00061129B01AC01C801B7010E945E1120E0E8
:101AB00030E040E251E40E94C6119B01AC01F60106
:101AC00060837183828393838A8187FF07C0DA01F1
:101AD000C901B05880839183A283B383688170E089
:101AE00080E090E00E945F1220E030E040E853E4A4
:101AF0000E9411137B018C01F50160837183828345
:101B00009383698170E0882777FD8095982F0E94E4
:101B100061129B01AC01C801B7010E945E1120E077
:101B200030E040E251E40E94C611F5016083718308
:101B30008283938310E020E030E040E050E00E9498
:101B4000C211882309F411E081E01827812FDF9169
:101B5000CF911F910F91FF90EF90DF90CF90BF90AA
:101B6000AF90089580E487B987E886B9089597B162
:101B70008770892B87B9369A349BFECF349A24B16B
:101B800035B1C9010895A0E0B0E0BC01CD010E94CB
:101B90005F1226EF38E24CE950E40E94111320E076
:101BA00030E040E251E40E94C6110895A1E1B0E0A6
:101BB000ECEDFDE00C9448153C017F876E876A01CF
:101BC000FC0117821682838181FD03C06FEF7FEFD6
:101BD0006FC39E012F5F3F4F398B288BF301238109
:101BE000EE85FF8523FD859123FF8191FF87EE8799
:101BF000882309F45AC3853251F4EE85FF8523FD0D
:101C0000859123FF8191FF87EE87853229F490E04B
:101C1000B3010E948116E2CF982F10E08824992406
:101C20001032B0F49B3269F09C3228F4903251F0BB
:101C3000933271F40BC09D3239F0903349F4116046
:101C400028C01260146025C0186023C0106121C034
:101C500017FD2AC0892F80538A3078F416FF06C0FA
:101C6000FAE09F9E902C1124980E13C03AE0839EB8
:101C7000802C1124880E10620CC09E3221F416FDB7
:101C800014C3106406C09C3611F4106802C0983664
:101C900059F4EE85FF8523FD959123FF9191FF87F0
:101CA000EE87992309F0BCCF892F8554833020F427
:101CB000812F8061905E07C0892F8556833008F0A0
:101CC0009FC1812F8F7E86FD02C076E0972E6FE345
:101CD000F62EF822953619F4F0E4FF2A07C096365E
:101CE00019F420E8F22A02C091109A94F7FE0AC073
:101CF0003BE3391518F45CE3B52E02C0B92CB3945C
:101D000027E009C047E0491520F4BB2447E0942EA2
:101D1000F7CF292DBB24C60104969D878C87F60139
:101D20006081718182819381AE014F5F5F4F0B2D86
:101D30000E9493156C010981202E332400FF04C0FA
:101D400003FD02C01DE209C0F1FE02C01BE205C096
:101D5000F2FC02C010E001C010E2C1018C70907072
:101D6000892BB9F1112311F483E001C084E08815B7
:101D700010F088240AC0881AF3FC07C080E290E0C3
:101D8000B3010E9481168A94C9F7112329F0812F8B
:101D900090E0B3010E94811623FE03C00EE011E023
:101DA0000EC002E111E00BC0E114F10409F0805211
:101DB00090E0B3010E9481160F5F1F4F05C0EF2C0A
:101DC000FF24F0E1EF22FF24F8018491882361F7DA
:101DD00014C1F7FE12C0BC0C24FE04C08A818133FA
:101DE00009F4BA941B141CF0BB24B3942DC0F8E082
:101DF000FB1550F538E0B32E27C0F6FC25C0892D21
:101E000090E08C159D054CF02CEFC2162FEFD206FA
:101E100024F030E8F32A01C09A94992049F0E2E0D6
:101E2000F0E0EC0FFD1FE90DF11D80818033A1F37F
:101E3000F7FE0AC0B92CB394892D90E0C816D906D4
:101E400014F0992401C09C18F7FC03C025E030E091
:101E500009C01C141D041CF021E030E003C09601F1
:101E60002F5F3F4F112311F02F5F3F4F992029F033
:101E7000892D90E00196280F391F882D90E02817B2
:101E8000390714F0882401C0821A4F2C5524C2014E
:101E900089709070892B39F008C080E290E0B3011E
:101EA0000E9481168A948820C1F7112329F0812F7E
:101EB00090E0B3010E94811643FE07C008C080E392
:101EC00090E0B3010E9481168A948820C1F7F7FE42
:101ED00046C08601D7FE02C000E010E076010894FB
:101EE000E11CF11CE01AF10A41E050E04C0F5D1FCB
:101EF000E40EF51E26014B185108892D90E0AA2406
:101F0000BB24A81AB90A5FEF0F3F150729F48EE228
:101F100090E0B3010E948116C016D10634F040163D
:101F200051061CF4F701808101C080E3015010408C
:101F30000894E11CF11C0A151B052CF090E0B3017C
:101F40000E948116E0CF0C151D0539F49A81963355
:101F500018F4953311F424FE81E390E04BC08A819C
:101F6000813309F00F7E90E0B3010E948116992021
:101F7000A1F08EE290E0B3010E94811612E0E1E050
:101F8000F0E0EC0FFD1FE10FF11D1F5F808190E07D
:101F9000B3010E9481169A9491F744FC03C085E630
:101FA00090E002C085E490E0B3010E948116D7FC66
:101FB00005C0C114D10441F404FF06C0D094C194FB
:101FC000D108D3948DE201C08BE290E0B3010E946E
:101FD000811680E305C08F5F26EF3FEFC20ED31E50
:101FE0003AE0C316D104BCF790E0B3010E94811619
:101FF000C601C096B3010E948116CC84DD8452C113
:10200000933631F0933799F0933509F059C023C0D6
:10201000F601808189835E010894A11CB11C22E035
:1020200030E0C20ED31E21E0E22EF12C12C0F601E8
:10203000A080B18016FD03C06FEF7FEF02C0692D55
:1020400070E022E030E0C20ED31EC5010E94761679
:102050007C011F7713C0F601A080B18016FD03C07C
:102060006FEF7FEF02C0692D70E022E030E0C20E1A
:10207000D31EC5010E946B167C01106813FF07C0B8
:102080001BC080E290E0B3010E9481168A94882DE3
:1020900090E0E816F906A8F30FC0F50117FD859149
:1020A00017FF81915F0190E0B3010E9481168110BA
:1020B0008A940894E108F108E114F10471F7F2C080
:1020C000943611F0993689F517FF08C0F601208182
:1020D00031814281538184E090E00AC0F601808121
:1020E00091819C01442737FD4095542F82E090E078
:1020F000C80ED91E9FE6F92EF12257FF09C0509550
:102100004095309521953F4F4F4F5F4F90E8F92A0A
:10211000CA01B901AE014F5F5F4F2AE030E00E9473
:10212000D116E82EE889EE1A41C0953721F41F7EBA
:102130002AE030E01CC0197F9F3661F0903720F410
:10214000983509F0B2C00FC0903739F0983709F0D0
:10215000ACC004C028E030E00AC0106114FD146077
:1021600020E130E004C014FD166020E132E017FFEA
:1021700008C0F601608171818281938144E050E062
:1021800008C0F60180819181BC0180E090E042E0CE
:1021900050E0C40ED51EAE014F5F5F4F0E94D116B6
:1021A000E82E5889E51A8FE7F82EF122F6FE0BC0CB
:1021B0008EEFF822E91438F4F4FE07C0F2FC05C0F3
:1021C0009FEEF92202C01E2D01C0192DF4FE0DC094
:1021D000FE01EE0DF11D8081803319F4E9EEFE223F
:1021E00008C01F5FF2FE05C003C08F2D867809F07E
:1021F0001F5F0F2DF3FC14C0F0FE0FC0181510F078
:102200009E2C0BC09E2C980C911A182D06C080E2B3
:1022100090E0B3010E9481161F5F1815C0F304C03F
:10222000181510F4811A01C0882404FF0FC080E340
:1022300090E0B3010E94811602FF1DC001FD03C0A2
:1022400088E790E00EC088E590E00BC0802F86788C
:1022500091F001FF02C08BE201C080E2F7FC8DE249
:1022600090E0B3010E94811606C080E390E0B301C4
:102270000E9481169A94E914C0F3EA94E1E0F0E038
:10228000EC0FFD1FEE0DF11D808190E0B3010E9467
:102290008116EE2091F706C080E290E0B3010E9423
:1022A00081168A948820C1F799CCF30166817781E1
:1022B000CB016196E2E10C9464155058BB27AA2724
:1022C0000ED075C166D130F06BD120F031F49F3F54
:1022D00011F41EF45BC10EF4E095E7FB51C1E92F48
:1022E00077D180F3BA17620773078407950718F050
:1022F00071F49EF58FC10EF4E0950B2EBA2FA02D30
:102300000B01B90190010C01CA01A0011124FF27A2
:10231000591B99F0593F50F4503E68F11A16F0409D
:10232000A22F232F342F4427585FF3CF469537959C
:102330002795A795F0405395C9F77EF41F16BA0B61
:10234000620B730B840BBAF09150A1F0FF0FBB1F0F
:10235000661F771F881FC2F70EC0BA0F621F731F58
:10236000841F48F4879577956795B795F7959E3FB5
:1023700008F0B3CF9395880F08F09927EE0F979543
:1023800087950895D9D008F481E008950CD00FC145
:1023900007D140F0FED030F021F45F3F19F0F0C0DB
:1023A000511139C1F3C014D198F39923C9F35523BE
:1023B000B1F3951B550BBB27AA2762177307840738
:1023C00038F09F5F5F4F220F331F441FAA1FA9F3EE
:1023D00033D00E2E3AF0E0E830D091505040E695E0
:1023E000001CCAF729D0FE2F27D0660F771F881F41
:1023F000BB1F261737074807AB07B0E809F0BB0B30
:10240000802DBF01FF2793585F4F2AF09E3F510553
:1024100068F0B6C000C15F3FECF3983EDCF38695F0
:1024200077956795B795F7959F5FC9F7880F911DC9
:102430009695879597F90895E1E0660F771F881FB5
:10244000BB1F621773078407BA0720F0621B730B68
:10245000840BBA0BEE1F88F7E095089504D06894BA
:10246000B111D9C00895BCD088F09F5790F0B92F12
:102470009927B751A0F0D1F0660F771F881F991FD9
:102480001AF0BA95C9F712C0B13081F0C3D0B1E0EB
:102490000895C0C0672F782F8827B85F39F0B93FFB
:1024A000CCF3869577956795B395D9F73EF49095DB
:1024B0008095709561957F4F8F4F9F4F0895E89459
:1024C00009C097FB3EF490958095709561957F4F7C
:1024D0008F4F9F4F9923A9F0F92F96E9BB2793952A
:1024E000F695879577956795B795F111F8CFFAF43A
:1024F000BB0F11F460FF1BC06F5F7F4F8F4F9F4F6B
:1025000016C0882311F096E911C0772321F09EE8C8
:10251000872F762F05C0662371F096E8862F70E02E
:1025200060E02AF09A95660F771F881FDAF7880F08
:102530009695879597F90895990F0008550FAA0B5E
:10254000E0E8FEEF16161706E807F907C0F01216C6
:102550001306E407F50798F0621B730B840B950BC9
:1025600039F40A2661F0232B242B252B21F408951E
:102570000A2609F4A140A6958FEF811D811D0895BB
:1025800097F99F6780E870E060E008959FEF80EC26
:10259000089500240A9416161706180609060895C9
:1025A00000240A9412161306140605060895092E2F
:1025B0000394000C11F4882352F0BB0F40F4BF2B9E
:1025C00011F460FF04C06F5F7F4F8F4F9F4F0895DE
:1025D00057FD9058440F551F59F05F3F71F04795D4
:1025E000880F97FB991F61F09F3F79F087950895B9
:1025F000121613061406551FF2CF4695F1DF08C0D8
:10260000161617061806991FF1CF869571056105F4
:1026100008940895E894BB2766277727CB0197F99C
:1026200008950BD0C4CFB5DF28F0BADF18F095239A
:1026300009F0A6CFABCF1124EECFCADFA0F3959F50
:10264000D1F3950F50E0551F629FF001729FBB2799
:10265000F00DB11D639FAA27F00DB11DAA1F649F45
:102660006627B00DA11D661F829F2227B00DA11DF8
:10267000621F739FB00DA11D621F839FA00D611D7E
:10268000221F749F3327A00D611D231F849F600D9F
:10269000211D822F762F6A2F11249F5750408AF0D8
:1026A000E1F088234AF0EE0FFF1FBB1F661F771F64
:1026B000881F91505040A9F79E3F510570F060CFA0
:1026C000AACF5F3FECF3983EDCF38695779567954C
:1026D000B795F795E7959F5FC1F7FE2B880F911D82
:1026E0009695879597F90895FA01EE0FFF1F30969A
:1026F0002105310599F16115710561F48038BFE359
:102700009B0749F168949038810561F08038BFEFEC
:102710009B0741F0992342F5FF3FE1053105210573
:1027200011F1E8940894E795D901AA2329F4AB2F75
:10273000BE2FF85FD0F310C0FF5F70F4A695E0F7EE
:10274000F73950F019F0FF3A38F49F779F930CD087
:102750000F9007FC905808953EF018CF60E070E0AD
:1027600080E89FE308954FE79F775F934F933F93F0
:102770002F939ED02F913F914F915F9152DF05C0D3
:1027800019F40EF0FDCE46CF01CF2ADFC8F39638FC
:10279000C0F707F80F92E8942BE33AEA48EB5FE7BB
:1027A0004EDF0F920F920F924DB75EB70F92C0D0CF
:1027B000ECE8F0E016D04F915F91EF91FF91E59535
:1027C000EE1FFF1F49F0FE57E0684427EE0F441F3D
:1027D000FA95E1F74195550B32D00F9007FE26C0D0
:1027E0000895DF93CF931F930F93FF92EF92DF92A1
:1027F0007B018C01689405C0DA2EEF011EDFFE011B
:10280000E894A5912591359145915591AEF3EF014D
:1028100066DDFE019701A801DA9479F7DF90EF9069
:10282000FF900F911F91CF91DF9108959B01AC0113
:1028300060E070E080E89FE3A9CDA2CEACC0D0DE1E
:10284000E8F39923D9F3940F511DBBF391505040F5
:1028500094F059F0882332F0660F771F881F91504B
:102860005040C1F79E3F510544F7880F911D969542
:10287000879597F908955F3FACF0983E9CF0BB2791
:10288000869577956795B79508F4B1609395C1F7EC
:10289000BB0F58F711F460FFE8CF6F5F7F4F8F4F8A
:1028A0009F4FE3CFB8CE0EF076C070CE689468CE5E
:1028B00097DEC8F39923D1F3C6F3DF93CF931F9329
:1028C0000F93FF92C92FDD2788232AF02197660FE7
:1028D000771F881FDAF720E030E040E85FEB9FE3E6
:1028E000883920F0803E30F021968F77E7DCE4EBEA
:1028F000F0E003C0E3DCE1EEF0E073DF8B01BE014A
:10290000EC01FB2E6F5771097595771F880B990B9A
:10291000D8DD28E132E741E35FE38FDEAF2D980198
:10292000AE01FF900F911F91CF91DF91D8DC3FCE88
:10293000FA01DC01AA0FBB1F9B01AC01BF5728F4B1
:1029400022273327442750781FC0B75188F4AB2F74
:102950000024469537952795011CA395D2F30020B6
:1029600069F0220F331F441FB395DAF30DD0A5CCC5
:1029700061307105A0E88A07B94630F49B01AC01CB
:102980006627772788279078309621F02083318337
:102990004283538308959F3F31F0915020F48795EF
:1029A00077956795B795880F911D9695879597F9B7
:1029B0000895629FD001739FF001829FE00DF11D89
:1029C000649FE00DF11D929FF00D839FF00D749FA9
:1029D000F00D659FF00D9927729FB00DE11DF91F55
:1029E000639FB00DE11DF91FBD01CF0111240895B2
:1029F00097FB092E07260AD077FD04D080D006D099
:102A000000201AF4709561957F4F0895F6F7909520
:102A100081959F4F0895A1E21A2EAA1BBB1BFD01B1
:102A20000DC0AA1FBB1FEE1FFF1FA217B307E407AD
:102A3000F50720F0A21BB30BE40BF50B661F771F05
:102A4000881F991F1A9469F76095709580959095E5
:102A50009B01AC01BD01CF01089597FB092E05260E
:102A60000ED057FD04D0D7DF0AD0001C38F45095A3
:102A70004095309521953F4F4F4F5F4F0895F6F7A2
:102A800090958095709561957F4F8F4F9F4F0895DA
:102A90002F923F924F925F926F927F928F929F926E
:102AA000AF92BF92CF92DF92EF92FF920F931F935C
:102AB000CF93DF93CDB7DEB7CA1BDB0B0FB6F8940D
:102AC000DEBF0FBECDBF09942A88398848885F844D
:102AD0006E847D848C849B84AA84B984C884DF80BE
:102AE000EE80FD800C811B81AA81B981CE0FD11DA2
:102AF0000FB6F894DEBF0FBECDBFED010895AA1B3F
:102B0000BB1B51E107C0AA1FBB1FA617B70710F0D8
:102B1000A61BB70B881F991F5A95A9F7809590950A
:102B2000BC01CD010895283008F027E03327DA01F1
:102B3000990F311D87FD916000966105710539F48B
:102B400032602E5F3D9330E32A95E1F708959F3F71
:102B500030F080387105610509F03C5F3C5F3D93C2
:102B6000913008F08068911DDF93CF931F930F93EE
:102B7000FF92EF92192F987F9695E92F969596954B
:102B8000E90FFF27E059FE4F99273327EE24FF2452
:102B9000A701E70105900894079428F4360FE71E73
:102BA000F81E491F511D660F771F881F991F069435
:102BB000A1F70590079428F4E70EF81E491F561F49
:102BC000C11D770F881F991F661F0694A1F70590F6
:102BD000079428F4F80E491F561FC71FD11D880FF0
:102BE000991F661F771F0694A1F70590079420F49C
:102BF000490F561FC71FD81F990F661F771F881FC1
:102C00000694A9F784911095177041F0D695C79551
:102C100057954795F794E7941A95C1F7E6E1F1E0E7
:102C200068941590159135916591959105907FE285
:102C30007395E118F10A430B560BC90BD009C0F785
:102C4000E10CF11E431F561FC91FD01D7EF47033C7
:102C500011F48A95E6CFE894015030F0080F0AF499
:102C60000027021708F4202F2395022F7A3328F02B
:102C700079E37D932A95E9F710C07D932A9589F62B
:102C8000069497956795379517951794E118F10A6B
:102C9000430B560BC90BD00998F023957E91739581
:102CA0007A3308F070E37C932013B8F77E9170615B
:102CB0007D9330F0839571E37D9370E32A95E1F77E
:102CC0001124EF90FF900F911F91CF91DF919927E1
:102CD00087FD90950895FC010590615070400110AA
:102CE000D8F7809590958E0F9F1F0895FC01615035
:102CF000704001900110D8F7809590958E0F9F1F1E
:102D000008950F931F93CF93DF938C01EB018B8179
:102D100081FF1BC082FF0DC02E813F818C819D8170
:102D20002817390764F4E881F9810193F983E8836E
:102D300006C0E885F985802F0995892B31F48E81AD
:102D40009F8101969F838E8302C00FEF1FEFC80102
:102D5000DF91CF911F910F910895AEE0B0E0E3EBCA
:102D6000F6E10C9456150D891E8986E08C831A8332
:102D700009838FEF9FE79E838D839E01275E3F4FE0
:102D8000CE0101966F89788DA9010E94D60D2F8101
:102D90003885020F131FF80110822E96E4E00C9480
:102DA0007215FA01AA27283051F1203181F1E894F7
:102DB0006F936E7F6E5F7F4F8F4F9F4FAF4FB1E02E
:102DC0003ED0B4E03CD0670F781F891F9A1FA11D29
:102DD000680F791F8A1F911DA11D6A0F711D811D2A
:102DE000911DA11D20D009F468943F912AE0269FEF
:102DF00011243019305D3193DEF6CF010895462F4E
:102E00004770405D4193B3E00FD0C9F7F6CF462F2E
:102E10004F70405D4A3318F0495D31FD4052419397
:102E200002D0A9F7EACFB4E0A69597958795779554
:102E30006795BA95C9F700976105710508959B01DB
:102E4000AC010A2E06945795479537952795BA9564
:102E5000C9F7620F731F841F951FA01D0895F89472
:022E6000FFCFA2
:102E62002A507265737375726520556E6974732A80
:102E7200002A54656D706572617475726520556EB5
:102E82006974732A003C204D61696E204D656E7530
:102E9200203E005765617468657220506172616DF1
:102EA2006574657273004D6F6E69746F72696E67D7
:102EB2002053797374656D004B4E454D2D323200AF
:102EC2004E617A6172204B75726F766574736B799D
:102ED2007900252B2E31662563432025312E66206D
:102EE20068506100256C64206D20252B2E316625EB
:102EF200634300252B2E316625634320252E316640
:102F0200252500FF43464B506100685061006D6DFE
:102F1200486700A701AA01AE015365742054656D8C
:102F220070617475726520466F726D6174005365CD
:102F32007420507265737375726520466F726D618D
:102F42007400202020202020457869742020202031
:0A2F5200202000B901CE01E20100C9
:00000001FF
