:080000000C9439010C9400007E
:100008000C9400000C9400000C9400000C94000068
:100018000C9400000C942A030C9400000C9400002B
:100028000C9400000C9400000C9400000C94000048
:100038000C9400000C9400000C9400000C94000038
:100048000C9400000C9400000C940000FF001A1699
:10005800141A0A1A0A0A250046414E2054313D0056
:10006800000046414E2054323D00000046414E20DB
:1000780054333D0000005348552054343D000000DF
:100088005348552054353D000000434F4E20543608
:100098003D000000434F4E2054373D000000434FC1
:1000A8004E2054383D000000414C41524D205439F7
:1000B8003D00543100543200543300543400543558
:1000C8000054360054370054380054390000494E63
:1000D80054454752414C00434F4F4C4552205359C9
:1000E8005354454D000008000C000E000F0000009E
:1000F800003FCDCC4C3D0AD7A33B6F12033A17B74C
:100108005138ACC5A736BD37063580C00000202061
:1001180020004D41494E204D454E550054696E3AD8
:1001280020252B2E3166256343202020200A546F7A
:1001380075743A20252B2E31662563432020200034
:1001480046414E2054313D25642054323D25640AF1
:1001580054333D25642020202020202020200053D7
:1001680048552054343D25642054353D25640A20E3
:1001780020202020202020202020202000434F4E17
:100188002054363D25642054373D25640A54383DB3
:10019800256420202000414C41524D2054393D25F2
:1001A80064202020200A2020202020202020005405
:1001B800696E3A20252B2E31662563432020200ABC
:1001C800546F75743A20252B2E3166256343202001
:1001D8002000414300496E6974206572726F720A8B
:1001E800696E646F6F722073656E736F7200496E0B
:1001F8006974206572726F720A6F7574646F6F72BA
:100208002073656E736F720054696E206572726F29
:10021800720A546F7574206572726F720054696E39
:10022800206572726F720A546F75743A20252B2EEE
:1002380031662563430054696E3A20252B2E3166BA
:100248002563430A546F7574206572726F720000DB
:1002580001000900540009008902560002009B02AF
:10026800120102009F0214010000F894EE27ECBB73
:10027800F1E0FBBFEBBFE5BFF8E1F1BDE1BD8DE00B
:10028800A2E0BB27ED938A95E9F780E098E0A0E625
:10029800ED930197E9F7E8E5F2E0859195910097EC
:1002A80061F0A591B59105901590BF01F0010590F9
:1002B8000D920197E1F7FB01F0CFEFE5EDBFE8E024
:1002C800EEBFC0E6D2E00C94670313B2E8810E9447
:1002D800F20A0E94400D07C0E881A1E00E94190DB2
:1002E800E9210E94400D21960895EF976B978AE5C2
:1002F800A0E0B0E0E0E6F0E00E948D0F1A930E94C3
:10030800F70AE757FD4FE0811E2F93B20E94FE0ABD
:100318000E94F70AAAE0B0E00E94450DDE0111969E
:100328000E94030BA12FEAE00E944D0DE05DEA93C5
:100338000E945A0AA12FEAE00E94910DE05DEA931B
:100348000E945A0AE6E1F1E00E94090B0E940D0B97
:1003580039F0E4E00E94190B19F41C3308F41F5F0C
:10036800E5E00E941E0B39F0E5E00E94190B19F434
:100378001B3008F01150E3E00E941E0B19F1E3E076
:100388000E94190BF9F40E94230BE081E11719F080
:100398000E94230B1083DE01A55ABF4F0D90BC911C
:1003A800A02D189739F4FE01E55AFF4F0024019259
:1003B800008205C0DE01A55ABF4F0E94270B0E948C
:1003C800230B1081B19902C0188101C09ECFEF960E
:1003D8006E9608956B978BE1A0E0B0E0EAEBF0E051
:1003E8000E948D0F1A930A9300E010E0E3E00E9448
:1003F8002D0BEAE1F1E00E94090B93B2E7E0EA93E2
:10040800E1E0EA930E94340AA3E0A09FF001A19FD3
:10041800F00DDE0112960E94030B0E940D0B59F09D
:10042800E4E00E94190B39F4E8E0F0E0E017F10786
:1004380011F00F5F1F4FE5E00E941E0B49F0E5E049
:100448000E94190B29F4002E012A11F001501040C6
:10045800E3E00E941E0B51F0E3E00E94190B31F417
:100468000E94440A1A930A930E947901B19903C021
:10047800689423F801C0C1CF198108816D96089549
:10048800E0918E027E1640F4E0918F02E71520F489
:10049800E0919002E61538F09598929A689421F8C0
:1004A8000E94320B35C0E0918E02E250E71528F425
:1004B800E0919002EE5F6E1660F1959A9298E8943A
:1004C80021F8E0918C026E1620F4E0918D02E61579
:1004D80018F00E94320B1CC0E2B3E261E2BBE0916B
:1004E80089026E1638F420FE04C0E0918B02E715ED
:1004F80008F403C00E943A0B0BC020FC04C0E09132
:100508008A027E1608F405C0E2B3E960E2BB68948B
:1005180020F8E52DE03039F40E943F0BE4E2F1E0E9
:100528000E94440B57C0E130B9F40E943F0BE8E445
:10053800F1E0FA93EA93E09189020E946B0BE09153
:100548008A020E946B0BE0918B020E946B0B8CE07D
:100558000E94BF0960963EC0E23099F40E943F0BAA
:10056800E7E6F1E0FA93EA93E0918C020E946B0BC4
:10057800E0918D020E946B0B88E00E94BF092C96C7
:1005880029C0E330B9F40E943F0BE5E8F1E0FA93A3
:10059800EA93E0918E020E946B0BE0918F020E9419
:1005A8006B0BE09190020E946B0B8CE00E94BF09DC
:1005B800609610C0E43071F40E943F0BEEE9F1E060
:1005C800FA93EA93E09191020E946B0B84E00E94F7
:1005D800BF0928960E94FE0A0E943F0B0E94740AD7
:1005E8000895E09191026E1620F4E0918D02E615CF
:1005F80018F00E94320B1CC0E2B3E261E2BBE0914A
:100608009102E61538F020FE04C0E0918B02E71550
:1006180008F403C00E943A0B0BC020FC04C0E09110
:100628008A027E1608F405C0E2B3E960E2BB68946A
:1006380020F80E943F0BE7EBF1E00E94440B0E9478
:10064800FE0A0E943F0B0E94740A08950A921A92A9
:10065800FA926A937A938A939A93AA93BA93EA93AB
:10066800FA93EFB7EA930E94710B4394EAE0E4151A
:1006780050F4E9B7EF7EE9BF5524969AE4E6F0E036
:100688000E94750B9698E991EFBFF991E991B9919C
:10069800A9919991899179916991F9901990099005
:1006A8001895EEE00E942D0B24FE06C0E7E1F1E06C
:1006B8000E94090BE89405C0EAEDF1E00E94090BDD
:1006C800689424F80895679787E1A0E0B0E0E6ED24
:1006D800F0E00E948D0F0E94790B0E94790BE1B324
:1006E800E960E1BBE0E0E2BBE1B3E261E1BBE0E08D
:1006F800E2BBE1B3E462E1BBE0E2E2BBE8E3E5BB15
:10070800E4B3E77CE4BBE4B3E06CE4BBE5B3E06CE2
:10071800E5BB8E9AE0E0E8BBEFBDE4E0EEBD0E94E9
:10072800710BE0E0E7BDE6BDEAE7EBBDE2E1EABD5B
:10073800E0E0E9BDE8BDEBBFE5BFE9B7EF7EE9BFA3
:10074800E0E8E8B9E0E0E0BF7894E0E1EA930E94ED
:10075800A60AE1E00E942D0BFE0139960E94880B43
:100768000E94440AE4E00E942D0BFE010E94880BBF
:10077800E0E00E948F0B59F00E94440AEDEDF1E091
:100788000E94090B0E943A0B0E949A0BFFCFE1E0EE
:100798000E948F0B59F00E94440AE6EFF1E00E9494
:1007A800090B0E943A0B0E949A0BFFCFB09902C026
:1007B80022FE01C002C0689422F8B09B02C022FC4D
:1007C80001C009C0E89422F8EEE00E942D0BE7E191
:1007D800F1E00E94090BE0E0EA93E1E8F2E0FA9325
:1007E800EA93BED11E2FE1E0EA93E5E8F2E0FA933E
:1007F800EA93B6D10E2F103019F4003009F441C035
:100808000E943A0B20F8E2B3ED7EE2BB9598929AEB
:10081800AF980E94440A103011F0003009F405C066
:10082800E0E1F2E00E94090B25C0103049F00E9477
:100838003F0BE5E2F2E0FA93EA930E94A40B0AC0A8
:100848000030A1F00E943F0BEEE3F2E0FA93EA9346
:100858000E94AD0B0E94B90DEFEDF0E060E070E092
:100868000E94B90D88E00E94BF092C960E943F0B98
:100878000E94740A22FE02C00E945503E8ECF0E0D0
:100888006FC0E72DA0918102B0918202809183020E
:10089800909184020E94B60B19F00E94C70B09F4CC
:1008A80005C00E94AD0B0E94050E7E2EE62DA0917C
:1008B8008502B091860280918702909188020E94F9
:1008C800B60B19F00E94C70B09F405C00E94A40BCF
:1008D8000E94050E6E2E22FC3CC0A0918E02E72DD0
:1008E800EA1BE23010F021FC01C005C0AF9AAE98B7
:1008F8000E94F5022DC0E5B3E06CE5BBB19902C0DA
:1009080023FE01C012C0E9B7EF7EE9BFE3E0E515B9
:1009180010F4552407C053940E94710B4424E9B77E
:10092800E061E9BF969A689423F8B19B03C0969852
:10093800E89423F8E3E00E941E0B41F0E3E00E94F4
:10094800190B21F40E94440A0E94EE010E944402FD
:100958000BC0AF980E94F5020E945503E6E9F0E04B
:10096800FA93EA930E94C90C21CFFFCF14B20E94D8
:10097800CF0BE095E121E4BB089514B20E94CF0BA0
:10098800E129E4BB089515B20E94CF0BE095E1215F
:10099800E5BB08951A930E94D40B80EC93E001976D
:1009A800F1F70E94BA0480EA8A95F1F70E94D80B01
:1009B8001E2F88E493E00197F1F70E94D80B1E17C9
:1009C80011F4E1E027C0E0E025C00E94D40B83E0E9
:1009D8008A95F1F7E881E03011F00E94BA0480EAC4
:1009E8008A95F1F70E94BA04219608951A9310E0A7
:1009F8000E94D40B83E08A95F1F70E94BA0485E23D
:100A08008A95F1F70E94D80B09F011E088E78A95DA
:100A1800F1F7E12F199108951A930A9300E018E06D
:100A2800E12F1150E03041F006950E94FA04E79555
:100A3800E0E0E7950E2BF4CFE02F09911991089586
:100A48001A9318E0E12F1150E03049F0E981E17084
:100A5800EA930E94E904E981E695E983F3CF1881D6
:100A6800229608950E94810F20E010E0EC811E1765
:100A7800C8F4AD81BE81EE27A10FBE1F0C9130E0F6
:100A8800383070F4E22FE027E17031F0E8E1E22736
:100A9800E695E0682E2F01C0269506953F5FF0CFBA
:100AA8001F5FE4CFE22F0E94880F27960895E88100
:100AB800E295E07FEE0FEF61E883EB81E03011F023
:100AC800882402C0E1E08E2E0E94CE04E03011F0AE
:100AD800E1E01FC00E94DB0BEEE4EA930E942405CC
:100AE800E981EA930E942405EA81EA930E94240599
:100AF800E881EA930E9424050E94CE040E94DB0B41
:100B0800E8E4EA930E942405EFE0F0E00E94750B08
:100B1800E0E0249608950E94810F10E022E932E077
:100B28003F932F932F5F3F4F0E941005AF91BF91C6
:100B3800EC931F5F1930A0F3E2E9F2E0FA93EA932D
:100B4800E8E0EA930E943605AE2FE0919A02EA1790
:100B580011F0E1E001C0E0E00E94880F24960895BA
:100B6800289788E0A0E0B0E0EEEEF0E00E948D0F5C
:100B78000E947F0FE889E03011F0882402C0E1E08C
:100B88008E2E0E94CE04E03011F0E1E064C00E9495
:100B9800DB0BE4E4EA930E9424050E94FA04E030A7
:100BA800E1F30E94CE040E94DB0BEEEBEA930E9475
:100BB80024050E948F05E03011F0E1E04CC00E944E
:100BC800CE04E0919602E295EF70E695E3703E2F31
:100BD800409192025527F0919302E0E04E2B5F2B53
:100BE80057FF08C021E0EFEFFFEF4E275F274F5F69
:100BF8005F4F01C020E0FA010E94260D1E2FE32F4F
:100C0800F0E0DE011696EE0FFF1FAE0FBF1F0E9429
:100C1800A40DE423F5230E2F0E94DF0BA0E0B0E023
:100C280080E89DE30E94C40EA12FBB27882799273F
:100C38000E94C00D0E94760EAE85BF850E94AE0D43
:100C4800203041F0AE85BF850E94A80D0E94D00DCE
:100C58000E94AE0DE0E00E94860F619608955F9BAA
:100C6800FECFECB108955D9BFECFE881ECB92196EB
:100C780008951A930A93AC81BD810E94A40D309700
:100C8800C1F0AA81BB810E94A40D8F01309749F061
:100C98000230E0E01E0760F0F80131978F01ED9314
:100CA800FC93AC81BD810E94270B3197AE81A08354
:100CB80004C0EE81EA930E943706198108812796BD
:100CC800089524971A930A93A885A73010F0E6E0B0
:100CD800E887E885A6EFB0E0F0E00E94210DEA0F72
:100CE800FB1F0E94B30D0E94E60B0E94760E0E9425
:100CF800EB0B10E0E0E0F0E060E87FE30E94F00B2F
:100D08000E94F50B0E94570F40F00E94FA0B0E94B8
:100D1800C40E0E94F00B1F5FF3CF103029F40E941D
:100D2800030CE0E3EC9327C0E12F1150E03019F1F8
:100D38000E94FA0B0E940A0C0E94F00B0E94F50B0D
:100D48000E94120F0E94050E0E2F0E94030CE02F26
:100D5800E05DEC93E02FAA81BB818C819D81FF2708
:100D6800662777270E943C0E0E94C40E0E94E60B5D
:100D78000E94160CD9CFE885E03029F4AE81BF81F6
:100D8800E0E0EC932AC00E94030CEEE2EC93E885C5
:100D9800E150E887EF5FE9F00E94E60B0E941B0C28
:100DA8000E94EB0BE985FA856B857C850E94030E12
:100DB8000E2F0E94030CE02FE05DEC93E02F0E94C1
:100DC800E60BFF27662777270E943C0E0E94160C29
:100DD800DECFAE81BF81E0E0EC93198108812D96CA
:100DE800089524970E94810FE0E0F0E060E87FE337
:100DF8000E94220CAB85A73010F0E6E0EB871B853C
:100E0800E12F1150E03029F00E94270C0E94220C9B
:100E1800F7CF0E942C0C0E94770F31F430E00E942B
:100E2800270C0E94220C34C03B850E94310C09F02B
:100E380010F40C942C070E94270C0E94220C0E948C
:100E4800310C28F00E943C0C0E94410CF8CF0FC0D6
:100E58000E94310C40F40E943C0C0E941B0C0E9422
:100E68004D0C3150F5CF0E94270C0E94220C0E9495
:100E78002C0CA0E0B0E080E09FE30E94760E0E9478
:100E88004D0C0E94310C20F00E943C0C0E94410C39
:100E980010E0EB85E117A8F1AC81BD818E819F81BF
:100EA800E0E0F0E060E271E40E940A0C0E94220C8B
:100EB800EC81FD816E817F810E943C0C0E94120FA3
:100EC8000E94050E0E2F0E94520CE02FE05DEC935D
:100ED8000E94DF0BAC81BD818E819F810E94C40E70
:100EE8000E943C0C0E94C30D0E946F0E0E944D0C84
:100EF800E12F1F5FE03069F60E94520CEEE2EC939E
:100F0800C8CF0E94590CAA85A08330302CF40E94C7
:100F1800520CEDE2EC9331953A3054F00E94590CA2
:100F2800BF01A32FEAE00E945B0DE05DDB01EC93BB
:100F38000E94590CBF01A32FEAE00E94850DE05DD5
:100F4800DB01EC93A885B985E0E0EC930E94880F5B
:100F580060960895EF972F970E947F0F10E0FE018B
:100F6800EC5AFF4F0190F081E02DE88BF98BDE0100
:100F7800A65ABF4F0E94270B3197E4912E2FE030DD
:100F880011F40C94BA09E12FE03039F4253211F448
:100F980011E002C00E94600CE8C1E130C1F42532C2
:100FA80019F40E94600CE0C112E0E0E0EB8B00E075
:100FB8002D3211F401E0D9C12B3219F4EBE2EB8B9D
:100FC800D4C1203219F4E0E2EB8BCFC102C0E23089
:100FD80039F450E013E0203311F40068C6C102C0B0
:100FE800E330A1F4203310F02A3308F009C0A52F0C
:100FF800EAE0EA9FF0015E2FE22FE0535E0FB5C1F1
:1010080040E02E3211F414E0B0C111C0E430A9F46C
:10101800203310F02A3308F00AC00062A42FEAE057
:10102800EA9FF0014E2FE22FE0534E0F9EC12C365F
:1010380019F4026015E099C104C0E53011F00C9470
:10104800B909E22FE33631F40E946F0CE4810E9463
:10105800780C8AC1E53411F0E53609F404C0E636A7
:1010680011F00C947F08FE017496EA87FB870E94B2
:101078006F0C3496DF010E94A80D0E94870CDF01D7
:10108800CB010E947B0F24F0AB89AB3249F012C030
:101098000E948C0C0E94D00D0E94870CEDE2EB8B15
:1010A80007FF04C0EB890E94780C04C00E94910CD1
:1010B800AB89A08305FF46E0263661F40E948C0CBC
:1010C8000E94B90D4A93EF85F889FA93EA930E9432
:1010D80065060CC00E948C0C0E94B90D4A932A9395
:1010E800E889F989FA93EA930E94F506FE01749655
:1010F8000E94980C1EC0E33739F40E946F0C0E94BE
:10110800A00C0E94980C0EC0E037C1F40E946F0C2E
:101118000E94A00CEA87FB87FA93EA930E94E70AE9
:101128001E2F08600F77403011F0411708F001C0FA
:10113800142F40E0E0E0EA8B30E06FC0E43611F0B5
:10114800E93611F4046002C0E537A1F4EAE0EA8B5D
:1011580001FF08C0E0E0FAEC6AE97BE30E944D0C6D
:101168001AE023C0E0E1F7E260E070E00E944D0C75
:1011780015E01BC0E83511F4086004C0E83711F029
:101188000C94B809E0E1EA8B01FF08C0E0E0F0E068
:1011980060E070E10E944D0C18E007C0E0E0F0E16B
:1011A80060E070E00E944D0C14E0403011F00F77C1
:1011B80001C041E001FF07C00E946F0C3496DF01B7
:1011C8000E94A80D0FC002FF07C00E946F0C0E946A
:1011D800A00C0E94350D06C00E946F0C0E94A00C46
:1011E80066277727EE83FF836887798702FF14C015
:1011F8000E94A50C0E947B0F44F40E948C0C0E9454
:10120800110D0E94870CEDE2EB8BEB89E03019F0B1
:101218001F5F4F5F01C00B7F342F00FD14C01517EF
:1012280010F4351708F00FC007FF08C002FF04C00C
:101238000B7F2B89115001C020E301C020E20E94DE
:10124800600C5150ECCF141788F4006102FF06C0FF
:101258000E94AA0C09F0515011504150E0E30E943D
:10126800780C503009F051504150EDCF312FEA89B8
:10127800E03011F53030F9F003FF04C00E94910C02
:10128800E49105C0AA85BB85ED91AA87BB87EA933F
:10129800FE01E95AFF4F0190F081E02DFA93EA939D
:1012A800FE017396FA93EA930E943D06503009F0C6
:1012B80051503150DFCF4FC00E942C0C0E94A50C1A
:1012C8000E94600D2E2F2A3030F003FF02C0295CE7
:1012D80001C0295A01C0205D04FD1FC0213350F40C
:1012E8000E943C0CA130E0E0BE07E0E08E07E0E0A1
:1012F8009E0709F40BC0431740F4531710F000FF82
:1013080001C010C020E207FF08C020E3006102FF0F
:1013180004C00E94AA0C09F051500E94600C503081
:1013280009F0515031500E942C0C0E94A50C0E94CB
:10133800940D0E94870CEA890E943C0CFF276627BF
:1013480077270E94600D0E944D0C0E942C0C0E9471
:10135800770F09F0B1CF00FF07C0503029F0515086
:10136800E0E20E94780CF9CF10E001CE0E94860FCF
:10137800EF966D960895FF92F82E22971A930A9386
:10138800DE010E940D0D8D01DE0116960E940D0DE5
:101398000E94A40DEA83FB83DE0114960E940D0DC2
:1013A8000E94A40DFA93EA931A930A93FE013696C3
:1013B800FA93EA93E0E0F0E0FA93EA930E94AE072A
:1013C800AA81BB81E0E0EC93198108812496FF9003
:1013D8000895FFE0FA95F1F70895AAB3AF70AABB94
:1013E800D99AD8980E94ED09DA9A0E94ED09A9B312
:1013F800DA980E94ED09DA9A0E94ED09DA98A7FDB9
:10140800F1CF0895A07FAB2BABBBDA9A0E94ED0910
:10141800DA980E94ED090895D998AAB3A76FAABBD4
:10142800BBB3BF70A8810E94060AA881A2950E943A
:10143800060AD99A21960895DA9A0E94ED09E9B325
:10144800DA980E94ED09E07F08950E94ED090E9454
:10145800200AAE2F0E94200AD998E295EA2B089517
:101468000E94F109E881F0E0E556FD4FE081A9818D
:10147800EA0FEA930E94100AB980A880229608957C
:101488000E94F109E2E0EA930E94100A0E94F10921
:10149800ECE0EA930E94100A0E94F109E1E0EA9365
:1014A8000E94100AE0E0AE2EBE2E0895EF93FF933F
:1014B800A8816894AA3021F0E894B394DB1438F436
:1014C800A394E0E0EA93AA920E94340A2EF085DF02
:1014D800D89AA881AA93A0DFFF91EF912196089549
:1014E8001A93A981BA81ED91A983BA831E2FE0309E
:1014F80021F01A930E945A0AF4CF188110C01A9347
:10150800E981FA813196E983FA833197E4911E2FB4
:10151800E03021F01A930E945A0AF2CF18812396DC
:101528000895AA27BB271197F1F70895D998AAB368
:10153800A76FAABBBBB3BF70A8810E94060AD99A3D
:1015480021960895DA98D898D880E881E058E093F1
:101558009D02E881E054E0939E020E94BE0C0E9426
:10156800BE0C0E94BE0C0E94950AE0E2EA930E941B
:101578009A0A0E94950AE8E20E94C40CE4E00E94DC
:10158800C40CE5E80E94C40CAAB3AF70AABBD99AF0
:101598000E94290AE53011F0E0E009C00E94F10933
:1015A800E6E0EA930E94100A0E94440AE1E02196CC
:1015B8000895A991B991EE27FF276D91662311F03F
:1015C8003196FBCF0895AA27BB27E991F991059099
:1015D800002011F01196FBCFFD010895A1E00E94B3
:1015E800190DE1210895FE01E55AFF4F0190F081A0
:1015F800E02D0895E0E0EA93EA930C94340AEA0FA8
:10160800FB1FFA93EA930C94740AFA93EA930C94E6
:10161800830AE2E3F0E0FA93EA930E94C90CE4E05B
:10162800EA930E946901E0300895EA930E947001EC
:10163800E0300895EA930E946901E0300895D3DF0D
:10164800E757FD4F0895ED91FD913196FE93EE9386
:101658000895EA93E0E0EA930C94340AE2B3ED7E4D
:10166800E2BBE2B3E67FE2BBE8940895E2B3E67F2B
:10167800E2BBE8940895E0E6F2E0FA93EA9308956D
:10168800FA93EA93E0918102F091820260918302D9
:10169800709184020E94B90DEFEDF0E060E070E017
:1016A8000E94B90DE0918502F0918602609187024F
:1016B800709188020E94B90DEFEDF0E060E070E0F3
:1016C8000E94B90D80E10E94BF0964960895FF2722
:1016D800662777270E94B90D0895E0E0EDBDECBDBF
:1016E8000895FA93EA930C94C90C18B2E6B3A1E0F2
:1016F8000E94190DE129E8BB17B2E6B30E94190D43
:10170800E095E121E7BB0895FA93EA930E94740AF1
:10171800E8EEF3E0E6CFEA93E9ECEA93EDE7EA9343
:10172800E0E0EA930E945B05E030089520F8E2B318
:10173800ED7EE2BB9598929AE5B3EF73E5BB089509
:10174800E0918502F091860260918702709188028B
:101758000895E0918102F091820260918302709174
:1017680084020895FF27662777270E943C0E0E946F
:10177800C30D0E946F0EE030A0E0FA07A0E06A07F0
:10178800AFE37A070895E030A0E0FA07A0E06A071F
:10179800AFEB7A070895E82DA1E00E94190D08958E
:1017A8000E94C7040C94C10413B2E82D17CFECECC7
:1017B800EA930C942405E02FFF27662777270E94D9
:1017C8003C0E0895A985BA858B859C850895E9877F
:1017D800FA876B877C870895EA83FB836C837D8314
:1017E8000895EA81FB816C817D81ECCFAA81BB8160
:1017F8008C819D81E0E0F0E060E271E40895AE81C3
:10180800BF811196AE83BF83119708950E94120F6E
:10181800A0E0B0E080E09FE30E94760E0E94B90D40
:101828000C94040D0E94C30D0E946F0ED0CFE0E00F
:10183800F0E060E271E40E94C40E0895EC83FD8339
:101848006E837F830895AC81BD818E819F81EFCFA8
:10185800EC85FD856E857F850895EC81FD816E811F
:101868007F81AC85BD858E859F850E94570F089521
:10187800AC85BD858E859F850895E0E0F0E060E247
:1018880071E40E94120FEC87FD876E877F873F5FA8
:101898000895EC87FD876E877F870895A885B985A9
:1018A8001196A887B98711970895E885F985319623
:1018B800E887F987319708952A93FE01E95AFF4F7F
:1018C8000190F081E02DFA93EA93FE017396FA9362
:1018D800EA930C943D06DE01A85ABF4FED91FD91A5
:1018E8003497FE93EE930895EA93FE01E95AFF4F69
:1018F8000190F081E02DFA93EA93FE017396FA9332
:10190800EA930C943D06EE83FF83688779870895F0
:10191800EE81FF81688579850895EA85FB85319692
:10192800EA87FB8731970895EA87FB87FA93EA935A
:101938000E94DD0A1E2F08953496DF010E94A40D2F
:101948000895AE81BF818885998508950B7FEB89BD
:10195800EA93FE01E95AFF4F0190F081E02DFA93D6
:10196800EA93FE01E95AFF4FFA93EA930E943D0673
:10197800503008950E94950AE0E3EA930C949A0A7D
:10198800EA930E94100A0C94950AE991F99130960D
:1019980039F080ED97E00197F1F7A8953197C9F7ED
:1019A80008957B816A81F981E88177FB770F67FD6C
:1019B8007160972F9E5781F078F0983190F4AA279C
:1019C800BB27882708948795B795A7959A95D1F747
:1019D800EA23FB23682305C0E8947727EE27FF272F
:1019E80066276F77769508F4606877F9A991B991B9
:1019F80089919991EA17FB076807790797FB08957A
:101A0800D0DF09F40895F6F79FEBAA27BB2780E8F3
:101A180069C10024AF0DB01D0895F09560957095CB
:101A2800E195FF4F6F4F7F4F0895EE230E2EEA2F5B
:101A380019F0EE0F0A94E9F70895EE0FFF1FEE0F65
:101A4800FF1F0895F695E795F695E795F695E795BE
:101A5800F695E7950895FE2FFF0FFF0B6F2F7F2F49
:101A680008956F2F660F660B762F0895BA2FBB0F58
:101A7800BB0B8B2F9B2F0895EE23E1E009F0EE2797
:101A88000895FA9FF02DEB9FF00DEA9FE02DF10DE0
:101A98000895002498E0AA0F001C0E1A10F40E0EE8
:101AA80001C0A1609A95B9F7EA2FA02D08953CD0FE
:101AB800F0DF0EF4E19508953F934F935F93002470
:101AC80011244427552730E2AA0FBB1F881F991FEE
:101AD800001C111C441F551F0E1A1F0A460B570BDA
:101AE80028F40E0E1F1E461F571F01C0A1603A950D
:101AF80059F7FD01BC01D001CA015F914F913F9197
:101B08000895E894A7FF02C0A1956894E7FDE195C0
:101B1800C0DFEA2F0EF4E1950895BBDFEA2F0895A0
:101B2800CBDFFD01BC010895E894E7FF02C0E19511
:101B38006894A7FF04C0A19500F8039400FA0895DB
:101B4800ED91FC9111970895ED91FD916D917C9126
:101B580013970895ED93FD936D937C9308950590E5
:101B6800159065917491F00108957A936A93FA93A8
:101B7800EA930895689401C0E89401D07AD0182EA9
:101B8800862F612D192E972F712D1B2EBF2FF12D0A
:101B98001A2EAE2FE12D089530976040704009F05D
:101BA80070580895552342F4503811F4E0FF04C0EA
:101BB8003196691F791F6BF050E8572711F45F932E
:101BC800CDC05F3F31F0660F000C57956795752FB4
:101BD80008955F9300200AF0CDC0C6C050E8192EC2
:101BE8001522880F991F9527550F879550E8072EBE
:101BF8000522660F771F7527550F67950895689416
:101C080001C0E8945F93F2DF703818F07F3F08F462
:101C1800A5C056E1571BAAF4519558300EF4593017
:101C280030F0EFEFFFEF6FEF7FE777F91AC0772714
:101C38005523B9F0EE0FFF1F661F771F5A95D1F78E
:101C480010C07727583028F0EF2FF62F672F5850FD
:101C5800F9CF552331F076956795F795E7955A951D
:101C6800D1F700200AF4D9DE5F910895689401C085
:101C7800E894309760407040B1F0002426F0772354
:101C880012F40094CADE172E7EE1112032F07A9504
:101C9800EE0FFF1F661F111CF9CFEF2FF62F612DD6
:101CA8005F938ADF5F9108954F93AF01FD01DA01D9
:101CB800AB01BC01CA01402D012C142E4F9108958F
:101CC800EA0FFB1F681F0895E095F0956095EF5F98
:101CD800FF4F6F4F08955F9381DF903871F150E89F
:101CE800152604C05F937ADF903839F1703821F1F6
:101CF800572F591B13F112F4D7DFFACF583118F0C8
:101D0800AA27BB278827583028F0AB2FB82F882759
:101D18005850F9CF552329F08695B795A7955A9528
:101D2800D9F7502D512562F0CBDF38F46795F79538
:101D3800E795739513F41EC0B7DF3EDF5F910895F2
:101D4800EA1BFB0B680B51F010F40094BDDF66230F
:101D5800A2F3EE0FFF1F661F7A95CBF7EE27FF273A
:101D6800662777275F910895EFEFFFEF6FE77FEF23
:101D78005F910895EFEFFFEF6FE77FE75F910895B9
:101D88005F932CDF703851F3903841F301240894A5
:101D9800791F23F41CF300203AF3ECCF0F921F9322
:101DA8002F933F934F93112722279927689FA001CC
:101DB8008F9F302D410D591F6B9F300D411D591FAD
:101DC8008E9F27D0BF9F25D06A9F23D0BE9F1DD04E
:101DD800AF9F1BD0AE9F110D291F391F491F591FD7
:101DE800E32FF42F652F522F4F913F912F911F9181
:101DF8000F9066232AF0550FEE1FFF1F661F02C0C3
:101E080073954BF2CFDE5F910895100D211D391F98
:101E180002C0200D311D491F591F08955F93DEDE52
:101E2800703821F411200AF49FCFA4CF903809F418
:101E380095CF01240894970B1BF4D4F30020F3CF1B
:101E4800792F1F932F933F934F9311241127222704
:101E580033274427552790E2AE17BF078607410767
:101E680030F0AE1BBF0B860B410B089401C0889461
:101E7800551F221F331F111CAA1FBB1F881F441F79
:101E88009A9551F7F901612D4F913F912F911F912B
:101E9800662332F0550FEE1FFF1F661F7A9543F237
:101EA80081DE5F91089599239AF0772342F097177E
:101EB80048F029F4AE17BF07860720F031F0989450
:101EC8008894089598940894089518948894089587
:101ED8007723C2F7971798F3A9F7EA17FB0768075C
:101EE80088F399F3ECCF30976040704008951097CD
:101EF8008040904008955A934A933A932A931A93AC
:101F08000A9308955D814C813B812A81198108815A
:101F18000895AC0FBD1F05900D928A95E1F70895BD
:00000001FF
