:100000000C94AB000C94C0000C94C0000C94C00085
:100010000C94C0000C94C0000C94C0000C94C00060
:100020000C94C0000C94C0000C94C0000C94C00050
:100030000C94C0000C94C0000C94C0000C94C00040
:100040000C94C0000C94C0000C94C0000C94C00030
:100050000C94C0006E616E00696E660000407A10FC
:10006000F35A00A0724E18090010A5D4E80000E869
:100070007648170000E40B54020000CA9A3B0000C7
:1000800000E1F505000080969800000040420F0056
:100090000000A08601000000102700000000E80317
:1000A000000000006400000000000A0000000000E2
:1000B0000100000000002C76D888DC674F0823DFA1
:1000C000C1DFAE59E1B1B796E5E3E453C63AE65174
:1000D000997696E8E6C28426EB898C9B62ED407C9B
:1000E0006FFCEFBC9C9F40F2BAA56FA5F490055A37
:1000F0002AF75C936B6CF9676DC11BFCE0E40D475C
:10010000FEF520E6B500D0ED902E0300943577057E
:100110000080841E080000204E0A000000C80C3336
:100120003333330F986E12831141EF8D2114893BC5
:10013000E65516CFFEE6DB18D1844B381BF77C1D45
:10014000901DA4BBE424203284725E228100C9F198
:1001500024ECA1E53D2711241FBECFE5D8E0DEBF8A
:10016000CDBF10E0A0E6B0E0E0E4F7E102C005900A
:100170000D92AC39B107D9F70E94C2000C949E0BC6
:100180000C9400008F929F92AF92BF92CF92DF9219
:10019000EF92FF921F93DF93CF93CDB7DEB7A19776
:1001A0000FB6F894DEBF0FBECDBF0E9447010E947C
:1001B00077030E944F040E94BD0380E690E00E94F6
:1001C000D40380E197E220E931E0F9013197F1F7BA
:1001D0000197D9F70E94BD0380E060E00E94C5034B
:1001E00084E790E00E94D40380E197E220E931E0C7
:1001F000F9013197F1F70197D9F70E94BD03EE2479
:10020000FF246E010894C11CD11C94E8892E90E053
:10021000992E80E9A82E81E0B82E36C0C7010E9431
:10022000BE01182F80E060E00E94C5038DB79EB725
:1002300008970FB6F8949EBF0FBE8DBFEDB7FEB7FF
:100240003196ADB7BEB71296DC92CE9211979382DB
:100250008282F582E482168317820E941C0B8DB77E
:100260009EB708960FB6F8949EBF0FBE8DBFC6010D
:100270000E94D40388EE93E0F5013197F1F70197DE
:10028000D9F70894E11CF11CF7FEC8CFFFCF11B8D5
:1002900088E480B90895982F84EA86BF06B607FEE1
:1002A000FDCF81B1887F883021F0803111F081E06D
:1002B000089593B984E886BF06B607FEFDCF91B1D5
:1002C000987F983111F480E0089580E0903409F02F
:1002D00081E0089544EA34E824E946BF06B607FE03
:1002E000FDCF91B1987F983011F09031B1F783B97B
:1002F00036BF06B607FEFDCF91B1987F903211F060
:10030000983529F426BF06B604FCFDCFE6CF089544
:100310000E944B01089584E986BF089583B984E85B
:1003200086BF06B607FEFDCF81B190E0887F883298
:1003300009F091E0892F089584EC86BF06B607FE88
:10034000FDCF83B1089584E886BF06B607FEFDCFD2
:1003500083B10895813059F484EC86BF06B607FE58
:10036000FDCF81B1887F803539F080E0089584E841
:1003700086BF06B607FEFDCF83B108950F931F9386
:100380008C0180EA0E944B01812F0E948E01802FF8
:100390000E948E0181EA0E944B0180E00E94AA0126
:1003A000182F0E948B01812F1F910F910895CF92DA
:1003B000DF92EF92FF920F931F93DF93CF9300D0C2
:1003C00000D0CDB7DEB77B018E010F5F1F4F81E1FB
:1003D000C82ED12CCC0EDD1EC7010E94BE0190E0BC
:1003E000A0E0B0E0BC01CD010E948B08F801619350
:1003F0007193819391938F010894E11CF11CEC158A
:10040000FD0551F729813A814B815C81B901CA010F
:100410000F900F900F900F90CF91DF911F910F9140
:10042000FF90EF90DF90CF900895FF920F931F936E
:10043000182F092FF62E80EA0E944B01802F0E9470
:100440008E01812F0E948E018F2D0E948E010E94AD
:100450008B0180E29EE40197F1F71F910F91FF90CD
:100460000895CF92DF92EF92FF920F931F93DF9345
:10047000CF9300D000D0CDB7DEB781E0898382E092
:100480008A8383E08B8384E08C8300E010E06E013C
:100490000894C11CD11C25E0E22EF601E00FF11FEB
:1004A000C80160810E94150295E0F92E8E2D8A9573
:1004B000F1F70F5F1F4F0430110579F780E090E0EE
:1004C0000E94BE018F2D8A95F1F781E090E00E9495
:1004D000BE018F2D8A95F1F782E090E00E94BE0167
:1004E0008F2D8A95F1F783E090E00E94BE019F2D49
:1004F0009A95F1F70F900F900F900F90CF91DF9199
:100500001F910F91FF90EF90DF90CF900895CF92C1
:10051000DF92EF92FF920F931F93DF93CF9300D060
:1005200000D0CDB7DEB729833A834B835C837E014D
:100530000894E11CF11C8B0131E1C32ED12CCC0EAF
:10054000DD1EF70161917191819191917F010E946E
:100550005F089B01AC01C801622F0E9415020F5F6A
:100560001F4FEC14FD0469F70F900F900F900F9040
:10057000CF91DF911F910F91FF90EF90DF90CF907F
:1005800008950197F1F70895AF92BF92CF92DF924D
:10059000EF92FF920F931F935B016C0120E030E01C
:1005A0004AE755E40E9419097B018C0120E030E004
:1005B00040E85FE30E945B0888231CF461E070E080
:1005C00024C0C801B70120E03FEF4FE757E40E9485
:1005D00015091816B4F4C601B50120E030E040E278
:1005E00051E40E9419090E945F0880E991E005C06A
:1005F000FC013197F1F76150704061157105C1F749
:1006000007C0C801B7010E945F08CB010197F1F74D
:100610001F910F91FF90EF90DF90CF90BF90AF9020
:100620000895AC0120E001C02F5FFA01E20FF11D37
:1006300080818823C9F7822F08950F931F93082F75
:10064000807F8BBBD89ADA9A60E070E080E89FE305
:100650000E94C402DA98D89860E070E080E89FE3D6
:100660000E94C40210E084E0000F111F8A95E1F798
:100670000BBBD89ADA9A60E070E080E89FE30E94B2
:10068000C402DA98D89860E070E080E89FE30E94A6
:10069000C4021F910F9108950F931F93082F807F1D
:1006A0008BBBDA9A60E070E080E89FE30E94C402AE
:1006B000DA9860E070E080E89FE30E94C40210E0F6
:1006C00094E0000F111F9A95E1F70BBBDA9A60E0F6
:1006D00070E080E89FE30E94C402DA9860E070E076
:1006E00080E89FE30E94C4021F910F9108951F9319
:1006F00060E070E080E791E40E94C4021BBA1BBA7C
:100700008AB3806F8ABB8AB387608ABB10E31BBB46
:10071000DA9A60E070E080E89FE30E94C402DA9811
:1007200060E070E080E89FE30E94C4021BBBDA9A9D
:1007300060E070E080E89FE30E94C402DA9860E025
:1007400070E080E89FE30E94C40280E28BBBDA9AEB
:1007500060E070E080E89FE30E94C402DA9860E005
:1007600070E080E89FE30E94C40288E20E944C038C
:100770008EE00E944C031F91089581E00E944C037B
:10078000089582E00E944C030895623031F0633096
:1007900031F0613029F4805C03C08C5E01C08C5A5A
:1007A00080680E944C0308951F93CF93DF93EC0160
:1007B000009791F010E00AC08A3029F480E061E0EF
:1007C0000E94C50302C00E941D031F5FFE01E10FCE
:1007D000F11D8081882381F7DF91CF911F910895CA
:1007E0001F93CF93DF93EC01862F642F0E94C503E4
:1007F00010E003C00E941D031F5FFE01E10FF11D09
:1008000084918823B9F7DF91CF911F910895EF92DA
:10081000FF920F931F93CF93DF937C01162F110F3D
:10082000110F110F1064C0E0D0E0F701EC0FFD1FB5
:100830000491812F8C0F0E944C03802F0E941D0376
:100840002196C830D10589F7DF91CF911F910F9183
:10085000FF90EF9008950F931F93082F10E004C0AE
:100860008EE10E944C031F5F1017D0F31F910F9170
:1008700008950F931F93082F10E004C088E10E9491
:100880004C031F5F1017D0F31F910F9108958EE056
:100890000E944C0308958FE00E944C0308958CE061
:1008A0000E944C03089588E00E944C0308958CE058
:1008B0000E944C0308950F931F93082F10E004C06B
:1008C00080E10E944C031F5F1017D0F31F910F911E
:1008D00008950F931F93082F10E004C084E10E9435
:1008E0004C031F5F1017D0F31F910F910895EF92E3
:1008F000FF920F931F93DF93CF9300D000D00F92FE
:10090000CDB7DEB79C018B01FE01319685E0DF019A
:100910001D928A95E9F7FE0135960DC0C9016AE07E
:1009200070E00E94A4098083C9016AE070E00E941F
:10093000A4099B0131972115310581F7BFEF0F3FC6
:100940001B0779F420E030E0AE014F5F5F4F02C03B
:100950002F5F3F4FFA01E20FF31F80818823C1F31D
:1009600004C025E030E0201B310B7E010894E11C1F
:10097000F11CE20EF31E890108C0F70181917F018D
:10098000805D0E941D030F5F1F4F05301105ACF302
:100990000F900F900F900F900F90CF91DF911F91BC
:1009A0000F91FF90EF900895A1E1B0E0EAEDF4E03F
:1009B0000C94B7093C017F876E876A01FC0117829E
:1009C0001682838181FD03C06FEF7FEF6FC39E01AD
:1009D0002F5F3F4F398B288BF3012381EE85FF85F5
:1009E00023FD859123FF8191FF87EE87882309F4FA
:1009F0005AC3853251F4EE85FF8523FD859123FF8F
:100A00008191FF87EE87853229F490E0B3010E943F
:100A1000F00AE2CF982F10E0882499241032B0F425
:100A20009B3269F09C3228F4903251F0933271F489
:100A30000BC09D3239F0903349F4116028C0126028
:100A4000146025C0186023C0106121C017FD2AC0A2
:100A5000892F80538A3078F416FF06C0FAE09F9EF3
:100A6000902C1124980E13C03AE0839E802C112400
:100A7000880E10620CC09E3221F416FD14C310645F
:100A800006C09C3611F4106802C0983659F4EE8501
:100A9000FF8523FD959123FF9191FF87EE87992391
:100AA00009F0BCCF892F8554833020F4812F8061D9
:100AB000905E07C0892F8556833008F09FC1812F33
:100AC0008F7E86FD02C076E0972E6FE3F62EF82229
:100AD000953619F4F0E4FF2A07C0963619F420E899
:100AE000F22A02C091109A94F7FE0AC03BE339152E
:100AF00018F45CE3B52E02C0B92CB39427E009C00A
:100B000047E0491520F4BB2447E0942EF7CF292D68
:100B1000BB24C60104969D878C87F6016081718194
:100B200082819381AE014F5F5F4F0B2D0E94020ABD
:100B30006C010981202E332400FF04C003FD02C094
:100B40001DE209C0F1FE02C01BE205C0F2FC02C0BA
:100B500010E001C010E2C1018C709070892BB9F1D6
:100B6000112311F483E001C084E0881510F088247B
:100B70000AC0881AF3FC07C080E290E0B3010E942B
:100B8000F00A8A94C9F7112329F0812F90E0B3016C
:100B90000E94F00A23FE03C004E510E00EC008E541
:100BA00010E00BC0E114F10409F0805290E0B301B1
:100BB0000E94F00A0F5F1F4F05C0EF2CFF24F0E1E9
:100BC000EF22FF24F8018491882361F714C1F7FE16
:100BD00012C0BC0C24FE04C08A81813309F4BA948B
:100BE0001B141CF0BB24B3942DC0F8E0FB1550F58A
:100BF00038E0B32E27C0F6FC25C0892D90E08C1577
:100C00009D054CF02CEFC2162FEFD20624F030E8F1
:100C1000F32A01C09A94992049F0E2E0F0E0EC0F49
:100C2000FD1FE90DF11D80818033A1F3F7FE0AC09D
:100C3000B92CB394892D90E0C816D90614F09924E4
:100C400001C09C18F7FC03C025E030E009C01C146B
:100C50001D041CF021E030E003C096012F5F3F4FE0
:100C6000112311F02F5F3F4F992029F0892D90E03B
:100C70000196280F391F882D90E02817390714F0A6
:100C8000882401C0821A4F2C5524C20189709070AB
:100C9000892B39F008C080E290E0B3010E94F00A8D
:100CA0008A948820C1F7112329F0812F90E0B301A5
:100CB0000E94F00A43FE07C008C080E390E0B30141
:100CC0000E94F00A8A948820C1F7F7FE46C0860188
:100CD000D7FE02C000E010E076010894E11CF11C90
:100CE000E01AF10A41E050E04C0F5D1FE40EF51EE2
:100CF00026014B185108892D90E0AA24BB24A81A7C
:100D0000B90A5FEF0F3F150729F48EE290E0B301B7
:100D10000E94F00AC016D10634F0401651061CF4A9
:100D2000F701808101C080E3015010400894E11C6C
:100D3000F11C0A151B052CF090E0B3010E94F00A8B
:100D4000E0CF0C151D0539F49A81963318F49533CC
:100D500011F424FE81E390E04BC08A81813309F0D5
:100D60000F7E90E0B3010E94F00A9920A1F08EE27C
:100D700090E0B3010E94F00A12E0E1E0F0E0EC0F35
:100D8000FD1FE10FF11D1F5F808190E0B3010E9404
:100D9000F00A9A9491F744FC03C085E690E002C003
:100DA00085E490E0B3010E94F00AD7FC05C0C114AD
:100DB000D10441F404FF06C0D094C194D108D39467
:100DC0008DE201C08BE290E0B3010E94F00A80E363
:100DD00005C08F5F26EF3FEFC20ED31E3AE0C31669
:100DE000D104BCF790E0B3010E94F00AC601C0969E
:100DF000B3010E94F00ACC84DD8452C1933631F0F5
:100E0000933799F0933509F059C023C0F6018081DA
:100E100089835E010894A11CB11C22E030E0C20E5F
:100E2000D31E21E0E22EF12C12C0F601A080B18089
:100E300016FD03C06FEF7FEF02C0692D70E022E066
:100E400030E0C20ED31EC5010E94E50A7C011F7767
:100E500013C0F601A080B18016FD03C06FEF7FEFD5
:100E600002C0692D70E022E030E0C20ED31EC50141
:100E70000E94DA0A7C01106813FF07C01BC080E2E1
:100E800090E0B3010E94F00A8A94882D90E0E81661
:100E9000F906A8F30FC0F50117FD859117FF8191A1
:100EA0005F0190E0B3010E94F00A81108A940894D7
:100EB000E108F108E114F10471F7F2C0943611F081
:100EC000993689F517FF08C0F601208131814281EA
:100ED000538184E090E00AC0F601808191819C01F9
:100EE000442737FD4095542F82E090E0C80ED91E6C
:100EF0009FE6F92EF12257FF09C050954095309595
:100F000021953F4F4F4F5F4F90E8F92ACA01B90131
:100F1000AE014F5F5F4F2AE030E00E94400BE82EA9
:100F2000E889EE1A41C0953721F41F7E2AE030E0AF
:100F30001CC0197F9F3661F0903720F4983509F076
:100F4000B2C00FC0903739F0983709F0ACC004C078
:100F500028E030E00AC0106114FD146020E130E0A8
:100F600004C014FD166020E132E017FF08C0F6014E
:100F7000608171818281938144E050E008C0F60174
:100F800080819181BC0180E090E042E050E0C40E9D
:100F9000D51EAE014F5F5F4F0E94400BE82E58896F
:100FA000E51A8FE7F82EF122F6FE0BC08EEFF8223D
:100FB000E91438F4F4FE07C0F2FC05C09FEEF922F4
:100FC00002C01E2D01C0192DF4FE0DC0FE01EE0D54
:100FD000F11D8081803319F4E9EEFE2208C01F5F05
:100FE000F2FE05C003C08F2D867809F01F5F0F2D1C
:100FF000F3FC14C0F0FE0FC0181510F09E2C0BC0AF
:101000009E2C980C911A182D06C080E290E0B30136
:101010000E94F00A1F5F1815C0F304C0181510F4E1
:10102000811A01C0882404FF0FC080E390E0B3015F
:101030000E94F00A02FF1DC001FD03C088E790E096
:101040000EC088E590E00BC0802F867891F001FFFC
:1010500002C08BE201C080E2F7FC8DE290E0B301B8
:101060000E94F00A06C080E390E0B3010E94F00AFB
:101070009A94E914C0F3EA94E1E0F0E0EC0FFD1F6C
:10108000EE0DF11D808190E0B3010E94F00AEE2088
:1010900091F706C080E290E0B3010E94F00A8A94C2
:1010A0008820C1F799CCF30166817781CB016196E5
:1010B000E2E10C94D3096CD008F481E0089594D057
:1010C00088F09F5790F0B92F9927B751A0F0D1F031
:1010D000660F771F881F991F1AF0BA95C9F712C0BB
:1010E000B13081F09BD0B1E0089598C0672F782F80
:1010F0008827B85F39F0B93FCCF386957795679527
:10110000B395D9F73EF490958095709561957F4F92
:101110008F4F9F4F0895E89409C097FB3EF4909538
:101120008095709561957F4F8F4F9F4F9923A9F0C0
:10113000F92F96E9BB279395F6958795779567954F
:10114000B795F111F8CFFAF4BB0F11F460FF1BC093
:101150006F5F7F4F8F4F9F4F16C0882311F096E926
:1011600011C0772321F09EE8872F762F05C06623D4
:1011700071F096E8862F70E060E02AF09A95660F8D
:10118000771F881FDAF7880F9695879597F9089546
:10119000990F0008550FAA0BE0E8FEEF1616170688
:1011A000E807F907C0F012161306E407F50798F0F0
:1011B000621B730B840B950B39F40A2661F0232B09
:1011C000242B252B21F408950A2609F4A140A69585
:1011D0008FEF811D811D089557FD9058440F551FB5
:1011E00059F05F3F71F04795880F97FB991F61F0A9
:1011F0009F3F79F087950895121613061406551F20
:10120000F2CF4695F1DF08C0161617061806991F8B
:10121000F1CF86957105610508940895E894BB2780
:1012200066277727CB0197F90895B2DF08F48FEF8F
:1012300008950BD078C069D028F06ED018F09523AF
:1012400009F05AC05FC01124EACFC6DFA0F3959F12
:10125000D1F3950F50E0551F629FF001729FBB279D
:10126000F00DB11D639FAA27F00DB11DAA1F649F49
:101270006627B00DA11D661F829F2227B00DA11DFC
:10128000621F739FB00DA11D621F839FA00D611D82
:10129000221F749F3327A00D611D231F849F600DA3
:1012A000211D822F762F6A2F11249F5750408AF0DC
:1012B000E1F088234AF0EE0FFF1FBB1F661F771F68
:1012C000881F91505040A9F79E3F510570F014C0FF
:1012D000A6CF5F3FECF3983EDCF386957795679554
:1012E000B795F795E7959F5FC1F7FE2B880F911D86
:1012F0009695879597F9089597F99F6780E870E02C
:1013000060E008959FEF80EC089500240A9416167B
:10131000170618060906089500240A9412161306E3
:10132000140605060895092E0394000C11F4882371
:1013300052F0BB0F40F4BF2B11F460FF04C06F5F8D
:101340007F4F8F4F9F4F089597FB092E07260AD096
:1013500077FD04D043D006D000201AF47095619533
:101360007F4F0895F6F7909581959F4F08952F929E
:101370003F924F925F926F927F928F929F92AF9225
:10138000BF92CF92DF92EF92FF920F931F93CF9372
:10139000DF93CDB7DEB7CA1BDB0B0FB6F894DEBF09
:1013A0000FBECDBF09942A88398848885F846E842F
:1013B0007D848C849B84AA84B984C884DF80EE8079
:1013C000FD800C811B81AA81B981CE0FD11D0FB682
:1013D000F894DEBF0FBECDBFED010895AA1BBB1B65
:1013E00051E107C0AA1FBB1FA617B70710F0A61B25
:1013F000B70B881F991F5A95A9F780959095BC0146
:10140000CD010895283008F027E03327DA01990F3D
:10141000311D87FD916000966105710539F43260D8
:101420002E5F3D9330E32A95E1F708959F3F30F01A
:1014300080387105610509F03C5F3C5F3D93913058
:1014400008F08068911DDF93CF931F930F93FF9255
:10145000EF92192F987F9695E92F96959695E90F1B
:10146000FF27EA54FF4F99273327EE24FF24A701D3
:10147000E70105900894079428F4360FE71EF81E3C
:10148000491F511D660F771F881F991F0694A1F7EA
:101490000590079428F4E70EF81E491F561FC11D3A
:1014A000770F881F991F661F0694A1F70590079470
:1014B00028F4F80E491F561FC71FD11D880F991F0A
:1014C000661F771F0694A1F70590079420F4490F33
:1014D000561FC71FD81F990F661F771F881F0694B6
:1014E000A9F784911095177041F0D695C795579537
:1014F0004795F794E7941A95C1F7ECE5F0E0689406
:101500001590159135916591959105907FE27395B0
:10151000E118F10A430B560BC90BD009C0F7E10CD7
:10152000F11E431F561FC91FD01D7EF4703311F4E6
:101530008A95E6CFE894015030F0080F0AF40027AE
:10154000021708F4202F2395022F7A3328F079E32D
:101550007D932A95E9F710C07D932A9589F6069424
:1015600097956795379517951794E118F10A430BEE
:10157000560BC90BD00998F023957E9173957A3359
:1015800008F070E37C932013B8F77E9170617D932F
:1015900030F0839571E37D9370E32A95E1F7112490
:1015A000EF90FF900F911F91CF91DF91992787FDC9
:1015B00090950895FC010590615070400110D8F796
:1015C000809590958E0F9F1F0895FC01615070408B
:1015D00001900110D8F7809590958E0F9F1F089568
:1015E0000F931F93CF93DF938C01EB018B8181FFCE
:1015F0001BC082FF0DC02E813F818C819D812817E9
:10160000390764F4E881F9810193F983E88306C01E
:10161000E885F985802F0995892B31F48E819F818A
:1016200001969F838E8302C00FEF1FEFC801DF91E9
:10163000CF911F910F910895AEE0B0E0E2E2FBE0A0
:101640000C94C5090D891E8986E08C831A83098351
:101650008FEF9FE79E838D839E01275E3F4FCE01D4
:1016600001966F89788DA9010E94D4042F81388555
:10167000020F131FF80110822E96E4E00C94E1098A
:10168000FA01AA27283051F1203181F1E8946F93B3
:101690006E7F6E5F7F4F8F4F9F4FAF4FB1E03ED059
:1016A000B4E03CD0670F781F891F9A1FA11D680FF7
:1016B000791F8A1F911DA11D6A0F711D811D911D2A
:1016C000A11D20D009F468943F912AE0269F11249F
:1016D0003019305D3193DEF6CF010895462F477003
:1016E000405D4193B3E00FD0C9F7F6CF462F4F705E
:1016F000405D4A3318F0495D31FD4052419302D0BC
:10170000A9F7EACFB4E0A695979587957795679561
:10171000BA95C9F700976105710508959B01AC0161
:101720000A2E06945795479537952795BA95C9F788
:10173000620F731F841F951FA01D0895F894FFCF9B
:10174000454550524F4D2044656D6F0A32344C432D
:101750003235360052656164696E672032344C431D
:1017600032353600616464726573733A20307825CF
:0C177000580A646174613A20257520005D
:00000001FF
