:100000000C94D3010C94F0010C94F0010C94F001C9
:100010000C94F0010C94F0010C94F0010C94F0019C
:100020000C94F0010C94F0010C94F0010C94F0018C
:100030000C94F0010C94F0010C94F0010C94F0017C
:100040000C94F0010C94F0010C94F0010C94F0016C
:100050000C94F00105A84CCDB2D44EB93836A902A3
:100060000C50B9918688083CA6AAAA2ABE000000B6
:10007000803F000000000000002F00000007000784
:1000800000147F147F14242A7F2A12323408162683
:1000900036495522500005030000001C2241000093
:1000A00041221C0014083E081408083E08080000FD
:1000B0005030001010101010006060000020100878
:1000C00004023E5149453E00427F40004261514991
:1000D000462141454B311814127F102745454539BB
:1000E0003C4A4949300171090503364949493606F8
:1000F0004949291E00363600000056360000081413
:100100002241001414141414004122140802015155
:100110000906324959513E7E1111117E7F494949E4
:10012000363E414141227F4141221C7F494949419C
:100130007F090909013E4149497A7F0808087F0083
:10014000417F41002040413F017F081422417F4010
:100150004040407F020C027F7F0408107F3E4141F7
:10016000413E7F090909063E4151215E7F09192957
:1001700046464949493101017F01013F4040403F26
:100180001F2040201F3F4038403F6314081463077E
:10019000087008076151494543007F414100552AD5
:1001A000552A550041417F000402010204404040AD
:1001B0004040000102040020545454787F484444D5
:1001C000383844444420384444487F385454541800
:1001D000087E0901020C5252523E7F080404780046
:1001E000447D40002040443D007F102844000041F1
:1001F0007F40007C041804787C0804047838444468
:1002000044387C14141408081414187C7C08040462
:10021000084854545420043F4440203C4040207C33
:100220001C2040201C3C4030403C44281028440CFA
:100230005050503C4464544C44007F3E1C08081C01
:100240003E7F00087C7E7C08103E7E3E103E3E3E97
:100250003E3E007F3E1C0800060909067E11111172
:100260007E7F494949307F494949367F0101010173
:10027000603E213F607F4949494167187F186722E6
:10028000414949367F1008047F7F1009047F7F08A9
:10029000142241403E01017E7F0204027F7F080854
:1002A000087F3E4141413E7F0101017F7F090909ED
:1002B000063E4141412201017F0101274848483F54
:1002C0001E217F211E63140814633F20203F401F1E
:1002D0001010107F7F407F407F3F203F207F017FB5
:1002E0004444387F447C007F7F4444443822414961
:1002F000493E7F087F417F462919097F2054545485
:10030000783C4A4A4B307C545458207C0404040402
:100310006038243C60385454541874087C0874289D
:10032000445454287C2010087C7C2112097C7C10C9
:10033000102844407804047C7C0810087C7C101051
:10034000107C38444444387C0404047C7C14141429
:1003500008384444442804047C04040C5050503CA5
:1003600018247C241844281028443C20203C401C9D
:100370002020207C7C407C407C3C203C207C047CF9
:100380004848307C4848307C7C48484830284454B1
:1003900054387C38444438483414147C7E4B4A4BDF
:1003A00042385554551811241FBECFE5D8E0DEBFA2
:1003B000CDBF10E0A0E6B0E0E6E5FFE102C00590A9
:1003C0000D92A436B107D9F712E0A4E6B0E001C05F
:1003D0001D92AC36B107E1F70E94DD060C94A90F1F
:1003E0000C9400004F925F926F927F928F929F9237
:1003F000AF92BF92CF92DF92EF92FF920F931F9333
:10040000DF93CF93CDB7DEB768970FB6F894DEBF12
:100410000FBECDBFE62E1092690220916502309189
:1004200066024091670250916802298B3A8B4B8B90
:100430005C8B9EE1899FC0011124AA2797FDA0959E
:10044000BA2FBC01CD010E94FB0D20E030E044EB4F
:1004500052E40E94FD0C6D8B7E8B8F8B988FFF2456
:10046000F594E7940027F7FC0095102FC801B70119
:100470000E94FB0D6D877E878F87988B6D897E89A3
:100480008F89988D2D853E854F8558890E94FD0C5A
:100490002BED3FE049E450E40E94C00E20E030E044
:1004A00044E353E40E94650D7B018C01C8010E9466
:1004B000620D5B016C018091610290916202A091DA
:1004C0006302B091640289879A87AB87BC87B701C2
:1004D000C8010E94230F7B018C01C601B50120E0F9
:1004E00030E040E351E40E94C00E9B01AC016989F9
:1004F0007A898B899C890E94FE0C0E94CD0D2B016C
:100500003C0169897A898B899C890E94CD0D4B01B8
:100510005C01C801B70120E030E040E351E40E94F3
:10052000C00E9B01AC0169857A858B859C850E94F4
:10053000FE0C0E94CD0D6B017C0169857A858B854F
:100540009C850E94CD0D8B019C01842D682D4C2D26
:10055000202F00E00E94070A0E943D0981E080935D
:1005600069022091650230916602409167025091C4
:1005700068022D833E834F8358876D897E898F89DA
:10058000988D2D853E854F8558890E94FE0C2BED58
:100590003FE049E450E40E94C00E20E030E044E334
:1005A00053E40E94650D7B018C01C8010E94620D1D
:1005B0005B016C018091610290916202A0916302E3
:1005C000B091640289839A83AB83BC83B701C8016D
:1005D0000E94230F7B018C01C601B50120E030E0B1
:1005E00040E351E40E94C00E9B01AC016D817E810D
:1005F0008F8198850E94FE0C0E94CD0D2B013C013D
:100600006D817E818F8198850E94CD0D4B015C01AB
:10061000C801B70120E030E040E351E40E94C00E81
:100620009B01AC0169817A818B819C810E94FE0CC7
:100630000E94CD0D6B017C0169817A818B819C8147
:100640000E94CD0D8B019C01842D682D4C2D202FF7
:1006500001E00E94070A0E943D0968960FB6F894CF
:10066000DEBF0FBECDBFCF91DF911F910F91FF90E5
:10067000EF90DF90CF90BF90AF909F908F907F9042
:100680006F905F904F9008954F925F926F927F921C
:100690008F929F92AF92BF92CF92DF92EF92FF9292
:1006A0000F931F93DF93CF93CDB7DEB764970FB649
:1006B000F894DEBF0FBECDBF109269022091650293
:1006C0003091660240916702509168022D873E8703
:1006D0004F87588B96E0899FC0011124AA2797FD68
:1006E000A095BA2FBC01CD010E94FB0D20E030E0A7
:1006F00044EB52E40E94FD0C698B7A8B8B8B9C8BB4
:1007000020E030E040EC50E40E94FD0C2BED3FE097
:1007100049E450E40E94C00E20E030E044E353E49A
:100720000E94650D7B018C01C8010E94620D5B0176
:100730006C018091610290916202A0916302B0917C
:10074000640289879A87AB87BC87B701C8010E947A
:10075000230F7B018C01C601B50120E030E040E6AB
:1007600051E40E94C00E9B01AC016D857E858F8592
:1007700098890E94FE0C0E94CD0D2B013C016D85D5
:100780007E858F8598890E94CD0D4B015C01C80143
:10079000B70120E030E040E651E40E94C00E9B012A
:1007A000AC0169857A858B859C850E94FE0C0E9430
:1007B000CD0D6B017C0169857A858B859C850E94B6
:1007C000CD0D8B019C01842D682D4C2D202F00E038
:1007D0000E94070A0E943D0981E0809369022091EE
:1007E00065023091660240916702509168022D8344
:1007F0003E834F83588769897A898B899C892BED41
:100800003FE049E450E40E94C00E20E030E044E3C1
:1008100053E40E94650D7B018C01C8010E94620DAA
:100820005B016C018091610290916202A091630270
:10083000B091640289839A83AB83BC83B701C801FA
:100840000E94230F7B018C01C601B50120E030E03E
:1008500040E651E40E94C00E9B01AC016D817E8197
:100860008F8198850E94FE0C0E94CD0D2B013C01CA
:100870006D817E818F8198850E94CD0D4B015C0139
:10088000C801B70120E030E040E651E40E94C00E0C
:100890009B01AC0169817A818B819C810E94FE0C55
:1008A0000E94CD0D6B017C0169817A818B819C81D5
:1008B0000E94CD0D8B019C01842D682D4C2D202F85
:1008C00001E00E94070A0E943D0964960FB6F89461
:1008D000DEBF0FBECDBFCF91DF911F910F91FF9073
:1008E000EF90DF90CF90BF90AF909F908F907F90D0
:1008F0006F905F904F9008954F925F926F927F92AA
:100900008F929F92AF92BF92CF92DF92EF92FF921F
:100910000F931F93DF93CF93CDB7DEB764970FB6D6
:10092000F894DEBF0FBECDBF109269022091650220
:100930003091660240916702509168022D873E8790
:100940004F87588B96E0899FC0011124AA2797FDF5
:10095000A095BA2FBC01CD010E94FB0D20E030E034
:1009600044EB52E40E94FD0C698B7A8B8B8B9C8B41
:1009700020E030E040EC50E40E94FD0C2BED3FE025
:1009800049E450E40E94C00E20E030E044E353E428
:100990000E94650D7B018C01C8010E94620D5B0104
:1009A0006C018091610290916202A0916302B0910A
:1009B000640289879A87AB87BC87B701C8010E9408
:1009C000230F7B018C01C601B50120E030E048E82F
:1009D00051E40E94C00E9B01AC016D857E858F8520
:1009E00098890E94FE0C0E94CD0D2B013C016D8563
:1009F0007E858F8598890E94CD0D4B015C01C801D1
:100A0000B70120E030E048E851E40E94C00E9B01AD
:100A1000AC0169857A858B859C850E94FE0C0E94BD
:100A2000CD0D6B017C0169857A858B859C850E9443
:100A3000CD0D8B019C01842D682D4C2D202F00E0C5
:100A40000E94070A0E943D0981E08093690220917B
:100A500065023091660240916702509168022D83D1
:100A60003E834F83588769897A898B899C892BEDCE
:100A70003FE049E450E40E94C00E20E030E044E34F
:100A800053E40E94650D7B018C01C8010E94620D38
:100A90005B016C018091610290916202A0916302FE
:100AA000B091640289839A83AB83BC83B701C80188
:100AB0000E94230F7B018C01C601B50120E030E0CC
:100AC00048E851E40E94C00E9B01AC016D817E811B
:100AD0008F8198850E94FE0C0E94CD0D2B013C0158
:100AE0006D817E818F8198850E94CD0D4B015C01C7
:100AF000C801B70120E030E048E851E40E94C00E90
:100B00009B01AC0169817A818B819C810E94FE0CE2
:100B10000E94CD0D6B017C0169817A818B819C8162
:100B20000E94CD0D8B019C01842D682D4C2D202F12
:100B300001E00E94070A0E943D0964960FB6F894EE
:100B4000DEBF0FBECDBFCF91DF911F910F91FF9000
:100B5000EF90DF90CF90BF90AF909F908F907F905D
:100B60006F905F904F9008952F923F924F925F92B7
:100B70006F927F928F929F92AF92BF92CF92DF92AD
:100B8000EF92FF920F931F93CF93DF9381E08093B7
:100B9000690260916502709166028091670290918E
:100BA00068020E94CD0D7B018C0160916102709101
:100BB000620280916302909164020E94CD0D9B01BC
:100BC000AC018E2D622F46E121E00E948F0A0E9427
:100BD0003D09609165027091660280916702909173
:100BE00068020E94CD0D7B018C01609161027091C1
:100BF000620280916302909164020E94CD0D9B017C
:100C0000AC018E2D622F44E1209169020E948F0A6F
:100C10000E943D09609165027091660280916702B1
:100C2000909168020E94CD0D7B018C016091610260
:100C30007091620280916302909164020E94CD0DD6
:100C40009B01AC018E2D622F42E0209169020E942F
:100C50008F0AC0E0D0E0BE01882777FD8095982FED
:100C60000E94FB0D2BED3FE049E450E40E94C00ED2
:100C700020E030E044E353E40E94650D7B018C01E9
:100C8000C8010E94620D20E030E040E951E40E947A
:100C9000C00E20916502309166024091670250912A
:100CA00068020E94FE0C3B014C01B701C8010E9482
:100CB000230F20E030E040E951E40E94C00E209173
:100CC00061023091620240916302509164020E947D
:100CD000FE0C5B016C01C401B3010E94CD0D1B0130
:100CE0002C01C601B5010E94CD0D7B018C01822D26
:100CF0006E2D41E0209169020E948F0AC401B30168
:100D000020E030E040E85FE30E94FE0C0E94CD0D41
:100D1000DC01CB016E2D409169020E94A709C4013C
:100D2000B30120E030E040E85FE30E94FD0C0E9448
:100D3000CD0DDC01CB016E2D409169020E94A70907
:100D4000C601B50120E030E040E85FE30E94FE0C00
:100D50000E94CD0D9B01AC01822D622F4091690252
:100D60000E94A709C601B50120E030E040E85FE33A
:100D70000E94FD0C0E94CD0D9B01AC01822D622FC3
:100D8000409169020E94A7096E9681E0C836D80793
:100D900009F061CFDF91CF911F910F91FF90EF90FC
:100DA000DF90CF90BF90AF909F908F907F906F908B
:100DB0005F904F903F902F9008958F929F92AF92A7
:100DC000BF92CF92DF92EF92FF920F931F93DF9328
:100DD000CF9300D000D0CDB7DEB719828AE08A83E6
:100DE00088E28B831C8280E090E0A8E2B2E48093EA
:100DF000650290936602A0936702B093680280E058
:100E000090E0A0ECB1E48093610290936202A09321
:100E10006302B093640280E061E040E00E94E60C6F
:100E20000E9417090E94140B81E08093690260916F
:100E300060007091610080916200909163000E9457
:100E4000B40532E0832E912C8C0E9D1E23E0A22E41
:100E5000B12CAC0EBD1E94E0C92ED12CCC0EDD1EE3
:100E60007E010894E11CF11C08EC10E0C701B401FC
:100E7000A50196010E94720C8B810E947C048A81DC
:100E80006B810E94440389816A814B810E94F20137
:100E900080ED97E0F8013197F1F70197D9F7E6CFA8
:100EA00096E0899FC00111248A55904024E5629FF5
:100EB000B0011124860F971F90936B0280936A02F2
:100EC000089590E08555904024E5629FB00111247B
:100ED000860F971F90936B0280936A020895982F54
:100EE0008AB38C608ABBD998613011F4DA9A01C058
:100EF000DA9827E030E0492F50E0CA01022E02C004
:100F0000959587950A94E2F780FF02C0DB9A01C0AD
:100F1000DB98DC9ADC98215030408FEF2F3F380768
:100F200061F7D99A8AB3837F8ABB8BB38C608BBB02
:100F300008950F931F938C0164E570E00E94790F70
:100F4000806860E00E946F07C80164E570E00E945D
:100F5000790F862F806460E00E946F071F910F91C8
:100F6000089580916A0290916B020E94990780E037
:100F700061E00E946F0786E061E00E946F078FE0EA
:100F800061E00E946F078FE061E00E946F0786E0DA
:100F900061E00E946F0780E061E00E946F0780912E
:100FA0006A0290916B02069690936B0280936A029C
:100FB00008951F93182F862F8770806460E00E9429
:100FC0006F07812F806860E00E946F071F9108956E
:100FD0001F93182F8DE060E00E946F078AB38C602A
:100FE0008ABBD998DA9A88E010FD02C0DB9801C06C
:100FF000DB9ADC9ADC98815011F01695F5CFD99ADE
:101000008AB3837F8ABBDB9A8CE060E00E946F0723
:101010001F910895DF92EF92FF920F931F93D82EA6
:1010200020E080E090E0A0E0B0E006C08160880FA2
:10103000991FAA1FBB1F2F5F2617C1F722E0E22EC0
:10104000F12C012D112DE82AF92A0A2B1B2B8D2DAD
:1010500061E00E94D907812F9927AA27BB270E9408
:10106000E8078D2D62E00E94D907802F0E94E807D3
:101070008D2D63E00E94D9078F2D0E94E8078D2DEA
:1010800064E00E94D9078E2D0E94E8071F910F91FE
:10109000FF90EF90DF9008950F931F93CF93DF930E
:1010A000182F80916A0290916B020E949907113C5F
:1010B00008F01E5385E0189FC0011124EC01CE52A8
:1010C000D0408C010B5910400E581F4FFE018491E7
:1010D000880F0E94E8072196C017D107B9F780E072
:1010E00061E00E946F0780916A0290916B02069600
:1010F00090936B0280936A02DF91CF911F910F91C1
:1011000008950F931F93CF93DF93182F80916A0256
:1011100090916B020E949907113C08F01E5385E0E4
:10112000189FC0011124EC01CE52D0408C010B5904
:1011300010400E581F4FFE018491880F61E00E94FD
:101140006F072196C017D107B1F780E061E00E94D8
:101150006F0780916A0290916B02069690936B02E2
:1011600080936A02DF91CF911F910F910895CF93E1
:10117000DF93EC0103C021960E94810888818823B7
:10118000D1F7DF91CF9108950F931F93CF93DF9302
:1011900094E5899FC0011124845590408C01040F6F
:1011A000111D01501040C62FD0E02197C80FD91F44
:1011B000CE010E94990705C080E061E00E946F07A0
:1011C0002196C017D107C0F3DF91CF911F910F91E6
:1011D000089561E044E50E94C4080895CF93DF9329
:1011E00010926B0210926A0280E090E00E949907D0
:1011F000C0E0D0E080E061E00E946F07219681E0CE
:10120000C83FD807B9F7DF91CF9108951F93182FE2
:1012100081E260E00E946F07812F806860E00E9499
:101220006F0780E260E00E946F071F910895D89ACF
:101230008AB38F618ABB80E395E70197F1F7D8986D
:10124000D89AD99A81E260E00E946F0788EC60E04A
:101250000E946F0786E060E00E946F0783E160E014
:101260000E946F0780E260E00E946F078DE060E0FF
:101270000E946F070E94EE080895EF92FF920F936D
:101280001F93CF93DF9380915C0290915D0297FF53
:1012900005C010925D0210925C0209C0885F914007
:1012A00034F087EF91E090935D0280935C0280912F
:1012B0005E0290915F0297FF05C010925F0210924C
:1012C0005E0209C0885F914034F087EF91E090930F
:1012D0005F0280935E02C0915C02D0915D02CE01FC
:1012E00064E570E00E948D0F806860E00E946F07E7
:1012F000CE0164E570E00E948D0F862F806460E06F
:101300000E946F07E0905E02F0905F028E010C5920
:101310001F4F07C0F80181918F0161E00E946F07A4
:101320002196EC16FD06B4F787EF91E090935D02ED
:1013300080935C0210925F0210925E021092600233
:10134000DF91CF911F910F91FF90EF900895582F4B
:10135000853508F05AC0613308F057C0862F86954E
:101360008695869590E024E530E0829FD001839FAA
:10137000B00D929FB00D1124A50FB11D53E0880F41
:10138000991F5A95E1F7681BFD01EC59FF4F208129
:10139000442351F481E090E002C0880F991F6A95C0
:1013A000E2F78095282315C0413049F481E090E0B0
:1013B00002C0880F991F6A95E2F7282B0AC04230B5
:1013C00041F481E090E002C0880F991F6A95E2F72E
:1013D0002827FD01EC59FF4F208380915C029091FA
:1013E0005D02A817B90720F4B0935D02A0935C02D8
:1013F00080915E0290915F028A179B0720F4B09360
:101400005F02A0935E0280E0089581E008955F92FC
:101410006F927F928F929F92AF92BF92CF92DF9204
:10142000EF92FF920F931F93CF93DF93C82E562E08
:10143000D42E622E702E022F10E0041B1109C62F2D
:10144000D0E0C81BD10917FD04C0B1E08B2E912C50
:1014500006C0109501951F4F88248A94982CD7FDBB
:1014600004C0A1E0AA2EB12C06C0D095C195DF4FD3
:10147000AA24AA94BA2C8C2D6D2D472D0E94A70961
:101480008823E9F57E01EE0CFF1C000F111F0E15DD
:101490001F05CCF4C70195958795E801C81BD90BAA
:1014A0000FC0D7FD03C0D80CCE19DF09CA0C8C2D94
:1014B0006D2D472D0E94A709882309F5C00FD11F64
:1014C000C51479F718C0C80195958795E701C81B21
:1014D000D90B0FC0D7FD03C0CA0CC01BD10BD80C51
:1014E0008C2D6D2D472D0E94A709882341F4CE0D28
:1014F000DF1DD61479F781E08093600280E0DF91F0
:10150000CF911F910F91FF90EF90DF90CF90BF9000
:10151000AF909F908F907F906F905F9008959F9273
:10152000AF92BF92CF92DF92EF92FF920F931F93F1
:10153000982EA62EC22E84E5891508F456C080E3A5
:10154000861708F452C0D42E842F880F03E0081B9E
:10155000EE2448C01E2D190DFD2CFA0C812F6F2D85
:101560004C2D0E94A709BA2CBD18812F6B2D4C2D34
:101570000E94A709192D1E19812F6F2D4C2D0E9435
:10158000A709812F6B2D4C2D0E94A7091D2D190D28
:10159000FE2CFA0C812F6F2D4C2D0E94A709BA2C1E
:1015A000BE18812F6B2D4C2D0E94A709192D1D19D6
:1015B000812F6F2D4C2D0E94A709812F6B2D4C2D53
:1015C0000E94A70907FF06C00A5F8E2D880F880FAB
:1015D000080F07C0065F8E2D8D19880F880F080F22
:1015E000DA94E394DE140CF0B5CF1F910F91FF90C5
:1015F000EF90DF90CF90BF90AF909F900895BC0187
:1016000084E690E048EF51E00E94A00F10925D0246
:1016100010925C0287EF91E090935F0280935E02EC
:1016200081E080936002089588EF91E0E4E6F0E0C5
:10163000DF019C011D9221503040E1F710925D02C4
:1016400010925C0287EF91E090935F0280935E02BC
:1016500081E080936002089511B880E280B9089516
:10166000982F84EA86BF06B607FEFDCF81B1887F3A
:10167000883021F0803111F081E0089593B984E839
:1016800086BF06B607FEFDCF91B1987F983111F461
:1016900080E0089580E0903409F081E0089544EA04
:1016A00034E824E946BF06B607FEFDCF91B1987F26
:1016B000983011F09031B1F783B936BF06B607FE06
:1016C000FDCF91B1987F903211F0983529F426BF63
:1016D00006B604FCFDCFE6CF08950E94300B0895B6
:1016E00084E986BF089583B984E886BF06B607FEFD
:1016F000FDCF81B190E0887F883209F091E0892F99
:10170000089584EC86BF06B607FEFDCF83B1089529
:1017100084E886BF06B607FEFDCF83B10895813009
:1017200059F484EC86BF06B607FEFDCF81B1887FF1
:10173000803539F080E0089584E886BF06B607FE5C
:10174000FDCF83B10895282F22952F7030E0A90195
:1017500063E0440F551F6A95E1F7220F331F420FD4
:10176000531F8F70840F0895482F6AE00E946D0FF9
:10177000282F30E074E0220F331F7A95E1F7842F91
:101780000E946D0F892F822B0895CF92DF92EF92E6
:10179000FF920F931F938C017B016A0180ED0E94E1
:1017A000300B84E00E94730BF80180810E94B40B1F
:1017B0000E94730BF70180810E94B40B0E94730B8F
:1017C000F60180810E94B40B0E94730B0E94700B83
:1017D0001F910F91FF90EF90DF90CF900895EF92BF
:1017E000FF920F931F93F82E062F142FE22E80EDF9
:1017F0000E94300B80E00E94730B812F0E94B40B7B
:101800000E94730B802F0E94B40B0E94730B8F2DCC
:101810000E94B40B0E94730B8E2D0E94B40B0E9489
:10182000730B0E94700B1F910F91FF90EF90089522
:10183000CF92DF92EF92FF920F931F938C017B0167
:101840006A0180ED0E94300B84E00E94730B81EDF1
:101850000E94300B81E00E948F0B282F22952F7061
:1018600030E0A90163E0440F551F6A95E1F7220FAC
:10187000331F420F531F8F70840FF801808381E064
:101880000E948F0B282F22952F7030E0A901B3E022
:10189000440F551FBA95E1F7220F331F420F531F14
:1018A0008F70840FF701808380E00E948F0B282FB8
:1018B00022952F7030E0A901F3E0440F551FFA95EF
:1018C000E1F7220F331F420F531F8F70840FF60171
:1018D00080830E94700B1F910F91FF90EF90DF901B
:1018E000CF900895AF92BF92CF92DF92EF92FF9286
:1018F0000F931F936C017B018A01590180ED0E94B7
:10190000300B80E00E94730B81ED0E94300B81E070
:101910000E948F0B282F22952F7030E0A90163E0E1
:10192000440F551F6A95E1F7220F331F420F531FD3
:101930008F70840FF801808381E00E948F0B282F25
:1019400022952F7030E0A90113E0440F551F1A951E
:10195000E1F7220F331F420F531F8F70840FF701DF
:10196000808381E00E948F0B282F22952F7030E01A
:10197000A901A3E0440F551FAA95E1F7220F331FD9
:10198000420F531F8F70840FF601808380E00E9406
:101990008F0B282F22952F7030E0A901E3E0440F30
:1019A000551FEA95E1F7220F331F420F531F8F7027
:1019B000840FF50180830E94700B1F910F91FF909F
:1019C000EF90DF90CF90BF90AF9008951F93182FA6
:1019D0001370611110614111106880ED0E94300B8D
:1019E00087E00E94730B812F0E94730B80E00E949E
:1019F0008F0B0E94700B1F9108955058BB27AA2788
:101A00000ED073C13CD130F041D120F031F49F3F72
:101A100011F41EF431C10EF4E095E7FB27C1E92F64
:101A200086D180F3BA17620773078407950718F009
:101A300071F49EF59EC10EF4E0950B2EBA2FA02DE9
:101A40000B01B90190010C01CA01A0011124FF276B
:101A5000591B99F0593F50F4503E68F11A16F04066
:101A6000A22F232F342F4427585FF3CF4695379565
:101A70002795A795F0405395C9F77EF41F16BA0B2A
:101A8000620B730B840BBAF09150A1F0FF0FBB1FD8
:101A9000661F771F881FC2F70EC0BA0F621F731F21
:101AA000841F48F4879577956795B795F7959E3F7E
:101AB00008F0B3CF9395880F08F09927EE0F97950C
:101AC00087950895EBD0E39521C10CD00EC1DED0EF
:101AD00040F0D5D030F021F45F3F19F0C7C051116C
:101AE00049C1CAC024D198F39923C9F35523B1F34E
:101AF000951B550BBB27AA2762177307840738F07D
:101B00009F5F5F4F220F331F441FAA1FA9F333D0DB
:101B10000E2E3AF0E0E830D091505040E695001C8F
:101B2000CAF729D0FE2F27D0660F771F881FBB1F4B
:101B3000261737074807AB07B0E809F0BB0B802D25
:101B4000BF01FF2793585F4F2AF09E3F510568F071
:101B50008DC010C15F3FECF3983EDCF3869577951E
:101B60006795B795F7959F5FC9F7880F911D969573
:101B7000879597F90895E1E0660F771F881FBB1FCF
:101B8000621773078407BA0720F0621B730B840B7C
:101B9000BA0BEE1F88F7E0950895D1D088F09F57D3
:101BA00090F0B92F9927B751A0F0D1F0660F771FA9
:101BB000881F991F1AF0BA95C9F712C0B13081F089
:101BC000D8D0B1E00895D5C0672F782F8827B85FA7
:101BD00039F0B93FCCF3869577956795B395D9F7EA
:101BE0003EF490958095709561957F4F8F4F9F4FF4
:101BF0000895E89409C097FB3EF490958095709500
:101C000061957F4F8F4F9F4F9923A9F0F92F96E948
:101C1000BB279395F695879577956795B795F111BD
:101C2000F8CFFAF4BB0F11F460FF1BC06F5F7F4F5A
:101C30008F4F9F4F16C0882311F096E911C077236C
:101C400021F09EE8872F762F05C0662371F096E875
:101C5000862F70E060E02AF09A95660F771F881F44
:101C6000DAF7880F9695879597F9089597F99F6702
:101C700080E870E060E008959FEF80EC0895002414
:101C80000A941616170618060906089500240A94E1
:101C900012161306140605060895EECF50D0E8F389
:101CA000E894E0E0BB279F57F0F02AED3FE049ECD5
:101CB00006C0EE0FBB0F661F771F881F28F0B23AD1
:101CC00062077307840728F0B25A620B730B840B08
:101CD000E3959A9572F7803830F49A95BB0F661F9A
:101CE000771F881FD2F79048B6C0092E0394000CC6
:101CF00011F4882352F0BB0F40F4BF2B11F460FFA6
:101D000004C06F5F7F4F8F4F9F4F0895EF93E0FFA9
:101D100006C0A2EA2AED3FE049EC5FEB80DEE5DF9A
:101D20000F90039401FC9058E4E5F0E0A0C057FD4B
:101D30009058440F551F59F05F3F71F04795880F39
:101D400097FB991F61F09F3F79F0879508951216D0
:101D500013061406551FF2CF4695F1DF08C016167C
:101D600017061806991FF1CF86957105610508942D
:101D70000895E894BB2766277727CB0197F9089544
:101D80000BD0B3CF7CDF28F081DF18F0952309F06A
:101D90006DCF72CF1124EECFCADFA0F3959FD1F3A0
:101DA000950F50E0551F629FF001729FBB27F00D09
:101DB000B11D639FAA27F00DB11DAA1F649F66275E
:101DC000B00DA11D661F829F2227B00DA11D621FAD
:101DD000739FB00DA11D621F839FA00D611D221F67
:101DE000749F3327A00D611D231F849F600D211D4B
:101DF000822F762F6A2F11249F5750408AF0E1F0EE
:101E000088234AF0EE0FFF1FBB1F661F771F881F36
:101E100091505040A9F79E3F510570F027CFAACFAF
:101E20005F3FECF3983EDCF3869577956795B79521
:101E3000F795E7959F5FC1F7FE2B880F911D96954B
:101E4000879597F908959F9329DF0F9007FCEE5F20
:101E50005DCF9F3F31F0915020F48795779567953E
:101E6000B795880F911D9695879597F908959F933B
:101E70008F937F936F93FF93EF939B01AC0180DF70
:101E8000EF91FF9105D02F913F914F915F9178CFC6
:101E9000DF93CF931F930F93FF92EF92DF927B011B
:101EA0008C01689405C0DA2EEF0176DFFE01E8941C
:101EB000A5912591359145915591AEF3EF01AFDD97
:101EC000FE019701A801DA9479F7DF90EF90FF9077
:101ED0000F911F91CF91DF910895991B79E004C074
:101EE000991F961708F0961B881F7A95C9F7809559
:101EF0000895AA1BBB1B51E107C0AA1FBB1FA61751
:101F0000B70710F0A61BB70B881F991F5A95A9F7A2
:101F100080959095BC01CD01089597FB092E072669
:101F20000AD077FD04D0E5DF06D000201AF47095C2
:101F300061957F4F0895F6F7909581959F4F08958D
:101F4000FB01DC0102C005900D9241505040D8F7D2
:061F50000895F894FFCF94
:041F560000004842FD
:00000001FF
