:100000000C941D010C943A010C943A010C943A01A1
:100010000C943A010C943A010C943A010C943A0174
:100020000C943A010C943A010C943A010C943A0164
:100030000C943A010C943A010C943A010C943A0154
:100040000C943A010C943A010C943A010C943A0144
:100050000C943A01000000000000002F000000078F
:10006000000700147F147F14242A7F2A12323408D8
:10007000162636495522500005030000001C224177
:10008000000041221C0014083E081408083E08081D
:1000900000005030001010101010006060000020B0
:1000A000100804023E5149453E00427F4000426133
:1000B0005149462141454B311814127F10274545BF
:1000C00045393C4A494930017109050336494949D6
:1000D00036064949291E0036360000005636000013
:1000E00008142241001414141414004122140802AC
:1000F00001510906324959513E7E1111117E7F4945
:100100004949363E414141227F4141221C7F4949B4
:1001100049417F090909013E4149497A7F08080898
:100120007F00417F41002040413F017F0814224170
:100130007F404040407F020C027F7F0408107F3EDA
:100140004141413E7F090909063E4151215E7F0937
:10015000192946464949493101017F01013F404083
:10016000403F1F2040201F3F4038403F6314081489
:100170006307087008076151494543007F4141000A
:10018000552A552A550041417F00040201020440CE
:1001900040404040000102040020545454787F48FD
:1001A0004444383844444420384444487F38545404
:1001B0005418087E0901020C5252523E7F08040472
:1001C0007800447D40002040443D007F10284400DA
:1001D00000417F40007C041804787C0804047838CF
:1001E000444444387C14141408081414187C7C0803
:1001F0000404084854545420043F4440203C4040E8
:10020000207C1C2040201C3C4030403C44281028CE
:10021000440C5050503C4464544C44007F3E1C08F5
:10022000081C3E7F00087C7E7C08103E7E3E103E0F
:100230003E3E3E3E007F3E1C080011241FBECFE51F
:10024000D8E0DEBFCDBF10E0A0E6B0E0E2E1F8E02C
:1002500002C005900D92A037B107D9F710E0A0E7D2
:10026000B0E001C01D92AC37B107E1F70E943C013C
:100270000C9407040C9400008FEF81BB0E94530282
:1002800080E40E94420281E061E00E94600180E619
:1002900090E00E94F30184E062E00E9460014FEF71
:1002A00029E130E082B38F3F11F412BA01C042BBA2
:1002B00080E197E2F9013197F1F7019799F3FACFCD
:1002C00096E0899FC00111248A55904024E5629FE1
:1002D000B0011124860F971F9093710080937000D6
:1002E000089590E08555904024E5629FB001112467
:1002F000860F971F90937100809370000895982F38
:1003000084B38C6084BBA998613011F4AA9A01C0AF
:10031000AA9827E030E0492F50E0CA01022E02C01F
:10032000959587950A94E2F780FF02C0AB9A01C0C9
:10033000AB98AC9AAC98215030408FEF2F3F3807E4
:1003400061F7A99A84B3837F84BB85B38C6085BB36
:1003500008950F931F938C0164E570E00E94F303EE
:10036000806860E00E947F01C80164E570E00E943F
:10037000F303862F806460E00E947F011F910F913C
:1003800008950F931F93CF93DF93082F80917000F0
:10039000909171000E94A90185E0089F80011124BD
:1003A000E801CC54D0400B5910400C5A1F4FFE01AD
:1003B0008491880F61E00E947F012196C017D107C8
:1003C000B1F780E061E00E947F0180917000909120
:1003D000710006969093710080937000DF91CF9129
:1003E0001F910F910895CF93DF93EC0103C02196E5
:1003F0000E94C10188818823D1F7DF91CF910895B0
:100400000F931F93CF93DF9394E5899FC00111242D
:10041000845590408C01040F111D01501040C62FCF
:10042000D0E02197C80FD91FCE010E94A90105C0B5
:1004300080E061E00E947F012196C017D107C0F3E0
:10044000DF91CF911F910F91089561E044E50E94E3
:1004500000020895CF93DF93109271001092700004
:1004600080E090E00E94A901C0E0D0E080E061E07F
:100470000E947F01219681E0C83FD807B9F7DF913C
:10048000CF9108951F93182F81E260E00E947F01B1
:10049000812F806860E00E947F0180E260E00E941E
:1004A0007F011F910895A89A84B38F6184BB86EA67
:1004B0009EE00197F1F7A898A89AA99A81E260E0D6
:1004C0000E947F0188EC60E00E947F0186E060E08E
:1004D0000E947F0183E160E00E947F0180E260E092
:1004E0000E947F018CE060E00E947F010E942A024E
:1004F00081EC91E060E070E00E947F0208950F932C
:100500001F93CF93DF938C01EB01009731F46115BA
:10051000710519F420E030E038C081E090E06EE031
:1005200070E00E94CB02FC019C01009771F180E811
:100530008383209771F0D387C28781E8838380917A
:10054000720090917300892B21F4F0937300E09373
:10055000720001151105C9F011870087838182603F
:1005600083838091740090917500892B71F4F093CE
:100570007500E09374008091760090917700892B4C
:1005800021F4F0937700E0937600C901DF91CF91D9
:100590001F910F9108950F931F93CF93DF93689F3F
:1005A0008001699F100D789F100D1124C8010E94D1
:1005B000E702EC01009729F060E070E0A8010E94DA
:1005C000EC03CE01DF91CF911F910F910895CF934E
:1005D000DF93BC018230910510F462E070E0A091DD
:1005E0007A00B0917B00ED01E0E0F0E040E050E007
:1005F00021C0888199818617970769F48A819B8138
:10060000309719F09383828304C090937B0080938A
:100610007A00FE0134C06817790738F44115510596
:1006200019F08417950708F4AC01FE018A819B81BB
:100630009C01E9012097E9F641155105A9F1CA018C
:10064000861B970B049708F4BA01E0E0F0E02AC09B
:100650008D919C91119784179507F9F4641775078C
:1006600081F412968D919C911397309719F0938392
:10067000828304C090937B0080937A00FD013296C0
:100680004FC0CA01861B970BFD01E80FF91F61934C
:10069000719302978D939C9343C0FD018281938156
:1006A0009C01D9011097A1F6809178009091790072
:1006B000892B41F480916B0090916C0090937900AC
:1006C0008093780040916D0050916E004115510566
:1006D00041F44DB75EB78091690090916A00481B64
:1006E000590B209178003091790024173507B0F428
:1006F000CA01821B930B8617970780F0AB014E5FF0
:100700005F4F8417950750F0420F531F50937900A5
:1007100040937800F9016193719302C0E0E0F0E04A
:10072000CF01DF91CF910895CF93DF93009709F424
:1007300050C0EC0122971B821A82A0917A00B091DE
:100740007B00109709F140E050E0AC17BD0708F1BD
:10075000BB83AA83FE0121913191E20FF31FAE17F3
:10076000BF0779F48D919C911197280F391F2E5F47
:100770003F4F3983288312968D919C9113979B83C9
:100780008A834115510571F4D0937B00C0937A00A0
:1007900020C012968D919C911397AD01009711F096
:1007A000DC01D3CFFA01D383C28321913191E20FCF
:1007B000F31FCE17DF0769F488819981280F391F4D
:1007C0002E5F3F4FFA01318320838A819B8193837F
:1007D0008283DF91CF910895DC0101C06D93415078
:1007E0005040E0F70895AA1BBB1B51E107C0AA1FA8
:1007F000BB1FA617B70710F0A61BB70B881F991FC2
:100800005A95A9F780959095BC01CD010895F8946B
:02081000FFCF18
:100812002048656C6C6F21200020007C00000000E5
:00000001FF
