:100000000C94ED010C9400000C9400000C94000082
:100010000C9400000C9400000C9400000C94000060
:100020000C9400000C9400000C9400000C94000050
:100030000C9400000C9400000C9400000C94000040
:100040000C9400000C9400000C9400000C94000030
:100050000C94000017001B0032003C0000E3E3009A
:10006000F5F500F1F1005E5E0000E4E400ECEC0068
:10007000F0F0005E5E00000063000A006400000013
:1000800064002C01E8030001010E0E0D3C3D000050
:100090003C3D00004F4B21006F0273020060026381
:1000A00002660269026C02002A2A204D61696E20F4
:1000B0004D656E75202A2A00060006000400020025
:1000C000040002000000060077027C0281028A021E
:1000D00096029F02AD02BD02C202C602CA02CE0251
:1000E000D202D602DA020000000000000000010087
:1000F0000000000000000000000000000000000000
:10010000FF00257525753A257525753A25752575E0
:10011000204F4B2100202000257525752F257525A2
:10012000752F25752575204F4B2100546D696E3A4A
:10013000202575256343200A546D61783A20257582
:100140002563432000486D696E3A202575252520DA
:100150000A486D61783A20257525252000536D6980
:100160006E3A2025752525200A536D61783A2025A1
:100170007525252000496D696E3A202575206C781B
:10018000200A496D61783A202575206C782000EFAF
:10019000F000E3E300F5F5005E5E004F4646004FD9
:1001A0004E200023257520257525753A2575257562
:1001B000202573204F4B2100444154450054494DA4
:1001C00045005741544552494E470054454D50450E
:1001D0005241545552450048554D494449545900DF
:1001E000534F494C204D4F495354555245004C49AB
:1001F00047485420494E54454E5349545900455898
:1002000049540053756E004D6F6E0054756500576C
:10021000656400546872004672690053617400D1CD
:10022000C8D1D2C5CCC000D3CFD0C0C2CB49CDCD70
:10023000DF00CC49CAD0CECACB49CCC0D2CECC008C
:10024000C220D2C5CFCBC8D64900416E647269794D
:100250002048616C616B68002843292032303137B7
:1002600000252B332E31662563432025332E31663E
:1002700025252052482000252B6425634320002596
:100280007525753A2575257520257300C5FE02C0B4
:10029000BD52163F3B25D6B90AD7233CACC5A73A79
:1002A0002D4E414E000001002D4E414E000080C0F9
:1002B000C0C1C2C3C4C5AAC6C7C8C9CACBCCCDCEEB
:1002C000CFD0D1D2D3D4D5D6D7D8D9DCDBDADDDEC6
:1002D000DFE0E1E2E3E4E5E5E6E7E8E9EAEBECEDBF
:1002E000EEEFF0F1F2F3F4F5F6F7F8F9FCFBFAFDB6
:1002F000FEFF41A042A1E045A2A3A4A5A64BA74DA5
:10030000484FA8504354A9AA58E1ABACE262AEAD45
:10031000AFB0B161B2B3B4E365B5B6B7B8B9BABB03
:10032000BCBD6FBE7063BFC5C6C70300DE0254000C
:100330000300E2025800030060028F010300630221
:10034000920103006602950103006902980103000F
:100350006C02980104006F029B01040073029F016C
:1003600005007702B80105007C02BD010900810289
:10037000C2010C008A02CB0109009602D7010E00CF
:100380009F02E0011000AD02EE010500BD02FE017A
:100390000400C20203020400C60207020400CA02EB
:1003A0000B020400CE020F020400D202130204006A
:1003B000D60217020400DA021B0201000500000148
:1003C00001003003A60202003403AE0242003803EB
:1003D000B00238007A03F2020000F894EE27ECBB7A
:1003E000F1E0FBBFEBBFE5BFF8E1F1BDE1BD8DE0A2
:1003F000A2E0BB27ED938A95E9F780E098E0A0E6BC
:10040000ED930197E9F7EAE2F3E085919591009782
:1004100061F0A591B59105901590BF01F00105908F
:100420000D920197E1F7FB01F0CFEFE5EDBFE8E0BA
:10043000EEBFC0E6D2E00C94F80516B2E881A1E068
:100440000E94FE15E12105C0E881A1E00E94FE1591
:10045000E5210E942D16219608952D978DE0A0E0AC
:10046000B0E0ECE5F0E00E9411170E94031710E0E5
:1004700003E030E020E050E040E0EDB7FEB7FA9353
:10048000EA932F93EDB7FEB7FA93EA935F93EDB734
:10049000FEB7FA93EA934F930E94B20F4F915F9188
:1004A0002F91303011F00C94CE020E940C11E2E03A
:1004B000F1E00E9412110A930E946011A3E01A9FBA
:1004C000F001DE0117960E94641121F10E94701163
:1004D00031F4273111F420E001C02F5F19C0E13061
:1004E000A0E0FA0731F45B3311F450E001C05F5F24
:1004F0000FC0E230A0E0FA0731F44B3311F440E0D2
:1005000001C04F5F05C0E330A0E0FA0709F431E015
:100510000E9474110E947A1121F10E94701131F42D
:10052000203011F427E101C0215019C0E130A0E0D2
:10053000FA0731F4503011F45BE301C051500FC0A1
:10054000E230A0E0FA0731F4403011F44BE301C08F
:10055000415005C0E330A0E0FA0709F431E00E9401
:1005600074110E94801179F00E94861161F40A933F
:100570000E9460110E948C11133019F410E003E006
:1005800002C00D5F1F5F0E94921139F00E94981106
:1005900021F40E94741156B206C083CF2A935A9355
:1005A0004A930E94BE0F0E940A17639608952C97E3
:1005B0008CE0A0E0B0E0EAE6F0E00E9411170E94B3
:1005C000031710E000E033E0EDB7FEB7FA93EA93CB
:1005D0002F93EDB7FEB7FA93EA935F93EDB7FEB7AB
:1005E000FA93EA934F930E94CA0F4F915F912F9114
:1005F0000E94DF0E103011F00C9483030E940C1146
:10060000E8E1F1E00E9412113A930E946011A3E028
:100610000A9FF001DE0116960E94641151F10E94BA
:100620009E1139F1E1E00E94A41119F5E02F0E941A
:10063000A91131F42F3111F420E001C02F5F19C04E
:10064000E130A0E0FA0731F45C3011F450E001C071
:100650005F5F0FC0E230A0E0FA0731F4433611F4D7
:1006600040E001C04F5F05C0E330A0E0FA0709F4A5
:1006700011E00E947A1151F10E947A1139F1E2E001
:100680000E94A41119F5E02F0E94A91131F4203025
:1006900011F42FE101C0215019C0E130A0E0FA07A8
:1006A00031F4503011F45CE001C051500FC0E23021
:1006B000A0E0FA0731F4403011F443E601C04150A4
:1006C00005C0E330A0E0FA0709F411E00E948011B0
:1006D00079F00E94861161F43A930E9460110E94A1
:1006E0008C11033019F400E033E002C00F5F3D5F6E
:1006F0000E94921139F00E94981121F40E94741105
:1007000056B206C077CF2A935A934A930E94DA0FC3
:100710000E940A1762960895A69782E2A4E0B0E0CC
:10072000E6E7F0E00E9411171A930A9310E000E048
:10073000E8A5F9A5DE01129684E00E94EF160E945A
:10074000DF0E003011F00C946E0456B2EAA50E9440
:10075000A911A9F40E94AC11EBE2F1E0FA93EA933B
:100760000E94B1110E94B811E889F9890E94BF1155
:100770000E94B81180E10E94970D649626C0E13076
:10078000A0E0FA0729F40E94AC11E5E4F1E011C001
:10079000E230A0E0FA0729F40E94AC11EDE5F1E0A7
:1007A00008C0E330A0E0FA0781F40E94AC11E5E74D
:1007B000F1E0FA93EA930E94B111EC85FD850E9465
:1007C000BF1188E00E94970D2C960E94C4110E94D0
:1007D000CA110E94CF110E94DF11DE015C960E94B7
:1007E0000F160E94641169F10E94701169F4EC8186
:1007F000FD81AA81BB81AE17BF0728F4EA81FB8186
:100800003196EA83FB831BC0E130A0E0FA0791F444
:100810000E94E211AE0FBF1F12960E94BA16AC8161
:10082000BD81AE17BF0728F4EC81FD813196EC83C2
:10083000FD8305C0E230A0E0FA0709F401E00E9460
:1008400074110E947A1151F10E94701179F40E9482
:10085000E2110E94E911AA81BB81EA17FB0728F483
:10086000EA81FB813197EA83FB8316C0E130A0E087
:10087000FA0769F4EA81FB81AC81BD81EA17FB07C5
:1008800028F4EC81FD813197EC83FD8305C0E230D3
:10089000A0E0FA0709F401E00E9474110E9480119F
:1008A00091F00E94861179F40E94DF110E94CF110D
:1008B0000E948C11123031F410E0E6E1F1E00E9468
:1008C000EE1101C01F5F0E94921139F00E94981131
:1008D00021F40E94741156B208C033CFFE01329643
:1008E000A8A5B9A584E00E94EF1619810881AB96EE
:1008F00008952F978FE0A0E0B0E0E8E9F0E00E94D3
:1009000011170E94031710E000E030E020E00E9481
:10091000F211203011F00C944A050E940C11E3EA08
:10092000F1E0FA93EA930E94041231960E94231692
:100930000E94D816A52F0E940712A52F0E941112FF
:10094000A42F0E940712A42F0E941112EAA1F0E026
:10095000DE015E960E941B120E94BF1188E10E9478
:10096000970D6C960E94C4110E94390F3A930E9411
:1009700060110E94DF11DE011B960E941B120E9473
:100980001E1291F10E94701141F4073010F40F5FB4
:1009900001C000E00E94F21125C0E130A0E0FA079A
:1009A00031F4573111F450E001C05F5F1BC0E230F9
:1009B000A0E0FA0731F44B3311F440E001C04F5F7F
:1009C00011C0E330A0E0FA0741F4EA85E03011F00D
:1009D000E0E001C0E1E0EA8705C0E430A0E0FA070A
:1009E00009F421E00E9474110E947A1191F10E9491
:1009F000701141F4013010F0015001C008E00E9474
:100A0000F21125C0E130A0E0FA0731F4503011F4C2
:100A100057E101C051501BC0E230A0E0FA0731F4A9
:100A2000403011F44BE301C0415011C0E330A0E06D
:100A3000FA0741F4EA85E03011F4E1E001C0E0E0BA
:100A4000EA8705C0E430A0E0FA0709F421E00E943B
:100A500074110E94801199F00E94861181F43A93DA
:100A60000E9460110E948C11143019F410E030E0E3
:100A700006C0393011F43C5F01C03D5F1F5F0E942A
:100A8000921139F00E94981121F40E94741156B20B
:100A900012C03FCFA3E00A9FF001E251FD4F508307
:100AA0000A9FF001E151FD4F40830A9FF001E051A0
:100AB000FD4FAA85A0830E940A1765960895E097C6
:100AC00080E3A0E0B0E0E8EAF0E00E9411171A939A
:100AD00010E056B2E0E00E942312FE013196FA9334
:100AE000EA930E94CA11DE015196EE0FFF1FAE0F6E
:100AF000BF1FEC91EA930E9460110E94DF11DE019A
:100B000091960E941B120E941E1259F0E1E00E9471
:100B1000A41139F4173011F410E001C01F5F0E94D6
:100B2000DF0E0E947A1159F0E2E00E94A41139F41C
:100B3000103011F417E001C011500E94DF0E0E9426
:100B4000801111F40C94EE050E94861111F00C94A2
:100B5000EE050E94DF0E0E94701111F428DD3CC0EA
:100B6000E130A0E0FA0711F478DC36C0E230A0E012
:100B7000FA0711F4BEDE30C0E330A0E0FA0739F422
:100B8000E0E0EA93EEEDF2E00E94281225C0E430A6
:100B9000A0E0FA0739F4E1E0EA93E2EEF2E00E9425
:100BA00028121AC0E530A0E0FA0739F4E2E0EA932F
:100BB000E6EEF2E00E9428120FC0E630A0E0FA074D
:100BC00039F4E3E0EA93EAEEF2E00E94281204C06E
:100BD000E730A0E0FA0749F00E94DF0E0E94921170
:100BE00019F00E94981109F074CF1881E1960895C8
:100BF000A79787E2A0E0B0E0E8EDF0E00E941117CF
:100C000000E010E020E030E00E94B5080E941B09DF
:100C1000E9ECEA93EDE7EA93E0E0EA93D7D10E94AA
:100C2000D413E0E0EA93E1E0EA93E0E0EA930E9483
:100C30009D0FE0E1EA930E94690F0E94DF0EE4E05D
:100C40000E942312EFE1F2E00E94EE11E3E0EA934A
:100C50000E946011E7E2F2E00E94EE110E942C1265
:100C6000E1E00E942312E2E3F2E00E94EE11E3E0F1
:100C7000EA930E946011E0E4F2E00E94EE110E940B
:100C80002C12E2E00E942312EAE4F2E00E94EE114C
:100C9000E4E0EA930E946011E8E5F2E00E94EE11C0
:100CA0000E942C12FE017696FA93EA930E94410963
:100CB000FE017696FA93EA93EDB7FEB7FA93EA93BC
:100CC0004F930E942C094F91A59AAD98A69AAE9A7F
:100CD000A79AAF98FE017B96FA93EA93C1D150E0B0
:100CE000FE01B396FA93EA93EDB7FEB7FA93EA934F
:100CF0004F93E1E0EA930E9452094F915E0FFE018B
:100D00007F96FA93EA93EDB7FEB7FA93EA934F937F
:100D1000E0E0EA930E9452094F915E0F503019F0C3
:100D20000E941B095EC0EBA1FCA10E943412EBA340
:100D3000FCA36DA37EA3EF8DF8A10E943412EF8F68
:100D4000F8A369A37AA3FE01B396FA93EA93FE018E
:100D5000B196FA93EA930E948F090E9439120E9479
:100D600039120E94210AEF8BF88F698F7A8F0E94C7
:100D7000AC11E1E6F2E0FA93EA93EF8DF8A169A1F4
:100D80007AA10E94D8160E94B811EFA5F8A969A906
:100D90007AA90E94D8168CE00E94970D60960E9456
:100DA000C4110E94390F0E94AC11E7E7F2E0FA93F8
:100DB000EA93EBA1FCA16DA17EA10E947A140E948E
:100DC00023160E94D8160E94B81188E00E94970D41
:100DD0002C96E0E0EA930E9460110E94AC110E9400
:100DE000390FE091E002F091E102AB8DBC8D8D8D69
:100DF0009E8D0E9434120E94CE1509F010F40C94BE
:100E00000207AD9AE091E202F091E302ABA1BCA12E
:100E10008DA19EA10E9434120E94CE1508F4AE9AB4
:100E2000E091EA02F091EB022E173F0708F4AF9A27
:100E3000AE9AFE017196FA93EA93FE017296FA93C6
:100E4000EA93FE017396FA93EA930E94B20F0E940E
:100E5000AC11EFE7F2E0FA93EA93AD890E94071232
:100E6000A98D0E941112AC8D0E940712A8A10E94A8
:100E70001112EC89FD890E94BF1184E10E94970D37
:100E80006896E7E0EA930E9460110E94AC110E940C
:100E9000390F0E94801141F00E94861129F40E94AE
:100EA000DF0E0DDE0E94DF0E15CFFFCF1A93AC9838
:100EB000A49A80EC93E00197F1F7A49880EA8A95D0
:100EC000F1F7E3B3E0711E2F88E493E00197F1F7A7
:100ED000E3B3E0711E1711F4E1E0BCC1E0E0BAC178
:100EE000AC98A49A83E08A95F1F7E881E03009F0A4
:100EF000A49880EA8A95F1F7A498219608951A9308
:100F000010E0AC98A49A83E08A95F1F7A49885E262
:100F10008A95F1F79C9911E088E78A95F1F7E12F1E
:100F200099C11A930A9318E000E0E12F1150E030C4
:100F300059F00E940412F595E7950E2FE0DFE79532
:100F4000E0E0E7950E2BF1CFE02F0991199108957C
:100F50001A9318E0E12F1150E03049F0E981E17077
:100F6000EA93BEDFE9810E944012E983F3CF188142
:100F7000229608950E94051720E010E0EC811E17CC
:100F800000F5AD81BE81EE27A10FBE1F0C9130E0B0
:100F90003830A8F4E22FE027E17031F0E8E1E227F1
:100FA0000E944012E06803C0E22F0E9440122E2FE0
:100FB0000E940412F595E7950E2F3F5FE9CF1F5F62
:100FC000DDCFE22F0E940C1727960895E881E29565
:100FD000E07FEE0FEF61E88369DFE03011F0E1E0E0
:100FE0005FC10E944412EEE4EA93B2DFE981EA9322
:100FF000AFDFEA81EA93ACDFE881EA93A9DF56DF4D
:101000000E944412E8E4EA93A3DFEFE0F0E0FA93F1
:10101000EA930E942614E0E043C10E94051710E005
:1010200027E233E03F932F932F5F3F4F7ADFAF915B
:10103000BF91EC931F5F1930A8F3E7E2F3E0FA9356
:10104000EA93E8E0EA9396DFAE2FE0912F03EA17E8
:1010500011F0E1E001C0E0E00E940C172496089531
:101060002897E8E0E883E0E0E983ECE0EA83E0E069
:10107000EB83EEE0EC83E0E0ED83EFE0EE83E0E095
:10108000EF830E94031712DFE03029F0E1E00E94B5
:101090000A170C947D0B0E944412E4E4EA9358DF93
:1010A0002EDFE030E9F302DF0E944412EEEBEA9318
:1010B0004FDFB3DFE03029F0E1E00E940A170C9423
:1010C0007D0BF4DEA0912B03B0E0E5E00E94061654
:1010D000E3703E2F409127035527F0912803E0E06D
:1010E0004E2B5F2B57FF08C021E0EFEFFFEF4E279D
:1010F0005F274F5F5F4F01C020E0FA010E94141686
:101100001E2FE32FF0E0DE011696EE0FFF1FAE0F4D
:10111000BF1FEC91E4230E2F0E94DF11FF93EF938A
:101120000E9404120E944812A0E0B0E080E89DE313
:101130000E943B15AF91BF910E9428160E94DF16B6
:101140000E94EB14AE85BF850E94C416203041F08A
:10115000AE85BF850E94BE160E9445140E94C4162B
:10116000E0E00E940A170C947D0BE0E0E5BBE4E0B0
:10117000E4BB08951A930A9300E0A39A10E8113093
:1011800078F0EA81E12311F0AB9A01C0AB980E949C
:101190004D128DE08A95F1F7AA980E945212EFCF76
:1011A000A3980E944D1283E08A95F1F7E3B3E870AB
:1011B0000E2F0E945A12E02F1981088171C01A93D4
:1011C0000A9300E0A39810E8113048F00E945F12E3
:1011D0009B99012B0E945A120E945212F5CFEA816C
:1011E000E03029F0A39AAB9883E08A95F1F7AA9AA8
:1011F0008DE08A95F1F70E945A12A398E02F198189
:1012000008814EC0A39AAB9AAA980E944D1283E01F
:101210008A95F1F7AB9883E08A95F1F7AA988DE06B
:101220008A95F1F70E945F12AB9A83E08A95F1F7F5
:101230000E945A1208951A93A39AAB9A0E945A12C6
:1012400010E0193030F40E945F120E945A121F5FA2
:10125000F8CFD8DF199108951A9310E0D3DFE7E0B3
:10126000EA9388DF1E2F0E946412AB81BC81EC934D
:10127000E0E0EA93A4DFA981BA81EC93E12F188121
:1012800078C11A9310E0BEDFE6E0EA9373DF1E0F29
:10129000A981BA81EC91EA936DDF1E0FE12F1881CD
:1012A000239608950E94051700E010E0ABDFEC8163
:1012B0000E94A91121F4E3E00E94681207C0E13006
:1012C000A0E0FA0719F4E5E00E946812A39820E074
:1012D00030E02F3FEFEF3E0740F483E08A95F1F7CF
:1012E0009B9B03C02F5F3F4FF4CF9B9B02C00F5FC0
:1012F0001F4F0E946412AF81B8851196EC930E9433
:101300006412AF81B885EC93E0E0EA9358DFAD81D9
:10131000BE81EC93E02F0E940C17299608956497E4
:10132000AE89BF890E94BE160E946F12AC89BD892A
:101330000E94BE160E9474120E947912EAE0F7ED34
:1013400063E27DE30E943B15DF01CB01E3E3F3E3BE
:101350006FE172E40E947E120E9483120E94861244
:10136000ABE3B5E286ED99EB0E943B150E948B1230
:101370000E943B157F936F93FF93EF930E94861219
:10138000ADEBB2E586E19FE30E943B15AF91BF91C3
:101390008F919F910E94EB14A5ECBEEF82E090EC40
:1013A0000E94EB14E887F9876A877B870E94901276
:1013B000A0E0B0E088EC91E40E94E4147F936F9386
:1013C000FF93EF930E948612ACEAB5EC87EA9AE3AA
:1013D0000E943B15AAE0B7ED83E29CE30E94EB1468
:1013E000AF91BF918F919F910E943B15A885B985C0
:1013F0008A859B850E9493120E949A12E0E0F0E099
:1014000068EC72E40E94CE1509F010F40C940A0AFC
:101410000E949F120E94A4120E94CE1520F40E94E6
:10142000AA120E949F120E949012AC89BD890E944C
:10143000C4160E94AF12AE89BF890E94C416689676
:1014400008952897E885F9856A857B85A0E0B0E056
:1014500080EF90E40E943B157F936F93FF93EF938F
:10146000E885F9856A857B85ADECBCE48DE693E47F
:101470000E94EB14AF91BF918F919F910E948915AB
:10148000A9E3B8E289E29FE30E94EB147F936F9394
:10149000FF93EF930E94B4120E94D8160E94C010CE
:1014A000DF01CB01E0E0F0E060E070E40E947E123A
:1014B000AF91BF918F919F910E9493120E94AF12A2
:1014C000A9E3B8E289E29FE30E94E414ADECBCE436
:1014D0008DE693E40E943B157F936F93FF93EF9308
:1014E0000E949A12E4E8F2E962E071E40E94E414D6
:1014F000AF91BF918F919F910E9489150E94831295
:101500000E949012FAC01A930A93AA81BB81129684
:101510000E94BA16309729F1AA81BB8114960E94C5
:10152000BA168F01309761F00230E0E01E07C0F07C
:10153000F80131978F01AA81BB811496ED93FC933A
:10154000AA81BB8112960E94B9123197AC81A08307
:10155000AA81BB810E94BA16FF2312F00E94B91221
:1015600006C0AA81BB81EFEFFFEFED93FC931981D9
:101570000881259608952497E0E0E883E983E0E870
:10158000EA83EFE3EB830E940517EE85FF85EF3FCB
:10159000AFEFFA0749F4E885F985FA93EA93E0EAB0
:1015A000F2E00E94BF12A7C0EF3FAFE7FA0749F48D
:1015B000E885F985FA93EA93E1EAF2E00E94BF1226
:1015C0009AC0AB85A73010F0E6E0EB871B85E12FD2
:1015D0001150E03019F00E94C312F9CF0E94B412EA
:1015E0000E94F91621F430E00E94C31228C03B8506
:1015F0000E94CB1209F010F40C94070B0E94C31246
:101600000E94CB1218F00E94D012FACF0DC00E9497
:10161000CB1240F40E9479120E94D7120E947412D9
:101620003150F5CF0E94C3120E94B4120E94DE1204
:101630000E9474120E94CB1210F00E94D01210E08F
:10164000EB85E11798F10E94A4120E943B150E94BD
:10165000DE120E94D8160E941E100E949F120E9445
:10166000AF120E9479120E9489150E9478140E2FE1
:101670000E94E512E02FE05DEC93E02FFF27662744
:1016800077270E94B1140E949A120E943B150E9473
:1016900079120E947E120E947412E12F1F5FE030C7
:1016A00079F60E94E512EEE2EC93CACF0E94EC12AA
:1016B000AA85A08330302CF40E94E512EDE2EC9371
:1016C00031953A3054F00E94EC12BF01A32FEAE0AA
:1016D0000E944016E05DDB01EC930E94EC12BF011A
:1016E000A32FEAE00E948216E05DDB01EC93A8855F
:1016F000B985E0E0EC930E940C1760960895EF978F
:1017000061970E94031710E0FE01E85AFF4F019015
:10171000F081E02DE887F987FE01EA5AFF4F01903A
:10172000F081E02DEE83FF83AE81BF81E0E0F0E049
:10173000ED93FC93DE01A45ABF4F0E94B91231977A
:10174000E4912E2FE03011F40C948E0DE12FE03057
:1017500039F4253211F411E002C00E94F312DDC108
:10176000E130C1F4253219F40E94F312D5C112E020
:10177000E0E0ED8B00E02D3211F401E0CEC12B3220
:1017800019F4EBE2ED8BC9C1203219F4E0E2ED8BE4
:10179000C4C102C0E23039F450E013E0203311F448
:1017A0000068BBC102C0E33091F4203310F02A334B
:1017B00008F007C0AAE05A9F502DE22FE0535E0FB9
:1017C000ACC140E02E3211F414E0A7C10FC0E430E8
:1017D00099F4203310F02A3308F008C00062AAE020
:1017E0004A9F402DE22FE0534E0F97C12C3619F43B
:1017F000026015E092C104C0E53011F00C948D0D2B
:10180000E22FE33659F40E94FC120E9403130E9457
:10181000FC12A481AA930E940A137EC1E53411F040
:10182000E53609F404C0E63611F00C94610CFE01B3
:101830007696EE87FF870E9412130E94BE160E94C2
:1018400019130E941E13AD85AA2322F0AD89AB3275
:1018500049F017C00E9420130E9445140E941913DA
:10186000EDE2ED8B07FF05C0ED89EA930E940A13B4
:1018700008C0EE85FF853196EE87FF873197AD89E9
:10188000A08305FF46E0263661F40E9420130E94E3
:10189000D8164A93EB89FC89FA93EA930E94CD0DFE
:1018A0000BC00E9420130E94D8164A932A93EC89F9
:1018B000FD89FA93EA935FDEFE0176960E94251376
:1018C0001EC0E33739F40E941E130E942D130E949C
:1018D00025130EC0E037C1F40E941E130E942D1381
:1018E000EE87FF87FA93EA930E94EC101E2F0860A0
:1018F0000F77403011F0411708F001C0142F40E07D
:10190000E0E0EC8B30E06EC0E43611F0E93611F423
:10191000046002C0E537A1F4EAE0EC8B01FF08C0E7
:10192000E0E0FAEC6AE97BE30E946F121AE023C060
:10193000E0E1F7E260E070E00E946F1215E01BC08A
:10194000E83511F4086004C0E83711F00C948C0DF0
:10195000E0E1EC8B01FF08C0E0E0F0E060E070E166
:101960000E946F1218E007C0E0E0F0E160E070E074
:101970000E946F1214E0403011F00F7701C041E077
:1019800001FF08C00E941E130E94121314960E94A9
:10199000BE160FC002FF07C00E941E130E942D1327
:1019A0000E94231606C00E941E130E942D13662754
:1019B0007727EA87FB876C877D8702FF12C0AD859A
:1019C000AA2342F40E9420130E94F6150E941913C4
:1019D000EDE2ED8BED89E03019F01F5F4F5F01C044
:1019E0000B7F342F00FD14C0151710F4351708F0C5
:1019F0000FC007FF08C002FF04C00B7F2D891150E4
:101A000001C020E301C020E20E94F3125150ECCF4C
:101A1000141790F4006102FF06C00E94321309F00F
:101A2000515011504150E0E3EA930E940A135030A4
:101A300009F051504150ECCF312FEC89E030B9F42E
:101A40003030A1F003FF06C0EE85FF852591EE87BB
:101A5000FF8705C0AE85BF852D91AE87BF870E94E9
:101A6000F312503009F051503150EACF4BC00E9470
:101A700046130E945D162E2F2A3030F003FF02C05D
:101A8000295C01C0295A01C0205D04FD1FC021331B
:101A900050F40E948B12A130E0E0BE07E0E08E0718
:101AA000E0E09E0709F40BC0431740F4531710F011
:101AB00000FF01C010C020E207FF08C020E3006162
:101AC00002FF04C00E94321309F051500E94F31229
:101AD000503009F0515031500E9446130E949C161C
:101AE0000E941913EC890E948B12FF276627772723
:101AF0000E945D160E946F120E9486120E94F916C3
:101B000009F0B5CF00FF08C0503031F05150E0E28D
:101B1000EA930E940A13F8CF10E00CCEAE81BF8189
:101B20000E94BA160E940A17EF966F960895FF92C8
:101B3000F82E26970E9405170E944C13309719F42F
:101B4000EFEFFFEF25C0DE0116960E94EE158D0126
:101B50000E944C13EE83FF83E0E0E887E987DE0113
:101B60001A960E94EE150E94BA16FA93EA931A93F7
:101B70000A93E3E8FAE0FA93EA93FE013A96FA93BD
:101B8000EA93BDDD9F01AE81BF81E0E0EC93F901F6
:101B90000E940C172A96FF9008952497E0E0E883AE
:101BA000E983EA83EFE3EB831A930A93EB85FC85E1
:101BB000EF3FAFEFFA0749F4EE81FF81FA93EA9322
:101BC000E8EAF2E00E94BF12A8C0EF3FAFE7FA07D1
:101BD00049F4EE81FF81FA93EA93E9EAF2E00E9488
:101BE000BF129BC0AC85AA2362F4E985FA856B8598
:101BF0007C850E9445140E9453130E945813EDE205
:101C0000EC93A885A73010F0E6E0E8871885E12F6F
:101C10001150E03039F00E945F130E94AA120E9416
:101C20006413F5CF0E946B130E94EB140E945313B0
:101C300010E0E0E0F0E060E87FE30E9474130E94AF
:101C40006B130E94CE1540F00E945F130E94D712C2
:101C50000E9474131F5FF3CF103029F40E945813B1
:101C6000E0E3EC932DC0E12F1150E03049F10E94E8
:101C70005F130E94AA120E943B150E94DE120E946E
:101C8000D8160E941E100E9474130E946B130E94AB
:101C900089150E9478140E2F0E945813E02FE05DE2
:101CA000EC930E9404120E945F130E9448120E944B
:101CB0003B150E9479130E947E120E945313D3CFCA
:101CC000E885E03031F10E945813EEE2EC93E885AC
:101CD000E150E887EF5FE9F00E9479130E94D71284
:101CE0000E945313E985FA856B857C850E947814E0
:101CF0000E2F0E945813E02FE05DEC930E94041217
:101D00000E9479130E9448120E947E120E9453136F
:101D1000DECFAE81BF81E0E0EC93198108812D9682
:101D20000895FFE0FA95F1F70895A1B3AF70A1BB54
:101D3000919A9098F6DF929AF4DFA0B39298F1DF2F
:101D4000929AEFDF9298A7FDF5CF0895A07FAB2B75
:101D5000A2BB929A0E94910E92980E94910E0895B1
:101D60009198A1B3A76FA1BBB2B3BF70A881EEDFFA
:101D7000A881A295EBDF919A0C949B0F929A0E94F6
:101D8000910EE0B392980E94910EE07F08950E9418
:101D9000910EF4DFAE2FF2DF9198E295EA2B0895D1
:101DA0000E94950EE881F0E0EC5CFC4FE081A98197
:101DB000EA0FEA930E94B00E4980788058C00E94D2
:101DC000950EE2E0EA930E94B00E0E94950EECE0C0
:101DD000EA930E94B00E0E94950EE1E0EA930E9401
:101DE000B00EE0E07E2E4E2E0895EF93FF93A88173
:101DF0006894AA3019F0E894461430F07394E0E047
:101E0000EA937A92CDDF36F043948FDF909AA881DF
:101E1000AA93A6DFFF91EF910C949B0F1A9310E009
:101E2000A981A43110F0AB3708F003C0E981EA932F
:101E3000DCDFA981A03C10F0A03E38F0A981A03ED3
:101E400018F0EFEFEA1708F411C00E94DF11E85C08
:101E5000FC4FA081E981EA1711F01F5FF6CF0E94C5
:101E6000DF11E658FC4FE081EA93BFDF188122962C
:101E700008951A93A981BA81ED91A983BA831E2F7F
:101E8000E03019F01A93CADFF5CF18810C94ED0FEA
:101E90001A93E981FA813196E983FA833197E491C3
:101EA0001E2FE03019F01A93B9DFF3CF18810C948C
:101EB000ED0FAA27BB271197F1F708959198A1B3C9
:101EC000A76FA1BBB2B3BF70A8810E94A60E919A62
:101ED00032C0929890986880E881E058E093360389
:101EE000E881E054E09337030E947E130E947E1342
:101EF0000E947E13DEDFE0E2EA93E0DFDADFE8E271
:101F00000E948413E4E00E948413E5E80E94841395
:101F1000A1B3AF70A1BB919A0E94C70EE53011F03A
:101F2000E0E009C00E94950EE6E0EA930E94B00E40
:101F30000E94DF0EE1E021960895EA81E370EA83D2
:101F4000E981E03019F0EA81E061EA83E881E0307C
:101F500019F0EA81E068EA830E948913E7E00E94B1
:101F60008F1336C00E948913E0E00E949413A88169
:101F7000B9810E94A413AC81BD8117C00E9489134E
:101F8000E0E0EA930E940D14E8810E94B6130E94DB
:101F90008F131BC00E948913E4E00E949413AC814C
:101FA000BD810E94A413A881B981EC930E94E8131B
:101FB000269608950E948913E4E00E948F130E94E0
:101FC000B613EA930E940D14E881EA930E9403116C
:101FD000EA930E940D140E94E813239608957B81D2
:101FE0006A81F981E88177FB770F67FD7160972F30
:101FF0009E5781F078F0983190F4AA27BB27882764
:1020000008948795B795A7959A95D1F7EA23FB236E
:10201000682305C0E8947727EE27FF2766276F77A8
:10202000769508F4606877F9A991B99189919991A9
:10203000EA17FB076807790797FB08950E9490123B
:102040000E94D8160E94EF0F0E94831219F40E947A
:102050009012ABC0E6F70E9490120E94BE13A5C07A
:1020600024971A930A930E94C5130E94FD162CF020
:10207000EFEFFFEF6FE77FEF7FC00E94CA130E9470
:10208000D816EDB7FEB73197FA93EA931F930F93E3
:102090000E9432140F911F910E94CF130E94C5130A
:1020A000E3EFF4E065E37FE30E94CE1550F40E9475
:1020B000CA130E94C5130E94EB140E94CF13015053
:1020C00010400E94CA130E94BE137F936F93FF9328
:1020D000EF930E94CA13A0E0B0E080E89FE30E9463
:1020E000EB14AF91BF918F919F910E9489150E942F
:1020F000CF130E94CA130E94C5130E946413EA8181
:10210000FB816C817D81A6E2B2E485E69FE30E94BB
:102110003B15DF01CB01EEE4F1E164E570E40E94E0
:102120007E120E94C5130E943B157F936F93FF930D
:10213000EF93EA81FB816C817D81ADE4B1E184EDB7
:102140009FE30E94E414AF91BF918F919F910E94F1
:1021500089157F936F93FF93EF93F8010E944812C4
:10216000A8E1B2E781E39FE30E943B15AF91BF91E5
:102170008F919F910E94EB14198108812A960895EE
:102180000E94CE160E94FD162CF0EFEFFFEF6FE7D6
:102190007FEF0BC00E9490120E94D81661DFA9ED5C
:1021A000BBE58EED9EE30E943B1524960895E991D0
:1021B000F991A991B991CD0105900D920020E1F717
:1021C000FC010895A991B991EE27FF276D9166232F
:1021D00011F03196FBCF0895AA27BB27E991F99119
:1021E0000590002011F01196FBCFFD010895E881C4
:1021F000E295EF70AE2FAA0FAA0FEA0FEE0FA9918A
:10220000AF70EA0F0895A991EE27AA5012F0E05F8F
:10221000FCCFA65FEA0F089556B2E6E0F3E0FA932A
:10222000EA930895FA93EA93A22FB0E0EAE0F0E08F
:102230000E9458160E9423160E94D816A22FBB2770
:10224000EAE0F0E00E948E160E9423160E94D81643
:10225000A52FB0E0EAE0F0E00E9458160E94231695
:102260000E94D816A52FBB27EAE0F0E00E948E1648
:102270000E9423160E94D816A42FB0E0EAE0F0E0F6
:102280000E9458160E9423160E94D816A42FBB271E
:10229000EAE0F0E00E948E160E9423160E94D816F3
:1022A00088E10E94970D6C96E3E0EA93E0E0EA9300
:1022B0000E94D00EE6E0F3E0FA93EA930C94390F13
:1022C000E1E0EA930C94D00EEA0FFB1FFA93EA9335
:1022D0000E94390FE1E0EA930E941D02E030089568
:1022E000E12FF0E030970895ECE2F1E0FA93EA9301
:1022F0000C942614E2E0EA930E941D02E030089557
:10230000E0E0EA930E941D02E0300895E0E0EA93E5
:102310000E942402E0300895E5E1F1E0FA93EA93A7
:102320000C94480FE3E0EA930E941D02E030089508
:10233000E3E0EA930E942402E0300895E1E0EA93AA
:102340000E941D02E0300895EA930E942402E030CA
:102350000895F0E030970895E6E0F3E0FA93EA9309
:102360000895EE81FF81662777270E94D816089589
:10237000EFEDF0E060E070E00E94D8160895662767
:1023800077270E94D8160895E0E0EA93EA930E9426
:10239000D00EE2CF0E94390FE12FF0E008950F0137
:1023A000DE015996AE0FBF1FEC91EA93F001DE01FA
:1023B0005796AE0FBF1FEC91EA930C94D00EE12F0D
:1023C000F0E00895EAA5F0E0DE0116960E940F16EF
:1023D0000895AE0FBF1F0E94BA160895FA93EA93AC
:1023E0000C94480FA3E00A9FF001E251FD4F508189
:1023F0000A9FF001E151FD4F40810A9FF001E05139
:10240000FD4FE081EA870895E02FF0E00895B0E005
:10241000EAE0F0E00E9458160E9423160E94D816A7
:102420000895BB27EAE0F0E00E948E160E94231672
:102430000E94D8160895EE0FFF1FCBCFFA93EA93B0
:102440000E94390F7BCFEA93E0E0EA930C94D00E20
:10245000FA93EA930C948C03E0EDF7E0FA93EA9395
:102460000E9426140C94DF0E662777270E94B11471
:102470000895EBA1FCA16DA17EA10E94D81608953C
:10248000F0E0F595E7950895ECECEA930C94A80735
:102490000E9423160E94B114089583E08A95F1F7F3
:1024A000AA9A0895A12FB0E0E2E0F0E00E94581649
:1024B0001E2F0895AA9883E08A95F1F70895AA9AA5
:1024C00083E08A95F1F70895E1E0EA930C94DF0840
:1024D000EA930E94BA08F0E00E0F1F1F0895E88BE0
:1024E000F98B6A8B7B8B0895EC87FD876E877F87DE
:1024F0000895AC85BD858E859F8508950E94E2165E
:102500000E94E41408950E94D3160895E889F98979
:102510006A897B890895A889B9898A899B890895E0
:102520000E94C91608950E94EB14EC83FD836E830C
:102530007F830895AC81BD818E819F810895EC8356
:10254000FD836E837F830895F5DFEDECFCEC6CEC8E
:102550007DE30895EDECFCEC6CEC7DE30895EC81FB
:10256000FD816E817F810895EC85FD856E857F8577
:102570000895ED91FD913196FE93EE930895FA93AF
:10258000EA930C94D710D6DFE0E0F0E060E271E46B
:102590000E943B15D4CFE3DFACDF0E94CE15089537
:1025A000A8DFD8DF0E943B159FDF3F5F0895E0E082
:1025B000F0E060E271E40E943B150895A0E0B0E015
:1025C00080E09FE30E94EB140895A885B9851196D9
:1025D000A887B98711970895E885F9853196E88726
:1025E000F987319708952A93EF81F885FA93EA9352
:1025F000EB85FC8509950895FE01E65AFF4F019091
:10260000F081E02D08953497DE01A65ABF4FED9377
:10261000FC930895EF81F885FA93EA93EB85FC85A6
:1026200009950895DE01A65ABF4F0D90BC91A02DCB
:102630000895EA87FB876C877D870895DDDFE3CF08
:10264000EA85FB856C857D850895EE87FF87FA9383
:10265000EA930E94E2101E2F0895E4DF14960E9470
:10266000BA1608950B7FED89EA93FE01E95AFF4FF0
:102670000190F081E02DFA93EA93FE01E55AFF4FB5
:102680000190F081E02D0995503008953FDFAA8533
:10269000BB858C859D850895DE011C960E94EE15F4
:1026A0000E94BA160895E987FA876B877C87089598
:1026B000AE81BF811196AE83BF8311970895AA8121
:1026C000BB818C819D8108950E943B15EA83FB8329
:1026D0006C837D830895EA81FB816C817D81A9856E
:1026E000BA858B859C850895EA83FB836C837D8303
:1026F0000895A985BA858B859C8508950E94590FF8
:10270000E0E3EA930C945E0FEA930E94B00E0C94FF
:10271000590F0E94D913E0EDEA930C940D14EA933B
:102720000E940D14EA810895EA930E940D140E94FC
:10273000D913E1EDEA930E940D14E1E0EA930E94BF
:10274000F213EA930C94F710EC93E1E0EA930E9401
:10275000F213EA930E94F710AA81BB81EC93E0E0A8
:10276000EA930E94F213EA930C94F710EA934BDD7C
:10277000EA930E940D14E981EA9345CDA0E0B0E010
:1027800080E89FE30E94E4140895AE81BF818885AC
:1027900099850895EE81FF81688579850895EE8396
:1027A000FF83688779870895A898A998A09AA19827
:1027B00015C0A198A098EE270000999B0895989BBA
:1027C000089504D0A19A02D0A09AE1E06DE007C07C
:1027D000A19AA09A03D0A098F9DFA1986BE16A951D
:1027E000F1F7089578E0A098F1DF989BFECFEEDF37
:1027F000889499990894A09AF1DFEE1F7A9599F739
:102800007991772311F4A19801C0A19ADFDFA098F4
:10281000E5DFA09ADBDFA198D9CFE99178E0EE0F50
:1028200010F4A19801C0A19AD9DFA098CFDF989B9E
:10283000FECFCCDFA09A7A9591F7A198C7DFA09838
:10284000CDDFE1E09999EE27A09A0895E991F991F9
:10285000309639F080ED97E00197F1F7A895319720
:10286000C9F70895A991B991E991F991699179917F
:1028700077FB660F771F88277E57880B7D938C9395
:102880007EE7769567950EF008953097604070402A
:1028900009F070580895552342F4503811F4E0FFC0
:1028A00004C03196691F791F6BF050E8572711F467
:1028B0005F93CFC05F3F31F0660F000C579567956F
:1028C000752F08955F9300200AF0CFC0C8C050E86C
:1028D000192E1522880F991F9527550F879550E8B7
:1028E000072E0522660F771F7527550F67950895E8
:1028F000689401C0E8945F93F2DF703818F07F3F6E
:1029000008F4A7C056E1571BAAF4519558300EF4AD
:10291000593030F0EFEFFFEF6FEF7FE777F91AC034
:1029200077275523B9F0EE0FFF1F661F771F5A95C3
:10293000D1F710C07727583028F0EF2FF62F672FE8
:102940005850F9CF552331F076956795F795E7956F
:102950005A95D1F700200AF449D15F9108956894FF
:1029600001C0E894309760407040B1F0002426F038
:10297000772312F400943AD1172E7EE1112032F021
:102980007A95EE0FFF1F661F111CF9CFEF2FF62F60
:10299000612D5F938ADF5F9108954F93AF01FD0131
:1029A000DA01AB01BC01CA01402D012C142E4F915C
:1029B0000895EA0FFB1F681F0895E095F095609554
:1029C000EF5FFF4F6F4F08955F9381DF903871F194
:1029D00050E8152604C05F937ADF903839F17038DB
:1029E00021F1572F591B2BF112F4D7DFFACF5831B1
:1029F00018F0AA27BB278827583028F0AB2FB82F0C
:102A000088275850F9CF552329F08695B795A79573
:102A10005A95D9F7502D512572F0CBDF38F46795D0
:102A2000F795E795739513F420C0B7DF3EDF5F910C
:102A30000895D8F7FBCFEA1BFB0B680B51F010F49D
:102A40000094BBDF662392F3EE0FFF1F661F7A959B
:102A5000CBF7EE27FF27662777275F910895EFEFE3
:102A6000FFEF6FE77FEF5F910895EFEFFFEF6FE705
:102A70007FE75F9108955F932ADF703851F39038B4
:102A800041F301240894791F23F41CF300203AF346
:102A9000ECCF0F921F932F933F934F931127222731
:102AA0009927689FA0018F9F302D410D591F6B9F63
:102AB000300D411D591F8E9F27D0BF9F25D06A9F83
:102AC00023D0BE9F1DD0AF9F1BD0AE9F110D291FDD
:102AD000391F491F591FE32FF42F652F522F4F9194
:102AE0003F912F911F910F9066232AF0550FEE1FF3
:102AF000FF1F661F02C073954BF2CDDE5F910895F4
:102B0000100D211D391F02C0200D311D491F591FF5
:102B100008955F93DCDE703821F411200AF49FCF12
:102B2000A4CF903809F495CF01240894970B1BF497
:102B3000D4F30020F3CF792F1F932F933F934F931C
:102B400011241127222733274427552790E2AE1757
:102B5000BF078607410730F0AE1BBF0B860B410B4A
:102B6000089401C08894551F221F331F111CAA1FEF
:102B7000BB1F881F441F9A9551F7F901612D4F9192
:102B80003F912F911F91662332F0550FEE1FFF1FCB
:102B9000661F7A9543F27FDE5F91089599239AF03C
:102BA000772342F0971748F029F4AE17BF0786073E
:102BB00020F031F09894889408959894089408959A
:102BC0001894889408957723C2F7971798F3A9F774
:102BD000EA17FB07680788F399F3ECCF0024AF0DE1
:102BE000B01D0895F195E195F0400895F095609538
:102BF0007095E195FF4F6F4F7F4F0895EE230E2E96
:102C0000EA2F19F0EE0F0A94E9F70895EE230E2E3D
:102C1000FD0121F0F595E7950A94E1F70895EE0F8F
:102C2000FF1FEE0FFF1F0895F695E795F695E795C0
:102C3000F695E795F695E7950895FE2FFF0FFF0BA4
:102C40006F2F7F2F08956F2F660F660B762F0895D5
:102C50008B2F880F880B982F0895EE23E1E009F061
:102C6000EE270895002498E0AA0F001C0E1A10F415
:102C70000E0E01C0A1609A95B9F7EA2FA02D089514
:102C80005FD0F0DF0EF4E19508950024112490E167
:102C9000AA0FBB1F001C111C0E1A1F0A18F40E0EDF
:102CA0001F1E01C0A1609A9599F7FD01D0010895FA
:102CB00053D0EBDF0EF496DF08953F934F935F936D
:102CC000002411244427552730E2AA0FBB1F881F78
:102CD000991F001C111C441F551F0E1A1F0A460B7A
:102CE000570B28F40E0E1F1E461F571F01C0A16070
:102CF0003A9559F7FD01BC01D001CA015F914F918E
:102D00003F910895E894A7FF02C0A1956894E7FD5C
:102D1000E195A8DFEA2F0EF4E1950895E894B7FF56
:102D200004C0A095B09511966894F7FD5BDFADDF08
:102D3000FD010EF457DF0895C0DFFD01BC010895C9
:102D4000E894E7FF02C0E1956894A7FF04C0A1954D
:102D500000F8039400FA0895E894F7FF02C042DFF8
:102D60006894B7FF06C0A095B095119600F803943B
:102D700000FA0895ED91FC9111970895ED91FD9160
:102D80006D917C9113970895ED93FD936D937C93D2
:102D90000895E881F9816A817B810895A881B981CC
:102DA0008A819B810895E883F9836A837B830895F0
:102DB0007A936A93FA93EA930895689401C0E89429
:102DC00001D0D0DD182E862F612D192E972F712D51
:102DD0001B2EBF2FF12D1A2EAE2FE12D089599270E
:102DE000EF93FF9361916D930197E1F7FF91EF915D
:102DF0000895309760407040089500240A160B062D
:102E00000806090608955A934A933A932A931A9307
:102E10000A9308955D814C813B812A811981088143
:102E20000895AC0FBD1F05900D928A95E1F70895A6
:00000001FF
