:040000000C94240137
:100004000C9400000C9400000C9400000C9400006C
:100014000C9400000C9400000C9400000C9400005C
:100024000C9400000C9400020C9400000C9400004A
:100034000C9400000C9400000C9400000C9400003C
:100044000C9400000C9400000C9400000C9400002C
:100054000C9400000C9400000C9400000C9400001C
:100064000C9400000C9400000C9400000C9400000C
:100074000C9437020C9400000C9400000C940000C3
:100084000C9400000C940000FF0001009A99B14107
:100094000A00050005006D005E005E005E005E0063
:1000A4000708090B5E005E005E005E005E00070844
:1000B400090A0B005E005E005E00070809000000EC
:1000C400030301046E057F0590059B05A605B50590
:1000D40000000000003FCDCC4C3D0AD7A33B6F127B
:1000E400033A17B75138ACC5A736BD3706350000FB
:1000F4002575257525752E25750025752575257598
:10010400257525750020534554204678203C20331E
:100114003030487A200020534554204678203E2031
:10012400333030487A2000534156452053455455C6
:1001340050005341564520535045454400534554BF
:10014400205445535420535045454400544553547A
:1001540020524742002A2A2A2A2A204D454E552059
:100164002A2A2A2A2A00204670776D3D0053617698
:1001740065204F4B2100536176652073706565647B
:10018400204F4B21002044454C41593D0054657398
:1001940074696E672E2E2E2E776169742100524782
:1001A4004220535452495020544553544552002040
:1001B400202020202020202020202020202020005B
:1001C400252E3166487A2000252E3066487A200094
:1001D4005400256C642563530020522575252500A1
:1001E4002047257525250020422575252500010079
:1001F40004008C0001000B008E0004002D0590000B
:1002040002003905940001000A009600010051051E
:100214009800010052059A0011006E0509011100B1
:100224007F051A010B0090052B010B009B0536017D
:100234000F00A60541010900B505500102006C0537
:10024400F2000000F894EE27ECBBF1E0F5BFE5BF47
:10025400E0936C00F8E1F1BDE1BD8DE0A2E0BB27C5
:10026400ED938A95E9F780E090E1A0E0B1E0ED93A9
:100274000197E9F78BBFE2EFF1E085919591009743
:1002840061F0A591B59105901590BF01F00105901D
:100294000D920197E1F7FB01F0CFEFEFEDBFE0E145
:1002A400EEBFC0E0D5E00C940808AE9AE2E0F0E0BE
:1002B4000E94D10DAE980895E881E07111F0D89AAA
:1002C40001C0D898E881E07211F0D99A01C0D99898
:1002D400E881E07411F0DA9A01C0DA98E881E078F4
:1002E40011F0DB9A01C0DB980E94D50DE881E17022
:1002F40011F0D89A01C0D898E881E27011F0D99A27
:1003040001C0D998E881E47011F0DA9A01C0DA9852
:10031400E881E87011F0DB9A01C0DB980E94D50DEA
:10032400CAC0AD9AE881EA930E945E01C4C0AD9848
:10033400E881EA930E945E01BEC0AD98E1E0EA93D1
:100344000E945E010E94DA0D08951A9310E00E9443
:10035400DD0DE03039F00E94DD0DEA930E94930137
:100364001F5FF5CF18811BC01A9310E00E94E50DA2
:10037400E03039F00E94E50DEA930E9493011F5F7B
:10038400F5CF18810CC01A9310E8A981A13009F4A3
:1003940010ECEA81E10FEA930E94990118812396F7
:1003A4000895E9E1F0E00E94D10DAD980E94EC0DB2
:1003B4000E94EC0D0E94EC0DE8E2EA930E94990180
:1003C4000E94DA0DE1E0EA930E9499010E94DA0D9D
:1003D400ECE0EA930E949901089510B0E881A1E04D
:1003E4000E94C911E1210E94E11165C0E881A1E0E8
:1003F4000E94C911E4210E94E1115DC00A921A927F
:10040400FA926A937A938A939A93AA93BA93EA9301
:10041400FA93EFB7EA930E94F10D49F0ECE2F1E0B0
:100424006E167F0618F4F30131963F0102C066246C
:1004340077240E94F70D49F0ECE2F1E08E169F0656
:1004440018F4F40131964F0102C088249924E991EB
:10045400EFBFF991E991B991A99199918991799114
:100464006991F990199009901895EA93E0913205F1
:10047400E0938700E0913105E0938600E091340534
:10048400E0938500E0913305E0938400E091360524
:10049400E0938300E0913505E0938200E99118959B
:1004A400E881E7B98CE08A95F1F7369A349BFECF60
:1004B400349AE4B1F5B121960895BD9AE8ECF0E0E0
:1004C4000E94D10DBD98E8ECF0E00E94D10D089592
:1004D4002C978CE0A0E0B0E0ECE9F0E00E9473140B
:1004E4001A9310E0E9850E94FD0D0E94020E0E94FD
:1004F400080EA93BEBE0BE0710F00E940D0E0E940F
:10050400140E0E94190E0E94220E0E94270E0E94B1
:10051400220E0E94300EE8EEF3E00E94370E0E9495
:10052400440E0E94490E0E94440E0E94520EE4E6BC
:100534000E94590E0E94660E0E946F0E0E94660E63
:100544000E94740EEAE00E947B0EE0915E05F09139
:100554005F05E0936805F0936905E0915E05E0931B
:1005640056050E94880EE4EFF0E00E948E0E80E1B2
:100574000E948E0D6496E9850E94AD0E11F40C94D0
:1005840009030E94B90E21F00E94BF0E09F03FC07A
:100594000E94BF0E11F40E94C40EE12FE03061F4FA
:1005A400A0915305A23020F4E0915305EF5F01C000
:1005B400E0E0E09353052BC0E13061F4A0915405D1
:1005C400A93020F4E0915405EF5F01C0E0E0E0932E
:1005D40054051DC0E23069F40E94C70EE081E93081
:1005E40018F40E94CC0E04C00E94C70EA0E0A083A1
:1005F4000EC0E33061F40E94C70EE081E93018F4C4
:100604000E94CC0E04C00E94C70EA0E0A0830E94EA
:10061400F70D11F40C9454030E94D40E21F00E949F
:10062400DA0E09F03FC00E94DA0E11F40E94C40EE3
:10063400E12FE03061F4A0915305A13020F0E09166
:100644005305E15001C0E2E0E09353052BC0E130D3
:1006540061F4A0915405A13020F0E0915405E150DB
:1006640001C0E9E0E09354051DC0E23069F40E9442
:10067400C70EE081E13018F00E94DF0E04C00E9432
:10068400C70EA9E0A0830EC0E33061F40E94C70E38
:10069400E081E13018F00E94DF0E04C00E94C70E12
:1006A400A9E0A0830E94E70EB1F10E94ED0E99F536
:1006B400133031F5E09153050E94F30E0E94F90EB8
:1006C400E09154050E94FE0EE0915505AAE0EA9FD0
:1006D400F0010E94050FE0915605F0E00E94050F1D
:1006E4000E94080EA83BEBE0BE0710F00E940D0E1E
:1006F4000E94090F0E94110F0E94140E188112C04B
:100704000E94090F0E94110F1F5F0E94090F0E948F
:10071400150F0E94180F0E94220F19F040B0188183
:1007240001C01FCF2D9608952F978FE0A0E0B0E071
:10073400E8EAF0E00E9473141A9310E0EB850E943B
:10074400FD0D0E94020E0E94140E0E94190EE0E19B
:10075400F7E20E9407120E94270EE0E1F7E20E94EE
:1007640007120E94300EE0E1F7E20E94370E0E9469
:10077400220E0E94490E0E94220E0E94520EE8EEA2
:10078400F3E00E94E611A0915A05B0915B05AE1BFF
:10079400BF0BA0935C05B0935D050E94280F0E94D7
:1007A4006F0E0E94280F0E94740EE4E60E947B0ED6
:1007B4000E942D0FE0936805F09369050E942D0FA8
:1007C400E0935605A0916805B0916905EAE00E949E
:1007D400EE11A0915E05B0915F05AE1BBF0BA09317
:1007E4006005B0936105E0916005F0916105E093C7
:1007F4006A05F0936B05E0916005E09357050E944C
:10080400880EEEEFF0E00E948E0EE09157050E94F4
:10081400360F84E10E948E0D6896EB850E94AD0E22
:1008240011F40C9469040E94B90E21F00E94BF0EC9
:1008340009F04DC00E94BF0E11F40E94C40EE12FB6
:10084400E03061F4A0915305A23020F4E091530507
:10085400EF5F01C0E0E0E093530539C0E13061F49B
:10086400A0915405A93020F4E0915405EF5F01C034
:10087400E0E0E09354052BC0E23061F4A09155050B
:10088400A93020F4E0915505EF5F01C0E0E0E0936A
:1008940055051DC0E33069F40E94C70EE081E930BC
:1008A40018F40E94CC0E04C00E94C70EA0E0A083DE
:1008B4000EC0E43061F40E94C70EE081E93018F400
:1008C4000E94CC0E04C00E94C70EA0E0A0830E9428
:1008D400F70D11F40C94C0040E94D40E21F00E9470
:1008E400DA0E09F04BC00E94DA0E11F40E94C40E15
:1008F400E12FE03061F4A0915305A13020F0E091A4
:100904005305E15001C0E2E0E093530537C0E13004
:1009140061F4A0915405A13020F0E0915405E15018
:1009240001C0E9E0E093540529C0E23061F4A091EC
:100934005505A13020F0E0915505E15001C0E9E0F2
:10094400E09355051BC0E33061F4A0915605A13036
:1009540020F0E0915605E15001C0E9E0E09356052E
:100964000DC0E43059F4A0915705A13020F0E09176
:100974005705E15001C0E9E0E09357050E94E70EF6
:1009840011F40C9413050E94ED0E11F00C94130550
:100994001430C1F5E0915305F0E0A0E1B7E20E9404
:1009A400E611BF01E09154050E94F30EE60FF71F14
:1009B4000E94F90EE09155050E94FE0EE091560545
:1009C400AAE0EA9FF0010E94080EAE0FBF1FE0915B
:1009D4005705F0E0EA0FFB1F0E94F90E0E94080E73
:1009E400A033E5E7BE0720F0EFE2F5E70E94F90E39
:1009F4000E94150F0E943C0F0E94110F0E94140EBA
:100A0400188116C00E94150F0E943C0F0E94110FFE
:100A14001F5F0E94150F0E943C0F0E94150F0E9439
:100A2400180F0E94220F19F040B0188101C0E7CEC0
:100A340060960895299789E0A0E0B0E0E8EBF0E043
:100A44000E9473141A9310E0EF810E94FD0D0E941E
:100A5400020E0E94420FA83EE3E0BE0710F00E947F
:100A6400470F0E944E0F0E94190E0E94440E0E94CE
:100A7400270E0E94440E0E94300EE4E60E94EE11FE
:100A8400A0915805B0915905AE1BBF0BA0935A0510
:100A9400B0935B05EAE0F0E00E9407120E94490E61
:100AA400EAE0F0E00E9407120E94520EEAE00E947F
:100AB400590EE0915C05F0915D050E946F0EE09186
:100AC4005C05E09355050E94880EE2E0F1E0FA939C
:100AD400EA93E09153050E94360FE09154050E9479
:100AE400360FE09155050E94360F8CE00E948E0D62
:100AF4006096EF810E94AD0EB1F10E94B90E19F01B
:100B04000E94BF0E81F50E94BF0E11F40E94C40E14
:100B1400E12FE03061F4A0915305A93020F4E09175
:100B24005305EF5F01C0E0E0E09353051CC0E130E2
:100B340061F4A0915405A93020F4E0915405EF5FCD
:100B440001C0E0E0E09354050EC0E23061F40E947D
:100B5400C70EE081E93018F40E94CC0E04C00E9454
:100B6400C70EA0E0A0830E94F70DB1F10E94D40E3D
:100B740019F00E94DA0E81F50E94DA0E11F40E9437
:100B8400C40EE12FE03061F4A0915305A13020F0B0
:100B9400E0915305E15001C0E9E0E09353051CC026
:100BA400E13061F4A0915405A13020F0E0915405A6
:100BB400E15001C0E9E0E09354050EC0E23061F475
:100BC4000E94C70EE081E13018F00E94DF0E04C0DD
:100BD4000E94C70EA9E0A0830E94E70EC9F10E94FB
:100BE400ED0EB1F5123029F5E0915305A4E6EA9F24
:100BF400F0010E94530FE0915405AAE0EA9FF0012E
:100C04000E94580FE0915505F0E00E94580F0E9491
:100C1400420FA83EE3E0BE0710F00E94470F0E9477
:100C2400150F0E945C0F0E94110F0E944E0F188135
:100C340016C00E94150F0E945C0F0E94110F1F5FC7
:100C44000E94150F0E945C0F0E94150F0E94180F3E
:100C54000E94220F19F040B0188101C034CF2A96A7
:100C64000895D6010E94440E0E94620F0E94670FED
:100C7400E0913B05F0913C05309721F4E1E0F0E090
:100C84000E94670F0E946C0F27C0D6010E94440E79
:100C94000E94620F0E94750FE0913D05F0913E05A0
:100CA400309721F4E1E0F0E00E94750F0E947A0F82
:100CB40013C0D6010E94440E0E94620F0E94830F4B
:100CC400E0913F05F0914005309721F4E1E0F0E038
:100CD4000E94830F0E94880F229608950E94671431
:100CE40000E010E030E010E0143630F40E94150FFC
:100CF4000E94910F1F5FF8CF13E6113030F00E946D
:100D0400150F0E94910F1150F8CF00E0043620F423
:100D14000E94980F0F5FFACF03E6013020F00E9483
:100D2400980F0150FACF30E0343620F40E94A10F1E
:100D34003F5FFACF33E6313020F00E94A10F3150EB
:100D4400FACF30E0343660F40E94AA0F0E943306D2
:100D54000E94AA0F0E9447060E94A10F3F5FF2CF94
:100D640033E6313040F00E94AA0F0E9447060E94E9
:100D7400A10F3150F6CF30E0343620F40E94A10F99
:100D84003F5FFACF00E0043620F40E94980F0F5F13
:100D9400FACF13E6113030F00E94150F0E94910F24
:100DA4001150F8CF33E6323378F00E94AA0F0E9434
:100DB40047060E94AA0F0E945B061F5F0E94150F40
:100DC4000E94910F3150EFCF0E945F020E946E1477
:100DD400269608950E94AF0FE0E0F0E068EC72E41C
:100DE4000E943D1448F4E0E4BE2EEBE10E94B80FEB
:100DF40011F40E94DB0F08C0E1E0BE2EE9E10E947D
:100E0400B80F11F40E94DB0FE0913805E0938100E4
:100E1400E0913705E093800008950E94E20FA0E07E
:100E2400B0E00E9492120E945F0208950E944E0F49
:100E3400A4E0B0E00E949D120E945F0208956497AE
:100E440084E1A0E0B0E0E2ECF0E00E9473141A93B5
:100E54000A9300E010E040B00E94EB0FE9E5F1E0F6
:100E64000E94F00FDE011296A00FB11FEC910E94B8
:100E7400FD0DF801DE011896EE0FFF1FAE0FBF1F28
:100E84000E945B120E94F40F0E94F10DB1F00E94C7
:100E9400B90E19F00E94BF0E81F40E94BF0E11F426
:100EA4000E94C40E0530E0E01E071CF40F5F1F4FC4
:100EB40002C000E010E00E949F010E94F70DB1F013
:100EC4000E94D40E19F00E94DA0E81F40E94DA0E08
:100ED40011F40E94C40E0024001601061CF40150F3
:100EE400104002C005E010E00E949F010E94E70E3E
:100EF40011F40C94F6070E94ED0E11F00C94F60711
:100F0400F8013097A9F40E94F80FEAE6F1E00E9494
:100F1400F00F0E946A020E94FB0F0E94AF0F0E9412
:100F24000C100E94F8130E9411100E94EC065CC081
:100F3400E130A0E0FA0769F40E94F80FEAE6F1E074
:100F44000E94F00F0E9496030E94FB0F0E94EC0681
:100F54004BC0E230A0E0FA0799F40E940F070E9408
:100F64009F01E4E0EA93E0E0EA930E94C501E1E72F
:100F7400F1E00E94F00FE4E8F3E00E94D10D34C0E8
:100F8400E330A0E0FA0799F40E9418070E949F0139
:100F9400E2E0EA93E0E0EA930E94C501EAE7F1E0C7
:100FA4000E94F00FE4E8F3E00E94D10D1DC0E4308C
:100FB400A0E0FA0749F40E94F80FE9E8F1E00E9482
:100FC400F00F0E941C0510C0E530A0E0FA0761F4A0
:100FD4000E94F80FE1E9F1E00E94F00F0E944E0F29
:100FE400FA93EA930E9470060E94220F51F0E2E005
:100FF400EA930E94F801E03021F4E7B7EF7BE7BF02
:1010040001C029CF1981088166960895E0E0EBBB01
:10101400EABBE8BBE7BBE5BBE4BBE2BBE1BBE3B9CE
:10102400E8E3E2B9E0E0E0936200E0936100E0937A
:101034006500E0936400E0BFE3BFE2BFE1BFEFBD42
:10104400EEBDEDBDECBDE7BDE6BDEBBD0E941A10E3
:10105400E0937900E0E0E0937800E2E8EFBDE9E1B5
:10106400EEBDE0E0EDBDECBDE7E0E7BDEFECE6BDD5
:10107400E3E0EBBDEFEF0E941A10E4BDE0E0E3BD56
:10108400E3E0E5BDEAEAE0938B00E9E1E0938A005E
:10109400E0E0E0938900E0938800EFE8E0938100CA
:1010A400EFEBE0938000E0E0E0938700E0938600BC
:1010B400E0938500E0938400E0938300E093820052
:1010C400E0936A00EABFE9BFE7BFE4E0E0937D0094
:1010D400E0E8E8B9E0E0E0BDE0E6E4BBEFE0EABB6D
:1010E400D79ADF9AA79AAF988A9A929AE7B1E7B902
:1010F400E0E0E7B9E5E8E6B90E94D3010E94F80F01
:10110400E2EAF1E00E94F00F0E941F100E941F10FB
:10111400A0E0B0E00E947D120E941110A4E0B0E0B3
:101124000E9482120E94530F0E94EC06EEE1E093AB
:101134006200E0916100E17EE0936100789440B048
:10114400E3E0EA930E94EF015E2EE1E0E51561F42D
:101154000E949F01E7B7E064E7BF0E942107E7B759
:10116400EF7BE7BF0E949F010E94EB0FE3EBF1E0EE
:101174000E94F00F0E94EB0FE0918000F0E00E94CB
:10118400DC11E0932505F093260560932705709301
:101194002805E0918100F0E0EF7FFE2FE0E0DF0121
:1011A400E0918000F0E0EA2BFB2B6F010E94AF0F6F
:1011B4000E9422100E943D1409F010F40C94EC08D3
:1011C4000E94E20FA0E0B4E284E799E40E942710B1
:1011D400E5E709C00E94E20FA0E0B0E08AE794E4EA
:1011E4000E942710EDE6E09352050E94AF0FE0E065
:1011F400F0E066E973E40E943D1419F010F00C94D9
:1012040008090E943410E4ECF1E004C00E94341098
:10121400ECECF1E0FA93EA930E94E20F0E94391099
:101224000E944010E4EFF1E00E94D10DE4EDF1E002
:101234000E94F00F0E94AF0FA030E0E0BE07E8EC80
:101244008E07E2E49E0761F4E0E1F7E260E070E01B
:10125400E0932905F0932A0560932B0570932C05E0
:101264000E943410E6EDF1E0FA93EA93E091290547
:10127400F0912A0560912B0570912C050E946B1248
:10128400E09152050E94360F88E00E948E0D2C9644
:101294000E944010E0E00E94FD0DE3EBF1E00E94AB
:1012A400F00FAA240E944310E0934305F0934405F1
:1012B400E0E00E94FD0D0E943410EDEDF1E0FA93A0
:1012C400EA93E0914305F09144050E9496100E9430
:1012D4004010E5E0AE2E0E944310E0934105F093E8
:1012E40042050E943410E4EEF1E0FA93EA93E091AF
:1012F4004105F09142050E9496100E944010E6E0DC
:10130400AE2E0E944310E0934505F09346050E94DB
:101314003410EBEEF1E0FA93EA93E0914505F09195
:1013240046050E9496100E944010D6010E94440E69
:10133400A0914105B09142050E94E6110E94670FF9
:10134400E0913B05F0913C05309721F4E1E0F0E0B9
:101354000E94670F0E946C0FD6010E94440EA09158
:101364004305B09144050E94E6110E94750FE09177
:101374003D05F0913E05309721F4E1E0F0E00E9454
:10138400750F0E947A0FD6010E94440EA091450564
:10139400B09146050E94E6110E94830FE0913F053B
:1013A400F0914005309721F4E1E0F0E00E94830FD2
:1013B4000E94880FE7E0AE2EAA920E945202E093A8
:1013C4004705F0934805662777270E942213DF011B
:1013D400CB01E7E1F7EB61ED7DE30E94F813E093C5
:1013E4004905F0934A0560934B0570934C05A09111
:1013F4004905B0914A0580914B0590914C05E0E078
:10140400F0E06AE774E40E94F813E0934D05F0936A
:101414004E0560934F05709350050E941F100E9463
:101424001F108DCEFFCF5F9BFECFECB108955D9B67
:10143400FECFE881ECB9219608951A930A93AC8102
:10144400BD810E945B123097B9F0AA81BB810E94D2
:101454005B128F01309749F00230E0E01E0758F02C
:10146400F80131978F01ED93FC93AC81BD810E940B
:101474009910AE81A08304C0EE81EA930E94190AF8
:10148400198108812796089524971A930A93A885A9
:10149400A73010F0E6E0E887E885A6EDB0E0F0E0DC
:1014A4000E94D111EA0FFB1F0E9465120E94A01036
:1014B4000E945C130E94A51010E00E9422100E945A
:1014C400AA100E94AF100E943D1440F00E94B41074
:1014D4000E94AA130E94AA101F5FF3CF103029F4B0
:1014E4000E94B910E0E3EC9322C0E12F1150E030E8
:1014F400F1F00E94B4100E94C0100E94AA100E9431
:10150400AF100E94F8130E94EB120E2F0E94B91024
:101514000E94CC10AA81BB818C819D810E94D11034
:101524000E94AA130E94A0100E94D710DECFE88563
:10153400E03029F4AE81BF81E0E0EC9325C00E9445
:10154400B910EEE2EC93E885E150E887EF5FC1F073
:101554000E94A0100E94DC100E94A510E985FA8563
:101564006B857C850E94E9120E2F0E94B9100E949F
:10157400CC100E94A0100E94D1100E94D710E3CF7B
:10158400AE81BF81E0E0EC93198108812D96089526
:1015940024970E9467140E9422100E94E010AB85D9
:1015A400A73010F0E6E0EB871B85E12F1150E03007
:1015B40029F00E94E5100E94E010F7CF0E94EA1083
:1015C4000E945D1431F430E00E94E5100E94E010A6
:1015D40034C03B850E94EF1009F010F40C94FF0A0C
:1015E4000E94E5100E94E0100E94EF1028F00E9473
:1015F400FA100E94FF10F8CF0FC00E94EF1040F4C1
:101604000E94FA100E94DC100E9408113150F5CF9C
:101614000E94E5100E94E0100E94EA10A0E0B0E0F1
:1016240080E09FE30E945C130E9408110E94EF1067
:1016340020F00E94FA100E94FF1010E0EB85E117E1
:1016440090F1AC81BD818E819F810E940C100E941B
:10165400C0100E94E010EC81FD816E817F810E94A8
:10166400FA100E94F8130E94EB120E2F0E940D1123
:101674000E94CC100E94D110AC81BD818E819F81CB
:101684000E94AA130E94FA100E9470120E9455131D
:101694000E940811E12F1F5FE03081F60E940D11B6
:1016A400EEE2EC93CBCF0E941411AA85A0833030D4
:1016B4002CF40E940D11EDE2EC9331953A3054F084
:1016C4000E941411BF01A32FEAE00E940212E05D00
:1016D400DB01EC930E941411BF01A32FEAE00E94E6
:1016E4003F12E05DDB01EC93A885B985E0E0EC9363
:1016F4000E946E1460960895EF972F970E946514C8
:1017040010E0FE01EC5AFF4F0190F081E02DE88BD0
:10171400F98BDE01A65ABF4F0E949910E4912E2F37
:10172400E03011F40C94890DE12FE03039F42532C6
:1017340011F411E002C00E941B11E8C1E130C1F4B0
:10174400253219F40E941B11E0C112E0E0E0EB8B9A
:1017540000E02D3211F401E0D9C12B3219F4EBE28F
:10176400EB8BD4C1203219F4E0E2EB8BCFC102C081
:10177400E23039F450E013E0203311F40068C6C1BC
:1017840002C0E330A1F4203310F02A3308F009C07A
:10179400A52FEAE0EA9FF0015E2FE22FE0535E0FEF
:1017A400B5C140E02E3211F414E0B0C111C0E430F0
:1017B400A9F4203310F02A3308F00AC00062A42FE1
:1017C400EAE0EA9FF0014E2FE22FE0534E0F9EC154
:1017D4002C3619F4026015E099C104C0E53011F00B
:1017E4000C94880DE22FE33631F40E942A11E4812F
:1017F4000E9433118AC1E53411F0E53609F404C0BE
:10180400E63611F00C944E0CFE017496EA87FB87C1
:101814000E942A113496DF010E945F120E94421135
:10182400DF01CB010E94611424F0AB89AB3249F093
:1018340012C00E9447110E94B6120E944211EDE2AA
:10184400EB8B07FF04C0EB890E94331104C00E9494
:101854004C11AB89A08305FF46E0263661F40E9453
:1018640047110E946B124A93EF85F889FA93EA9321
:101874000E94460A0CC00E9447110E946B124A93B0
:101884002A93E889F989FA93EA930E94CA0AFE0125
:1018940074960E9453111EC0E33739F40E942A1132
:1018A4000E945B110E9453110EC0E037C1F40E94E4
:1018B4002A110E945B11EA87FB87FA93EA930E943C
:1018C400C60D1E2F08600F77403011F0411708F045
:1018D40001C0142F40E0E0E0EA8B30E06FC0E43652
:1018E40011F0E93611F4046002C0E537A1F4EAE02E
:1018F400EA8B01FF08C0E0E0FAEC6AE97BE30E94AE
:1019040008111AE023C0E0E1F7E260E070E00E9411
:10191400081115E01BC0E83511F4086004C0E8376D
:1019240011F00C94870DE0E1EA8B01FF08C0E0E0C0
:10193400F0E060E070E10E94081118E007C0E0E008
:10194400F0E160E070E00E94081114E0403011F012
:101954000F7701C041E001FF07C00E942A113496AD
:10196400DF010E945F120FC002FF07C00E942A110C
:101974000E945B110E94DC1106C00E942A110E9481
:101984005B1166277727EE83FF836887798702FFD9
:1019940014C00E9460110E94611444F40E94471113
:1019A4000E94C1110E944211EDE2EB8BEB89E03001
:1019B40019F01F5F4F5F01C00B7F342F00FD14C06F
:1019C400151710F4351708F00FC007FF08C002FF01
:1019D40004C00B7F2B89115001C020E301C020E219
:1019E4000E941B115150ECCF141788F4006102FFC0
:1019F40006C00E94651109F0515011504150E0E3B6
:101A04000E943311503009F051504150EDCF312F25
:101A1400EA89E03011F53030F9F003FF04C00E9488
:101A24004C11E49105C0AA85BB85ED91AA87BB87BB
:101A3400EA93FE01E95AFF4F0190F081E02DFA93F9
:101A4400EA93FE017396FA93EA930E941F0A5030B8
:101A540009F051503150DFCF4FC00E94EA100E946C
:101A640060110E941A122E2F2A3030F003FF02C098
:101A7400295C01C0295A01C0205D04FD1FC0213327
:101A840050F40E94FA10A130E0E0BE07E0E08E07B7
:101A9400E0E09E0709F40BC0431740F4531710F01D
:101AA40000FF01C010C020E207FF08C020E300616E
:101AB40002FF04C00E94651109F051500E941B11DD
:101AC400503009F0515031500E94EA100E946011C8
:101AD4000E944B120E944211EA890E94FA10FF27C9
:101AE400662777270E941A120E9408110E94EA10A2
:101AF4000E945D1409F0B1CF00FF07C0503029F0F7
:101B04005150E0E20E943311F9CF10E002CE0E945E
:101B14006C14EF966D960895FF92F82E22971A93FF
:101B24000A93DE010E94BD118D01DE0116960E940A
:101B3400BD110E945B12EA83FB83DE0114960E94AE
:101B4400BD110E945B12FA93EA931A930A93FE0161
:101B54003696FA93EA93E0E0F0E0FA93EA930E946F
:101B64007E0BAA81BB81E0E0EC9319810881249665
:101B7400FF900895A991B991EE27FF276D916623EF
:101B840011F03196FBCF0895AA27BB27E991F9916B
:101B94000590002011F01196FBCFFD010895FA93F2
:101BA400EA930C9479110E945701E5E0F0E0F7CF35
:101BB400E5E0F0E0F4CFE12FA981BA81F0E0EA0F8B
:101BC400FB1FE4910895A981BA81EE27A10FBE1FDE
:101BD400EC910895DB98DA98D99AD898E4CFE4E0A8
:101BE400EA930E94EF01E0300895E1E0EA930E9455
:101BF400EF01E0300895EA93E1E0EA930C94C50123
:101C0400FE013196FA93EA930C94B601A091000573
:101C1400B09101050895E7EBFBE0E0930005F09334
:101C240001050895E0910005F09101050895E09300
:101C34005805F0935905A0915805B0915905089598
:101C4400E8EEF3E00E9407120895E0936205F09332
:101C54006305A0915805B09159050895E093530583
:101C6400A0916205B091630508950E94E611A091C8
:101C74005805B0915905AE1BBF0BA0935A05B093FC
:101C84005B050895E4E6F0E00E9407120895E093EE
:101C94006405F0936505A0915A05B0915B0508951C
:101CA400E0935405A0916405B091650508950E94E0
:101CB400EE11A0915A05B0915B05AE1BBF0BA0932A
:101CC4005C05B0935D050895A0915C05B0915D0538
:101CD400EAE0F0E00E9407120895E0936605F093AD
:101CE40067050895E0935505A0916605B0916705D1
:101CF40008950E94EE11A0915C05B0915D05AE1BA4
:101D0400BF0BA0935E05B0935F05089540B0E4E077
:101D1400F5E0FA93EA930895FA93EA93E091530570
:101D2400FF27662777270E946B12E0915405FF274F
:101D3400662777270E946B12E0915505FF276627D7
:101D440077270E946B12E0915605FF2766277727B5
:101D54000E946B120895EA93E0E0EA930E94C501A1
:101D6400E4E0F5E0FA93EA930E94B60138CFE4E0A8
:101D7400EA930E94F801E0300895ECE2F1E0E61500
:101D8400F7050895E0E5F0E00ACFE12FF0E0ED5A21
:101D9400FA4F0895A12FB0E0AD5ABA4FEC91EF5F1E
:101DA400EC930895E1E0EA930E94F801E03008958D
:101DB400ECE2F1E0E815F9050895A12FB0E0AD5A81
:101DC400BA4FEC91E150EC930895E3E0EA930E945A
:101DD400EF01E0300895E3E0EA930E94F801E03077
:101DE4000895F0E0A8EEB3E00E94E6110895E093B0
:101DF4000005F09301050895A4E6EA9FF00106DFCB
:101E0400EA0FFB1FF4CF02DFEA0FFB1FF0CFE12F35
:101E1400F0E0DE011996AE0FBF1FEC91ECCEE0E2CC
:101E2400EA930C949301E12FF0E00895DE011196FA
:101E3400EE0FFF1FEA0FFB1FFA93EA930C94B6010F
:101E4400E2E0EA930E94EF01E0300895A0915C057E
:101E5400B0915D0517CFA0915E05B0915F05EAE0F2
:101E6400F0E00E9407120895FF27662777270E9453
:101E74006B120895DE011B96AE0FBF1FEC91BBCE13
:101E8400A0913905B0913A050895E7EEF3E0E093A7
:101E94003905F0933A050895E0913905F0913A0532
:101EA4000895E0933905F0933A050895E9DFEA0FC0
:101EB400FB1FF7CFDE011796AE0FBF1FEC919BCE31
:101EC400A881B9810E94E6110895E0933B05F0933F
:101ED4003C050895E0913B05E0933105E0913C0514
:101EE400E09332050895E0933D05F0933E0508958F
:101EF400E0913D05E0933305E0913E05E093340520
:101F04000895E0933F05F09340050895E0913F055F
:101F1400E0933505E0914005E09336050895FA9382
:101F2400EA930E943306EC81FD8139CEE02FF0E084
:101F3400FA93EA930E944706EC81FD8130CEE32FA9
:101F4400F0E0FA93EA930E945B06EC81FD8127CED0
:101F5400E32FF0E0FA93EA930895A0912D05B09150
:101F64002E0580912F05909130050895E0938A0005
:101F7400EB2DF3DFFF27662777270E9422130E94A9
:101F8400AA13A0E0BCE980E69AE40E94F813DF01FA
:101F9400CB01E0E0F0E060E87FE30E9470120E9471
:101FA40055130E94E912E0933705F09338053097F2
:101FB4000895E1E0F0E0E0933705F09338050895E3
:101FC400E0912D05F0912E0560912F05709130055B
:101FD4000895E0E0EA93EA930C94C501FA93EA9336
:101FE4000C94A701FA93EA930C94B6010E949F0102
:101FF400F0CFE0930205F0930305662777270E944C
:102004002213E0932D05F0932E0560932F05709312
:1020140030050895E0E0F0E060E271E40895E093B3
:102024002D05F0932E0560932F05709330050895C8
:10203400EABDE0E0E9BDE8BD0895ECEBF2E0AFCD28
:10204400E0E0F0E060E87FE308950E94F8130E9466
:10205400E912E0932905F0932A0560932B05709308
:102064002C050895E4E0F5E0FA93EA9308950E94BC
:102074006B1284E00E948E0D28960895E4E0F5E04A
:10208400B1CFAA920E945202E0934705F09348050B
:10209400662777270E942213DF01CB01E7E1F7EBE4
:1020A40061ED7DE30E94F813E0934905F0934A053E
:1020B40060934B0570934C05A0914905B0914A0576
:1020C40080914B0590914C05E0E0F0E06AE774E400
:1020D4000E94F813E0934D05F0934E0560934F056D
:1020E40070935005A0914D05B0914E0580914F0518
:1020F40090915005E0E0F0E060E070E40E94F81395
:10210400DF01CB01E0915105FF27662777270E9465
:1021140022130E94F813A0E0B0E088EC92E40E943D
:10212400AA130E94EB12089566277727A0CFED919A
:10213400FD913196FE93EE9331970895A985BA8562
:102144008B859C850895E987FA876B877C8708953A
:10215400EA83FB836C837D830895EA81FB816C8130
:102164007D81ECCFAA81BB818C819D8153CFAE81CF
:10217400BF811196AE83BF83119708950E94F8130F
:10218400A0E0B0E080E09FE30E945C130E946B1229
:102194000C94B411E02FE05DEC93E02F0895FF2739
:1021A400662777270E94221308950E9470120E94C6
:1021B4005513C9CF2FDF0E94AA130895EC83FD8322
:1021C4006E837F830895AC81BD818E819F81F2CF20
:1021D400EC85FD856E857F850895EC81FD816E819A
:1021E4007F81AC85BD858E859F850E943D140895B1
:1021F400AC85BD858E859F8508950CDF0E94F813FC
:10220400EC87FD876E877F873F5F0895EC87FD87A6
:102214006E877F870895A885B9851196A887B987A1
:1022240011970895E885F9853196E887F9873197FC
:1022340008952A93FE01E95AFF4F0190F081E02DA1
:10224400FA93EA93FE017396FA93EA930C941F0AA5
:10225400DE01A85ABF4FED91FD913497FE93EE93A2
:102264000895EA93FE01E95AFF4F0190F081E02DB1
:10227400FA93EA93FE017396FA93EA930C941F0A75
:10228400EE83FF83688779870895EE81FF816885EF
:1022940079850895EA85FB853196EA87FB8731972E
:1022A4000895EA87FB87FA93EA930E94BC0D1E2FD8
:1022B40008953496DF010E945B120895AE81BF81B8
:1022C4008885998508950B7FEB89EA93FE01E95A85
:1022D400FF4F0190F081E02DFA93EA93FE01E95A51
:1022E400FF4FFA93EA930E941F0A50300895E99130
:1022F400F991309639F088E993E00197F1F7A895C0
:102304003197C9F708957B816A81F981E88177FB68
:10231400770F67FD7160972F9E5781F078F09831A1
:1023240090F4AA27BB27882708948795B795A79583
:102334009A95D1F7EA23FB23682305C0E89477270D
:10234400EE27FF2766276F77769508F4606877F99C
:10235400A991B99189919991EA17FB0768077907BF
:1023640097FB0895D0DF09F40895F6F79FEBAA27A9
:10237400BB2780E89FC10024AF0DB01D0895F095E0
:1023840060957095E195FF4F6F4F7F4F0895EE2351
:102394000E2EEA2F19F0EE0F0A94E9F70895EE0FC6
:1023A400FF1FEE0FFF1F0895FE2FFF0FFF0B6F2F70
:1023B4007F2F08956F2F660F660B762F0895EE23F7
:1023C400E1E009F0EE270895FA9FF02DEB9FF00D60
:1023D400EA9FE02DF10D08956E2F6A9FF0016B9F27
:1023E400F00D0895002498E0AA0F001C0E1A10F4B2
:1023F4000E0E01C0A1609A95B9F7EA2FA02D089599
:102404004CD0F0DF0EF4E19508950024112490E1FE
:10241400AA0FBB1F001C111C0E1A1F0A18F40E0E63
:102424001F1E01C0A1609A9599F7FD01D00108957E
:102434003F934F935F93002411244427552730E2A0
:10244400AA0FBB1F881F991F001C111C441F551F76
:102454000E1A1F0A460B570B28F40E0E1F1E461F9A
:10246400571F01C0A1603A9559F7FD01BC01D00185
:10247400CA015F914F913F910895E894A7FF02C06C
:10248400A1956894E7FDE195ADDFEA2F0EF4E1959F
:102494000895CEDFFD01BC010895E894E7FF02C072
:1024A400E1956894A7FF04C0A19500F8039400FA8D
:1024B4000895ED91FC9111970895ED91FD916D9121
:1024C4007C91139708950590159065917491F0018E
:1024D40008957A936A93FA93EA930895182E862FAF
:1024E400612D192E972F712D1B2EBF2FF12D1A2E12
:1024F400AE2FE12D0895129603D07F2F6E2F1297E1
:10250400119602D0FE2F1197E199FECFFF93FFB7EA
:10251400F894AEBBBFBBE09AEDB3FFBFFF91089543
:102524000AD012960E2E1F2EE62FF72F04D0E02D80
:10253400F12D1297089507D01196EF93EF2F03D042
:10254400EF9111970895E19B02C0A895FCCF9FB726
:10255400F894AEBBBFBBE09A8DB3E81719F0EDBB9E
:10256400E29AE19A9FBF089530976040704009F065
:1025740070580895552342F4503811F4E0FF04C014
:102584003196691F791F6BF050E8572711F45F9358
:10259400CDC05F3F31F0660F000C57956795752FDE
:1025A40008955F9300200AF0CDC0C6C050E8192EEC
:1025B4001522880F991F9527550F879550E8072EE8
:1025C4000522660F771F7527550F67950895689440
:1025D40001C0E8945F93F2DF703818F07F3F08F48D
:1025E400A5C056E1571BAAF4519558300EF4593042
:1025F40030F0EFEFFFEF6FEF7FE777F91AC077273F
:102604005523B9F0EE0FFF1F661F771F5A95D1F7B8
:1026140010C07727583028F0EF2FF62F672F585027
:10262400F9CF552331F076956795F795E7955A9547
:10263400D1F700200AF4A3DE5F910895689401C0E5
:10264400E894309760407040B1F0002426F077237E
:1026540012F4009494DE172E7EE1112032F07A9564
:10266400EE0FFF1F661F111CF9CFEF2FF62F612D00
:102674005F938ADF5F9108954F93AF01FD01DA0103
:10268400AB01BC01CA01402D012C142E4F910895B9
:10269400EA0FFB1F681F0895E095F0956095EF5FC2
:1026A400FF4F6F4F08955F9381DF903871F150E8C9
:1026B400152604C05F937ADF903839F1703821F120
:1026C400572F591B13F112F4D7DFFACF583118F0F2
:1026D400AA27BB278827583028F0AB2FB82F882784
:1026E4005850F9CF552329F08695B795A7955A9553
:1026F400D9F7502D512562F0CBDF38F46795F79563
:10270400E795739513F41EC0B7DF3EDF5F9108951C
:10271400EA1BFB0B680B51F010F40094BDDF662339
:10272400A2F3EE0FFF1F661F7A95CBF7EE27FF2764
:10273400662777275F910895EFEFFFEF6FE77FEF4D
:102744005F910895EFEFFFEF6FE77FE75F910895E3
:102754005F932CDF703851F3903841F301240894CF
:10276400791F23F41CF300203AF3ECCF0F921F934C
:102774002F933F934F93112722279927689FA001F6
:102784008F9F302D410D591F6B9F300D411D591FD7
:102794008E9F27D0BF9F25D06A9F23D0BE9F1DD078
:1027A400AF9F1BD0AE9F110D291F391F491F591F01
:1027B400E32FF42F652F522F4F913F912F911F91AB
:1027C4000F9066232AF0550FEE1FFF1F661F02C0ED
:1027D40073954BF2CFDE5F910895100D211D391FC3
:1027E40002C0200D311D491F591F08955F93DEDE7D
:1027F400703821F411200AF49FCFA4CF903809F443
:1028040095CF01240894970B1BF4D4F30020F3CF45
:10281400792F1F932F933F934F931124112722272E
:1028240033274427552790E2AE17BF078607410791
:1028340030F0AE1BBF0B860B410B089401C088948B
:10284400551F221F331F111CAA1FBB1F881F441FA3
:102854009A9551F7F901612D4F913F912F911F9155
:10286400662332F0550FEE1FFF1F661F7A9543F261
:1028740081DE5F91089599239AF0772342F09717A8
:1028840048F029F4AE17BF07860720F031F098947A
:1028940088940895989408940895189488940895B1
:1028A4007723C2F7971798F3A9F7EA17FB07680786
:1028B40088F399F3ECCF30976040704008951097F7
:1028C4008040904008955A934A933A932A931A93D6
:1028D4000A9308955D814C813B812A811981088185
:1028E4000895AC0FBD1F05900D928A95E1F70895E8
:00000001FF
